:020000040800F2
:1000000000500020494B000875470008774700085A
:10001000794700087B4700087D4700080000000082
:100020000000000000000000000000007F47000802
:10003000814700080000000083470008854700084A
:10004000914B0008914B0008914B0008914B000820
:10005000914B0008914B0008914B0008914B000810
:10006000914B0008914B0008914B0008914B000800
:1000700089470008914B000895470008914B0008FC
:10008000914B0008A1470008914B0008B9470008B0
:10009000AD470008914B0008914B0008914B0008B8
:1000A000914B0008914B0008914B0008914B0008C0
:1000B000914B0008914B0008914B0008914B0008B0
:1000C000914B0008914B0008914B0008914B0008A0
:1000D000914B0008BD470008C9470008D5470008F4
:1000E000914B0008914B0008914B00080000000064
:1000F0000000000000000000000000000000000000
:0C01000000000000000000005FF808F1A3
:10010C0010B5054C237833B9044B13B10448AFF345
:10011C0000800123237010BD10000020000000009F
:10012C00344C000808B5034B1BB103490348AFF32B
:10013C00008008BD0000000014000020344C0008B2
:10014C00034613F8012B002AFBD1181A013870470B
:10015C0080F0004002E000BF81F0004142001FBF70
:10016C005FEA410392EA030F7FEA226C7FEA236C79
:10017C006AD04FEA1262D2EB1363C1BFD21841406E
:10018C0048404140B8BF5B42192B88BF704710F004
:10019C00004F40F4000020F07F4018BF404211F0A7
:1001AC00004F41F4000121F07F4118BF494292EA0F
:1001BC00030F3FD0A2F1010241FA03FC10EB0C003B
:1001CC00C3F1200301FA03F100F0004302D54942C8
:1001DC0060EB4000B0F5000F13D3B0F1807F06D375
:1001EC0040084FEA310102F10102FE2A51D2B1F16D
:1001FC00004F40EBC25008BF20F0010040EA030062
:10020C007047490040EB000010F4000FA2F101020E
:10021C00EDD1B0FA80FCACF1080CB2EB0C0200FA98
:10022C000CF0AABF00EBC25052421843BCBFD040E6
:10023C001843704792F0000F81F4000106BF80F460
:10024C0000000132013BB5E74FEA41037FEA226C23
:10025C0018BF7FEA236C21D092EA030F04D092F0EE
:10026C00000F08BF0846704790EA010F1CBF002022
:10027C00704712F07F4F04D1400028BF40F000407F
:10028C00704712F100723CBF00F50000704700F09F
:10029C00004343F0FE4040F4000070477FEA2262C6
:1002AC0016BF08467FEA23630146420206BF5FEA97
:1002BC00412390EA010F40F4800070474FF0000397
:1002CC0004E000BF10F0004348BF40425FEA000C5E
:1002DC0008BF704743F0964301464FF000001CE006
:1002EC0050EA010208BF70474FF000030AE000BF5C
:1002FC0050EA010208BF704711F0004302D540429A
:10030C0061EB41015FEA010C02BF8446014600200B
:10031C0043F0B64308BFA3F18053A3F50003BCFA26
:10032C008CF2083AA3EBC25310DB01FA02FC6344D3
:10033C0000FA02FCC2F12002BCF1004F20FA02F2DA
:10034C0043EB020008BF20F00100704702F12002CD
:10035C0001FA02FCC2F1200250EA4C0021FA02F22E
:10036C0043EB020008BF20EADC7070474FF0FF0C33
:10037C001CEAD0521EBF1CEAD15392EA0C0F93EA2E
:10038C000C0F6FD01A4480EA010C400218BF5FEAD0
:10039C0041211ED04FF0006343EA501043EA511143
:1003AC00A0FB01310CF00040B1F5000F3EBF49003D
:1003BC0041EAD3715B0040EA010062F17F02FD2A41
:1003CC001DD8B3F1004F40EBC25008BF20F0010024
:1003DC00704790F0000F0CF0004C08BF49024CEA3B
:1003EC00502040EA51207F3AC2BFD2F1FF0340EACD
:1003FC00C250704740F400004FF00003013A5DDC3E
:10040C0012F1190FDCBF00F000407047C2F100027E
:10041C00410021FA02F1C2F1200200FA02FC5FEA6B
:10042C00310040F1000053EA4C0308BF20EADC70B5
:10043C00704792F0000F00F0004C02BF400010F427
:10044C00000F013AF9D040EA0C0093F0000F01F0D4
:10045C00004C02BF490011F4000F013BF9D041EAF6
:10046C000C018FE70CEAD15392EA0C0F18BF93EAF8
:10047C000C0F0AD030F0004C18BF31F0004CD8D122
:10048C0080EA010000F00040704790F0000F17BFA9
:10049C0090F0004F084691F0000F91F0004F14D0EF
:1004AC0092EA0C0F01D142020FD193EA0C0F03D147
:1004BC004B0218BF084608D180EA010000F000404A
:1004CC0040F0FE4040F40000704740F0FE4040F425
:1004DC00400070474FF0FF0C1CEAD0521EBF1CEAC4
:1004EC00D15392EA0C0F93EA0C0F69D0A2EB0302E2
:1004FC0080EA010C49024FEA402037D04FF080537C
:10050C0043EA111143EA10130CF000408B4238BF40
:10051C005B0042F17D024FF4000C8B4224BF5B1A4E
:10052C0040EA0C00B3EB510F24BFA3EB510340EA9C
:10053C005C00B3EB910F24BFA3EB910340EA9C004A
:10054C00B3EBD10F24BFA3EBD10340EADC001B01BA
:10055C0018BF5FEA1C1CE0D1FD2A3FF650AF8B425E
:10056C0040EBC25008BF20F0010070470CF0004C6B
:10057C004CEA50207F32C2BFD2F1FF0340EAC25096
:10058C00704740F400004FF00003013A37E792F057
:10059C00000F00F0004C02BF400010F4000F013AB5
:1005AC00F9D040EA0C0093F0000F01F0004C02BFB0
:1005BC00490011F4000F013BF9D041EA0C0195E719
:1005CC000CEAD15392EA0C0F08D142027FF47DAFB2
:1005DC0093EA0C0F7FF470AF084676E793EA0C0FA2
:1005EC0004D14B023FF44CAF08466EE730F0004CA0
:1005FC0018BF31F0004CCAD130F000427FF45CAF30
:10060C0031F000437FF43CAF5FE700BF4FF0FF3C9D
:10061C0006E000BF4FF0010C02E000BF4FF0010CF0
:10062C004DF804CD4FEA40024FEA41037FEA226CB9
:10063C0018BF7FEA236C11D001B052EA530C18BFDB
:10064C0090EA010F58BFB2EB030088BFC81738BF40
:10065C006FEAE17018BF40F0010070477FEA226C2E
:10066C0002D15FEA402C05D17FEA236CE4D15FEA2A
:10067C00412CE1D05DF8040B704700BF844608465E
:10068C006146FFE70FB5FFF7C9FF002848BF10F11F
:10069C00000F0FBD4DF808EDFFF7F4FF0CBF012064
:1006AC0000205DF808FB00BF4DF808EDFFF7EAFFEE
:1006BC0034BF012000205DF808FB00BF4DF808EDA9
:1006CC00FFF7E0FF94BF012000205DF808FB00BF9E
:1006DC004DF808EDFFF7D2FF94BF012000205DF824
:1006EC0008FB00BF4DF808EDFFF7C8FF34BF012031
:1006FC0000205DF808FB00BF42000ED2B2F1FE4FA5
:10070C000BD34FF09E03B3EB126209D44FEA0023D4
:10071C0043F0004323FA02F070474FF0000070479B
:10072C0012F1610F01D1420202D14FF0FF3070473C
:10073C004FF00000704700BF38B50E4B05461878D7
:10074C004FF47A73B3FBF0F30B4A1068B0FBF3F081
:10075C0000F0FEFB044658B90F2D09D80246294675
:10076C004FF0FF3000F0A6FB044B20461D6038BD57
:10077C00012038BD000000200800002004000020EB
:10078C00074A08B51368032043F01003136000F008
:10079C007FFB0020FFF7D0FF03F0C4FF002008BD53
:1007AC0000200240034A044B11681B780B44136071
:1007BC00704700BF7C00002000000020014B18682F
:1007CC00704700BF7C00002038B50446FFF7F6FFE9
:1007DC000546631C1EBF044B1B78E418FFF7EEFFA5
:1007EC00401B8442FAD838BD0000002038B50446BE
:1007FC0000286ED090F820300BB903F04DFA226827
:10080C00136823F002031360FFF7D8FF0546236833
:10081C005A68910751D41A6842F001021A60FFF726
:10082C00CDFF054623685A68D20754D5227E002096
:10083C00012A1A680CBF42F0800222F080021A6072
:10084C00627E012A1A680CBF42F0400222F040027C
:10085C001A60A27E012A1A680CBF42F0200222F014
:10086C0020021A60E27E012A1A680CBF22F01002E4
:10087C0042F010021A60227F012A1A680CBF42F063
:10088C00080222F008021A60627F012A1A680CBF63
:10089C0042F0040222F004021A60E168A2680A43E2
:1008AC0021690A4361690A43616801390A43DA61C3
:1008BC000123606284F8203038BDFFF77FFF401BB6
:1008CC000A28A4D9636A43F400336362052384F8CD
:1008DC002030012038BDFFF771FF401B0A28A1D939
:1008EC00F0E790F8203070B5013B012B5FD8012464
:1008FC0003684869D3F8002242F00102C3F80022D1
:10090C0000F01F0204FA02F2D443D3F81C52254023
:10091C00C3F81C52CD6985BBD3F80C52CE68254068
:10092C00C3F80C528D8803EBC00045EA0645C0F8AD
:10093C0040528E680D8845EA0645C0F844528869D5
:10094C0068BBD3F804022040C3F80402086950BB0A
:10095C00D3F814022040C3F81402096A00200129BC
:10096C0002BFD3F81C120A43C3F81C22D3F800228E
:10097C0022F00102C3F8002270BD012DDFD1D3F8A3
:10098C000C520E681543C3F80C528D8803EBC00053
:10099C0045EA0645C0F840528E688D89CBE7D3F8FE
:1009AC0004021043D0E7D3F814021043D3E7436A90
:1009BC0043F480234362012070BD38B590F8203099
:1009CC000446012B1FD10223026880F820301368E3
:1009DC0023F001031360FFF7F1FE05462368586806
:1009EC0010F0010001D1606238BDFFF7E7FE401B3B
:1009FC000A28F3D9636A43F400336362052384F84D
:100A0C002030012038BD436A43F400234362F8E7E9
:100A1C0038B590F820300446022B22D102681368B6
:100A2C0043F001031360FFF7C9FE054623685A68BB
:100A3C00D20708D51A68002022F002021A6001239E
:100A4C0084F8203038BDFFF7B9FE401B0A28EDD9D9
:100A5C00636A43F400336362052384F82030012079
:100A6C0038BD436A43F480134362F8E710B504467B
:100A7C0070B1FFF7CDFF204603F062F90020226829
:100A8C00136843F400431360606284F8200010BDC7
:100A9C00012010BDF0B590F820500668013D012DE5
:100AAC00B46841D814F0E05F3AD0C4F30164032C6D
:100ABC004FF0010505D1436A43F400034362012062
:100ACC00F0BDA5401D608868CF6804F1180310BB09
:100ADC00086847EA40501B01F05008692401097D61
:100AEC003319C3F88401012908BFD3F884113444A5
:100AFC0004BF41F48071C3F8841151680020C4F81C
:100B0C008C111268C4F88821D3F8802142F00102BC
:100B1C00C3F88021F0BD4D68384340EAC500DAE7E0
:100B2C00436A43F40013C9E7436A43F48023C5E7DF
:100B3C00F0B590F82040013C012C6BD8066841B907
:100B4C00F468A40707D1436A43F4001343620120FD
:100B5C00F0BD3469F5E70C013519D5F8B07107F023
:100B6C0004079760002F4BD1D5F8B0717F0D17603B
:100B7C00D5F8B0712644C7F34007D760D5F8B471E7
:100B8C0007F00F071761D5F8B471D5F8B451C7F356
:100B9C0007272D0C97615561D6F8B8211A70026899
:100BAC002244D2F8B821120A5A7002682244D2F8B0
:100BBC00B821120C9A7002682244D2F8B821120E95
:100BCC00DA7002682244D2F8BC211A7102682244FD
:100BDC00D2F8BC21120A5A7102682244D2F8BC2104
:100BEC00120C9A7102681444D4F8BC21120EDA71FA
:100BFC00036851B9DA6842F02002DA600020F0BDD7
:100C0C00D5F8B071FF085760B2E71A6942F02002BC
:100C1C001A61F3E7436A43F4802397E790F8203096
:100C2C00013B012B05D8026800205369194351611F
:100C3C007047436A43F48023436201207047704736
:100C4C007047704770477047704770472DE9F84FF1
:100C5C00036805465E69D3F8049016F001049F689A
:100C6C00D3F80CB0D3F810A0D3F8188022D017F01A
:100C7C00010407D00122B9079A6040F1A38001F06A
:100C8C00A1FF0024FB0509D54FF480722B68B80531
:100C9C009A6040F1A580284601F095FFFB0309D529
:100CAC004FF480322B68B8039A6040F1A780284635
:100CBC0001F08AFF330707D51BF0100F1FBF10225E
:100CCC002B6844F40074DA60770708D51BF0080F22
:100CDC0005D008222B682846DA60FFF7B3FFB0076F
:100CEC0006D52B68DB68990702D0284603F084FAF6
:100CFC00720607D51AF0100F1FBF10222B6844F490
:100D0C0080641A61B30608D51AF0080F05D00822C2
:100D1C002B6828461A61FFF796FFF70606D52B6855
:100D2C001B69980702D0284603F03EFAB10308D598
:100D3C0019F0100F05D010222B6828465A60FFF7C7
:100D4C0083FFF20308D519F0080F05D008222B6891
:100D5C0028465A60FFF779FF33042AD519F0040F9F
:100D6C002A6824D0F70504D518F0010F18BF44F0F9
:100D7C000104B00504D518F0020F18BF44F00204AA
:100D8C00710504D518F0040F18BF44F004043305A2
:100D9C000DD518F070030AD0302B4CD03CD8102B4A
:100DAC0043D0202B44D0936923F070039361042328
:100DBC0053602CB16B6A28461C436C6201F006FF31
:100DCC00BDE8F88F7A0705D417F0080405D1FFF7B2
:100DDC0036FF57E74FF4006454E74FF4805451E763
:100DEC00790502D544F4005458E73A0502D544F489
:100DFC00804453E72846FFF723FF4FE7790302D5DA
:100E0C0044F4004456E73A0302D544F4803451E7E5
:100E1C002846FFF716FF4DE7502B0FD0602B10D054
:100E2C00402BC0D144F04004BDE744F00804BAE7BD
:100E3C0044F01004B7E744F02004B4E744F0800415
:100E4C00B1E744F48074AEE790F82030DBB25A1E60
:100E5C00012A08D802685168890706D4126812F072
:100E6C00020F18BF0323184670470423FBE7406AA0
:100E7C00704790F82030013B012B95BF0023436A4B
:100E8C00436243F4802392BF1846436201207047AB
:100E9C00074A0002D36800F4E06023F4E0631B040B
:100EAC001B0C43F0BF6343F400330343D360704720
:100EBC0000ED00E0174B30B5DC68C4F30224C4F13C
:100ECC000703251D042B28BF0423062D4FF0010515
:100EDC0098BF002405FA03F303F1FF3388BF033CEA
:100EEC001940A14005FA04F4013C2240002842EAD2
:100EFC0001024FEA0212AFBF00F16040064B00F056
:100F0C000F00D2B2A5BFD2B200F561401A5480F8DE
:100F1C00002330BD00ED00E014ED00E00123420998
:100F2C0000F01F0003FA00F0014B43F82200704759
:100F3C0000E100E00122430900F01F0002FA00F07A
:100F4C00024A203342F82300704700BF00E100E062
:100F5C000138B0F1807F0AD2F021064B064A586066
:100F6C0082F823100020072298601A607047012035
:100F7C00704700BF10E000E000ED00E010B530B3AA
:100F8C0014220168134B84680B44B3FBF2F39B00EF
:100F9C000364114B0A68C363436822F47F522343F2
:100FAC00C46822F030022343046923434469234379
:100FBC0084692343C469234313430B600122002338
:100FCC0080F82120836380F82030184610BD012062
:100FDC0010BD00BFF8FFFDBF0000024010B508B304
:100FEC000168114A0B680A4423F001030B600023CB
:100FFC000B604B608B60CB601421B2FBF1F20121D2
:10100C000A4C9200026401FA02F2C46362608362C9
:10101C00C36203634363836380F8213080F820301C
:10102C00184610BD012010BDF8FFFDBF00000240A6
:10103C00F0B590F82040012C35D0012490F82150C7
:10104C0080F82040A5424FF000064FF0020428D152
:10105C0080F82140046886632668076C26F0010638
:10106C002660C66BBD407560636043680568102BD5
:10107C00C36A0BBFA260A160E160E2604BB1236860
:10108C0043F00E0323602B68002043F001032B6018
:10109C00F0BD236823F004032360236843F00A03A4
:1010AC00F0E780F820600220F0BD000090F82130BD
:1010BC0010B5022B03D004238363012010BD0368F9
:1010CC001A6822F00E021A601A6822F001021A60E5
:1010DC00184A93421FD0143293421ED014329342BA
:1010EC001DD0143293421DD0143293421DD01432B1
:1010FC0093420CBF4FF480134FF080730E4A0024C0
:10110C005360012380F82130436B80F820407BB181
:10111C009847204610BD0123F0E71023EEE74FF46B
:10112C008073EBE74FF48053E8E74FF48033E5E747
:10113C00184610BD080002400000024070B404259F
:10114C00C66B026C3468036895402542196832D02E
:10115C004D0730D51A6896065EBF1A6822F0040255
:10116C001A603E4A934219D01432934218D014326A
:10117C00934217D01432934217D01432934217D0A3
:10118C00143293420CBF4FF480034FF08063344A07
:10119C005360C36A002B5ED070BC18470423F6E77B
:1011AC004023F4E74FF48063F1E74FF48043EEE71C
:1011BC004FF48023EBE702259540254235D08D076F
:1011CC0033D51A68940606D41A6822F00A021A60FB
:1011DC00012280F82120214A934219D014329342E3
:1011EC0018D01432934217D01432934217D01432C1
:1011FC00934217D0143293420CBF4FF400134FF0AC
:10120C000073174A5360002380F82030836AC1E7CB
:10121C000223F6E72023F4E74FF40073F1E74FF4D1
:10122C000053EEE74FF40033EBE7082595402542D9
:10123C0011D009070FD5196821F00E01196001238F
:10124C0003FA02F27260836380F82130002380F885
:10125C002030036B9EE770BC704700BF0800024053
:10126C00000002402DE9F74F00221646654BDFF8CF
:10127C00A4E1DFF8A4C14FF001080C6808FA06F8E5
:10128C0008EA0404A0457FD14D68122D00F0AF8010
:10129C0000F28880022D00F0A7807CD8002D00F091
:1012AC008E80012D00F09E804FF00F09FF2C93BF14
:1012BC00824606F18045083DD0F800B092BFB500DB
:1012CC00D0F804B0AD0009FA05F82BEA080802FAC8
:1012DC0005F588BF00F1040A48EA0505CAF8005074
:1012EC00D1F804A01AF0805F4ED0474D464FAD693F
:1012FC0026F0030845F00105BD61BD6908F1804881
:10130C0005F00105019508F5803806F0030B019DE9
:10131C004FEA8B0BD8F8085009FA0BF925EA0909A2
:10132C003A4DA84268D005F58065A84266D005F50F
:10133C008065A84264D005F58065A8420CBF0325E2
:10134C00042505FA0BF545EA0905C8F808501D688F
:10135C001AF4803F14BF2543A5431D605D681AF441
:10136C00003F14BF2543A5435D609D681AF4801FA0
:10137C0014BF2543A5439D60DD681AF4001F14BFFC
:10138C002C4325EA0404DC600136102E7FF473AF85
:10139C0003B0BDE8F08F032D22D0112D84D1CA6883
:1013AC00043281E71A4FBD4209D012D8DFF86C9095
:1013BC004D4504D009F580394D457FF475AF8A68E9
:1013CC00C2B1012A0CBFC0F81080C0F814800822EA
:1013DC006AE77545F3D06545F1D0DFF84490EBE74B
:1013EC00002261E7CA685FE7CA6808325CE7CA682E
:1013FC000C3259E7042257E70025A2E70125A0E7A4
:10140C0002259EE700040140001002400008014044
:10141C0000002110000031100000321000001110EB
:10142C00000022102DE9F04F00224FF001094FF07F
:10143C000F0C4FF0040A304CDFF8C4B031FA02F351
:10144C0001D1BDE8F08F09FA02F30B404CD0FF2B11
:10145C0098BF07466FEA030385BF02F18045083D3C
:10146C00D0F800E0D0F804E094BF9500AD000CFA81
:10147C0005F62EEA06060AFA05F588BF071D2E4367
:10148C003E60C56802F003071D40C56022F00305ED
:10149C0005F1804505F58035AE68BF000CFA07F8FC
:1014AC0006EA080E154EB04220D006F58066B04212
:1014BC001ED006F58066B0421CD058450CBF0326E2
:1014CC000426BE40B6450FD1AE6826EA0806AE60CB
:1014DC0025681D40256065681D406560A5681D4038
:1014EC00A560E5682B40E3600132A7E70026E8E73A
:1014FC000126E6E70226E4E700040140000801406B
:10150C00001401408368194214BF01200020704769
:10151C000AB1016170470904FBE7C3685940C16017
:10152C00704700000122014B1A60704720000E42E8
:10153C0003682DE9F341DB07054610D42B689F07A0
:10154C005ED42B68190700F195802B685A0700F1BF
:10155C00BF80EA69002A40F02D81002014E0904CF5
:10156C00636803F00C03042B07D0636803F00C03CF
:10157C00082B0CD16368DE0309D523689C03DDD5E9
:10158C006B68002BDAD1012002B0BDE8F0816B68EA
:10159C00B3F5803F10D1236843F480332360FFF709
:1015AC000DF9064623689803C8D4FFF707F9801B8A
:1015BC006428F7D90320E7E79BB9236823F4803329
:1015CC002360236823F480232360FFF7F7F8064693
:1015DC0023689903B2D5FFF7F1F8801B6428F7D97B
:1015EC00E8E7B3F5A02F236803D143F480232360ED
:1015FC00D1E723F480332360236823F48023CDE7E1
:10160C00674C636813F00C0F07D0636803F00C038E
:10161C00082B10D16368DA030DD423689B0702D51D
:10162C002B69012BAFD123686A6923F0F80343EAD5
:10163C00C203236085E72A695A4B6AB101221A60FA
:10164C00FFF7BCF8064623689F07ECD4FFF7B6F803
:10165C00801B0228F7D9ADE71A60FFF7AFF80646F2
:10166C00236898077FF56DAFFFF7A8F8801B022859
:10167C00F6D99FE7AA694A4C4B4BDAB101221A60A2
:10168C00FFF79CF80646636A9B070DD54FF4FA5298
:10169C00464B1B68B3FBF2F3019300BF019B5A1E30
:1016AC000192002BF9D150E7FFF788F8801B022834
:1016BC00E9D97FE71A60FFF781F80646636A9F074E
:1016CC007FF543AFFFF77AF8801B0228F6D971E754
:1016DC00334CE369D80024D40127E36943F08053E9
:1016EC00E361E36903F080530093009B304E336851
:1016FC00D90518D5EB68012B26D1236A43F00103D9
:10170C002362FFF75BF841F288368046236A9B0719
:10171C003FD5002F3FF41DAFE36923F08053E36105
:10172C0017E70027E2E7336843F480733360FFF771
:10173C0045F880463368DA05DCD4FFF73FF8A0EBB8
:10174C0008006428F6D935E7ABB9236A41F288382A
:10175C0023F001032362236A23F004032362FFF7BF
:10176C002DF80646236A9807D3D5FFF727F8801B78
:10177C004045F7D91EE7052B236A03D143F0040338
:10178C002362BAE723F001032362236A23F00403E4
:10179C00B6E7FFF713F8A0EB0800B042B6D909E79B
:1017AC000010024000004242800442420800002027
:1017BC0000700040224C636803F00C03082B3FF4CC
:1017CC00E2AE00231F4E022A33602BD1FEF7F6FF48
:1017DC000746236899011FD42B6AB3F5803F05D1C6
:1017EC006268A96822F400320A436260696A62681E
:1017FC000B4322F474121343636001233360FEF72E
:10180C00DDFF054623689A013FF5A7AEFEF7D6FF2C
:10181C00401B0228F6D9CDE6FEF7D0FFC01B0228EC
:10182C00D7D9C7E6FEF7CAFF054623689B017FF5AB
:10183C0094AEFEF7C3FF401B0228F6D9BAE600BFF0
:10184C00001002406000424230B5194B87B002AC28
:10185C0003F11005224618685968083303C2AB42DD
:10186C001446F7D101238DF80430022311498DF869
:10187C0005304B6803F00C02082A17D1C3F38342DE
:10188C0006A80244DB0312F8102C0CD54B680A484E
:10189C00C3F34043504306AA134413F8143CB0FB63
:1018AC00F3F007B030BD05485043FAE70248F8E7BB
:1018BC004C4C00080010024000127A0000093D0058
:1018CC00544A2DE9F0411368054603F007038B4297
:1018DC000E462AD329688C0734D4CA0747D44D4AFC
:1018EC00136803F007039E42C0F082802A684A4CBA
:1018FC0012F0040F40F08780130706D563682A693D
:10190C0023F4605343EAC2036360FFF79DFF6368EF
:10191C00424AC3F30313D35CD840414B18600020F8
:10192C00FEF70AFF0020BDE8F081136823F00703DF
:10193C000B431360136803F007039942CAD00120CC
:10194C00BDE8F081344B11F0040F1EBF5A6842F40D
:10195C00E0625A60080742BF5A6842F460525A600B
:10196C005A68A86822F0F00202435A60B5E76A6828
:10197C00294C012A23681CD113F4003FDFD0636883
:10198C0041F2883823F0030313436360FEF716FF1C
:10199C006B680746012B14D1636803F00C03042B0E
:1019AC009DD0FEF70BFFC01B4045F5D90320BDE8C9
:1019BC00F081022A02D113F0007FDFE713F0020F4F
:1019CC00DCE7022B0FD1636803F00C03082B86D0E5
:1019DC00FEF7F4FEC01B4045F5D9E7E7FEF7EEFE37
:1019EC00C01B4045E2D8636813F00C0FF6D176E7C4
:1019FC00136823F0070333431360136803F00703E2
:101A0C009E429CD172E76368E96823F4E0630B4360
:101A1C00636071E700200240001002406C4C00082B
:101A2C0008000020044B054A5B68C3F30223D35C17
:101A3C00034A1068D8407047001002407C4C0008E4
:101A4C0008000020044B054A5B68C3F3C223D35C37
:101A5C00034A1068D8407047001002407C4C0008C4
:101A6C000800002003682DE9F341D907054620D56D
:101A7C00354CE369DA0032D40127E36943F0805333
:101A8C00E361E36903F080530193019B2F4E3368AC
:101A9C00DB0526D5236A13F4407336D1236A6A68B2
:101AAC0023F44073134323621FB1E36923F0805383
:101ABC00E3612868830706D5234AA968536823F491
:101ACC0040430B43536010F010001BD01E4AE968D2
:101ADC005368002023F480030B43536012E000276B
:101AEC00D4E7336843F480733360FEF767FE8046B7
:101AFC003368D805CED4FEF761FEA0EB080064284D
:101B0C00F6D9032002B0BDE8F0816A6802F4407295
:101B1C009342C3D001200E4A236A1060002023F4A4
:101B2C00407110602162D907B8D5FEF747FE41F22B
:101B3C0088380646236A9A07B0D4FEF73FFE801B0E
:101B4C004045F7D9DDE700BF0010024000700040AF
:101B5C004004424270B50446354B86B002AD03F1E9
:101B6C0010062A4618685968083303C2B342154652
:101B7C00F7D101238DF8043002239C428DF80530F7
:101B8C0047D0102C17D0012C4FD140F20231294AEA
:101B9C00136A1940B1F5817F44D003F44073B3F557
:101BAC00007F2DD149F64040536A13F0020F08BF55
:101BBC00002006B070BD1F4B5968186810F080707B
:101BCC00F7D0C1F3834206A8024412F8100CCA03E2
:101BDC0041BF5A6806A9C2F34042521844BF12F8DA
:101BEC00141C154A5B684CBFB2FBF1F2134A5B0242
:101BFC0002FB00F0DDD403234000B0FBF3F0D8E788
:101C0C00B3F5407F11D113684FF2244013F4003F19
:101C1C00CDE7FFF717FF074B5B68C3F38133013345
:101C2C005B00EAE74FF40040C3E70020C1E700BFC8
:101C3C005C4C00080010024000127A0000093D00C4
:101C4C0038B50446FEF7BAFD054623685A68920675
:101C5C0005D55A68002042F010025A6038BDFEF7D4
:101C6C00ADFD401BB0F57A7FEFD9032038BD02687B
:101C7C0038B55368044623F010035360FEF79EFDFD
:101C8C00054623685B689B0601D5002038BDFEF72E
:101C9C0095FD401BB0F57A7FF3D9032038BD38B5DC
:101CAC000446A8B10268536823F008035360FEF79A
:101CBC0085FD054623685B681B0701D5002038BDF0
:101CCC00FEF77CFD401BB0F57A7FF3D9032038BDBD
:101CDC00012038BD10B5044670B1437C03F0FF02FF
:101CEC0013B9027402F0A2FC022320466374FFF7BE
:101CFC00D6FF18B104236374012010BD2046FFF7F2
:101D0C009FFF0028F6D12268A068536823F00703D0
:101D1C005360174A18B1116B21F001011163D36A9A
:101D2C0023F460730343D3626068431C05D1012024
:101D3C00FFF710FF0028DDD001382268936823F0EC
:101D4C000F0343EA10439360D36880B21B0C1B044F
:101D5C001843D0602046FFF78AFF012310B10422FC
:101D6C006274C9E7E0736373A373637410BD00BF3F
:101D7C00006C00402DE9F0410446884617461D468C
:101D8C00069E2268936838EA03030CBF01230023E4
:101D9C009F4202D10020BDE8F0816B1CF2D055BBF4
:101DAC0023685A6822F0E0025A606268B2F5827FBA
:101DBC000AD1A268B2F5004F02D0B2F5806F03D100
:101DCC001A6822F040021A60A26AB2F5005F09D1CB
:101DDC001A6822F400521204120C1A601A6842F4A7
:101DEC0000521A60012384F851300023032084F838
:101DFC005030BDE8F081FEF7E1FC801B8542C0D875
:101E0C00CEE713B50B460092802100220446FFF763
:101E1C00B1FF20B10320636D43F02003636502B072
:101E2C0010BD2DE9FF411E4690F850300446012BA1
:101E3C000D46904600F09C80012380F85030FEF750
:101E4C00BDFC074694F85100C0B2012840F08E80CA
:101E5C00002D4ED0B8F1000F4BD0032384F8513035
:101E6C0000236365A363A4F83680A387E3876364C8
:101E7C002364A3682563B3F5004F2368A4F834806A
:101E8C0002BF1A6842F480421A601A6852065EBF9A
:101E9C001A6842F040021A60E268B2F5006F62689C
:101EAC0038D11AB1E28E92B2012A06D135F8022B42
:101EBC00DA60E38E013B9BB2E386E38E9BB293B96F
:101ECC0000973346012202212046FFF753FF78B9D1
:101EDC003A4631462046FFF794FF002838D020239D
:101EEC000120636505E023689A689007DED44EB93B
:101EFC000320012384F85130002384F8503004B0BF
:101F0C00BDE8F081711CD8D0FEF758FCC01B86428E
:101F1C00D3D8EDE71AB1E28E92B2012A06D115F8A8
:101F2C00012B1A73E38E013B9BB2E386E38E9BB2CB
:101F3C00002BC5D023689A689207F0D4002ED7D016
:101F4C00731CF3D0FEF73AFCC01B8642EED8CFE7E9
:101F5C00A36833B903932368DA6803929B680393ED
:101F6C00039B606D003018BF0120C2E70220C0E760
:101F7C000220C4E72DE9F043994690F8503085B023
:101F8C00012B04460D4616460C9F00F0EE800123F3
:101F9C0080F85030FEF712FC94F851308046DBB2DA
:101FAC00012B61680AD0B1F5827F40F0DC80A26819
:101FBC00002A40F0D880042B40F0D580002D4ED064
:101FCC00002E4CD0B9F1000F49D094F85130A663D3
:101FDC00012B04BF052384F851300023636523646F
:101FEC0063642368A4F83E90A4F836901A68A4F8A9
:101FFC003C90500658BF1A68256358BF42F0400207
:10200C00A4F8349058BF1A60E268B2F5006F5DD145
:10201C0019B1E28E92B2012A06D135F8022BDA60A0
:10202C00E38E013B9BB2E3864FF00109E38E9BB23A
:10203C00BBB9E38F9BB2A3B9CDF800803B4601221C
:10204C0002212046FFF796FE002835D1424639463C
:10205C002046FFF7D6FE00287AD0202363650120A6
:10206C002BE0B9F1000F0FD0E38E9BB263B1236864
:10207C009A68910708D54FF0000935F8022BDA6001
:10208C00E38E013B9BB2E386E38F9BB263B1236883
:10209C009A68D20708D54FF00109DB6826F8023B95
:1020AC00E38F013B9BB2E387781CBFD0FEF786FB26
:1020BC00A0EB08008742B9D80320012384F85130E3
:1020CC00002384F8503005B0BDE8F08319B1E28EDE
:1020DC0092B2012A06D115F8012B1A73E38E013B3B
:1020EC009BB2E3864FF00109E38E9BB21BB9E38FE1
:1020FC009BB2002BA0D0B9F1000F0FD0E38E9BB296
:10210C0063B123689A68910708D54FF000092A78C3
:10211C0001351A73E38E013B9BB2E386E38F9BB2CE
:10212C006BB123689A68D20709D54FF00109DB68B7
:10213C00013606F8013CE38F013B9BB2E3877B1C25
:10214C00D2D0FEF73BFBA0EB08008742CCD8B3E71C
:10215C00A368002BB1D123680390DA6803929B68C3
:10216C000393039BA9E70220A7E70220ABE72DE925
:10217C00F3411E4643680446B3F5827F0D469046F4
:10218C000CD1836853B9042380F851301346009660
:10219C000A46FFF7EFFE02B0BDE8F08194F850302C
:1021AC00012B00F08180012384F85030FEF706FBF0
:1021BC00074694F85100C0B2012873D1002D58D0B5
:1021CC00B8F1000F55D0042384F851300023636517
:1021DC002363A4F83E80A386E38623646364A36828
:1021EC00A563B3F5004F2368A4F83C8002BF1A68BE
:1021FC0022F480421A601A6852065EBF1A6842F0D6
:10220C0040021A60E368CBB1E38F9BB2D3B1236871
:10221C009A68D2073CD5DB6825F8023BE38F013B7B
:10222C009BB2E387F0E723689A68D0071FD51B7B26
:10223C0005F8013BE38F013B9BB2E387E38F9BB235
:10224C00002BF0D16368B3F5827F0BD1A368B3F593
:10225C00004F02D0B3F5806F04D12268136823F0CD
:10226C0040031360606D003018BF012001E03EB9DF
:10227C000320012384F85130002384F850308AE77E
:10228C00711CDBD0FEF79AFAC01B8642D6D8EFE75A
:10229C00002EEDD0731CB7D0FEF790FAC01B86420F
:1022AC00B2D8E5E70220E4E7022074E710B5044653
:1022BC00002834D00023836290F851300BB902F01F
:1022CC00F5F90223216884F851300B68A06823F0DB
:1022DC0040030B606368A2690343E0680343206911
:1022EC00034360690343E0690343206A0343A06A24
:1022FC00034302F4007003430B60120C636A02F098
:10230C0004021A43E36A4A600B61CB69002023F490
:10231C000063CB610123606584F8513010BD01204E
:10232C0010BD0368DA6822F49072DA605A6922F000
:10233C0001025A61202380F83A3070472DE9F047AA
:10234C000568C2682B69016923F4405313432B6160
:10235C008368EA680B43416922F4B05222F00C0204
:10236C000B431343EB606B69826923F44073134393
:10237C006B61404B81469D424FF0190446D1FFF7EB
:10238C0061FB04FB00F3D9F804604FF06408B6005D
:10239C00B3FBF6F3B3FBF8F31E01FFF753FB6043FB
:1023AC00D9F804309B00B0FBF3F7FFF74BFB60430D
:1023BC00D9F804309B00B0FBF3F3B3FBF8F308FB44
:1023CC0013731B013233B3FBF8F303F0F007FFF781
:1023DC0039FB6043D9F804209200B0FBF2FAFFF706
:1023EC0031FB6043D9F804309B00B0FBF3F3B3FB33
:1023FC00F8F308FB13A31B013233B3FBF8F303F020
:10240C000F033B433344AB60BDE8F087FFF70AFB97
:10241C0004FB00F3D9F804604FF06408B600B3FB7A
:10242C00F6F3B3FBF8F31E01FFF7FCFA6043D9F89F
:10243C0004309B00B0FBF3F7FFF7F4FA6043D9F8D4
:10244C0004309B00B0FBF3F3B3FBF8F308FB1373FE
:10245C001B013233B3FBF8F303F0F007FFF7E2FA9A
:10246C006043D9F804209200B0FBF2FAFFF7DAFAD5
:10247C00B7E700BF0038014010B5044640B390F8F0
:10248C00393003F0FF021BB980F8382002F01AFA39
:10249C002423226884F83930D368204623F400536F
:1024AC00D360FFF74BFF236800201A6922F4904297
:1024BC001A615A6922F02A025A61DA6842F400520F
:1024CC00DA602023E06384F8393084F83A3010BDA8
:1024DC00012010BD38B50D460446002831D090F8C7
:1024EC00393003F0FF021BB980F8382002F0EAF90A
:1024FC002423226884F83930D368204623F400530F
:10250C00D360FFF71BFF236800201A6922F40062D6
:10251C001A615A6922F02A025A611A6942F48042FD
:10252C001A61196921F0200129431961DA6842F412
:10253C000052DA602023E06384F8393084F83A30B2
:10254C0038BD012038BD10B5044668B1242380F88D
:10255C00393002F0A9FA0020E06384F8380084F8DE
:10256C00390084F83A0010BD012010BD38B504467E
:10257C00134694F83920202A2AD139B333B394F86E
:10258C003820012A24D00122002584F83820212269
:10259C00E384206BE56384F839200E4AA38421621E
:1025AC0082620D4A4563C2620C4A0263226804329D
:1025BC00FEF73EFD6FF04002236828461A605A6908
:1025CC0084F8385042F080025A6138BD012038BD81
:1025DC00022038BDED2500081B260008A5260008A2
:1025EC0008B50368426A1B6813F020030AD1D38430
:1025FC0013685A6922F080025A61DA6842F040028C
:10260C00DA6008BD104601F0C7FD08BD704708B57B
:10261C00406AFFF7FBFF08BD704790F83A3010B5E1
:10262C00222B36D183680169B3F5805F0268836A17
:10263C0023D15268E9B9C2F3080223F8022B836252
:10264C00C48D013CA4B2C4858CB90368DA6822F04D
:10265C002002DA60DA6822F48072DA605A6922F0B9
:10266C0001025A61202380F83A30FFF7D5FF002091
:10267C0010BDD2B223F8012BE1E721B9591C5268E5
:10268C0081621A70DCE75268591C816202F07F0289
:10269C00F7E7022010BD7047416A08B50B685A690C
:1026AC0091F8390021280AD1120608D50022CA84D3
:1026BC00DA6822F0C002DA60202281F839205B69E6
:1026CC0091F83A20222A06D15B0604D5002308464D
:1026DC00CB85FFF726FECB6B084643F01003CB638C
:1026EC00FFF7D9FF08BD0000036870B51A680446EF
:1026FC001607D9685D6907D196065AD58D0658D547
:10270C00BDE87040FFF789BF15F0010502D111F447
:10271C00907F4ED0D30705D5CE0542BFE36B43F077
:10272C000103E363500704D51DB1E36B43F00203CF
:10273C00E363930704D51DB1E36B43F00403E36338
:10274C00160704D51DB1E36B43F00803E363E36B99
:10275C00002B66D0950604D5880602D52046FFF7D7
:10276C005CFF236820465D69E26B110702D415F00B
:10277C0040051AD0FFF7D5FD23685A69520610D5CB
:10278C005A69606B22F040025A6150B1254B436389
:10279C00FEF78CFC002844D0606BBDE87040436BA6
:1027AC0018472046FFF777FF70BDFFF774FFE5630E
:1027BC0070BD160627D50D0625D594F83920212A8B
:1027CC002FD1A268B2F5805F226A17D11188C1F3AC
:1027DC0008015960216979B902322262E28C013A0E
:1027EC0092B2E284EAB9DA6822F08002DA60DA683E
:1027FC0042F04002DA6070BD0132EEE7511C2162FA
:10280C0012785A60EAE750060BD54A0609D5DA6801
:10281C00204622F04002DA60202384F8393001F09F
:10282C00BBFC70BD3528000808B50023406AC38581
:10283C00C384FFF730FF08BD0023012200B58BB025
:10284C0069460948069300930193079208920593F1
:10285C00029303930493FEF744F8003018BF012051
:10286C000BB05DF804FB00BF9C0A00200022024B59
:10287C001A805A80704700BFD000002084B0F0B599
:10288C00144F05AC7E8884E80F003B889E4228BF1D
:10289C003C339B1B9BB2012B19D9282404FB0674D7
:1028AC0005AD08340FCD0FC40FCD0FC495E8030050
:1028BC003A2E88BF002684E803004FF000009CBF2E
:1028CC000136B6B27E80BDE8F04004B070470220FD
:1028DC00F9E700BFD0000020602804D92738C0B227
:1028EC003038C0B270474028FAD90738F7E760286B
:1028FC000CD92738C0B230386029C0B20AD9273970
:10290C00C9B2303941EA0010C0B270474028F2D940
:10291C000738EFE74029F4D90739F1E70309092B08
:10292C0000F00F0094BF30333733092894BF303098
:10293C0037300B704870704784B02DE9F04106AC0D
:10294C0084E80F00564B05461C78119A012C079809
:10295C00DDF8208009990B9F1E466BD10A9C00293B
:10296C0042D1002C3ED174231370030A092B94BF5F
:10297C0030333733DBB25370911CC0B2FFF7CEFF4C
:10298C000423092F02EB030103F1010894BF07F1A3
:10299C00300307F13703DBB20B701CB9BC423ED1DC
:1029AC0008EB440873789BB14EF66021B5FBF1F34C
:1029BC0001FB135502EB0801C5F30720FFF7AEFF2F
:1029CC0008F102011144E8B2FFF7A8FF08F104086E
:1029DC000D2308F1010002F8083080B2BDE8F04187
:1029EC0004B070477223BFE7BCB954231370511C59
:1029FC004FEA1860FFF792FFC8F30740D11CFFF7AE
:102A0C008DFFC8F30720511DFFF788FF5FFA88F090
:102A1C00D11DFFF783FF0923B3E75223E6E706AB8B
:102A2C00234408EB4401114493F82000FFF776FF90
:102A3C000134B3E7022C2FD19B787BB3F12304290B
:102A4C0011461370174B08BF48F000401B7A957065
:102A5C0053702B0AD3702B0C1371030AD371030C14
:102A6C001372109B907107EB03132D0E000E557112
:102A7C00507201F80A3F0023BB4205D11A4403F1FE
:102A8C000C000023D372A8E706A8184490F8200085
:102A9C00013301F8010FEFE700209EE718469CE791
:102AAC0080000020380A00202DE9F041184E88B033
:102ABC0034887388A34227D0282303FB04640023A3
:102ACC006D46DFF854800693CDF81C8004F108079E
:102ADC0018340FCC0FC594E8030085E8030097E881
:102AEC000F00FFF729FF0B4B024641461868FFF712
:102AFC003DFD58B933883A2B8EBF034601339BB248
:102B0C00338008B0BDE8F0810220FAE70120F8E735
:102B1C00D00000209C1900201119002010B5074886
:102B2C00FDF7A4FF044638B902464FF480710448FF
:102B3C00FEF7EEFC204610BD0124FBE79C0A0020AA
:102B4C000008014010B5FFF7E9FF00228021194869
:102B5C00FEF7DEFC002240211648FEF7D9FC0022CD
:102B6C0020211448FEF7D4FC002210211148FEF756
:102B7C00CFFC3220FDF728FE0F4B1B7A032B08D815
:102B8C00DFE803F0020F1215012280210948FEF73D
:102B9C00BFFCBDE810400123084A0821084801F099
:102BAC00A7B901224021F1E701222021EEE7012201
:102BBC001021EBE7000C0140380A0020400A0020ED
:102BCC00381A0020704770477047000001224FF4FC
:102BDC0080710148FEF79CBC000801402DE9F04FC4
:102BEC00894685B00290474948461746FDF77AFD5D
:102BFC00002840F0818044494846FDF755FD0028E7
:102C0C007AD1002301934FF07E530546DFF800A1E3
:102C1C0000930298FDF752FB013504462846FDF758
:102C2C004DFB4946FDF7A2FB01462046FDF752FC41
:102C3C00064601F0D5FFFDF75FFD072804465BD97A
:102C4C00192856D8FDF73AFB014683463046FDF766
:102C5C0083FA20F000462D493046FDF725FD00B1E2
:102C6C00002651465846FDF781FB01F0B9FF4FF0A5
:102C7C007E51FDF771FAFDF73FFD013C10288046AF
:102C8C00A4EB000435D8082C33D824B9002836D04E
:102C9C00012400F1FF3808F10100FDF70FFB594644
:102CAC00FDF718FC009983463046FDF7FDFCC8B9CA
:102CBC0000213046FDF7EEFCD8B151465846FDF7E1
:102CCC004BFA514620F0004201980392FDF744FA6A
:102CDC00039A20F000411046FDF7E6FC48B17A69F2
:102CEC00944206D17D60C7F810807C61CDF804B0A9
:102CFC000096B5F5806F8CD105B0BDE8F08F044619
:102D0C00C9E700BF0024744A0000FA44ACC5273759
:102D1C000000603F38B54CF2503398420D463F4CA2
:102D2C006ED025D842F2107398426BD00FD841F276
:102D3C00883398426AD042F28D03984269D0FDF7ED
:102D4C00BDFA364A01463648FFF748FF3AE048F2EA
:102D5C003523984260D04BF60323984254D044F666
:102D6C0020639842EBD1782363604FF430231EE04C
:102D7C002C4B984238D00DD82B4B98423BD02B4B38
:102D8C00984236D02A4B9842D9D11B2363604FF41A
:102D9C0020230CE0274B984224D0274B98420AD092
:102DAC00264B9842CBD1042363604FF460232361FC
:102DBC004FF4801305E0042363604FF4C0232361B8
:102DCC00002363611E4BA560236000231348E3605E
:102DDC0023766376A376E37623776377BDE8384072
:102DEC00FDF704BD0523E7E7092363604FF4402397
:102DFC00DDE71223F9E72D2363604FF4A023DEE710
:102E0C002D23F2E7FF23F0E73623BFE74FF4E173FE
:102E1C00EBE74FF48773E8E74823A5E79C0A00200B
:102E2C000051250290D00300A086010048E8010063
:102E3C000674010000350C0040420F0020A1070071
:102E4C000064004010B5184CFFF77CFE237A04EBAD
:102E5C008302516BD068FFF75DFF08B1012010BDF4
:102E6C00227A04230332920091B21048224401F0DA
:102E7C003FF8227A04230D32920091B20B4822447F
:102E8C0001F036F8FFF7D8FC0028E7D10848FDF729
:102E9C0094FD0028E2D140F237410548FDF7BEFE13
:102EAC00003018BF012010BD380A0020381A00204D
:102EBC009C0A002070B50446FDF742F92278C3B293
:102ECC00413A352A00F29E80DFE812F044000003FC
:102EDC0098019C004400780044009C009C009C00DD
:102EEC009C009B02440036007E019C009C002D023D
:102EFC00A8005502A302460044009C009C006900F7
:102F0C009C009C009C009C009C009C009C009C00D5
:102F1C009C009C009C009C009C009C009C009C00C5
:102F2C009C009C0044009C009C009C009C00C201E6
:102F3C008B00ED01D90258004E21B948B94B0268FB
:102F4C009954134405323021026031225970997022
:102F5C00D9701A710D2070BD5624B148B14A03685E
:102F6C003125D4543024591C555411444C70D91C5F
:102F7C0055540A44547005330360EBE77624A84893
:102F8C00A84A03683125D4543024591C5454114494
:102F9C004D70D91C54540A4441215170EBE76378AD
:102FAC00A14A312B02D101235370D3E7302B17BF29
:102FBC0053780023B3FA83F35B09F5E74621984A6B
:102FCC00984C13689948E15430211C4403336170C8
:102FDC001360FDF739FF3030A0709448FDF749FFBE
:102FEC00B8E7934A0A26117A651C023102EB81027A
:102FFC0000215160291B8B42ACDD15F8011B3039C7
:10300C00092901D9072070BD51687143516015F829
:10301C00010CFFF761FC08445060EBE7052B01D075
:10302C00022BEFD1804B1B78002BEBD16378303B1C
:10303C00342BE7D801A252F823F000BF1D31000851
:10304C002D3100083B31000849310008553100088A
:10305C00613100086D3100087931000885310008B4
:10306C0091310008113000081130000811300008AF
:10307C001130000811300008113000081130000820
:10308C009D310008AB310008B9310008C731000888
:10309C001130000811300008113000081130000800
:1030AC0011300008113000081130000811300008F0
:1030BC0011300008113000081130000811300008E0
:1030CC0011300008113000081130000811300008D0
:1030DC0011300008113000081130000811300008C0
:1030EC0011300008113000081130000811300008B0
:1030FC0011300008113000081130000811300008A0
:10310C009D310008AB310008B9310008C731000807
:10311C00474B1A7A03EB820342F21072DA6019E71A
:10312C00434B1A7A03EB820344F62062F6E7404BDA
:10313C001A7A03EB82034CF25032EFE73C4B1A7ACB
:10314C0003EB82033B4AE9E7394B1A7A03EB820320
:10315C00394AE3E7364B1A7A03EB8203374ADDE749
:10316C00334B1A7A03EB8203354AD7E7304B1A7A82
:10317C0003EB8203334AD1E72D4B1A7A03EB82031C
:10318C00314ACBE72A4B1A7A03EB82032F4AC5E765
:10319C00274B1A7A03EB820342F28D02BEE7244BD3
:1031AC001A7A03EB82034BF60322B7E7204B1A7A09
:1031BC0003EB820348F23522B0E71D4B1A7A03EB7E
:1031CC00820341F28832A9E7194C237A032B02D1EE
:1031DC000023236416E71548FDF736FE00287FF41C
:1031EC0011AF237A04EB83046063FFF72BFE0028F6
:1031FC007FF408AF01220C4B1A70ABE600220A4B8D
:10320C001A700B4B1B7A032B3FF4FCAE0748FDF7EF
:10321C0030FEFFF783FC00287FF4F4AE9AE600BF83
:10322C0078000020C80F0020800000209C0A00209D
:10323C00380A0020A086010048E8010090D0030065
:10324C0020A1070000350C0040420F00067401005D
:10325C00A54A1278002A3FF4D5AE052B7FF4D2AEE6
:10326C006078FFF739FBE1780346A078FFF73FFB66
:10327C0040EA032000239D4DAB600223EB602860E5
:10328C002079FFF729FB012228614FF4004198486F
:10329C00FEF73EF92946974B974A9848FDF7FAFBFB
:1032AC00974B1870B7E7904A1278002A3FF4AAAEF1
:1032BC005D1FEBB2102B3FF6A5AE6078FFF70CFB51
:1032CC00E1780346A078FFF712FB40EA03200023C5
:1032DC0086498B60CB6008602079FFF7FDFA0861A6
:1032EC00022195FBF1F5A84202467FF48BAE08282B
:1032FC003FF688AE804D05349A4204F1020409D899
:10330C0001224FF400417A48FEF702F9794B7A4AD0
:10331C007649C2E714F8011C14F8020CFFF7E7FA1F
:10332C00E8540133E8E7704A1278002A3FF46AAE99
:10333C000A2B7FF467AEA1786078FFF7D8FA217971
:10334C000346E078FFF7D3FA000440EA0363A1795F
:10335C006079FFF7CCFA217A0246E079FFF7C7FAD9
:10336C0018430423614D40EA0220AB600223EB605A
:10337C006860607A85E75C4A1278002A3FF442AEB6
:10338C00A3F10A05EBB2102B3FF63CAEA1786078A6
:10339C00FFF7ADFA21790246E078FFF7A8FA0004AE
:1033AC0040EA0262A1796079FFF7A1FA217A03461B
:1033BC00E079FFF79CFA104340EA032004234B49C1
:1033CC008B600023CB604860607AFFF785FA086158
:1033DC00022195FBF1F5A84202467FF413AE0828B2
:1033EC003FF610AE444D0A349A4204F1020487D9D8
:1033FC0014F8011C14F8020CFFF779FAE8540133A5
:10340C00F2E7404B1A7A03EB82034FF000425A6307
:10341C00EBE663783B4C303B062B2ED8DFE803F011
:10342C00041B1E2124272A004FF46133364DE3651B
:10343C002868FFF788F8E26D344B28685A60FFF76C
:10344C001BF800287FF4DEAD0423314A5C2131489F
:10345C0000F04EFD7EE54FF4E133E7E74FF46143B6
:10346C00E4E74FF41643E1E74FF49643DEE74FF4FD
:10347C001653DBE74FF41663D8E7274BD6E7002249
:10348C000A26204D611CEA650A1B93420EDCEB6D8B
:10349C00224AC83B93423FF6B5AD1B4C2068FFF760
:1034AC0052F8EA6D194B20685A60C8E711F8012BE5
:1034BC00303A092A3FF6A6ADEA6D7243EA6511F877
:1034CC00010CFFF709FA1044E865DDE76078A0F11C
:1034DC003003042B3FF696ADFFF7FEF9094B01388C
:1034EC001872FFF7AFFC35E5800000208800002043
:1034FC0000080140A40000202C0000209C0A0020A1
:10350C00A0000020380A00209C190020901A0020EE
:10351C00940A0020381A002040420F00B8831E0085
:10352C00AD4A2DE9F8431368AC4C01331360237892
:10353C000D2B00F28581DFE813F00E0044004001F2
:10354C00DC0083018301A901AC0183018301DC0050
:10355C00DC0046024E02F12803D101232370BDE8A2
:10356C00F883E72806D101229D4B9A7002221A702B
:10357C00BDE8F8830D2816D19A48FFF79BFC9A4AB0
:10358C001368591C1160994A9949D0540122994BDE
:10359C001A7000231A460133DBB21E2B01F8012FDF
:1035AC00F9D1954BE3E7002800F04A81924A8D4906
:1035BC0013781C2BC85400F2438101331370BDE8FF
:1035CC00F8830E2800F23C81DFE810F00F001500A4
:1035DC0093009300300035003B007E0095009F0067
:1035EC00AE00B300B500C300F5000223F122237036
:1035FC007E4B1A7084E00023804A23701360FDF721
:10360C00DDF8F121784C794B2268050A9954012197
:10361C0013449870DD70050C000E59701D715871B3
:10362C00744B063219702260BDE8F88306232370B0
:10363C00F1226E4B9BE70723002223706F4B1A601D
:10364C00F6E7F1220621684E684833686C4DC25487
:10365C00C2185170696B624FB1F1004F0CBF102151
:10366C00002197F8038003F1020C414400F80C1080
:10367C00E96803F1030E97F80480AF6B00F80E10A5
:10368C004FEA112E82F804E0B7F1004F4FEA114EC9
:10369C004FEA116191710CBF1021002103F1070C4D
:1036AC00414482F805E000F80C10296903F1080E7A
:1036BC0000F80E10080A50720C33080C090E9072A8
:1036CC003360D172012212E0F1224748474B016866
:1036DC0017255A5407220B445A7057229A7001220C
:1036EC000831DA701D715A719A710160DA71414BAF
:1036FC001A70002332E7F1223C4B1A700A23237014
:10370C0000223E4B1A60BDE8F883F1203649374B56
:10371C000A68985409201344043258700A60DE2059
:10372C00AD229870DA70CDE7F122304B1A700B2372
:10373C00E5E70C235AE7F1202B492C4B0A689854E7
:10374C000C20134403320A602D4A587012799A7077
:10375C00B8E7F122254B2A491A700D225A70CA6B10
:10376C001F48B2F1004F0CBF10220022457980791E
:10377C002A449A704A69150ADA701D71150C120EDA
:10378C009A710A6C5D71B2F1004F0CBF10220022CD
:10379C000244DA718A69110A1A725972110C120EEA
:1037AC00DA72002299721A735A739A73DA731A7452
:1037BC002270BDE8F8830D233EE7104D0B4A2B68B1
:1037CC001A445070052B47D8DFE803F0031E242958
:1037DC00373C0C4B186030E03C00002040000020CF
:1037EC0080000020AC00002078000020C80F0020D2
:1037FC00AB000020750000203400002044000020A5
:10380C00380A002088000020954A136843EA0020FB
:10381C00106012E0924A136843EA0040F8E7904ABD
:10382C00136843EA00600028B4BF0423002310602F
:10383C00BCBF20F00040506093602B6801332B60BC
:10384C00BDE8F88300F00F00082888BF0822844BDD
:10385C0094BF18611A61F0E7814E326906329A42C0
:10386C0004D9804A134403F8060CE6E7002701222A
:10387C004FF400417C482770FDF74AFE7B4B794A98
:10388C0031467B48F760FDF705F9D6E7794B587060
:10389C002FE7794F3B68072B25D8DFE803F03E4133
:1038AC0047043E41474C754D754C2B6843EA00600C
:1038BC00286030B3FFF732F92A68724BC2F3130158
:1038CC00002AD96020DA02F0C041B1F1C04F0FD10B
:1038DC000122E2704FF000425A6302222270002251
:1038EC001A72FFF7AFFA3B6801333B60BDE8F8830F
:1038FC00500006D501220221E270002221705A6389
:10390C00EEE70023E370EEE70222227000225A63F6
:10391C001A72FFF797FA0123F4E7584B1860E2E7A5
:10392C00564A136843EA00201060DCE7534A1368D8
:10393C0043EA0040F8E7DFF84491514DD9F80030E4
:10394C0043EA0060C9F8000068B34E4E95F8038056
:10395C00C0F313003061B8F1000F14D1FFF7DEF89B
:10396C00D9F80030002B21DA03F0C042B2F1C04F7D
:10397C0012D101234FF000422B71B2630222337239
:10398C002A70FFF75FFA00233F4A23700C210823AB
:10399C003E4800F0ADFAA6E7590004D50123C6F85D
:1039AC0038802B71EAE700232B71ECE70223C6F871
:1039BC0038804FF001082B7086F80880FFF742FA28
:1039CC0085F80480DFE72C4A2A4913680133C85470
:1039DC001360BDE8F883284D2B680B2B3FF62DAFF9
:1039EC00DFE803F0929496069294965692949698E9
:1039FC00224F234C3B6843EA0060386020B3E378E5
:103A0C00002B7FF41AAF2679002E7FF416AFFFF748
:103A1C0085F83B68002B1ADA03F0C042B2F1C04FB4
:103A2C000BD101234FF000426371164BDA63022273
:103A3C0022701A72FFF706FAFFE65A0004D501232A
:103A4C006371104BDE63F2E700236371F5E602222B
:103A5C000C4B2270DE631A72FFF7F4F90123F4E7C2
:103A6C00880000202C00002000080140A400002049
:103A7C009C0A0020C80F00204400002038000020C1
:103A8C0080000020380A0020440A0020381A002048
:103A9C00244F254C3B6843EA0060386038B3E37828
:103AAC00002B7FF4CAAE2379002B7FF4C6AE667967
:103ABC00002E7FF4C2AEFFF731F83B68002B19DA09
:103ACC0003F0C042B2F1C04F0AD101234FF00042C3
:103ADC0084F82330154B1A64022222700322A8E7C3
:103AEC005B0004D50123A371104B1E64F4E7002383
:103AFC00A371A2E60223032223700C4B1E641A72DC
:103B0C00FFF7A0F90123F3E7064B63E6054A7CE6D1
:103B1C00044A80E6034A136843EA006000231060FD
:103B2C0023708AE63800002080000020380A00202C
:103B3C00044A137A0133DBB2032B88BF00231372C0
:103B4C00FFF780B9380A002038B5838805460C4643
:103B5C00082B53D8DFE803F0050E1C2B38465464B1
:103B6C00720009B9002038BDFCF728FE012328603B
:103B7C00AB80F7E7002941D0FCF720FE2B68C01A78
:103B8C000128EFD9FCF71AFE28600220A88038BD66
:103B9C0041B1FCF713FE2B68C01AB0F52F7F46D845
:103BAC00012038BDFCF70AFE04232860E0E729B3A6
:103BBC00FCF704FE2B68C01AB0F5967FF0D9FCF721
:103BCC00FDFD2860062038BD31BBFCF7F7FD2B68E6
:103BDC00C01A0128C6D9FCF7F1FD05232860AB807B
:103BEC00032038BD21B1FCF7E9FD06232860BFE7AF
:103BFC00FCF7E4FD2B68C01AC828B3D90020C5E730
:103C0C0061B1FCF7DBFD2B68C01A0128AAD9FCF7BF
:103C1C00D5FD07232860AB80022038BD0523A7E71C
:103C2C000029B6D1FCF7CAFD08232860A0E7FCF7F1
:103C3C00C5FD03232860AB80042038BD09B10723E0
:103C4C0096E7FCF7BBFD2B68C01A01288AD9FCF754
:103C5C00B5FDAC802860052038BD000008B54FF0DC
:103C6C00100E0B480B4B80E8084000238360C360A8
:103C7C0003614361037643768376C3760377437798
:103C8C00FCF7B4FD18B1BDE8084000F0B7BC08BDA6
:103C9C009C0A00200064004010B5044686B0102237
:103CAC00002102A800F094FF2268224B9A423ED1D8
:103CBC0003F5D633DA6902A942F00072DA61DA69E7
:103CCC001D4802F000720092009A9A6942F00802B4
:103CDC009A619B6903F008030193019B4FF4807375
:103CEC000293FDF7BFFA4FF4007302930223039380
:103CFC00032302A910480593FDF7B4FA0F4A1320C9
:103D0C00536823F4C04343F0E06343F480435360AF
:103D1C0000221146FDF7CEF81320FDF7FFF8002224
:103D2C0014201146FDF7C6F81420FDF7F7F806B07D
:103D3C0010BD00BF00640040000C014000000140B9
:103D4C0008B502680A4B9A4211D10A4A4FF44071E5
:103D5C00D369094823F00073D361FDF763FB13208B
:103D6C00FDF7E8F8BDE808401420FDF7E3B808BDFE
:103D7C000064004000100240000C0140124B07B5DB
:103D8C005A690C2042F001025A6100225B6911460B
:103D9C0003F001030193019BFDF78CF80C20FDF758
:103DAC00BDF800220E201146FDF784F80E20FDF719
:103DBC00B5F8002211201146FDF77CF81120FDF713
:103DCC00ADF803B05DF804FB001002400423F7B516
:103DDC0006460F460C4D02AC04F8043D2846002262
:103DEC004FF48051FDF794FB3B46214601223046AF
:103DFC00FEF717F80446012228464FF48051FDF7D0
:103E0C0087FB204603B0F0BD000C01402DE9F341C7
:103E1C000E460746FCF7D2FC052302AC04F8043D21
:103E2C0000224FF4805180461448FDF771FB334655
:103E3C00012221463846FDF7F4FF054680B10122E8
:103E4C004FF480510D48FDF763FB12E0FCF7B6FC14
:103E5C00A0EB080086420BD99DF804309B07EED0EE
:103E6C003346012221463846FEF781F90228EDD16E
:103E7C000225284602B0BDE8F08100BF000C0140CD
:103E8C002DE9F34103268DF8061005469846164891
:103E9C000B0A4FF4FA7117468DF804608DF8053053
:103EAC00FFF7B4FF044698B902464FF480510F480F
:103EBC00FDF72EFB6423324601A92846FDF7B1FF1E
:103ECC00044648B101224FF480510848FDF720FB0D
:103EDC00204602B0BDE8F0816423424639462846AC
:103EEC00FEF745F90446EDE7381A0020000C0140B6
:103EFC002DE9F04F1F46002380460E4691468DB0AB
:103F0C00DFF800A13E4CADF80A308DF809304FF4C3
:103F1C00FA715046FFF77AFF8346002865D10623D5
:103F2C000CAD05F8243D02464FF480512046FDF7B8
:103F3C00EFFA6423012229464046FDF772FF012265
:103F4C00019083464FF480512046FDF7E1FA019B26
:103F5C00002B4AD18DF8093002238DF80C30BDF8B6
:103F6C000A309BB233441B128DF80D30BDF80A3069
:103F7C0033448DF80E309DF809301F2B1DD8BDF839
:103F8C000A309BB2BB4218D29DF80930DBB25A1CE6
:103F9C00D2B28DF80920BDF80A2092B2511C89B218
:103FAC00ADF80A1019F802200CA90B4403F8212CC7
:103FBC00BDF80A303344DB06DDD100224FF48051CA
:103FCC002046FDF7A5FA9DF8092029460332642303
:103FDC004046FDF726FF834601224FF480512046D0
:103FEC00FDF796FABBF1000F03D058460DB0BDE8B3
:103FFC00F08FBDF80A309BB29F4288D8F5E700BF1E
:10400C00000C0140381A002010222DE9F04389B031
:10401C000DEB0200002100F0DBFD3F4BDFF80091BF
:10402C009A693E4D42F010029A619A69484602F034
:10403C0010020092009A9A69DFF8E88042F02002A0
:10404C009A619A694FF4005102F020020192019A90
:10405C009A69002442F004029A619A69012602F0DE
:10406C0004020292029A9A69032742F008029A61AA
:10407C009B69002203F008030393039BFDF748FAA6
:10408C00284601224FF48051FDF742FA40460022A7
:10409C004FF40141FDF73CFA00222846F821FDF7C8
:1040AC0037FA4FF4005304A9484604930797059632
:1040BC000694FDF7D7F804A92846049705940696AC
:1040CC00FDF7D0F8042304A928460493059406941C
:1040DC00FDF7C8F84FF4805304A9284604930797BA
:1040EC00059602270694FDF7BDF84FF4014304A989
:1040FC0040460493059606940797FDF7B3F8F8230A
:10410C0004A928460493059606940797FDF7AAF888
:10411C0009B0BDE8F08300BF00100240000C014064
:10412C00001001400008014070B5144D2A78012A96
:10413C0017D10022124C134B216813488A420CD120
:10414C00124B92B20F491868FEF710FA00230121A6
:10415C000F4A2B701170236070BD165CD65401325F
:10416C00ECE70C4B1B78013B012B05D8FEF79CFCB4
:10417C0010B90122064B1A7070BD00BF75000020EB
:10418C007800002011190020C80F00209C19002075
:10419C0076000020800000200022024B1A70FFF7EE
:1041AC00C3BF00BF7600002070B5114C86B023460B
:1041BC00A4F144020121FCF7BBFC6D46FCF7FEFAAE
:1041CC00A4F1100644F8200C0FCE0FC596E803009E
:1041DC0085E80300203C94E80F00FEF74FFB01221A
:1041EC000821044806B0BDE87040FDF791B900BF46
:1041FC00100B0020000C014070B5114C86B023460A
:10420C00A4F11C020021FCF793FCFCF7D7FA6D46D5
:10421C0044F8200CA4F12006103C0FCC0FC594E8F8
:10422C00030085E8030096E80F00FEF727FB012248
:10423C000821044806B0BDE87040FDF769B900BF1D
:10424C00E80A0020000C0140282230B595B00DEB97
:10425C000200002100F0BCFC142200210DEB020036
:10426C0000F0B6FC1022002101A800F0B1FC0523DF
:10427C000A934FF48033012402250B9312934FF4CD
:10428C00E0130AA813930D940E941195FDF750F9B1
:10429C000F234FF4806205930023294605A807934A
:1042AC00089209930695FDF70BFB4FF4807301A858
:1042BC0001940293FDF7D6FB15B030BD2DE9F84300
:1042CC00FEF7D4FAB24DFCF75BFAB24BB24A1D6062
:1042DC00B24BB34C1A60FFF7B7FFFFF795FEFFF731
:1042EC004DFD00F08DF900F0D1FA00F0B3FA00F0BA
:1042FC0097FAFFF7B3FC00F0B7F96420FCF764FA07
:10430C004FF47A71A748FFF761FD64232246002120
:10431C00A448FFF7B5FD4FF6FD7223886188013B79
:10432C009BB2934288BF01234FF6FF7294BF0023C8
:10433C002380914208BF4FF40053227904BF63805D
:10434C000123FF2A08BF04234FF6FF72E18804BF44
:10435C0023710123914208BF4FF48073227A04BF6A
:10436C00E3800123FF2A08BF00234FF0000108BFA0
:10437C00237242F6B10608BF01234FF000478A4A68
:10438C00DFF868E21068013005D1032914BF7346C9
:10439C00334613600123906A0131013004BF9762E8
:1043AC000123042902F10402ECD14FF6FF72E16DF6
:1043BC00914209D14FF4E133E3656423784A00213B
:1043CC007848FFF795FD01E0002BF6D104217748E2
:1043DC00FDF798F8012840F09F804FF4E1336C48CA
:1043EC006B60FEF749F8FEF7ADFB714E6F4D714CEB
:1043FC00714B1A68920611D55868704BC0B2187080
:10440C006F4B704F19684A1CB2F5806F1A6008BF69
:10441C000022785408BF1A60FFF782F8FCF7CEF937
:10442C004FF00009684FD7E90023801A69EB0301AC
:10443C00002908BF14280AD3644B1B7803F0FF082B
:10444C002BB9FCF7BBF987E80101FFF76DFEFCF710
:10445C00B5F94FF000095E4FD7E90023801A69EBDC
:10446C000301002908BFB0F5FA7F09D3FCF7A6F9C0
:10447C00002338604FF4005130467B60FDF74DF857
:10448C0002212846FDF73EF8431E59425941514836
:10449C00FFF75AFB052801D1FFF74AFB08212846F4
:1044AC00FDF730F801280BD1DFF844814A4F98F81A
:1044BC000030002B38D188F80000FCF77FF9386009
:1044CC004FF400412046FDF71DF801280AD1DFF812
:1044DC002481424F98F80030ABBB88F80000FCF701
:1044EC006DF938604FF480712046FDF70BF8012808
:1044FC0080467FF47DAF3A48FCF7B9FC042843D0E2
:10450C00DFF8F490374F99F8003063BB89F80080DE
:10451C00FCF754F938606BE7E36D334A591E91424E
:10452C0088BF4FF4E1335AE7FCF748F93B68C01AEF
:10453C000328C5D9002208212846FCF7E9FF0023EF
:10454C0088F80030B9E7FCF739F93B68C01A032842
:10455C00C8D900224FF400412046FCF7D9FF0023B4
:10456C0088F80030BEE7FCF729F93B68C01A6428CC
:10457C007FF63EAF00224FF480712046FCF7C8FF57
:10458C00002389F8003033E70020BDE8F88300BF32
:10459C00901A00209C1900209C1B0020A0190020C0
:1045AC00380A0020381A0020440A0020000C014070
:1045BC000010014000080140004800401019002084
:1045CC00480000204C1000206800002076000020DD
:1045DC00600000209419002054000020700000207E
:1045EC009C0A00204C0000207E96980020A1070019
:1045FC00580000207400002050000020704700007C
:10460C0008B54FF0FF324FF480730648064980E836
:10461C000E00FDF75FFB18B1BDE80840FFF7EEBFD9
:10462C0008BD00BF241A00200028004007B50B4B22
:10463C0002689A420ED1FCF775FF094BDA6942F019
:10464C000062DA610122DB6903F000630193019BD4
:10465C00044B1A6003B05DF804FB00BF0028004057
:10466C00001002403C04424208B54FF4827E0D48D3
:10467C000D4B4FF4007280E8084000238261836088
:10468C00C3600361436128220362436283620A238D
:10469C00C261C362FDF70AFE18B1BDE80840FFF71E
:1046AC00ADBF08BD381A00200038004010B50446D4
:1046BC0086B01022002102A800F08AFA2268174B5B
:1046CC009A4228D103F5EC33DA6902A942F480420C
:1046DC00DA61DA69124802F480420092009A9A690F
:1046EC0042F008029A619B6903F008030193019B55
:1046FC004FF4204302930223039303230593FCF707
:10470C00B1FD4FF480430293002302A904480393A4
:10471C000493FCF7A7FD06B010BD00BF00380040A5
:10472C00000C01400E4B82B09A6942F001029A6172
:10473C009A6902F001020092009ADA6942F0805202
:10474C00DA61DB69074A03F080530193019B5368DC
:10475C0023F0E06343F00073536002B0704700BF76
:10476C0000100240000001407047FEE7FEE7FEE744
:10477C00FEE7704770477047FCF714B80148FCF728
:10478C00DDBC00BFD01A00200148FCF7D7BC00BF2D
:10479C00141B00200148FCF7D1BC00BF581B0020A3
:1047AC000148FCF753BA00BF9C0A0020FFF7F8BF82
:1047BC000148FDF799BF00BF9C1B00200148FDF785
:1047CC0093BF00BFDC1B00200148FDF78DBF00BF6D
:1047DC00901A00200F4B1A6842F001021A605968B7
:1047EC000D4A0A405A601A6822F0847222F4803210
:1047FC001A601A6822F480221A605A6822F4FE02A7
:10480C005A604FF41F029A604FF00062034B9A609B
:10481C00704700BF001002400000FFF800ED00E000
:10482C0008B54FF416530948094980E80A000021DD
:10483C000C238160C160016143618161FDF74AFE17
:10484C0018B1BDE80840FFF7D9BE08BD9C1B00207D
:10485C000038014008B54FF4E13E0A480A4B0C22DF
:10486C0080E80840002342618360C3600361836178
:10487C00C361FDF701FE18B1BDE80840FFF7BEBEED
:10488C0008BD00BFDC1B00200044004008B54FF4FD
:10489C00E13E0A480A4B0C2280E8084000234261A2
:1048AC008360C36003618361C361FDF7E5FD18B1EB
:1048BC00BDE80840FFF7A2BE08BD00BF901A00205B
:1048CC0000480040F0B5102705468BB03A46002151
:1048DC0006A800F07DF92B68674A934244D1674BD8
:1048EC0006A99A69664842F480429A619A69002640
:1048FC0002F480420092009A9A69624C42F00402DF
:10490C009A619B6903F004030193019B4FF40073BC
:10491C0006930223079303230993FCF7A3FC4FF49C
:10492C008063574806A9069307960896FCF79AFCED
:10493C00554B204684E888008023A660E3602661FE
:10494C006661A661E661FCF719FB08B1FFF756FE3C
:10495C00002225202C6311466562FCF7ABFA25205A
:10496C00FCF7DCFA0BB0F0BD484A93423FD1434B05
:10497C0006A9DA69424842F40032DA61DA690026A3
:10498C0002F400320292029A9A69414C42F00402FB
:10499C009A619B6903F004030393039B042306931E
:1049AC000223079303230993FCF75CFC0823344888
:1049BC0006A9069307960896FCF754FC354B20463F
:1049CC0084E888008023A660E36026616661A661A6
:1049DC00E661FCF7D3FA08B1FFF710FE002226209F
:1049EC002C6311466562FCF765FA2620B8E72A4A63
:1049FC009342B7D1214B06A9DA69284842F48022A8
:104A0C00DA61DA69002602F480220492049A9A6927
:104A1C00234C42F008029A619B6903F0080305934A
:104A2C00059B4FF48063069302230793032309939A
:104A3C00FCF718FC4FF40063184806A90693079678
:104A4C000896FCF70FFC174B204684E8880080235F
:104A5C00A660E36026616661A661E661FCF78EFAEA
:104A6C0008B1FFF7CBFD002227202C6311466562AD
:104A7C00FCF720FA272073E70038014000100240B1
:104A8C0000080140141B0020440002400044004078
:104A9C00581B00208000024000480040000C0140E0
:104AAC00D01A00201C00024003681F4A10B5934224
:104ABC00044612D102F5584293694FF4C06123F4B5
:104ACC00804393611948FCF7ADFC206BFCF786FA28
:104ADC002520BDE81040FCF72DBA154A93420ED1A3
:104AEC0002F5E632D3690C2123F40033D3610F486D
:104AFC00FCF798FC206BFCF771FA2620E9E70D4ACD
:104B0C0093420FD102F5E432D3694FF4406123F4A0
:104B1C008023D3610848FCF785FC206BFCF75EFA18
:104B2C002720D6E710BD00BF003801400008014027
:104B3C000044004000480040000C0140002103E00C
:104B4C000B4B5B58435004310A480B4B42189A42AA
:104B5C00F6D30A4A02E0002342F8043B084B9A427F
:104B6C00F9D3FFF737FE00F00FF8FFF7A7FB7047FC
:104B7C008C4C0008000000200C00002010000020CD
:104B8C001C1C0020FEE7000070B500250C4E0D4CDF
:104B9C00A41BA410A54209D100F046F800250A4E2A
:104BAC000A4CA41BA410A54205D170BD56F82530A3
:104BBC0098470135EEE756F8253098470135F2E76E
:104BCC00844C0008844C0008844C0008884C000875
:104BDC0003460244934200D1704703F8011BF9E7E6
:104BEC00C0F3C7537F3B162B10B5014614DC002BCA
:104BFC0007DA013300F0004101D141F07E51084643
:104C0C0010BD084A1A411042F9D04FF480011941E5
:104C1C00014421EA0201F2E7802BF0D1FBF79EFA66
:104C2C000146ECE7FFFF7F00F8B500BFF8BC08BCFD
:104C3C009E467047F8B500BFF8BC08BC9E4670474E
:104C4C0002030405060708090A0B0C0D0E0F1010C1
:104C5C0002030405060708090A0B0C0D0E0F1010B1
:104C6C000000000000000000010203040607080910
:084C7C00000000000102030426
:044C840031010008F2
:044C88000D01000812
:0C4C8C00010000001000000000A24A041B
:0400000508004B495B
:00000001FF
