:020000040800F2
:10000000005000209D3A0008C9360008CB36000891
:10001000CD360008CF360008D136000800000000B9
:10002000000000000000000000000000D3360008BF
:10003000D536000800000000D7360008D936000881
:10004000E53A0008E53A0008E53A0008E53A000814
:10005000E53A0008E53A0008E53A0008E53A000804
:10006000E53A0008E53A0008E53A0008E53A0008F4
:10007000DD360008E53A0008E9360008E53A0008F0
:10008000E53A0008F5360008E53A00080D370008A3
:1000900001370008E53A0008E53A0008E53A0008AB
:1000A000E53A0008E53A0008E53A0008E53A0008B4
:1000B000E53A0008E53A0008E53A0008E53A0008A4
:1000C000E53A0008E53A0008E53A0008E53A000894
:1000D000E53A0008113700081D37000829370008E5
:1000E000E53A0008E53A0008E53A0008000000009B
:1000F0000000000000000000000000000000000000
:0C01000000000000000000005FF808F1A3
:10010C0010B5054C237833B9044B13B10448AFF345
:10011C0000800123237010BD10000020000000009F
:10012C00403B000808B5034B1BB103490348AFF330
:10013C00008008BD0000000014000020403B0008B7
:10014C00034613F8012B002AFBD1181A013870470B
:10015C0038B50E4B054618784FF47A73B3FBF0F3B1
:10016C000B4A1068B0FBF3F000F0FEFB044658B9E4
:10017C000F2D09D8024629464FF0FF3000F0A6FBA0
:10018C00044B20461D6038BD012038BD0000002006
:10019C000800002004000020074A08B5136803205B
:1001AC0043F01003136000F07FFB0020FFF7D0FF3B
:1001BC0003F062FA002008BD00200240034A044B01
:1001CC0011681B780B441360704700BF7C00002043
:1001DC0000000020014B1868704700BF7C00002015
:1001EC0038B50446FFF7F6FF0546631C1EBF044BEB
:1001FC001B78E418FFF7EEFF401B8442FAD838BD99
:10020C000000002038B5044600286ED090F820304D
:10021C000BB902F07BFE2268136823F00203136013
:10022C00FFF7D8FF054623685A68910751D41A681E
:10023C0042F001021A60FFF7CDFF054623685A68A9
:10024C00D20754D5227E0020012A1A680CBF42F036
:10025C00800222F080021A60627E012A1A680CBFAA
:10026C0042F0400222F040021A60A27E012A1A6873
:10027C000CBF42F0200222F020021A60E27E012A1A
:10028C001A680CBF22F0100242F010021A60227F92
:10029C00012A1A680CBF42F0080222F008021A6008
:1002AC00627F012A1A680CBF42F0040222F0040299
:1002BC001A60E168A2680A4321690A4361690A432A
:1002CC00616801390A43DA610123606284F82030E5
:1002DC0038BDFFF77FFF401B0A28A4D9636A43F49B
:1002EC0000336362052384F82030012038BDFFF70A
:1002FC0071FF401B0A28A1D9F0E790F8203070B5A7
:10030C00013B012B5FD8012403684869D3F8002214
:10031C0042F00102C3F8002200F01F0204FA02F2BC
:10032C00D443D3F81C522540C3F81C52CD6985BB6D
:10033C00D3F80C52CE682540C3F80C528D8803EBD1
:10034C00C00045EA0645C0F840528E680D8845EA63
:10035C000645C0F84452886968BBD3F804022040B3
:10036C00C3F80402086950BBD3F814022040C3F848
:10037C001402096A0020012902BFD3F81C120A4397
:10038C00C3F81C22D3F8002222F00102C3F8002289
:10039C0070BD012DDFD1D3F80C520E681543C3F894
:1003AC000C528D8803EBC00045EA0645C0F840525C
:1003BC008E688D89CBE7D3F804021043D0E7D3F8CD
:1003CC0014021043D3E7436A43F4802343620120B1
:1003DC0070BD38B590F820300446012B1FD1022394
:1003EC00026880F82030136823F001031360FFF7D4
:1003FC00F1FE05462368586810F0010001D16062D7
:10040C0038BDFFF7E7FE401B0A28F3D9636A43F4B3
:10041C0000336362052384F82030012038BD436A21
:10042C0043F400234362F8E738B590F820300446D3
:10043C00022B22D10268136843F001031360FFF70B
:10044C00C9FE054623685A68D20708D51A680020E9
:10045C0022F002021A60012384F8203038BDFFF725
:10046C00B9FE401B0A28EDD9636A43F4003363627A
:10047C00052384F82030012038BD436A43F48013EF
:10048C004362F8E710B5044670B1FFF7CDFF204684
:10049C0002F090FD00202268136843F400431360BF
:1004AC00606284F8200010BD012010BDF0B590F8FA
:1004BC0020500668013D012DB46841D814F0E05F6E
:1004CC003AD0C4F30164032C4FF0010505D1436A03
:1004DC0043F4000343620120F0BDA5401D60886811
:1004EC00CF6804F1180310BB086847EA40501B01A1
:1004FC00F05008692401097D3319C3F884010129DE
:10050C0008BFD3F88411344404BF41F48071C3F89C
:10051C00841151680020C4F88C111268C4F8882129
:10052C00D3F8802142F00102C3F88021F0BD4D6860
:10053C00384340EAC500DAE7436A43F40013C9E7DD
:10054C00436A43F48023C5E7F0B590F82040013CA2
:10055C00012C6BD8066841B9F468A40707D1436A2B
:10056C0043F4001343620120F0BD3469F5E70C013C
:10057C003519D5F8B07107F004079760002F4BD1EF
:10058C00D5F8B0717F0D1760D5F8B0712644C7F35C
:10059C004007D760D5F8B47107F00F071761D5F88D
:1005AC00B471D5F8B451C7F307272D0C9761556179
:1005BC00D6F8B8211A7002682244D2F8B821120A6F
:1005CC005A7002682244D2F8B821120C9A70026850
:1005DC002244D2F8B821120EDA7002682244D2F802
:1005EC00BC211A7102682244D2F8BC21120A5A7139
:1005FC0002682244D2F8BC21120C9A71026814448D
:10060C00D4F8BC21120EDA71036851B9DA6842F0E1
:10061C002002DA600020F0BDD5F8B071FF085760F9
:10062C00B2E71A6942F020021A61F3E7436A43F415
:10063C00802397E790F82030013B012B05D8026806
:10064C0000205369194351617047436A43F4802376
:10065C00436201207047704770477047704770477E
:10066C00704770472DE9F84F036805465E69D3F86B
:10067C00049016F001049F68D3F80CB0D3F810A0C6
:10068C00D3F8188022D017F0010407D00122B90743
:10069C009A6040F1A38002F085FB0024FB0509D58C
:1006AC004FF480722B68B8059A6040F1A5802846FB
:1006BC0002F079FBFB0309D54FF480322B68B803A9
:1006CC009A6040F1A780284602F06EFB330707D5ED
:1006DC001BF0100F1FBF10222B6844F40074DA605B
:1006EC00770708D51BF0080F05D008222B68284681
:1006FC00DA60FFF7B3FFB00706D52B68DB68990704
:10070C0002D0284602F094FD720607D51AF0100F9D
:10071C001FBF10222B6844F480641A61B30608D5FD
:10072C001AF0080F05D008222B6828461A61FFF72B
:10073C0096FFF70606D52B681B69980702D028464A
:10074C0002F04EFDB10308D519F0100F05D01022A0
:10075C002B6828465A60FFF783FFF20308D519F07F
:10076C00080F05D008222B6828465A60FFF779FF3E
:10077C0033042AD519F0040F2A6824D0F70504D5C0
:10078C0018F0010F18BF44F00104B00504D518F09F
:10079C00020F18BF44F00204710504D518F0040FC1
:1007AC0018BF44F0040433050DD518F070030AD0BB
:1007BC00302B4CD03CD8102B43D0202B44D09369F9
:1007CC0023F070039361042353602CB16B6A2846A9
:1007DC001C436C6202F0EAFABDE8F88F7A0705D484
:1007EC0017F0080405D1FFF736FF57E74FF4006404
:1007FC0054E74FF4805451E7790502D544F4005482
:10080C0058E73A0502D544F4804453E72846FFF7ED
:10081C0023FF4FE7790302D544F4004456E73A032B
:10082C0002D544F4803451E72846FFF716FF4DE714
:10083C00502B0FD0602B10D0402BC0D144F0400473
:10084C00BDE744F00804BAE744F01004B7E744F0FD
:10085C002004B4E744F08004B1E744F48074AEE7BC
:10086C0090F82030DBB25A1E012A08D80268516871
:10087C00890706D4126812F0020F18BF032318461A
:10088C0070470423FBE7406A704790F82030013B27
:10089C00012B95BF0023436A436243F4802392BF2C
:1008AC001846436201207047074A0002D36800F4DF
:1008BC00E06023F4E0631B041B0C43F0BF6343F4C0
:1008CC0000330343D360704700ED00E0174B30B5A5
:1008DC00DC68C4F30224C4F10703251D042B28BFD4
:1008EC000423062D4FF0010598BF002405FA03F3ED
:1008FC0003F1FF3388BF033C1940A14005FA04F40F
:10090C00013C2240002842EA01024FEA0212AFBF2A
:10091C0000F16040064B00F00F00D2B2A5BFD2B27E
:10092C0000F561401A5480F8002330BD00ED00E062
:10093C0014ED00E00123420900F01F0003FA00F05F
:10094C00014B43F82200704700E100E0012243090B
:10095C0000F01F0002FA00F0024A203342F8230094
:10096C00704700BF00E100E00138B0F1807F0AD28F
:10097C00F021064B064A586082F82310002007220B
:10098C0098601A6070470120704700BF10E000E0CB
:10099C0000ED00E010B530B314220168134B8468ED
:1009AC000B44B3FBF2F39B000364114B0A68C36363
:1009BC00436822F47F522343C46822F0300223435D
:1009CC00046923434469234384692343C46923434F
:1009DC0013430B600122002380F82120836380F8ED
:1009EC002030184610BD012010BD00BFF8FFFDBF20
:1009FC000000024010B508B30168114A0B680A44A4
:100A0C0023F001030B6000230B604B608B60CB6009
:100A1C001421B2FBF1F201210A4C9200026401FA9A
:100A2C0002F2C46362608362C362036343638363E1
:100A3C0080F8213080F82030184610BD012010BD00
:100A4C00F8FFFDBF00000240F0B590F82040012CEB
:100A5C0035D0012490F8215080F82040A5424FF069
:100A6C0000064FF0020428D180F821400468866308
:100A7C002668076C26F001062660C66BBD407560C3
:100A8C00636043680568102BC36A0BBFA260A1604A
:100A9C00E160E2604BB1236843F00E0323602B68E6
:100AAC00002043F001032B60F0BD236823F0040306
:100ABC002360236843F00A03F0E780F820600220EB
:100ACC00F0BD000090F8213010B5022B03D00423A8
:100ADC008363012010BD03681A6822F00E021A60AD
:100AEC001A6822F001021A60184A93421FD014327D
:100AFC0093421ED0143293421DD0143293421DD017
:100B0C00143293421DD0143293420CBF4FF4801315
:100B1C004FF080730E4A00245360012380F821307B
:100B2C00436B80F820407BB19847204610BD0123D1
:100B3C00F0E71023EEE74FF48073EBE74FF48053AC
:100B4C00E8E74FF48033E5E7184610BD0800024093
:100B5C000000024070B40425C66B026C3468036854
:100B6C0095402542196832D04D0730D51A68960643
:100B7C005EBF1A6822F004021A603E4A934219D0F2
:100B8C001432934218D01432934217D01432934239
:100B9C0017D01432934217D0143293420CBF4FF437
:100BAC0080034FF08063344A5360C36A002B5ED0DD
:100BBC0070BC18470423F6E74023F4E74FF4806336
:100BCC00F1E74FF48043EEE74FF48023EBE7022587
:100BDC009540254235D08D0733D51A68940606D436
:100BEC001A6822F00A021A60012280F82120214A98
:100BFC00934219D01432934218D01432934217D026
:100C0C001432934217D01432934217D014329342B9
:100C1C000CBF4FF400134FF00073174A53600023BE
:100C2C0080F82030836AC1E70223F6E72023F4E73B
:100C3C004FF40073F1E74FF40053EEE74FF4003339
:100C4C00EBE708259540254211D009070FD5196807
:100C5C0021F00E011960012303FA02F27260836322
:100C6C0080F82130002380F82030036B9EE770BCA5
:100C7C00704700BF08000240000002402DE9F74F0A
:100C8C0000221646654BDFF8A4E1DFF8A4C14FF053
:100C9C0001080C6808FA06F808EA0404A0457FD19C
:100CAC004D68122D00F0AF8000F28880022D00F00C
:100CBC00A7807CD8002D00F08E80012D00F09E8046
:100CCC004FF00F09FF2C93BF824606F18045083D7B
:100CDC00D0F800B092BFB500D0F804B0AD0009FA5E
:100CEC0005F82BEA080802FA05F588BF00F1040A9A
:100CFC0048EA0505CAF80050D1F804A01AF0805F44
:100D0C004ED0474D464FAD6926F0030845F001051E
:100D1C00BD61BD6908F1804805F00105019508F534
:100D2C00803806F0030B019D4FEA8B0BD8F8085066
:100D3C0009FA0BF925EA09093A4DA84268D005F5DC
:100D4C008065A84266D005F58065A84264D005F59B
:100D5C008065A8420CBF0325042505FA0BF545EA6E
:100D6C000905C8F808501D681AF4803F14BF2543C4
:100D7C00A5431D605D681AF4003F14BF2543A543CD
:100D8C005D609D681AF4801F14BF2543A5439D60C8
:100D9C00DD681AF4001F14BF2C4325EA0404DC6040
:100DAC000136102E7FF473AF03B0BDE8F08F032D26
:100DBC0022D0112D84D1CA68043281E71A4FBD426A
:100DCC0009D012D8DFF86C904D4504D009F5803964
:100DDC004D457FF475AF8A68C2B1012A0CBFC0F8CB
:100DEC001080C0F8148008226AE77545F3D0654579
:100DFC00F1D0DFF84490EBE7002261E7CA685FE7C7
:100E0C00CA6808325CE7CA680C3259E7042257E713
:100E1C000025A2E70125A0E702259EE7000401407A
:100E2C0000100240000801400000211000003110A9
:100E3C000000321000001110000022102DE9F04FBC
:100E4C0000224FF001094FF00F0C4FF0040A304C08
:100E5C00DFF8C4B031FA02F301D1BDE8F08F09FA22
:100E6C0002F30B404CD0FF2B98BF07466FEA0303ED
:100E7C0085BF02F18045083DD0F800E0D0F804E0D1
:100E8C0094BF9500AD000CFA05F62EEA06060AFA98
:100E9C0005F588BF071D2E433E60C56802F00307A9
:100EAC001D40C56022F0030505F1804505F5803530
:100EBC00AE68BF000CFA07F806EA080E154EB042F1
:100ECC0020D006F58066B0421ED006F58066B04292
:100EDC001CD058450CBF03260426BE40B6450FD186
:100EEC00AE6826EA0806AE6025681D402560656878
:100EFC001D406560A5681D40A560E5682B40E3605A
:100F0C000132A7E70026E8E70126E6E70226E4E738
:100F1C00000401400008014000140140836819429C
:100F2C0014BF0120002070470AB101617047090409
:100F3C00FBE7C3685940C160704700000122014BB8
:100F4C001A60704720000E4203682DE9F341DB075D
:100F5C00054610D42B689F075ED42B68190700F147
:100F6C0095802B685A0700F1BF80EA69002A40F08F
:100F7C002D81002014E0904C636803F00C03042BCB
:100F8C0007D0636803F00C03082B0CD16368DE03F5
:100F9C0009D523689C03DDD56B68002BDAD10120C1
:100FAC0002B0BDE8F0816B68B3F5803F10D12368C7
:100FBC0043F480332360FFF70DF90646236898034A
:100FCC00C8D4FFF707F9801B6428F7D90320E7E79B
:100FDC009BB9236823F480332360236823F4802394
:100FEC002360FFF7F7F8064623689903B2D5FFF79D
:100FFC00F1F8801B6428F7D9E8E7B3F5A02F236834
:10100C0003D143F480232360D1E723F4803323609E
:10101C00236823F48023CDE7674C636813F00C0F2F
:10102C0007D0636803F00C03082B10D16368DA0354
:10103C000DD423689B0702D52B69012BAFD12368F4
:10104C006A6923F0F80343EAC203236085E72A693F
:10105C005A4B6AB101221A60FFF7BCF806462368A6
:10106C009F07ECD4FFF7B6F8801B0228F7D9ADE741
:10107C001A60FFF7AFF80646236898077FF56DAF47
:10108C00FFF7A8F8801B0228F6D99FE7AA694A4CFB
:10109C004B4BDAB101221A60FFF79CF80646636AE3
:1010AC009B070DD54FF4FA52464B1B68B3FBF2F37A
:1010BC00019300BF019B5A1E0192002BF9D150E7FE
:1010CC00FFF788F8801B0228E9D97FE71A60FFF741
:1010DC0081F80646636A9F077FF543AFFFF77AF8FE
:1010EC00801B0228F6D971E7334CE369D80024D46D
:1010FC000127E36943F08053E361E36903F0805314
:10110C000093009B304E3368D90518D5EB68012B42
:10111C0026D1236A43F001032362FFF75BF841F207
:10112C0088368046236A9B073FD5002F3FF41DAFBE
:10113C00E36923F08053E36117E70027E2E73368A4
:10114C0043F480733360FFF745F880463368DA0563
:10115C00DCD4FFF73FF8A0EB08006428F6D935E79C
:10116C00ABB9236A41F2883823F001032362236A66
:10117C0023F004032362FFF72DF80646236A980731
:10118C00D3D5FFF727F8801B4045F7D91EE7052B71
:10119C00236A03D143F004032362BAE723F001036B
:1011AC002362236A23F00403B6E7FFF713F8A0EBDE
:1011BC000800B042B6D909E70010024000004242D4
:1011CC00800442420800002000700040224C6368FA
:1011DC0003F00C03082B3FF4E2AE00231F4E022A4F
:1011EC0033602BD1FEF7F6FF0746236899011FD415
:1011FC002B6AB3F5803F05D16268A96822F40032EE
:10120C000A436260696A62680B4322F474121343E6
:10121C00636001233360FEF7DDFF054623689A0106
:10122C003FF5A7AEFEF7D6FF401B0228F6D9CDE658
:10123C00FEF7D0FFC01B0228D7D9C7E6FEF7CAFFBE
:10124C00054623689B017FF594AEFEF7C3FF401B58
:10125C000228F6D9BAE600BF0010024060004242F4
:10126C0030B5194B87B002AC03F110052246186853
:10127C005968083303C2AB421446F7D101238DF8E9
:10128C000430022311498DF805304B6803F00C0231
:10129C00082A17D1C3F3834206A80244DB0312F8D1
:1012AC00102C0CD54B680A48C3F34043504306AA94
:1012BC00134413F8143CB0FBF3F007B030BD0548F1
:1012CC005043FAE70248F8E7583B00080010024088
:1012DC0000127A0000093D00544A2DE9F0411368D0
:1012EC00054603F007038B420E462AD329688C0768
:1012FC0034D4CA0747D44D4A136803F007039E42FF
:10130C00C0F082802A684A4C12F0040F40F08780AB
:10131C00130706D563682A6923F4605343EAC203B2
:10132C006360FFF79DFF6368424AC3F30313D35C0A
:10133C00D840414B18600020FEF70AFF0020BDE8A2
:10134C00F081136823F007030B431360136803F059
:10135C0007039942CAD00120BDE8F081344B11F04B
:10136C00040F1EBF5A6842F4E0625A60080742BF7D
:10137C005A6842F460525A605A68A86822F0F00227
:10138C0002435A60B5E76A68294C012A23681CD1CC
:10139C0013F4003FDFD0636841F2883823F0030375
:1013AC0013436360FEF716FF6B680746012B14D1DD
:1013BC00636803F00C03042B9DD0FEF70BFFC01BDE
:1013CC004045F5D90320BDE8F081022A02D113F083
:1013DC00007FDFE713F0020FDCE7022B0FD163680D
:1013EC0003F00C03082B86D0FEF7F4FEC01B40451F
:1013FC00F5D9E7E7FEF7EEFEC01B4045E2D863687F
:10140C0013F00C0FF6D176E7136823F00703334380
:10141C001360136803F007039E429CD172E7636864
:10142C00E96823F4E0630B43636071E7002002403A
:10143C0000100240783B000808000020044B054ACD
:10144C005B68C3F30223D35C034A1068D84070472F
:10145C0000100240883B000808000020044B054A9D
:10146C005B68C3F3C223D35C034A1068D84070474F
:10147C0000100240883B00080800002003682DE99A
:10148C00F341D907054620D5354CE369DA0032D44F
:10149C000127E36943F08053E361E36903F0805370
:1014AC000193019B2F4E3368DB0526D5236A13F479
:1014BC00407336D1236A6A6823F440731343236262
:1014CC001FB1E36923F08053E3612868830706D5D5
:1014DC00234AA968536823F440430B43536010F02C
:1014EC0010001BD01E4AE9685368002023F48003C7
:1014FC000B43536012E00027D4E7336843F4807346
:10150C003360FEF767FE80463368D805CED4FEF70D
:10151C0061FEA0EB08006428F6D9032002B0BDE8F8
:10152C00F0816A6802F440729342C3D001200E4AE3
:10153C00236A1060002023F4407110602162D907E7
:10154C00B8D5FEF747FE41F288380646236A9A075B
:10155C00B0D4FEF73FFE801B4045F7D9DDE700BF56
:10156C0000100240007000404004424270B5044636
:10157C00354B86B002AD03F110062A46186859683F
:10158C00083303C2B3421546F7D101238DF804305A
:10159C0002239C428DF8053047D0102C17D0012C1B
:1015AC004FD140F20231294A136A1940B1F5817FBB
:1015BC0044D003F44073B3F5007F2DD149F640407D
:1015CC00536A13F0020F08BF002006B070BD1F4B0A
:1015DC005968186810F08070F7D0C1F3834206A8E0
:1015EC00024412F8100CCA0341BF5A6806A9C2F390
:1015FC004042521844BF12F8141C154A5B684CBF89
:10160C00B2FBF1F2134A5B0202FB00F0DDD40323C0
:10161C004000B0FBF3F0D8E7B3F5407F11D113686D
:10162C004FF2244013F4003FCDE7FFF717FF074BB1
:10163C005B68C3F3813301335B00EAE74FF400408E
:10164C00C3E70020C1E700BF683B00080010024060
:10165C0000127A0000093D0038B50446FEF7BAFDC9
:10166C00054623685A68920605D55A68002042F050
:10167C0010025A6038BDFEF7ADFD401BB0F57A7F05
:10168C00EFD9032038BD026838B55368044623F0FF
:10169C0010035360FEF79EFD054623685B689B06AE
:1016AC0001D5002038BDFEF795FD401BB0F57A7FC3
:1016BC00F3D9032038BD38B50446A8B10268536885
:1016CC0023F008035360FEF785FD054623685B682D
:1016DC001B0701D5002038BDFEF77CFD401BB0F583
:1016EC007A7FF3D9032038BD012038BD10B50446EC
:1016FC0070B1437C03F0FF0213B9027401F040FF98
:10170C00022320466374FFF7D6FF18B104236374D9
:10171C00012010BD2046FFF79FFF0028F6D122685C
:10172C00A068536823F007035360174A18B1116B74
:10173C0021F001011163D36A23F460730343D36274
:10174C006068431C05D10120FFF710FF0028DDD095
:10175C0001382268936823F00F0343EA1043936027
:10176C00D36880B21B0C1B041843D0602046FFF7D3
:10177C008AFF012310B104226274C9E7E07363731A
:10178C00A373637410BD00BF006C004010B5044619
:10179C00002834D00023836290F851300BB901F04B
:1017AC002FFF0223216884F851300B68A06823F0C6
:1017BC0040030B606368A2690343E068034320693C
:1017CC00034360690343E0690343206A0343A06A4F
:1017DC00034302F4007003430B60120C636A02F0C3
:1017EC0004021A43E36A4A600B61CB69002023F4BC
:1017FC000063CB610123606584F8513010BD01207A
:10180C0010BD0368DA6822F49072DA605A6922F02B
:10181C0001025A61202380F83A3070472DE9F047D5
:10182C000568C2682B69016923F4405313432B618B
:10183C008368EA680B43416922F4B05222F00C022F
:10184C000B431343EB606B69826923F440731343BE
:10185C006B61404B81469D424FF0190446D1FFF716
:10186C00FDFD04FB00F3D9F804604FF06408B600EA
:10187C00B3FBF6F3B3FBF8F31E01FFF7EFFD604388
:10188C00D9F804309B00B0FBF3F7FFF7E7FD60439A
:10189C00D9F804309B00B0FBF3F3B3FBF8F308FB6F
:1018AC0013731B013233B3FBF8F303F0F007FFF7AC
:1018BC00D5FD6043D9F804209200B0FBF2FAFFF793
:1018CC00CDFD6043D9F804309B00B0FBF3F3B3FBC0
:1018DC00F8F308FB13A31B013233B3FBF8F303F04B
:1018EC000F033B433344AB60BDE8F087FFF7A6FD25
:1018FC0004FB00F3D9F804604FF06408B600B3FBA6
:10190C00F6F3B3FBF8F31E01FFF798FD6043D9F82B
:10191C0004309B00B0FBF3F7FFF790FD6043D9F860
:10192C0004309B00B0FBF3F3B3FBF8F308FB137329
:10193C001B013233B3FBF8F303F0F007FFF77EFD26
:10194C006043D9F804209200B0FBF2FAFFF776FD61
:10195C00B7E700BF0038014010B5044640B390F81B
:10196C00393003F0FF021BB980F8382001F054FF26
:10197C002423226884F83930D368204623F400539A
:10198C00D360FFF74BFF236800201A6922F49042C2
:10199C001A615A6922F02A025A61DA6842F400523A
:1019AC00DA602023E06384F8393084F83A3010BDD3
:1019BC00012010BD38B50D460446002831D090F8F2
:1019CC00393003F0FF021BB980F8382001F024FFF6
:1019DC002423226884F83930D368204623F400533A
:1019EC00D360FFF71BFF236800201A6922F4006202
:1019FC001A615A6922F02A025A611A6942F4804229
:101A0C001A61196921F0200129431961DA6842F43D
:101A1C000052DA602023E06384F8393084F83A30DD
:101A2C0038BD012038BD10B5044668B1242380F8B8
:101A3C00393001F0E3FF0020E06384F8380084F8CB
:101A4C00390084F83A0010BD012010BD38B50446A9
:101A5C00134694F83920202A2AD139B333B394F899
:101A6C003820012A24D00122002584F83820212294
:101A7C00E384206BE56384F839200E4AA384216249
:101A8C0082620D4A4563C2620C4A026322680432C8
:101A9C00FEF7DAFF6FF04002236828461A605A6995
:101AAC0084F8385042F080025A6138BD012038BDAC
:101ABC00022038BDCD1A0008FB1A0008851B00084F
:101ACC0008B50368426A1B6813F020030AD1D3845B
:101ADC0013685A6922F080025A61DA6842F04002B7
:101AEC00DA6008BD104601F073FB08BD704708B5FD
:101AFC00406AFFF7FBFF08BD704790F83A3010B50D
:101B0C00222B36D183680169B3F5805F0268836A42
:101B1C0023D15268E9B9C2F3080223F8022B83627D
:101B2C00C48D013CA4B2C4858CB90368DA6822F078
:101B3C002002DA60DA6822F48072DA605A6922F0E4
:101B4C0001025A61202380F83A30FFF7D5FF0020BC
:101B5C0010BDD2B223F8012BE1E721B9591C526810
:101B6C0081621A70DCE75268591C816202F07F02B4
:101B7C00F7E7022010BD7047416A08B50B685A6937
:101B8C0091F8390021280AD1120608D50022CA84FE
:101B9C00DA6822F0C002DA60202281F839205B6911
:101BAC0091F83A20222A06D15B0604D50023084678
:101BBC00CB85FFF726FECB6B084643F01003CB63B7
:101BCC00FFF7D9FF08BD0000036870B51A6804461A
:101BDC001607D9685D6907D196065AD58D0658D572
:101BEC00BDE87040FFF789BF15F0010502D111F473
:101BFC00907F4ED0D30705D5CE0542BFE36B43F0A3
:101C0C000103E363500704D51DB1E36B43F00203FA
:101C1C00E363930704D51DB1E36B43F00403E36363
:101C2C00160704D51DB1E36B43F00803E363E36BC4
:101C3C00002B66D0950604D5880602D52046FFF702
:101C4C005CFF236820465D69E26B110702D415F036
:101C5C0040051AD0FFF7D5FD23685A69520610D5F6
:101C6C005A69606B22F040025A6150B1254B4363B4
:101C7C00FEF728FF002844D0606BBDE87040436B32
:101C8C0018472046FFF777FF70BDFFF774FFE56339
:101C9C0070BD160627D50D0625D594F83920212AB6
:101CAC002FD1A268B2F5805F226A17D11188C1F3D7
:101CBC0008015960216979B902322262E28C013A39
:101CCC0092B2E284EAB9DA6822F08002DA60DA6869
:101CDC0042F04002DA6070BD0132EEE7511C216225
:101CEC0012785A60EAE750060BD54A0609D5DA682D
:101CFC00204622F04002DA60202384F8393001F0CB
:101D0C0067FA70BD151D000808B50023406AC3852D
:101D1C00C384FFF730FF08BD0023012200B58BB050
:101D2C00694609480693009301930792089205931C
:101D3C00029303930493FEF7E0FA003018BF0120DE
:101D4C000BB05DF804FB00BFD40B00200022024B4B
:101D5C001A805A80704700BF0802002084B0F0B58A
:101D6C00144F05AC7E8884E80F003B889E4228BF48
:101D7C003C339B1B9BB2012B19D9282404FB067402
:101D8C0005AD08340FCD0FC40FCD0FC495E803007B
:101D9C003A2E88BF002684E803004FF000009CBF59
:101DAC000136B6B27E80BDE8F04004B07047022028
:101DBC00F9E700BF08020020602804D92738C0B218
:101DCC003038C0B270474028FAD90738F7E7602896
:101DDC000CD92738C0B230386029C0B20AD927399B
:101DEC00C9B2303941EA0010C0B270474028F2D96C
:101DFC000738EFE74029F4D90739F1E74CF25033B3
:101E0C0098423B4B66D01FD842F21072904263D07E
:101E1C0009D841F28832904262D042F28D0290424F
:101E2C0061D0092250E048F2352290425ED04BF648
:101E3C000322904252D044F620629042F1D1782293
:101E4C005A604FF430221EE02A4A904236D00DD808
:101E5C00294A90423CD0294A904234D0284A904298
:101E6C00DFD11B225A604FF420220CE0254A90420D
:101E7C0022D0254A904218D0244A9042D1D1042233
:101E8C005A604FF460221A614FF480125A61204A52
:101E9C0017481A6000229960DA601A765A769A7698
:101EAC00DA761A775A77FEF7ADB904225A604FF4F6
:101EBC00C0221A610022E9E70522F7E712225A60D4
:101ECC004FF44022DFE724225A604FF4A022F0E7BF
:101EDC002D22F9E72D22F2E7FF22F0E73622C1E7A7
:101EEC004FF4E172EBE74FF48772E8E74822A7E77B
:101EFC00D40B002090D00300A086010048E801001C
:101F0C000674010000350C0040420F0020A10700B0
:101F1C00006400400309092B00F00F0094BF30331C
:101F2C003733092894BF303037300B704870704706
:101F3C0084B02DE9F04106AC84E80F00564E0746FC
:101F4C00337C119A0798DDF8208009990B9D002BA2
:101F5C006FD00A9C002946D1002C42D174231370F7
:101F6C00030A092B94BF30333733DBB25370911C07
:101F7C00C0B2FFF7CFFF0423092D02EB030103F1DD
:101F8C00010894BF05F1300305F13703DBB20B7088
:101F9C001CB9AC4242D108EB4408404B5B7813B9F6
:101FAC00B37C012B13D14EF66021B7FBF1F301FB8F
:101FBC00137702EB0801C7F30720FFF7ABFF08F11B
:101FCC0002011144F8B2FFF7A5FF08F104080D2334
:101FDC0008F1010002F8083080B2BDE8F04104B00D
:101FEC0070477223BBE7BCB954231370511C4FEAE2
:101FFC001860FFF78FFFC8F30740D11CFFF78AFF6B
:10200C00C8F30720511DFFF785FF5FFA88F0D11D3B
:10201C00FFF780FF0923AFE75223E6E706AB234423
:10202C0008EB4401114493F82000FFF773FF0134CF
:10203C00AFE71B4B93F8D43063B3F12304294FEA79
:10204C00172108BF48F00040D170390C1171010AFA
:10205C00D171010C117210999071000E13705072A5
:10206C00002305EB0110114697703F0E537057710A
:10207C0001F80A0FAB4205D11A4403F10C000023FE
:10208C00D372A9E706A8184490F82000013301F890
:10209C00010FEFE718469FE7A00100208000002009
:1020AC009C0000202DE9F041184E88B034887388CC
:1020BC00A34227D0282303FB046400236D46DFF8DA
:1020CC0054800693CDF81C8004F1080718340FCC0B
:1020DC000FC594E8030085E8030097E80F00FFF7AD
:1020EC0027FF0B4B024641461868FFF7AFFC58B967
:1020FC0033883A2B8EBF034601339BB2338008B032
:10210C00BDE8F0810220FAE70120F8E70802002080
:10211C00D41900204919002010B50948FEF7B2F96E
:10212C00044658B9074B02461870074B4FF48071A0
:10213C0018740648FEF7F8FE204610BD0124FBE794
:10214C00D40B002080000020A001002000080140DA
:10215C0008B5002280211748FEF7E6FE0022402138
:10216C001448FEF7E1FE002220211248FEF7DCFEA7
:10217C00002210210F48FEF7D7FE3220FEF730F870
:10218C000D4B93F91830032B13D8DFE803F0020939
:10219C000C0F01228021BDE808400648FEF7C4BEA2
:1021AC0001224021F7E701222021F4E7012210212E
:1021BC00F1E708BD000C0140A001002008B5FFF7B5
:1021CC00C7FF0F4B93F9182003EB82010B46C96A2A
:1021DC00D869FFF713FE08B1012008BDFFF79CFD7D
:1021EC000028F9D10748FEF7F4F80028F4D140F2A2
:1021FC0037410448FEF71EFA003018BF012008BD15
:10220C00A0010020D40B002070B50446FDF798FF08
:10221C002278C3B2413A352A00F2A980DFE812F0E5
:10222C0044001203B401A700440082004400A7003C
:10223C00A700A700A700B502440036009601A7002E
:10224C00A7004702B3006F02BE0246004400A7007D
:10225C00A7006900A700A700A700A700A700A70078
:10226C00A700A700A700A700A700A700A700A7002A
:10227C00A700A700A700A7004400A700A700A7007D
:10228C00A700DC0195000702EB0258004E21C6485E
:10229C00C64B026899541344053230210260312236
:1022AC0059709970D9701A710D2070BD5624BE48A2
:1022BC00BE4A03683125D4543024591C555411445A
:1022CC004C70D91C55540A44547005330360EBE729
:1022DC007624B548B54A03683125D4543024591CAA
:1022EC00545411444D70D91C54540A44412151701A
:1022FC00EBE76178AE4B3129AE4A03D1012159701D
:10230C009174D1E7302901D10021F8E7597811F106
:10231C00FF3118BF01215970937CB3FA83F35B0929
:10232C009374C1E74621A04AA04C1368A248E1541B
:10233C0030211C44033361701360FEF791FA303086
:10234C00A0709D48FEF7A1FAAEE79A4A0A2692F9C8
:10235C001810651C063102EB810200215160291B0B
:10236C008B42A1DD15F8011B3039092901D9072051
:10237C0070BD51687143516015F8010CFFF71CFDDD
:10238C0008445060EBE7052B01D0022BEFD1884BB2
:10239C001B78002BEBD16378303B342BE7D801A2B0
:1023AC0052F823F08524000897240008A72400087D
:1023BC00B7240008C5240008D3240008E124000831
:1023CC00EF240008FD2400080B2500087B230008DF
:1023DC007B2300087B2300087B2300087B23000859
:1023EC007B2300087B2300081925000829250008F9
:1023FC0039250008492500087B2300087B230008A9
:10240C007B2300087B2300087B2300087B23000828
:10241C007B2300087B2300087B2300087B23000818
:10242C007B2300087B2300087B2300087B23000808
:10243C007B2300087B2300087B2300087B230008F8
:10244C007B2300087B2300087B2300087B230008E8
:10245C007B2300087B2300087B2300087B230008D8
:10246C007B2300087B230008192500082925000878
:10247C0039250008492500084E4B93F9182003EB29
:10248C00820342F21072DA610EE74A4B93F918207C
:10249C0003EB820344F62062F5E7464B93F91820D0
:1024AC0003EB82034CF25032EDE7424B93F91820C8
:1024BC0003EB8203414AE6E73E4B93F9182003EB0A
:1024CC0082033F4ADFE73B4B93F9182003EB82036F
:1024DC003C4AD8E7374B93F9182003EB82033A4A6E
:1024EC00D1E7344B93F9182003EB8203374ACAE740
:1024FC00304B93F9182003EB8203354AC3E72D4B7D
:10250C0093F9182003EB8203324ABCE7294B93F969
:10251C00182003EB820342F28D02B4E7254B93F9AA
:10252C00182003EB82034BF60322ACE7214B93F903
:10253C00182003EB820348F23522A4E71D4B93F9D4
:10254C00182003EB820341F288329CE7194C94F972
:10255C001830032B02D10023A36308E71648FEF7BB
:10256C007FF900287FF403AF94F9183004EB83044F
:10257C00E062FFF723FE00287FF4F9AE01230C4A3A
:10258C0013700C4A13748FE60A4B93F91830032B13
:10259C003FF4EDAE0848FEF778F9FFF7BDFD0028D3
:1025AC007FF4E5AE80E600BF78000020001100202B
:1025BC0080000020A0010020D40B0020A086010088
:1025CC0048E8010090D0030020A1070000350C0062
:1025DC0040420F0006740100A14A1278002A3FF411
:1025EC00C6AE052B7FF4C3AE6078FFF7E5FBE17850
:1025FC000346A078FFF7EBFB40EA03200023994D3C
:10260C00AB600223EB6028602079FFF7D5FB012239
:10261C0028614FF400419448FEF786FC2946934B01
:10262C00934A9448FDF742FF934B1870B7E78C4AD6
:10263C001278002A3FF49BAE5D1FEBB2102B3FF6D5
:10264C0096AE6078FFF7B8FBE1780346A078FFF709
:10265C00BEFB40EA0320002382498B60CB600860FC
:10266C002079FFF7A9FB0861022195FBF1F5A8423F
:10267C0002467FF47CAE08283FF679AE7C4D0534DB
:10268C009A4204F1020409D801224FF40041764821
:10269C00FEF74AFC754B764A7249C2E714F8011CE6
:1026AC0014F8020CFFF793FBE8540133E8E76C4A8B
:1026BC001278002A3FF45BAE0A2B7FF458AEA17857
:1026CC006078FFF784FB21790346E078FFF77FFB06
:1026DC00000440EA0363A1796079FFF778FB217A63
:1026EC000246E079FFF773FB184304235D4D40EA83
:1026FC000220AB600223EB606860607A85E7584A81
:10270C001278002A3FF433AEA3F10A05EBB2102B7A
:10271C003FF62DAEA1786078FFF759FB2179024680
:10272C00E078FFF754FB000440EA0262A17960797B
:10273C00FFF74DFB217A0346E079FFF748FB104386
:10274C0040EA0320042347498B600023CB60486098
:10275C00607AFFF731FB0861022195FBF1F5A84285
:10276C0002467FF404AE08283FF601AE404D0A3411
:10277C009A4204F1020487D914F8011C14F8020CD3
:10278C00FFF725FBE8540133F2E73C4B93F9182093
:10279C0003EB82034FF00042DA62EAE66378384CCE
:1027AC00303B062B25D8DFE803F0041215181B1E4E
:1027BC0021004FF46133334D23602868FFF733F960
:1027CC002268314B28685A60FFF7C6F8E7E64FF4E9
:1027DC00E133F0E74FF46143EDE74FF41643EAE7DA
:1027EC004FF49643E7E74FF41653E4E74FF41663C0
:1027FC00E1E7264BDFE700220A26214D611C2A6007
:10280C000A1B93420EDC2B68214AC83B93423FF6CD
:10281C00AEAD1C4C2068FFF706F92A681A4B2068ED
:10282C005A60D1E711F8012B303A092A3FF69FADD7
:10283C002A6872432A6011F8010CFFF7BDFA1044A4
:10284C002860DDE76078A0F13003042B3FF68FADF4
:10285C00FFF7B2FA094B01381876FFF779FC23E53C
:10286C00800000208400002000080140E0010020CE
:10287C002C000020D40B0020DC010020A001002043
:10288C00E4010020D4190020C81A002040420F0097
:10289C00B8831E00A84AF8B5136801331360A74B20
:1028AC001A780D2A00F24682DFE812F00E0043007F
:1028BC002B01D3004402440298019B0144024402C0
:1028CC001C02230227022E02F12802D101221A70C7
:1028DC00F8BDE72807D10122994B83F8D4200022B8
:1028EC00984B1A74F8BD0D2816D19748FFF78CFC3D
:1028FC00964A1368591C1160954A9649D054012286
:10290C00954B1A7000231A460133DBB21E2B01F8CB
:10291C00012FF9D1914BDAE7002800F00B828F4A96
:10292C00894913781C2BC85400F2048201331370AC
:10293C00F8BD0E2800F2FE81DFE810F00F00140045
:10294C008B008B002E003300390070008D00960038
:10295C00A800AD00AF00BC00E10002221A70F12209
:10296C007B4B7CE000221A707D4B784C1A60FDF793
:10297C0031FCF1212268764B050A9954012113444C
:10298C009870DD70050C000E59701D71063258716F
:10299C00714B22601970F8BD06221A70F1226C4B33
:1029AC0095E707221A7000226D4B1A60F6E7654A0C
:1029BC006C49664ED1616C49614C116248F235210B
:1029CC0051624FF416519162F1213068604A94F8CB
:1029DC0000511154217C024401EB0511917020210E
:1029EC00D170A1211171072106275171A17C94F896
:1029FC0001E1B940647C01EB0E112144D1717421C9
:102A0C000025517201215770957117729172D57210
:102A1C00514A0C30117030601D70F8BDF1204B4DD7
:102A2C004B4A29680124505407200A4450705720FF
:102A3C009070172010714248083190F8D5602960C9
:102A4C005671817C90F8FB60D4709671D171424ABA
:102A5C00147000223BE7F1213D4A11700A221A70D2
:102A6C0000223F4B1A60F8BDF1243848384A0168FF
:102A7C00545409240A44043154700160DE24AD21FD
:102A8C009470D1700121344A1170E2E7F121304A7F
:102A9C0011700B22E3E70C2260E7F1242B482C4A3F
:102AAC00016854540A4403310C240160042154700D
:102ABC009170E7E7F121264A214811700D2190F819
:102ACC0002415170817C1F4801EB04119170416AE5
:102ADC00806A0C0AD17014710C0C090E91710021D2
:102AEC005471040A10725472040C000ED171947259
:102AFC00D072117351739173D17311744AE70D2213
:102B0C0050E7174C1249226811444870052A4BD8DB
:102B1C00DFE802F003060C2E3C40144B186035E045
:102B2C00124A136843EA002010602FE00F4A136822
:102B3C0043EA0040F8E700BF3C00002040000020C2
:102B4C009C000020A0010020E8010020780000205B
:102B5C0000110020E7010020750000203400002047
:102B6C004400002020A1070006740100840000200E
:102B7C007A4A136843EA00600028B4BF0423002398
:102B8C001060BCBF20F0004050609360236801339C
:102B9C002360F8BD00F00F00082888BF08226F4B97
:102BAC0094BF18611A61F1E76C4D296906319142A5
:102BBC0004D96B4B1A4402F8060CE7E700260122F5
:102BCC004FF4004167481E70FEF7AEF9664B644A3D
:102BDC0029466648EE60FDF769FCD7E7644A5070F9
:102BEC0037E7644C2268072AD0D8DFE802F051534B
:102BFC00550451535557604D604E2F6847EA006796
:102C0C002F60002F40D0FFF787FA5D4A296892F9B0
:102C1C001830C1F3130702EB83000029C76126DAD1
:102C2C0001F0C040B0F1C04F12D102EB830301217F
:102C3C004FF0004286F80011DA620222514B1A70F2
:102C4C00FFF7BCFA2B68C3F313032B6073609DE78B
:102C5C0011F0804107D00A3302EB830301210022DB
:102C6C0031745A60E9E73174FFF756FAEAE70A3330
:102C7C0002EB83030220002242495A600870FFF7DE
:102C8C009DFA01233374DDE7FFF746FA37747DE7CD
:102C9C00394B43E7384A44E7374A48E736490A682C
:102CAC0042EA006000280860344A19D015DA10F0A6
:102CBC00804518BF0125557410F0005518BF01252B
:102CCC0082F80151304DC0F31300A84228BF2846AA
:102CDC000860906000221A7058E701255574F1E7DE
:102CEC005074F7E710280CBF01210021234A91747E
:102CFC00AFE6224A82F8FD00ABE61E4A1C49136877
:102D0C000133C8541360F8BD1A490A680B2A0FD84E
:102D1C00DFE802F00C1116060C1116060C11161B2E
:102D2C00154C236843EA0060206001E0124B1860E8
:102D3C0001320A60F8BD104C236843EA0020F3E727
:102D4C000D4C236843EA0040EEE70B4D2C6844EA37
:102D5C000060286000201870EAE700BF84000020A3
:102D6C002C00002000080140E0010020D40B0020C2
:102D7C000011002044000020380000209C0000209E
:102D8C00A00100208000002040420F00044A137E66
:102D9C0001335BB2032BC8BF00231376FFF7D8B9FE
:102DAC00A0010020704770477047000001224FF4CB
:102DBC0080710148FEF7B8B80008014038B5838827
:102DCC0005460C46082B53D8DFE803F0050E1C2BE8
:102DDC0038465464720009B9002038BDFDF7FAF981
:102DEC0001232860AB80F7E7002941D0FDF7F2F909
:102DFC002B68C01A0128EFD9FDF7ECF928600220E6
:102E0C00A88038BD41B1FDF7E5F92B68C01AB0F5C3
:102E1C002F7F46D8012038BDFDF7DCF9042328604C
:102E2C00E0E729B3FDF7D6F92B68C01AB0F5967F09
:102E3C00F0D9FDF7CFF92860062038BD31BBFDF77E
:102E4C00C9F92B68C01A0128C6D9FDF7C3F90523A7
:102E5C002860AB80032038BD21B1FDF7BBF90623F8
:102E6C002860BFE7FDF7B6F92B68C01AC828B3D99C
:102E7C000020C5E761B1FDF7ADF92B68C01A012838
:102E8C00AAD9FDF7A7F907232860AB80022038BD2B
:102E9C000523A7E70029B6D1FDF79CF90823286084
:102EAC00A0E7FDF797F903232860AB80042038BD19
:102EBC0009B1072396E7FDF78DF92B68C01A012895
:102ECC008AD9FDF787F9AC802860052038BD000051
:102EDC0008B54FF0100E0B480B4B80E80840002350
:102EEC008360C36003614361037643768376C37664
:102EFC0003774377FDF786F918B1BDE8084000F079
:102F0C0027BB08BDD40B00200064004010B504465C
:102F1C0086B01022002102A800F004FE2268224B89
:102F2C009A423ED103F5D633DA6902A942F0007217
:102F3C00DA61DA691D4802F000720092009A9A690F
:102F4C0042F008029A619B6903F008030193019B0C
:102F5C004FF480730293FDF791FE4FF400730293CC
:102F6C0002230393032302A910480593FDF786FE61
:102F7C000F4A1320536823F4C04343F0E06343F437
:102F8C008043536000221146FDF7A0FC1320FDF78F
:102F9C00D1FC002214201146FDF798FC1420FDF7FB
:102FAC00C9FC06B010BD00BF00640040000C01401D
:102FBC000000014008B502680A4B9A4211D10A4A36
:102FCC004FF44071D369094823F00073D361FDF7C6
:102FDC0035FF1320FDF7BAFCBDE808401420FDF7BF
:102FEC00B5BC08BD0064004000100240000C01405C
:102FFC00124B07B55A690C2042F001025A610022AB
:10300C005B69114603F001030193019BFDF75EFC24
:10301C000C20FDF78FFC00220E201146FDF756FC0C
:10302C000E20FDF787FC002211201146FDF74EFC07
:10303C001120FDF77FFC03B05DF804FB001002408B
:10304C0010222DE9F04389B00DEB0200002100F0B5
:10305C0069FD3F4BDFF800919A693E4D42F010023A
:10306C009A619A69484602F010020092009A9A6995
:10307C00DFF8E88042F020029A619A694FF400511F
:10308C0002F020020192019A9A69002442F0040293
:10309C009A619A69012602F004020292029A9A69D4
:1030AC00032742F008029A619B69002203F008038F
:1030BC000393039BFDF738FF284601224FF4805100
:1030CC00FDF732FF404600224FF40141FDF72CFF83
:1030DC0000222846F821FDF727FF4FF4005304A9DE
:1030EC0048460493079705960694FDF7C7FD04A977
:1030FC002846049705940696FDF7C0FD042304A901
:10310C002846049305940694FDF7B8FD4FF48053BC
:10311C0004A9284604930797059602270694FDF701
:10312C00ADFD4FF4014304A9404604930596069463
:10313C000797FDF7A3FDF82304A9284604930596E9
:10314C0006940797FDF79AFD09B0BDE8F08300BF20
:10315C0000100240000C014000100140000801402A
:10316C0070B5144D2A78012A17D10022124C134B3A
:10317C00216813488A420CD1124B92B20F4918683D
:10318C00FEF764FC002301210F4A2B7011702360A1
:10319C0070BD165CD6540132ECE70C4B1B78013B2E
:1031AC00012B05D8FEF77EFF10B90122064B1A70D1
:1031BC0070BD00BF75000020780000204919002068
:1031CC0000110020D419002076000020800000207F
:1031DC000022024B1A70FFF7C3BF00BF760000201D
:1031EC0070B5114C86B02346A4F144020121FDF7C1
:1031FC00ABF96D46FCF7EEFFA4F1100644F8200C79
:10320C000FCE0FC596E8030085E80300203C94E838
:10321C000F00FEF7A3FD01220821044806B0BDE80B
:10322C007040FDF781BE00BF480C0020000C01402F
:10323C0070B5114C86B02346A4F11C020021FDF799
:10324C0083F9FCF7C7FF6D4644F8200CA4F1200667
:10325C00103C0FCC0FC594E8030085E8030096E8FA
:10326C000F00FEF77BFD01220821044806B0BDE8E3
:10327C007040FDF759BE00BF200C0020000C01402F
:10328C00282230B595B00DEB0200002100F04AFC6D
:10329C00142200210DEB020000F044FC102200214E
:1032AC0001A800F03FFC05230A934FF4803301245E
:1032BC0002250B9312934FF4E0130AA813930D9469
:1032CC000E941195FDF740FE0F234FF48062059389
:1032DC000023294605A80793089209930695FDF744
:1032EC00FBFF4FF4807301A801940293FEF7C6F81C
:1032FC0015B030BD2DE9F843FEF728FD7C4CFCF7EA
:10330C004BFF7C4B7C4A1C607C4B1A60FFF7B8FF70
:10331C00FFF796FEFFF76CFE00F01CF900F060FA68
:10332C0000F042FA00F026FAFFF7D2FD00F046F961
:10333C006420FCF755FF04217148FDF7EFFD0128CF
:10334C0040F099804FF4E13369486360FEF704FB69
:10335C006C4F6B4E6C4C6D4B1A68920611D55868BD
:10336C006B4BC0B218706B4B6B4D19684A1CB2F5A5
:10337C00806F1A6008BF0022685408BF1A60FFF7FC
:10338C0089FAFCF727FF0021644DD5E90023801A48
:10339C0061EB0301002908BF14280AD3604B1B788A
:1033AC0003F0FF082BB9FCF715FF85E80101FFF7C7
:1033BC00D7FEFCF70FFF00215A4DD5E90023801AE8
:1033CC0061EB0301002908BFB0F5FA7F09D3FCF7C4
:1033DC0001FF002328604FF4005138466B60FDF765
:1033EC00A8FD02213046FDF799FD431E5942594173
:1033FC004D48FFF7E3FC052801D1FFF7C7FC082176
:10340C003046FDF78BFD01280BD1DFF83881474D95
:10341C0098F80030002B37D188F80000FCF7DAFE62
:10342C0028604FF400412046FDF778FD012809D1B2
:10343C003F4DDFF814812B78ABBB2870FCF7CAFE2C
:10344C00C8F800004FF480712046FDF767FD012895
:10345C00814680D13748FDF716FA042844D0364D02
:10346C00DFF8E8802B7873BB85F80090FCF7B2FE90
:10347C00C8F800006FE7314B314ADB6D591E9142A1
:10348C0088BF4FF4E1335FE7FCF7A4FE2B68C01A4A
:10349C000328C6D9002208213046FDF745FD00233C
:1034AC0088F80030BAE7FCF795FED8F80030C01A5F
:1034BC000328C7D900224FF400412046FDF734FD04
:1034CC0000232B70BEE7FCF785FED8F80030C01A3D
:1034DC0064287FF640AF00224FF480712046FDF740
:1034EC0023FD00232B7036E70020BDE8F88300BFD6
:1034FC00C81A0020D4190020D41B0020D819002091
:10350C00000C014000100140000801400048004040
:10351C0048190020480000202011002068000020DD
:10352C007600002060000020CC1900205400002000
:10353C0074000020D40B002050000020700B0020E1
:10354C007E96980058000020700000204C0000204F
:10355C007047000008B54FF0FF324FF480730648F7
:10356C00064980E80E00FEF7C1F818B1BDE8084026
:10357C00FFF7EEBF08BD00BF5C1A0020002800401A
:10358C0007B50B4B02689A420ED1FDF7D7FC094BDD
:10359C00DA6942F00062DA610122DB6903F0006350
:1035AC000193019B044B1A6003B05DF804FB00BF50
:1035BC0000280040001002403C04424208B54FF481
:1035CC00827E0D480D4B4FF4007280E808400023BA
:1035DC0082618360C360036143612822036243629A
:1035EC0083620A23C261C362FEF7D0F818B1BDE84A
:1035FC000840FFF7ADBF08BD701A0020003800402E
:10360C0010B5044686B01022002102A800F08AFAF8
:10361C002268174B9A4228D103F5EC33DA6902A9D8
:10362C0042F48042DA61DA69124802F48042009274
:10363C00009A9A6942F008029A619B6903F00803A8
:10364C000193019B4FF42043029302230393032322
:10365C000593FDF713FB4FF480430293002302A95B
:10366C00044803930493FDF709FB06B010BD00BF9B
:10367C0000380040000C01400E4B82B09A6942F0B9
:10368C0001029A619A6902F001020092009ADA69C9
:10369C0042F08052DA61DB69074A03F080530193F0
:1036AC00019B536823F0E06343F00073536002B056
:1036BC00704700BF00100240000001407047FEE759
:1036CC00FEE7FEE7FEE7704770477047FCF776BDF4
:1036DC000148FDF73FBA00BF081B00200148FDF769
:1036EC0039BA00BF4C1B00200148FDF733BA00BFAC
:1036FC00901B00200148FCF7B5BF00BFD40B002085
:10370C00FFF7F8BF0148FEF75FBA00BFD41B0020DB
:10371C000148FEF759BA00BF141C00200148FEF7FF
:10372C0053BA00BFC81A00200F4B1A6842F00102AE
:10373C001A6059680D4A0A405A601A6822F084725D
:10374C0022F480321A601A6822F480221A605A68B5
:10375C0022F4FE025A604FF41F029A604FF000628E
:10376C00034B9A60704700BF001002400000FFF846
:10377C0000ED00E008B54FF416530948094980E8FC
:10378C000A0000210C238160C160016143618161E9
:10379C00FEF710F918B1BDE80840FFF7D9BE08BD17
:1037AC00D41B00200038014008B54FF4E13E0A4814
:1037BC000A4B0C2280E80840002342618360C360FE
:1037CC0003618361C361FEF7C7F818B1BDE8084017
:1037DC00FFF7BEBE08BD00BF141C00200044004013
:1037EC0008B54FF4E13E0A480A4B0C2280E8084029
:1037FC00002342618360C36003618361C361FEF790
:10380C00ABF818B1BDE80840FFF7A2BE08BD00BF79
:10381C00C81A002000480040F0B5102705468BB0B0
:10382C003A46002106A800F07DF92B68674A9342BE
:10383C0044D1674B06A99A69664842F480429A6162
:10384C009A69002602F480420092009A9A69624CAE
:10385C0042F004029A619B6903F004030193019BFB
:10386C004FF4007306930223079303230993FDF788
:10387C0005FA4FF48063574806A9069307960896F5
:10388C00FDF7FCF9554B204684E888008023A660A0
:10389C00E36026616661A661E661FDF77BF808B11D
:1038AC00FFF756FE002225202C6311466562FDF7BA
:1038BC000DF82520FDF73EF80BB0F0BD484A9342B9
:1038CC003FD1434B06A9DA69424842F40032DA612F
:1038DC00DA69002602F400320292029A9A69414C8B
:1038EC0042F004029A619B6903F004030393039B67
:1038FC00042306930223079303230993FDF7BEF9D0
:10390C000823344806A9069307960896FDF7B6F9DE
:10391C00354B204684E888008023A660E36026614E
:10392C006661A661E661FDF735F808B1FFF710FE98
:10393C00002226202C6311466562FCF7C7FF262067
:10394C00B8E72A4A9342B7D1214B06A9DA6928482D
:10395C0042F48022DA61DA69002602F480220492B1
:10396C00049A9A69234C42F008029A619B6903F00D
:10397C0008030593059B4FF480630693022307937A
:10398C0003230993FDF77AF94FF40063184806A94D
:10399C00069307960896FDF771F9174B204684E8B5
:1039AC0088008023A660E36026616661A661E661FB
:1039BC00FCF7F0FF08B1FFF7CBFD002227202C63AA
:1039CC0011466562FCF782FF272073E7003801403F
:1039DC0000100240000801404C1B00204400024033
:1039EC0000440040901B0020800002400048004032
:1039FC00000C0140081B00201C00024003681F4AF9
:103A0C0010B59342044612D102F5584293694FF413
:103A1C00C06123F4804393611948FDF70FFA206BC2
:103A2C00FCF7E8FF2520BDE81040FCF78FBF154AD6
:103A3C0093420ED102F5E632D3690C2123F4003304
:103A4C00D3610F48FDF7FAF9206BFCF7D3FF262062
:103A5C00E9E70D4A93420FD102F5E432D3694FF4F2
:103A6C00406123F48023D3610848FDF7E7F9206B0C
:103A7C00FCF7C0FF2720D6E710BD00BF003801407F
:103A8C00000801400044004000480040000C014088
:103A9C00002103E00B4B5B58435004310A480B4B9D
:103AAC0042189A42F6D30A4A02E0002342F8043B39
:103ABC00084B9A42F9D3FFF737FE00F00FF8FFF7E7
:103ACC0019FC7047983B0008000000200C000020F7
:103ADC0010000020541C0020FEE7000070B50025EB
:103AEC000C4E0D4CA41BA410A54209D100F022F8D9
:103AFC0000250A4E0A4CA41BA410A54205D170BD8A
:103B0C0056F8253098470135EEE756F8253098479A
:103B1C000135F2E7903B0008903B0008903B000811
:103B2C00943B000803460244934200D1704703F8CB
:103B3C00011BF9E7F8B500BFF8BC08BC9E467047FE
:0C3B4C00F8B500BFF8BC08BC9E467047EE
:103B580002030405060708090A0B0C0D0E0F1010C6
:103B680002030405060708090A0B0C0D0E0F1010B6
:103B78000000000000000000010203040607080915
:083B880000000000010203042B
:043B900031010008F7
:043B94000D01000817
:0C3B9800010000001000000000A24A0420
:0400000508003A9D18
:00000001FF
