:020000040800F2
:1000000000500020597A00086175000863750008E7
:100010006575000867750008697500080000000034
:100020000000000000000000000000006B750008E8
:100030006D750008000000006F75000871750008FC
:10004000A17A0008A17A0008A17A0008A17A000824
:10005000A17A0008A17A0008A17A0008A17A000814
:10006000A17A0008A17A0008A17A0008A17A000804
:10007000B1750008A17A0008BD750008A17A0008D2
:10008000A17A0008C9750008A17A0008A17A0008C1
:10009000D5750008A17A0008A17A0008A17A0008A5
:1000A000A17A0008A17A0008A17A0008A17A0008C4
:1000B000A17A0008A17A0008A17A0008A17A0008B4
:1000C000A17A0008A17A0008A17A0008A17A0008A4
:1000D000A17A0008E1750008417600084D76000815
:1000E000A17A0008A17A0008A17A000800000000A7
:1000F0000000000000000000000000000000000000
:0C01000000000000000000005FF808F1A3
:10010C0010B5054C237833B9044B13B10448AFF345
:10011C0000800123237010BDA80000200000000007
:10012C007483000808B5034B1BB103490348AFF3B4
:10013C00008008BD00000000AC00002074830008A3
:10014C00034613F8012B002AFBD1181A013870470B
:10015C0080F0004002E000BF81F0004142001FBF70
:10016C005FEA410392EA030F7FEA226C7FEA236C79
:10017C006AD04FEA1262D2EB1363C1BFD21841406E
:10018C0048404140B8BF5B42192B88BF704710F004
:10019C00004F40F4000020F07F4018BF404211F0A7
:1001AC00004F41F4000121F07F4118BF494292EA0F
:1001BC00030F3FD0A2F1010241FA03FC10EB0C003B
:1001CC00C3F1200301FA03F100F0004302D54942C8
:1001DC0060EB4000B0F5000F13D3B0F1807F06D375
:1001EC0040084FEA310102F10102FE2A51D2B1F16D
:1001FC00004F40EBC25008BF20F0010040EA030062
:10020C007047490040EB000010F4000FA2F101020E
:10021C00EDD1B0FA80FCACF1080CB2EB0C0200FA98
:10022C000CF0AABF00EBC25052421843BCBFD040E6
:10023C001843704792F0000F81F4000106BF80F460
:10024C0000000132013BB5E74FEA41037FEA226C23
:10025C0018BF7FEA236C21D092EA030F04D092F0EE
:10026C00000F08BF0846704790EA010F1CBF002022
:10027C00704712F07F4F04D1400028BF40F000407F
:10028C00704712F100723CBF00F50000704700F09F
:10029C00004343F0FE4040F4000070477FEA2262C6
:1002AC0016BF08467FEA23630146420206BF5FEA97
:1002BC00412390EA010F40F4800070474FF0000397
:1002CC0004E000BF10F0004348BF40425FEA000C5E
:1002DC0008BF704743F0964301464FF000001CE006
:1002EC0050EA010208BF70474FF000030AE000BF5C
:1002FC0050EA010208BF704711F0004302D540429A
:10030C0061EB41015FEA010C02BF8446014600200B
:10031C0043F0B64308BFA3F18053A3F50003BCFA26
:10032C008CF2083AA3EBC25310DB01FA02FC6344D3
:10033C0000FA02FCC2F12002BCF1004F20FA02F2DA
:10034C0043EB020008BF20F00100704702F12002CD
:10035C0001FA02FCC2F1200250EA4C0021FA02F22E
:10036C0043EB020008BF20EADC7070474FF0FF0C33
:10037C001CEAD0521EBF1CEAD15392EA0C0F93EA2E
:10038C000C0F6FD01A4480EA010C400218BF5FEAD0
:10039C0041211ED04FF0006343EA501043EA511143
:1003AC00A0FB01310CF00040B1F5000F3EBF49003D
:1003BC0041EAD3715B0040EA010062F17F02FD2A41
:1003CC001DD8B3F1004F40EBC25008BF20F0010024
:1003DC00704790F0000F0CF0004C08BF49024CEA3B
:1003EC00502040EA51207F3AC2BFD2F1FF0340EACD
:1003FC00C250704740F400004FF00003013A5DDC3E
:10040C0012F1190FDCBF00F000407047C2F100027E
:10041C00410021FA02F1C2F1200200FA02FC5FEA6B
:10042C00310040F1000053EA4C0308BF20EADC70B5
:10043C00704792F0000F00F0004C02BF400010F427
:10044C00000F013AF9D040EA0C0093F0000F01F0D4
:10045C00004C02BF490011F4000F013BF9D041EAF6
:10046C000C018FE70CEAD15392EA0C0F18BF93EAF8
:10047C000C0F0AD030F0004C18BF31F0004CD8D122
:10048C0080EA010000F00040704790F0000F17BFA9
:10049C0090F0004F084691F0000F91F0004F14D0EF
:1004AC0092EA0C0F01D142020FD193EA0C0F03D147
:1004BC004B0218BF084608D180EA010000F000404A
:1004CC0040F0FE4040F40000704740F0FE4040F425
:1004DC00400070474FF0FF0C1CEAD0521EBF1CEAC4
:1004EC00D15392EA0C0F93EA0C0F69D0A2EB0302E2
:1004FC0080EA010C49024FEA402037D04FF080537C
:10050C0043EA111143EA10130CF000408B4238BF40
:10051C005B0042F17D024FF4000C8B4224BF5B1A4E
:10052C0040EA0C00B3EB510F24BFA3EB510340EA9C
:10053C005C00B3EB910F24BFA3EB910340EA9C004A
:10054C00B3EBD10F24BFA3EBD10340EADC001B01BA
:10055C0018BF5FEA1C1CE0D1FD2A3FF650AF8B425E
:10056C0040EBC25008BF20F0010070470CF0004C6B
:10057C004CEA50207F32C2BFD2F1FF0340EAC25096
:10058C00704740F400004FF00003013A37E792F057
:10059C00000F00F0004C02BF400010F4000F013AB5
:1005AC00F9D040EA0C0093F0000F01F0004C02BFB0
:1005BC00490011F4000F013BF9D041EA0C0195E719
:1005CC000CEAD15392EA0C0F08D142027FF47DAFB2
:1005DC0093EA0C0F7FF470AF084676E793EA0C0FA2
:1005EC0004D14B023FF44CAF08466EE730F0004CA0
:1005FC0018BF31F0004CCAD130F000427FF45CAF30
:10060C0031F000437FF43CAF5FE700BF4FF0FF3C9D
:10061C0006E000BF4FF0010C02E000BF4FF0010CF0
:10062C004DF804CD4FEA40024FEA41037FEA226CB9
:10063C0018BF7FEA236C11D001B052EA530C18BFDB
:10064C0090EA010F58BFB2EB030088BFC81738BF40
:10065C006FEAE17018BF40F0010070477FEA226C2E
:10066C0002D15FEA402C05D17FEA236CE4D15FEA2A
:10067C00412CE1D05DF8040B704700BF844608465E
:10068C006146FFE70FB5FFF7C9FF002848BF10F11F
:10069C00000F0FBD4DF808EDFFF7F4FF0CBF012064
:1006AC0000205DF808FB00BF4DF808EDFFF7EAFFEE
:1006BC0034BF012000205DF808FB00BF4DF808EDA9
:1006CC00FFF7E0FF94BF012000205DF808FB00BF9E
:1006DC004DF808EDFFF7D2FF94BF012000205DF824
:1006EC0008FB00BF4DF808EDFFF7C8FF34BF012031
:1006FC0000205DF808FB00BF42000ED2B2F1FE4FA5
:10070C000BD34FF09E03B3EB126209D44FEA0023D4
:10071C0043F0004323FA02F070474FF0000070479B
:10072C0012F1610F01D1420202D14FF0FF3070473C
:10073C004FF00000704700BF38B50E4B05461878D7
:10074C004FF47A73B3FBF0F30B4A1068B0FBF3F081
:10075C0000F006FC044658B90F2D09D8024629466C
:10076C004FF0FF3000F0A6FB2046044B1D6038BD57
:10077C000120FCE7000000202C00002004000020D9
:10078C00074A08B51368032043F01003136000F008
:10079C007FFB0120FFF7D0FF06F0BAFE002008BD5A
:1007AC0000200240034A044B11681B780B44136071
:1007BC00704700BF6401002000000020014B186846
:1007CC00704700BF6401002038B50446FFF7F6FF00
:1007DC000546631C1EBF044B1B78E418FFF7EEFFA5
:1007EC00401BA042FAD338BD0000002038B50446A7
:1007FC0000286ED090F820300BB905F077FB2268FA
:10080C00136823F002031360FFF7D8FF0546236833
:10081C005A68910751D41A6842F001021A60FFF726
:10082C00CDFF054623685A68D20754D5227E002096
:10083C00012A1A680CBF42F0800222F080021A6072
:10084C00627E012A1A680CBF42F0400222F040027C
:10085C001A60A27E012A1A680CBF42F0200222F014
:10086C0020021A60E27E012A1A680CBF22F01002E4
:10087C0042F010021A60227F012A1A680CBF42F063
:10088C00080222F008021A60627F012A1A680CBF63
:10089C0042F0040222F004021A60D4E902210A4355
:1008AC0021690A4361690A43616801390A43DA61C3
:1008BC000123606284F8203038BDFFF77FFF401BB6
:1008CC000A28A4D9636A43F400336362052384F8CD
:1008DC0020300120F0E7FFF771FF401B0A28A1D957
:1008EC00F0E790F8203070B5013B012B5FD8012464
:1008FC000368D3F8002242F00102C3F800224A69CF
:10090C00D3F81C5202F01F0004FA00F0C443254037
:10091C00C3F81C52CD6985BBD3F80C52CE68254068
:10092C00C3F80C528D8803EBC20245EA0645C2F8A7
:10093C0040528E680D8845EA0645C2F844528A69D1
:10094C006ABBD3F804222240C3F804220A6952BBC2
:10095C00D3F814222240C3F814220A6A012A02BFD7
:10096C00D3F81C221043C3F81C020020D3F8002239
:10097C0022F00102C3F8002270BD012DDFD1D3F8A3
:10098C000C520E680543C3F80C528D8803EBC2025F
:10099C0045EA0645C2F840528E688D89CBE7D3F8FC
:1009AC0004220243D0E7D3F814220243D3E7436A6C
:1009BC0043F4802343620120DEE738B590F8203001
:1009CC000446012B1FD10223026880F820301368E3
:1009DC0023F001031360FFF7F1FE05462368586806
:1009EC0010F0010001D1606238BDFFF7E7FE401B3B
:1009FC000A28F3D9636A43F400336362052384F84D
:100A0C0020300120F0E7436A43F400234362F8E707
:100A1C0038B590F820300446022B22D102681368B6
:100A2C0043F001031360FFF7C9FE054623685A68BB
:100A3C00D20708D51A68002022F002021A6001239E
:100A4C0084F8203038BDFFF7B9FE401B0A28EDD9D9
:100A5C00636A43F400336362052384F82030012079
:100A6C00F0E7436A43F480134362F8E710B5044699
:100A7C0070B1FFF7CDFF204605F084FA0020226804
:100A8C00136843F400431360606284F8200010BDC7
:100A9C000120FCE7F0B590F820500668013D012DCF
:100AAC00B46840D814F0E05F39D0C4F30164032C6F
:100ABC004FF0010505D1436A43F400034362012062
:100ACC0027E0A5401D60D1E9020704F1180308BB1B
:100ADC00086847EA40501B01F0500869240133199B
:100AEC00C3F884010020097D3444012902BFD3F8E6
:100AFC00841141F48071C3F884115168C4F88C11CD
:100B0C001268C4F88821D3F8802142F00102C3F89E
:100B1C008021F0BD4D68384340EAC500DBE7436AED
:100B2C0043F40013CAE7436A43F48023C6E7F0B5E5
:100B3C0090F82040013C012C6BD8066841B9F46850
:100B4C00A40707D1436A43F400134362012055E024
:100B5C003469F5E70C013519D5F8B07107F00407C5
:100B6C009760002F4BD1D5F8B0717F0D1760D5F879
:100B7C00B071264407F00207D760D5F8B47107F0BE
:100B8C000F071761D5F8B471D5F8B451C7F307271F
:100B9C002D0C97615561D6F8B8211A700268224461
:100BAC00D2F8B821120A5A7002682244D2F8B8213D
:100BBC00120C9A7002682244D2F8B821120EDA7024
:100BCC0002682244D2F8BC211A7102682244D2F87D
:100BDC00BC21120A5A7102682244D2F8BC21120CB0
:100BEC009A7102681444D4F8BC21120EDA710368AD
:100BFC0051B9DA6842F02002DA600020F0BDD5F875
:100C0C00B071FF085760B2E71A6942F020021A610E
:100C1C00F3E7436A43F4802397E790F82030013BD5
:100C2C00012B05D8026800205369194351617047A4
:100C3C00436A43F480234362012070477047704736
:100C4C00704770477047704770472DE9F84F03683D
:100C5C0005465E69D3F8049016F001049F68D3F83A
:100C6C000CB0D3F810A0D3F8188022D017F00104E0
:100C7C0007D00122B9079A6040F1A38003F0E6FC8B
:100C8C000024FB0509D54FF480722B68B8059A60D7
:100C9C0040F1A580284603F0DAFCFB0309D54FF49C
:100CAC0080322B68B8039A6040F1A780284603F085
:100CBC00CFFC330707D51BF0100F1FBF10222B687A
:100CCC0044F40074DA60770708D51BF0080F05D0E0
:100CDC0008222B682846DA60FFF7B3FFB00706D569
:100CEC002B68DB68990702D0284605F03FFF720697
:100CFC0007D51AF0100F1FBF10222B6844F4806424
:100D0C001A61B30608D51AF0080F05D008222B6813
:100D1C0028461A61FFF796FFF70606D52B681B6964
:100D2C00980702D0284605F0DFFEB10308D519F06C
:100D3C00100F05D010222B6828465A60FFF783FF4E
:100D4C00F20308D519F0080F05D008222B682846A5
:100D5C005A60FFF779FF33042AD519F0040F2A687B
:100D6C0024D0F70504D518F0010F18BF44F0010486
:100D7C00B00504D518F0020F18BF44F00204710539
:100D8C0004D518F0040F18BF44F0040433050DD536
:100D9C0018F070030AD0302B4CD03CD8102B43D019
:100DAC00202B44D0936923F0700393610423536088
:100DBC002CB16B6A28461C436C6203F04BFCBDE8FB
:100DCC00F88F7A0705D417F0080405D1FFF736FF22
:100DDC0057E74FF4006454E74FF4805451E779051A
:100DEC0002D544F4005458E73A0502D544F4804443
:100DFC0053E72846FFF723FF4FE7790302D544F466
:100E0C00004456E73A0302D544F4803451E72846AF
:100E1C00FFF716FF4DE7502B0FD0602B10D0402B57
:100E2C00C0D144F04004BDE744F00804BAE744F0F4
:100E3C001004B7E744F02004B4E744F08004B1E7B1
:100E4C0044F48074AEE790F82030DBB25A1E012ACD
:100E5C0008D802685168890706D4126812F0020F8C
:100E6C0018BF0323184670470423FBE7406A7047FA
:100E7C0090F82030013B012B95BF0023436A43625D
:100E8C0043F4802392BF1846436201207047000050
:100E9C00074A0002D36800F4E06023F4E0631B040B
:100EAC001B0C43F0BF6343F400330343D360704720
:100EBC0000ED00E0174B70B5DC684FF0FF36C4F363
:100ECC000224C4F10705042D04F1040328BF0425F2
:100EDC00062B98BF002406FA05F388BF033C21EAD1
:100EEC000303A34006FA04F422EA0404002843EAAC
:100EFC000403A8BF00F160404FEA0313B8BF064AD1
:100F0C00DBB2ABBF00F5614000F00F0080F800339E
:100F1C00135470BD00ED00E014ED00E0002808DB78
:100F2C000123420900F01F0003FA00F0014B43F8C3
:100F3C002200704700E100E000280DDB012243098C
:100F4C0000F01F0002FA00F0044A203342F823009C
:100F5C00BFF34F8FBFF36F8F704700BF00E100E00E
:100F6C000138B0F1807F0AD2F021064B064A586056
:100F7C0082F823100020072298601A607047012025
:100F8C00704700BF10E000E000ED00E010B530B39A
:100F9C0014220168134B0B44B3FBF2F39B00036464
:100FAC00114B0A68C363D0E901342343C46822F4AB
:100FBC007F522343046922F03002234344692343C4
:100FCC0084692343C469234313430B600122002328
:100FDC0080F82120836380F82030184610BD012052
:100FEC00FCE700BFF8FFFDBF0000024010B508B3DE
:100FFC000168114A0B680A4423F001030B600023BB
:10100C000B604B608B60CB601421B2FBF1F20121C1
:10101C0092000A4C026401FA02F2C4636260C0E9F5
:10102C000A33C0E90C33836380F8213080F8203018
:10103C00184610BD0120FCE7F8FFFDBF0000024080
:10104C00F0B590F82040012C35D0012490F82150B7
:10105C0080F82040A5424FF000064FF0020428D142
:10106C0080F8214004688663266826F00106266015
:10107C00D0E90F67BD407560636043680568102B4D
:10108C00C36A0BBFA260A160E160E2604BB1236850
:10109C0043F00E03002023602B6843F001032B6008
:1010AC00F0BD236823F004032360236843F00A0394
:1010BC00F0E780F820600220F2E7000090F8213081
:1010CC0010B5022B03D004238363012010BD0368E9
:1010DC001A6822F00E021A601A6822F001021A60D5
:1010EC00184A93421FD0143293421ED014329342AA
:1010FC001DD0143293421DD0143293421DD01432A1
:10110C0093420CBF4FF480134FF080730E4A0024AF
:10111C005360012380F82130436B80F820407BB171
:10112C0098472046D2E70123F0E71023EEE74FF46F
:10113C008073EBE74FF48053E8E74FF48033E5E737
:10114C001846C3E7080002400000024070B40425B2
:10115C00C66B026C3468036895402542196832D01E
:10116C004D0730D51A6896065EBF1A6822F0040245
:10117C001A603E4A934219D01432934218D014325A
:10118C00934217D01432934217D01432934217D093
:10119C00143293420CBF4FF480034FF08063344AF7
:1011AC005360C36A002B5ED070BC18470423F6E76B
:1011BC004023F4E74FF48063F1E74FF48043EEE70C
:1011CC004FF48023EBE702259540254235D08D075F
:1011DC0033D51A68940606D41A6822F00A021A60EB
:1011EC00012280F82120214A934219D014329342D3
:1011FC0018D01432934217D01432934217D01432B1
:10120C00934217D0143293420CBF4FF400134FF09B
:10121C000073174A5360002380F82030836AC1E7BB
:10122C000223F6E72023F4E74FF40073F1E74FF4C1
:10123C000053EEE74FF40033EBE7082595402542C9
:10124C0011D009070FD5196821F00E01196001237F
:10125C0003FA02F27260836380F82130002380F875
:10126C002030036B9EE770BC704700BF0800024043
:10127C00000002402DE9F74F00242646654BDFF8AD
:10128C00A4C1DFF8A4E10A6832FA06F502D103B072
:10129C00BDE8F08F4FF0010808FA06F802EA0802E0
:1012AC0090457ED14D68122D00F0A98000F282800D
:1012BC00022D00F0A18076D8002D00F08880012D41
:1012CC0000F098804FF00F09FF2A93BF824606F179
:1012DC008045083DD0F800B092BFB500D0F804B0FE
:1012EC00AD0009FA05F82BEA080804FA05F588BFE1
:1012FC0000F1040A48EA0505CAF80050D1F804A028
:10130C001AF0805F4DD0444F26F00308BD6908F1F8
:10131C00804845F00105BD61BD6908F5803805F0D0
:10132C000105019506F0030B019D4FEA8B0BD8F8D4
:10133C00085009FA0BF925EA0909384DA84263D07F
:10134C0005F58065A84261D005F58065A8425FD09F
:10135C0005F58065A8420CBF0325042505FA0BF59D
:10136C0045EA0905C8F808501D681AF4803F14BFF7
:10137C00154395431D605D681AF4003F14BF154377
:10138C0095435D609D681AF4801F14BF1543954307
:10139C009D60DD681AF4001F14BF2A4325EA02027F
:1013AC00DA6001366FE7032D22D0112D8AD1CC687B
:1013BC00043487E71A4FBD4209D012D8DFF86C907D
:1013CC004D4504D009F580394D457FF47BAF8C68D1
:1013DC00C4B1012C0CBFC0F81080C0F814800824D4
:1013EC0070E76545F3D07545F1D0DFF84490EBE735
:1013FC00002467E7CC6865E7CC68083462E7CC6802
:10140C000C345FE704245DE70025A7E70125A5E779
:10141C000225A3E70004014000100240000801402F
:10142C0000002110000031100000321000001110DB
:10143C00000022102DE9F74F4FF0040B00234FF062
:10144C00010A4FF00F0800EB0B020192314A31FAFE
:10145C0003F402D103B0BDE8F08F0AFA03F70F4092
:10146C004FD023F0030404F1804404F5803403F0DE
:10147C00030C294DA6684FEA8C0C08FA0CF9A8420B
:10148C0009EA060E3FD005F58065A8423DD005F56A
:10149C008065A8423BD005F58065A84214BF0425A1
:1014AC00032505FA0CF575456FEA07060FD1A568FB
:1014BC0025EA0905A560146834401460546834406A
:1014CC005460946834409460D4683440D460FF2FE6
:1014DC0093BF074603F18044083CD0F800C08ABF94
:1014EC00D0F804C09C00A40008FA04F588BF019F42
:1014FC000BFA04F42CEA050525433D60C46826402C
:10150C00C6600133A3E70025CBE70125C9E7022517
:10151C00C7E700BF0004014000080140836819427E
:10152C0014BF0120002070470AB101617047090403
:10153C00FBE7C3680B4214BF4161016170470000B7
:10154C000122014B1A60704720000E422DE9F34135
:10155C00054608B901203CE00368DB0710D42B6872
:10156C009F075DD42B68190700F194802B685A07EC
:10157C0000F1BE80E869002840F02C81002028E0B2
:10158C008F4C636803F00C03042B07D0636803F0E3
:10159C000C03082B09D16368DE0306D523689C0372
:1015AC00DDD56B68002BDAD1D4E76B68B3F5803FDF
:1015BC0012D1236843F480332360FFF7FFF806460B
:1015CC0023689803CBD4FFF7F9F8801B6428F7D96C
:1015DC00032002B0BDE8F0819BB9236823F480336B
:1015EC002360236823F480232360FFF7E7F8064683
:1015FC0023689903B3D5FFF7E1F8801B6428F7D96A
:10160C00E6E7B3F5A02F236803D143F480232360CE
:10161C00CFE723F480332360236823F48023CBE7C4
:10162C00674C636813F00C0F07D0636803F00C036E
:10163C00082B10D16368DA030DD423689B0702D5FD
:10164C002B69012B86D123686A6923F0F80343EADE
:10165C00C203236086E72A695A4B6AB101221A60D9
:10166C00FFF7ACF8064623689F07ECD4FFF7A6F803
:10167C00801B0228F7D9ABE71A60FFF79FF80646E4
:10168C00236898077FF56EAFFFF798F8801B022848
:10169C00F6D99DE7AA694A4C4B4BDAB101221A6084
:1016AC00FFF78CF80646636A9B070DD54FF4FA5288
:1016BC00464B1B68B3FBF2F3019300BF019B5A1E10
:1016CC000192002BF9D151E7FFF778F8801B022823
:1016DC00E9D97DE71A60FFF771F80646636A9F0740
:1016EC007FF544AFFFF76AF8801B0228F6D96FE745
:1016FC00334CE369D80024D40127E36943F08053C9
:10170C00E361E36903F080530093009B304E336830
:10171C00D90518D5EB68012B26D1236A43F00103B8
:10172C002362FFF74BF841F288368046236A9B0709
:10173C003FD5002F3FF41EAFE36923F08053E361E4
:10174C0018E70027E2E7336843F480733360FFF750
:10175C0035F880463368DA05DCD4FFF72FF8A0EBB8
:10176C0008006428F6D933E7ABB9236A41F288380C
:10177C0023F001032362236A23F004032362FFF79F
:10178C001DF80646236A9807D3D5FFF717F8801B78
:10179C004045F7D91CE7052B236A03D143F004031A
:1017AC002362BAE723F001032362236A23F00403C4
:1017BC00B6E7FFF703F8A0EB0800B042B6D907E78D
:1017CC000010024000004242800442422C000020E3
:1017DC00007000402A4B5A681C4602F00C02082A82
:1017EC003DD00023274E022833602BD1FEF7E6FFB5
:1017FC000746236899011FD42B6AB3F5803F05D1A6
:10180C006268A96822F400320A436260696A6268FD
:10181C000B4322F474121343636001233360FEF70D
:10182C00CDFF054623689A013FF5A8AEFEF7C6FF2B
:10183C00401B0228F6D9CBE6FEF7C0FFC01B0228DE
:10184C00D7D9C5E6FEF7BAFF054623689B017FF59D
:10185C0095AEFEF7B3FF401B0228F6D9B8E6012877
:10186C003FF4B7AE58682B6A00F480329A427FF48A
:10187C0071AE6B6A00F47010C01A18BF0120A8E694
:10188C00001002406000424230B5184B87B002ACE9
:10189C0003F11005224618685968083303C2AB429D
:1018AC001446F7D140F201231149ADF804304B68CE
:1018BC0003F00C02082A17D1C3F3834206A8024492
:1018CC00DB0312F8102C0CD54B680A48C3F34043C9
:1018DC00504306AA134413F8143CB0FBF3F007B0C2
:1018EC0030BD05485043FAE70248F8E78C830008FE
:1018FC000010024000127A0000093D002DE9F04171
:10190C000D46044610B90120BDE8F081444A136825
:10191C0003F007038B4228D321688E0730D4CA0703
:10192C0043D43F4A136803F00703AB4265D82268DF
:10193C003C4D12F0040F6CD1130706D56B6822696D
:10194C0023F4605343EAC2036B60FFF79DFF6B689F
:10195C00354AC3F30313D35CD840344B1860344B73
:10196C001868FEF7E9FE0020CEE7136823F00703A2
:10197C000B431360136803F007038B42C3D1CBE70F
:10198C00284B11F0040F1EBF5A6842F4E0625A60F3
:10199C00080742BF5A6842F460525A605A68A068FD
:1019AC0022F0F00202435A60B9E762681D4E012A28
:1019BC0033681AD113F4003FA5D0736841F288380C
:1019CC0023F0030313437360FEF7F8FE07467368B6
:1019DC00626803F00C03B3EB820FA2D0FEF7EEFEAD
:1019EC00C01B4045F3D903208EE7022A02D113F025
:1019FC00007FE1E713F0020FDEE7136823F0070323
:101A0C002B431360136803F00703AB427FF47BAFE7
:101A1C008DE76B68E16823F4E0630B436B608BE745
:101A2C0000200240001002405D8900082C000020BC
:101A3C0004000020044B054A5B68C3F30223D35C0B
:101A4C00034A1068D8407047001002406D890008A6
:101A5C002C000020044B054A5B68C3F3C223D35C03
:101A6C00034A1068D8407047001002406D89000886
:101A7C002C00002003682DE9F341D907054620D539
:101A8C00354CE369DA0032D40127E36943F0805323
:101A9C00E361E36903F080530193019B2F4E33689C
:101AAC00DB0526D5236A13F4407336D1236A6A68A2
:101ABC0023F44073134323621FB1E36923F0805373
:101ACC00E3612868830706D5234AA968536823F481
:101ADC0040430B43536010F010001BD01E4AE968C2
:101AEC005368002023F480030B43536012E000275B
:101AFC00D4E7336843F480733360FEF75FFE8046AF
:101B0C003368D805CED4FEF759FEA0EB0800642844
:101B1C00F6D9032002B0BDE8F0816A6802F4407285
:101B2C009A42C3D001200E4A236A1060002023F48D
:101B3C00407110602162D907B8D5FEF73FFE41F223
:101B4C0088380646236A9A07B0D4FEF737FE801B06
:101B5C004045F7D9DDE700BF00100240007000409F
:101B6C004004424270B50446344B86B002AD03F1DA
:101B7C0010062A4618685968083303C2B342154642
:101B8C00F7D140F20123022CADF8043047D0102CD1
:101B9C0017D0012C4FD140F20231294A136A194057
:101BAC00B1F5817F44D003F44073B3F5007F2DD1A0
:101BBC0049F64040536A13F0020F08BF002006B0EC
:101BCC0070BD1F4B5968186810F08070F7D0C1F3C6
:101BDC00834206A8024412F8100CCA0341BF5A688B
:101BEC0006A9C2F34042521844BF12F8141C154AFD
:101BFC005B684CBFB2FBF1F2134A5B0202FB00F0D4
:101C0C00DDD403234000B0FBF3F0D8E7B3F5407FFD
:101C1C0011D113684FF2244013F4003FCDE7FFF7C6
:101C2C0019FF074B5B68C3F3813301335B00EAE7B1
:101C3C004FF40040C3E70020C1E700BF9C830008BD
:101C4C000010024000127A0000093D0038B504462D
:101C5C00FEF7B4FD054623685A68920605D50020A8
:101C6C005A6842F010025A6038BDFEF7A7FD401BBF
:101C7C00B0F57A7FEFD90320F6E7026838B55368E0
:101C8C00044623F010035360FEF798FD05462368C5
:101C9C005B689B0601D5002038BDFEF78FFD401B0D
:101CAC00B0F57A7FF3D90320F6E738B50446A8B12E
:101CBC000268536823F008035360FEF77FFD054666
:101CCC0023685B681B0701D5002038BDFEF776FD45
:101CDC00401BB0F57A7FF3D90320F6E70120F4E737
:101CEC0010B5044670B1437C03F0FF0213B90274C3
:101CFC0005F042FB022320466374FFF7D6FF18B1B0
:101D0C0004236374012037E02046FFF79FFF00286F
:101D1C00F6D12268A068536823F007035360174A72
:101D2C0018B1116B21F001011163D36A23F46073B4
:101D3C000343D3626068431C05D10120FFF712FFF7
:101D4C000028DDD001382268936823F00F0343EAA2
:101D5C0010439360D36880B21B0C1B041843D060F3
:101D6C002046FFF78AFF012310B104226274C9E7F1
:101D7C00E0736373A373637410BD00BF006C004009
:101D8C00F8B504460E4615461F4621688A6836EAA1
:101D9C00020301D000202DE06B1CF7D0FEF70EFDE6
:101DAC00C01B8542F1D823685A6822F0E0025A60C1
:101DBC006268B2F5827F0AD1A268B2F5004F02D0F8
:101DCC00B2F5806F03D11A6822F040021A60A26A41
:101DDC00B2F5005F07D11A6822F400521A601A6833
:101DEC0042F400521A60012384F85130002303207E
:101DFC0084F85030F8BD38B5134642680446B2F545
:101E0C00827F16D18068B0F5004F02D0B0F5806F9C
:101E1C000FD12268B0F5806F156825F0400515606C
:101E2C0007D10A4601212046FFF7AAFF20B900205E
:101E3C0038BD0A468021F6E7636D032043F020038A
:101E4C006365F5E710B513460A4680210446FFF793
:101E5C0097FF20B10320636D43F02003636510BD31
:101E6C0010B50446002834D00023836290F851301A
:101E7C0003F0FF021BB980F8502005F0DFFA0223B3
:101E8C00226884F851301368A16923F04003136071
:101E9C00D4E901300343E0680343206903436069DC
:101EAC000343E0690343206A0343A06A034301F43C
:101EBC000070090C034301F0040113605160D369F5
:101ECC00002023F40063D3610123606584F8513052
:101EDC0010BD0120FCE72DE9F3411E4690F850306F
:101EEC000446012B0D46904600F09C80012380F89F
:101EFC005030FEF763FC074694F85100C0B201283D
:101F0C0040F08E80002D5ED0B8F1000F5BD0032323
:101F1C00002084F85130A3686065A063A4F8368073
:101F2C00A087E087C4E910002068B3F5004F08BF14
:101F3C000368256308BF43F48043A4F8348008BFCA
:101F4C0003600368E2685B065EBF036843F040030E
:101F5C000360B2F5006F63683ED113B1B8F1010FA5
:101F6C0007D135F8023BC3602563E38E013B9BB27E
:101F7C00E386E38E9BB2A3B93A4631462046FFF77F
:101F8C0061FF002849D1A36833B901932368DA684B
:101F9C0001929B680193019B606D003018BF01207A
:101FAC0011E022689368980705D5236B33F8021B60
:101FBC00D1602363D9E7FEF701FCC01BB042D8D334
:101FCC00711CD6D00320012384F85130002384F8EF
:101FDC00503002B0BDE8F08113B1B8F1010F08D157
:101FEC002B780373236B01332363E38E013B9BB28A
:101FFC00E386E38E9BB2002BBED023689A689207CF
:10200C0003D5226B12781A73ECE7FEF7D7FBC01BD3
:10201C00B042EED3731CECD0D4E720236365B2E757
:10202C000220D0E70220D4E72DE9F7431E4690F8B2
:10203C0050300446012B0D4691460A9F00F0E28079
:10204C00012380F85030FEF7B9FB94F851308046EC
:10205C00DBB2012B61680AD0B1F5827F40F0D080F1
:10206C00A068002840F0CC80042B40F0C980002DE3
:10207C0000F0C480B9F1000F00F0C080002E00F019
:10208C00BD8094F85130C4F83890042B1CBF052344
:10209C0084F8513000236365C4E910332368E68764
:1020AC00E6861A68A687500658BF1A68256358BF7B
:1020BC0042F04002A68658BF1A60E268B2F5006F83
:1020CC0058D109B1012E07D135F8022BDA60E38E15
:1020DC002563013B9BB2E3860125E38E9BB2ABB932
:1020EC00E38F9BB293B9424639462046FFF7AAFECE
:1020FC00002840F08180A368002B32D12368019026
:10210C00DA6801929B680193019B2AE0226893682C
:10211C0099070DD5E38E9BB253B14DB10025236BBE
:10212C0033F8021BD1602363E38E013B9BB2E38641
:10213C009368DB070CD5E38F9BB24BB10125D268BA
:10214C00A36B23F8022BA363E38F013B9BB2E387C2
:10215C00FEF734FBA0EB08008742BED87E1CBCD037
:10216C000320012384F85130002384F8503003B04D
:10217C00BDE8F08309B1012E08D12A781A73236BBC
:10218C0001332363E38E013B9BB2E3860125E38E8F
:10219C009BB21BB9E38F9BB2002BA4D0226893682F
:1021AC0098070ED5E38E9BB25BB155B10025236B1E
:1021BC001B781373236B01332363E38E013B9BB2B8
:1021CC00E38622689368D9070DD5E38F9BB253B190
:1021DC000125D268A36B1A70A36B0133A363E38F41
:1021EC00013B9BB2E387FEF7E9FAA0EB08008742BC
:1021FC00CDD87B1CCBD0B3E7202363650120B0E79F
:10220C000220AEE70220B2E72DE9F3411D464368F8
:10221C000446B3F5827F884617460CD1836853B9C0
:10222C00042380F85130134600950A46FFF7FCFE54
:10223C0002B0BDE8F08194F85030012B7BD0012323
:10224C0084F85030FEF7BAFA064694F85100C0B242
:10225C0001286ED1B8F1000F59D0002F57D00423AC
:10226C0084F851300023A26863652363E787A38653
:10227C00E386C4E910332368B2F5004F08BF1A682F
:10228C00A78708BF22F48042C4F8388008BF1A60C0
:10229C001A6857065EBF1A6842F040021A60E3687B
:1022AC00F3B1E38F9BB2FBB123689A68D20735D5A3
:1022BC00DA68A36B23F8022BA363E38F013B9BB279
:1022CC00E387EEE723689A68D00718D51B7BA26BCF
:1022DC001370A36B0133A363E38F013B9BB2E387C2
:1022EC00E38F9BB2002BEDD1324629462046FFF7F7
:1022FC0082FDD8B9606D003018BF012007E0FEF7F1
:10230C005DFA801BA842EBD3691CE9D003200123A2
:10231C0084F85130002384F8503089E7FEF74EFAE8
:10232C00801BA842BDD36B1CBBD0EFE72023636599
:10233C00E0E70220EBE702207AE70368DA6822F490
:10234C009072DA605A6922F001025A61202380F8F7
:10235C003A30704738B505460368C1681A691924C4
:10236C0022F440520A431A6182680069D968024318
:10237C00686921F4B05121F00C0102430A43DA6080
:10238C005A69A96922F440720A435A610D4A934270
:10239C0014D1FFF75FFB60436C686422A400B0FBB0
:1023AC00F4F0B0FBF2F102FB11031B013233B3FB6F
:1023BC00F2F32C6803EB0113A36038BDFFF73AFB73
:1023CC00E9E700BF0038014010B5044640B390F86F
:1023DC00393003F0FF021BB980F8382005F0EEF914
:1023EC002423226884F83930D368204623F4005320
:1023FC00D360FFF7AFFF236800201A6922F49042E4
:10240C001A615A6922F02A025A61DA6842F40052BF
:10241C00DA602023E06384F8393084F83A3010BD58
:10242C000120FCE738B50D460446002833D090F85F
:10243C00393003F0FF021BB980F8382005F0BEF9E3
:10244C002423226884F83930D368204623F40053BF
:10245C00D360FFF77FFF236800201A6922F4006223
:10246C001A615A6922F02A025A611A6942F48042AE
:10247C001A611A6922F020021A611969294319613B
:10248C00DA6842F40052DA602023E06384F83930D1
:10249C0084F83A3038BD0120FCE710B5044690B101
:1024AC002423026880F83930D36823F40053D360B6
:1024BC0005F078FA0020E06384F8380084F83900DD
:1024CC0084F83A0010BD0120FCE7000038B5044642
:1024DC00134694F83920202A2AD139B333B394F80F
:1024EC003820012A24D00122002584F8382021220A
:1024FC00E384206BE56384F839200E4AA3842162BF
:10250C0082620D4AC2620D4AC0E90C25226804326F
:10251C00FEF796FD6FF04002284623681A605A6950
:10252C0084F8385042F080025A6138BD0120FCE733
:10253C000220FAE74D2500087B250008FF2500083E
:10254C0008B50368426A1B6813F020030AD1D384D0
:10255C0013685A6922F080025A61DA6842F040022C
:10256C00DA6008BD104604F0B7FAFAE7704708B510
:10257C00406AFFF7FBFF08BD704790F83A3010B582
:10258C00222B33D181680469B1F5805F836A0268BC
:10259C0023D15268ECB9C2F3080223F8022B8362F0
:1025AC00C48D013CA4B2C4858CB90368DA6822F0EE
:1025BC002002DA60DA6822F48072DA605A6922F05A
:1025CC0001025A61202380F83A30FFF7D5FF002032
:1025DC000DE0D2B223F8012BE1E7591C526881625D
:1025EC000CB91A70DCE702F07F02FAE7022010BD8A
:1025FC007047416A08B50B685A6991F8390021286F
:10260C000AD1120608D50022CA84DA6822F0C00268
:10261C00DA60202281F839205B6991F83A20222A6D
:10262C0006D15B0604D500230846CB85FFF785FE53
:10263C00CB6B084643F01003CB63FFF7D9FF08BD03
:10264C00036870B51A6804461607D9685D6907D126
:10265C00960658D58D0656D5BDE87040FFF78DBF50
:10266C0015F0010502D111F4907F4CD0D30705D59C
:10267C00CE0542BFE36B43F00103E363500704D57F
:10268C001DB1E36B43F00203E363930704D51DB163
:10269C00E36B43F00403E363160704D51DB1E36B4E
:1026AC0043F00803E363E36B43B3950604D5880654
:1026BC0002D52046FFF761FF236820465D69E26B77
:1026CC00110702D415F0400519D0FFF736FE236828
:1026DC005A6952060FD55A69606B22F040025A6152
:1026EC0048B1264B4363FEF7E9FC38B1606BBDE89B
:1026FC007040436B18472046FFF77AFF70BDFFF719
:10270C0077FFE563FAE7160628D50D0626D594F86B
:10271C003920212AF2D1A168226AB1F5805F18D143
:10272C001188C1F308015960216981B90232226212
:10273C00E28C013A92B2E284002ADFD1DA6822F00C
:10274C008002DA60DA6842F04002DA60D6E70132E1
:10275C00EDE7511C216212785A60E9E75006CDD59D
:10276C004A06CBD5DA68204622F04002DA602023F4
:10277C0084F8393004F0B0F9C0E700BF8D270008A9
:10278C0008B50023406AC385C384FFF731FF08BD39
:10279C00034B1A1803EB80035B68107A5B681847CD
:1027AC00E4000020064B1A5C42B901221A541A1894
:1027BC0003EB80035B68107A1B6818470020704796
:1027CC00E400002030B4054C251804EB800460684C
:1027DC008468287AA44630BC604700BFE40000201F
:1027EC0030B4054C251804EB80046068C468287A62
:1027FC00A44630BC604700BFE400002010B4044B7A
:10280C001C1803EB80035B68207A1B6910BC18470B
:10281C00E400002001380A44914200D1704711F8BD
:10282C00013B00F8013FF7E70244904200D17047AA
:10283C0000F8011BF9E700001E4A30B513687BB1A4
:10284C00D0F800429C4209D15468D0F808329C421E
:10285C0004D11489B0F806329C4224D0002400E044
:10286C000124D368EBB1D0F80052AB4209D1156901
:10287C00D0F808329D4204D1958AB0F806329D42B8
:10288C0016D074B902290CBF0020122030BD0C21C7
:10289C0001FB03225389B3F5807F14BF0020102065
:1028AC00F4E70020F2E700230029F0D01020EDE738
:1028BC000123F9E7C8000020244AF0B51368D0F8CA
:1028CC0000629E4209D15568D0F80842A54204D155
:1028DC00B0F806521489A54228D0D468B44209D164
:1028EC001769D0F80852AF4204D1978AB0F8065253
:1028FC00AF4226D00BB134BB01230C245C43151919
:10290C001651D0F80842B0F806026C6028810020FD
:10291C00688199B90C2101FB03214989013189B2E4
:10292C000C2000FB0322581C5181F0BD0023002910
:10293C00F0D00C2101FB0321498921B94FF480719E
:10294C00EEE70123F3E70020EFE700BFC80000200B
:10295C000138012817D80C220C4902FB00125389AC
:10296C00B3F5807F06D1002353810C234343002011
:10297C00C8507047002BF8D0013B9BB25381002B01
:10298C00F3D0002070470220704700BFC800002021
:10299C00D0F80022490A92F80222D0F82432B1FB76
:1029AC00F2F10433186830B1814202D3091A0833AA
:1029BC00F8E7586808447047026810B552B11146E0
:1029CC000B4611F8014B202C0CD93A2CF8D1511C88
:1029DC008B4202D04FF0FF3005E01278302AF9D14B
:1029EC0001330360002010BD08B590B1D0F800325F
:1029FC007BB193F8002262B1B3F80612B0F804224E
:102A0C00914206D193F80102FFF7C2FE10F00100CB
:102A1C0000D0092008BDCA7E8B7E032843EA02231E
:102A2C0001BF487D0A7D42EA002243EA0243184670
:102A3C00704770B5D0F82C520446014601232A4643
:102A4C0090F80102FFF7CCFED0B9D4F82032D4F8BC
:102A5C001822EB1A934284F8040201D3002070BDB3
:102A6C0094F80362012EF9D9D4F8183221461D448A
:102A7C002A46012394F80102FFF7B2FE013EF1E76A
:102A8C000120ECE790F804320BB1FFF7D2BF1846E7
:102A9C007047D0F82C3270B58B4206460D4613D0D9
:102AAC00FFF7F0FF044668B92A460123314696F831
:102ABC000102FFF787FE00281CBF4FF0FF350124F1
:102ACC00C6F82C52204670BD0024FBE7002310B53D
:102ADC0080F804324FF0FF33C0F82C320446FFF775
:102AEC00D8FFC0B994F8FF2194F8FE3143EA0223D1
:102AFC004AF65522934210D1D4F83630084A23F0C6
:102B0C007F43934206D0D4F8520020F07F40801AC5
:102B1C0018BF012010BD0320FCE70220FAE700BF1C
:102B2C00464154000023F0B5036085B007460846C3
:102B3C001546FFF741FF061EC0F22281944B53F855
:102B4C002640002C00F01E813C6094F8003273B1DA
:102B5C0094F80102FFF71CFEC70708D4002D00F003
:102B6C00138110F0040000D00A2005B0F0BD002342
:102B7C00F0B284F8003284F80102FFF713FEC107AB
:102B8C0000F104810DB14207EED400212046FFF77D
:102B9C009DFF012840F0DD80002204F5E37111F85F
:102BAC00043C03B10B684DF822300132042A01F1C8
:102BBC001001F4D100265DF82650002D00F0C080E5
:102BCC0029462046FFF782FF002840F0BA80227B7E
:102BDC00E37A43EA0223B3F5007F40F0BD80E37D46
:102BEC00A17D267C51EA032108BF616A731E012B6B
:102BFC00C4F8181284F8036200F2AE8094F80DE069
:102C0C0084F802E2BEF1000F00F0A6800EF1FF3353
:102C1C0013EA0E0F40F0A080A37C607C40EA0320F6
:102C2C000307A4F8080240F09780E27C237DE77B41
:102C3C0052EA0323A27B08BF236A52EA072200F060
:102C4C008B8001FB06FC02EB10176744BB42C0F003
:102C5C008380DB1BB3FBFEF3002B7DD040F6F576B7
:102C6C004FF6F57EB34294BF01260226734588BF0A
:102C7C0003262A4402332F44032EC4F81432C4F81A
:102C8C001C52C4F82022C4F8287269D1002863D1E0
:102C9C00E26A9B00C4F8242203F2FF13B1EB532F1A
:102CAC005AD34FF0FF33C4F81032C4F80C328023DF
:102CBC00032E84F805322DD194F8312094F830305D
:102CCC0043EA0223012B25D1691C2046FFF7E1FEC4
:102CDC0000BB94F8FF2194F8FE3184F8050243EA16
:102CEC0002234AF65522934214D12268294B9A4268
:102CFC0010D103F1FF53D4F8E42103F50053203332
:102D0C009A4201BFD4F8E831C4F81032D4F8EC314F
:102D1C00C4F80C32204A84F8006213880020013376
:102D2C009BB21380A4F806321C4B1A68944204BF61
:102D3C0000221A60DA6894427FF417AFD86014E767
:102D4C0002200136042E7FF436AF032804D1012073
:102D5C000BE70328FBD008B10D2006E7054636E744
:102D6C000028F9D06244022EC4F824224FEA430210
:102D7C001BBFD21803F00103134603EB52038BE77E
:102D8C000B20F2E60C20F0E62846EEE60320ECE6FB
:102D9C00C400002052526141E0000020C800002015
:102DAC0038B50446FFF76EFE054600284BD194F863
:102DBC000032032B3ED194F80532012B3AD1014657
:102DCC004FF400722046FFF72FFD4AF65522A4F867
:102DDC00FE211D4A94F80102226002F1FF5202F515
:102DEC0000522032C4F8E421D4F81022C2F3072197
:102DFC0084F8E82184F8E911110C120E84F8EB2107
:102E0C00D4F80C2284F8EA11C2F3072184F8EC21DF
:102E1C0084F8ED11110C120E84F8EF21D4F81C2259
:102E2C0084F8EE110132C4F82C222146FFF7D8FCAD
:102E3C0084F80552002294F801021146FFF7DEFCDB
:102E4C00003018BF012038BD52526141D0F8143205
:102E5C000239023B8B4283BF90F80232D0F8280231
:102E6C0001FB0300002070470129F8B506460D460A
:102E7C0059D9D0F814328B4255D990F80032022B24
:102E8C0027D0032B36D0012B4DD101EB5104D0F8B8
:102E9C00201201EB5421FFF7FCFD10B14FF0FF3075
:102EAC00F8BDD6F82012671C01EB5721C4F30804B7
:102EBC003046345DFFF7EDFD0028EFD1C7F308076E
:102ECC00F05DEB0744EA00204CBF0009C0F30B0097
:102EDC00E6E7D0F8201201EB1521FFF7DAFD002808
:102EEC00DCD16D0005F4FF7573195B78705D40EAF9
:102EFC000320D5E7D0F8201201EBD511FFF7C9FD5F
:102F0C000028CBD1AD0005F4FE7573199878DA78EA
:102F1C00000440EA0260725D5B78104340EA0320D3
:102F2C0020F07040BCE70120BAE770B50446D0F839
:102F3C0008220D46012AA4F8061201D1022070BD08
:102F4C00D0F80032D3F814129142F7D9F2B993F8B1
:102F5C000012032902D1D3F82412C1B9B3F8081214
:102F6C00A942EBD9D3F82402C4F80C220028E5D0EE
:102F7C00D4F8003200EB151005F00F0503EB4515E6
:102F8C00C4F81002C4F814520020D8E711460A46BF
:102F9C0093F802623601B542D4F80002114602D20F
:102FAC00FFF754FFE0E7FFF75FFF431C024609D031
:102FBC000128C3D9D4F80032D3F814328342BDD9D6
:102FCC00AD1BE8E70120BAE701292DE9F0410546E0
:102FDC000C46164670D9D0F814328B426CD990F846
:102FEC000032022B3CD0032B4BD0012B64D101EBD4
:102FFC005107D0F8201201EB5721FFF74AFD28BBEF
:10300C0014F0010407F10108C7F3080717BFEB5DC3
:10301C00F3B203F00F0233011CBF03F0F0031343B0
:10302C00EB550123D5F8201285F8043201EB582119
:10303C002846FFF72EFD48B9C8F3080844B1C6F37B
:10304C00071205F80820012385F80432BDE8F08149
:10305C0015F80820C6F3032622F00F023243F0E7DE
:10306C00D0F8201201EB1421FFF713FD0028EDD14D
:10307C00640004F4FF742E55C6F307222C446270CE
:10308C00E1E7D0F8201201EBD411FFF702FD002884
:10309C00DCD1A40004F4FE742919CB781B0603F0D0
:1030AC00704343EA0602C2F307232A554B70130CF4
:1030BC00120E8B70CA70C6E70220C7E7F8B505463A
:1030CC000F4689B9D0F80C62FEB1D0F814329E428A
:1030DC0028BF01263446D5F814320134A34217D840
:1030EC00012E14D8002408E0FFF7BEFE0128044688
:1030FC003BD9013003D14FF0FF342046F8BDD5F851
:10310C001432A342F9D83E46E4E70126E2E7022452
:10311C0021462846FFF7A8FE30B1411CEBD0012810
:10312C0023D0B442D7D1DDE76FF070422146284658
:10313C00FFF74AFFB8B97FB9D5F81032C5F80C4281
:10314C005A1CDAD0013BC5F8103295F8053243F021
:10315C00010385F80532D0E7224639462846FFF7A9
:10316C0033FF0028E8D00128C5D00124C5E72DE99C
:10317C00F843B0F8066204460136B3B2894613B977
:10318C000420BDE8F883D0F81032002BF8D016F0EC
:10319C000F080BD1D4F80C120133D0F80002C4F88C
:1031AC00103269B9B0F80832B342E9D9D4F8003218
:1031BC00A4F8066203EB4813C4F814320020E0E7CD
:1031CC0090F80272013F17EA1617EFD1FFF74CFE89
:1031DC000128054601D80220D3E7421C01D1012069
:1031EC00CFE7D4F80002D0F81432AB422FD8B9F1A3
:1031FC00000FC5D0D4F80C12FFF760FF054600286D
:10320C003ED00128E7D0431CE9D0D4F80002FFF7E8
:10321C0039FC01460028E2D14FF40072D4F80002C8
:10322C00FFF702FBD4F8002229461046FFF70EFEEA
:10323C004FF00109C2F82C02D4F8000290F80232C7
:10324C00BB420ED8D0F82C32DF1BC0F82C72C4F85D
:10325C000C522946D4F80002FFF7F8FDC4F810020E
:10326C00A4E780F80492FFF7E4FB0028B7D1D4F868
:10327C0000220137D2F82C320133C2F82C32DBE7B2
:10328C0007207EE72DE9F8430B7804462F2B0D46DB
:10329C0001D05C2B00D101350026C4F808622B78D4
:1032AC001F2B35D95C4F2B78A8462F2B05F1010528
:1032BC00F9D05C2BF7D0D4F818620B2220213046C1
:1032CC00FFF7B2FA4FF0000C0821E646624608F10F
:1032DC00FF3919F8013F0EF1010E202B27D92F2BA6
:1032EC0025D05C2B23D02E2B00F0828061450DD98C
:1032FC00180644BF803BFB5C484D48BF42F00302BC
:10330C0015F8010F00287AD08342F9D1062005E088
:10331C0031462046FFF709FEC4F81462BDE8F88375
:10332C0042F0020206F80C300CF1010CD1E7212B13
:10333C0008EB0E0534BF04230023BCF1000FE5D0CD
:10334C003078E52804BF05203070082904BF9200AE
:10335C00D2B202F00301012902F00C0208BF43F0C3
:10336C001003042A08BF43F00803F372002120461F
:10337C00FFF7DBFDF8B9D4F81012D4F80002FFF710
:10338C0088FBC0B9D4F8142213789BB1D37A1907EF
:10339C000BD4D4F8183203F10B0C9C450BD012F85B
:1033AC00016B13F8011B8E42F7D000212046FFF76A
:1033BC00DEFEDFE70420D4F81832DB7A30B10428C3
:1033CC00ACD113F0040F08BF0520A7E75A07A5D40A
:1033DC00D4F81412CB7ADB0608D5D4F8003293F863
:1033EC000002FFF718FBC4F808025CE7052095E71C
:1033FC0008298BD192008C46D2B20B2169E7A3F13C
:10340C00410019288CD9A3F1610019289EBF203BDB
:10341C0042F00102DBB285E7AC8300082B84000884
:10342C0038B500210546FFF780FD044678BBD5F87A
:10343C001012D5F80002FFF72CFB044638BBD5F868
:10344C0014321B78E52B1BD1D5F81012D5F80002DD
:10345C00FFF71FFB044688B901462022D5F8140259
:10346C00FFF7E2F90B22D5F81812D5F81402FFF782
:10347C00D1F90122D5F8003283F80422204638BD58
:10348C00002BE1D001212846FFF771FECDE7042C7B
:10349C0008BF0724F2E7012970B504460D4601D890
:1034AC00022070BDD0F814328B42F9D9D4F8143202
:1034BC009D4205D229462046FFF7D6FC064608B9A0
:1034CC000020EEE70128EBD0411C15D00022294644
:1034DC002046FFF779FD0028E3D1D4F810325A1CAE
:1034EC0008D00133C4F8103294F8053243F00103CC
:1034FC0084F805323546D9E70120D2E77FB5CDE90E
:10350C00001004A840F8041D1646FFF755FA051ED6
:10351C0021DB134951F8254064B1124B00201A6885
:10352C0084F80002944204BF00221A60DA689442C4
:10353C0008BFD860019810B1002380F8003241F820
:10354C00250030B1012E08D10022694601A8FFF7F1
:10355C00E9FA04B070BD0B20FBE70020F9E700BFCF
:10356C00C4000020C80000202DE9F043ADF50F7D0C
:10357C00019190460546002800F0A580002302F03A
:10358C001E02C0F8003201A986A8FFF7CBFA064646
:10359C00002840F0938003AB019906A88C93FFF7A9
:1035AC0071FE08F01F078B9C48B9002C5AD017F0FD
:1035BC001E0F14BF0121002106A8FFF73DF918F0DA
:1035CC001C0F5AD000284FD0042808D1514B1A6830
:1035DC0012B1DB68002B78D106A8FFF721FF47F06A
:1035EC00080700283CD18B9C3B0750D502F034FED9
:1035FC004FF00008C0F30723A073E373030C000E15
:10360C0084F80B8084F81C8084F81D8084F81E805C
:10361C0084F81F8023746074869B214693F8000203
:10362C00FFF7F9F9012284F81A8084F81B8084F8DA
:10363C00148084F81580869B804683F8042230B36E
:10364C0001461846D3F82C92FFF725FF40B986980F
:10365C0008F1FF33C0F80C324946FFF71AFAB0B143
:10366C0006462BE00620AAE7E37A13F0110F30D1BF
:10367C0018F0040FB8D0082620E00028F0D1E37A27
:10368C00D80624D418F0020F01D0DA0721D43B0756
:10369C00869B48BF47F02007D3F82C3217F0FE0F5B
:1036AC00C5F81C32C5F8204214BF0121002106A820
:1036BC00FFF702F9C5F8280268B9022630460DF565
:1036CC000F7DBDE8F0830926F8E71226F6E70426FD
:1036DC00F4E70726F2E785F806720027DDF8188272
:1036EC0085F8077298F800022146FFF794F9C5F89F
:1036FC001002E369C5F80872C5F80C32B8F8063246
:10370C00C5F81872C5F82472C5F80082A5F8043201
:10371C00D4E700BFC80000202DE9F74F9B460023DB
:10372C00CBF80030044689461546FFF75DF906468E
:10373C0060BB94F80732002B40F0AF8094F806324F
:10374C00D80740F1AC80D4F80C32D4F80872DF1BE7
:10375C00AF4228BF2F46CFB1D4F80812C1F30803EB
:10376C00002B40F08B80D4F8000290F80232013B21
:10377C0003EA512313F0FF0301931DD151B9D4F87F
:10378C001002012812D8022684F80762304603B0D2
:10379C00BDE8F08FD4F824321BB12046FFF7F8F8BF
:1037AC00EFE7D4F81412FFF75FFBEAE7411C01D1F5
:1037BC000126E9E7C4F81402D4F800A2D4F81412D4
:1037CC005046FFF743FB0028DDD0019B7D0A00EB40
:1037DC00030830D0019A9AF802322A449A4288BFE0
:1037EC00019A494688BF9D1A2B4642469AF8010217
:1037FC00FEF7E8FF0028DBD194F806325A060CD508
:10380C00D4F81802A0EB0800854206D94FF40072D8
:10381C00214609EB4020FEF7FDFF6D02D4F808327B
:10382C00A9442B44C4F80832DBF800307F1B2B442E
:10383C00CBF800308FE7D4F8182290451CD094F8C0
:10384C0006325B060DD5012321469AF80102FEF7DC
:10385C00C7FF0028ACD194F8063223F0400384F85B
:10386C000632D4F8000201234246214690F80102A8
:10387C00FEF7A8FF00289BD1C4F81882D4F80812D0
:10388C004846C1F30801C1F50075BD4228BF3D464D
:10389C0021442A46FEF7BEFFC0E71E4676E7072600
:1038AC0074E72DE9F74F9B460023CBF80030044614
:1038BC0089461746FFF798F8064650BB94F807322E
:1038CC00002B40F0DA8094F80632990740F1D7804B
:1038DC00D4F80832DF42C0F08480D4F80832D4F82F
:1038EC000C22934200F2C68094F8063243F0200377
:1038FC0084F806320DE0D4F8243273B12046FFF779
:10390C0047F801460028E8D0012909D1022684F89D
:10391C000762304603B0BDE8F08FD4F814127BE098
:10392C004A1C01D10126F2E7D4F81032C4F8141263
:10393C000BB9C4F8101294F806325B0611D5D4F802
:10394C0000020123D4F81822214690F80102FEF758
:10395C0047FF0028E6D194F8063223F0400384F8A0
:10396C000632D4F800A2D4F814125046FFF76EFABF
:10397C000028CBD0019B7D0A00EB03084FD0019AA5
:10398C009AF802322A449A4288BF019A494688BF63
:10399C009D1A2B4642469AF80102FEF721FF002899
:1039AC00C0D1D4F81812A1EB08018D420CD94FF4F8
:1039BC00007209EB41212046FEF72CFF94F80632E9
:1039CC0023F0400384F806326D02D4F80832A9447F
:1039DC002B44C4F80832DBF800307F1B2B44CBF8A7
:1039EC000030D4F80812002F3FF477AFC1F308036E
:1039FC005BBBD4F8000290F80232013B03EA51237E
:103A0C0013F0FF03019396D100297FF474AFD4F81F
:103A1C00101200297FF478AFFFF750FB71E7D4F850
:103A2C00183298450FD0D4F80C22D4F808329A42A8
:103A3C0009D90123424621469AF80102FEF7C2FE3B
:103A4C0000287FF46FAFC4F81882D4F808024946F6
:103A5C00C0F30800C0F50075BD4228BF3D462044A8
:103A6C002A46FEF7D7FE94F8063243F0400384F85A
:103A7C000632AAE7C4F80C3236E71E4649E7072699
:103A8C0047E770B50446FEF7AFFF002858D194F80D
:103A9C0006329A0654D55B0611D5D4F800020123E0
:103AAC00D4F81822214690F80102FEF799FE00285E
:103ABC0045D194F8063223F0400384F80632D4F84A
:103ACC001C12D4F80002FEF7E4FF0646C0BBD4F883
:103ADC002052EB7A43F02003EB72D4F80C322B77A4
:103AEC00B4F80C321B0A6B77B4F80E32AB7794F83F
:103AFC000F32EB77D4F81032AB76C3F307221B0CE2
:103B0C002B751B0A6B75EA7602F0A6FBC0F3072334
:103B1C00A875EB75030C000E2B766876AE74EE74FC
:103B2C0094F80632D4F8000223F0200384F806320D
:103B3C00012380F80432BDE87040FFF731B9012051
:103B4C0070BD10B50446FFF79CFF50B92046FEF738
:103B5C004BFF30B9D4F82802FEF7FAFE08B9C4F8C6
:103B6C00000210BD2DE9F04FADF5157D079002F068
:103B7C0073FB0122074607A98CA8FEF7D3FF054665
:103B8C000446002840F0BE8009AB07990CA892931C
:103B9C00FFF778FB0546002800F0BD80042840F0B4
:103BAC00B18021468C98FFF789FA0646002800F070
:103BBC00A480012800F0AB80431C00F0AA808C98F4
:103BCC00FEF760FF0546002840F098808C9C31463B
:103BDC002046FFF73BF9294606904FF40072204629
:103BEC00FEF722FE0B2220212046FEF71DFE10229E
:103BFC002E2526FA02F8E2722022FBB20193A3755D
:103C0C00C7F307230293E375C7F3074303932376A4
:103C1C003B0E049363765FFA88FBF3B2C6F3072A74
:103C2C004FEA1828A018A3762146257084F81BA00B
:103C3C0084F814B084F815800593FEF7EBFD84F836
:103C4C0021508C998E9A91F80002069B032804D17E
:103C5C00D1F82412914208BF002284F83A20C2F312
:103C6C000721120C84F83420120A84F83B1084F8D3
:103C7C0035200CAFD7F8002292F80292B9F1000F60
:103C8C0021D13846FFF7CCFB0546B8BB1022D7F83C
:103C9C001432DA72019A83F81BA09A75029A83F88F
:103CAC0014B0DA75039A83F815801A76049A5A764A
:103CBC00059A9A760123D7F8000280F80432FFF7B0
:103CCC006FF805461EE0D7F800025A1CC0F82C32DB
:103CDC004FF0010380F804320692FEF7AAFE054667
:103CEC0060B901464FF40072204609F1FF39FEF726
:103CFC009BFD5FFA89F9069BC0E7072531468C9836
:103D0C00FFF7C9FB28460DF5157DBDE8F08F0225A0
:103D1C00F4E70125F2E70825F4E72DE9F34106461F
:103D2C009046054600244F1EBC4212DA01AB01221C
:103D3C0069464046FFF7F0FC019B012B09D19DF829
:103D4C0000300D2BF0D00A2B05F8013B04F10104D7
:103D5C00EAD100239C4214BF304618462B7002B0A7
:103D6C00BDE8F08130B50F4B5C7A012C18D80024DB
:103D7C005D7AEDB25C555D7A03EB85056860587A27
:103D8C00184402725A7AD2B2501CC0B258723A23FA
:103D9C004B702F23204630320A708B70CC7030BDA4
:103DAC000120FCE7E40000200022FFF7DBBF00004D
:103DBC000023024A1360024A13607047E00100209E
:103DCC00900D0020F0B52F2404700D78294B457010
:103DDC004D781A6885708D780132C570CD781A606F
:103DEC0005710D790A2645714D7985718D79C571ED
:103DFC00C97900F1100501721F4944728A4284BFCF
:103E0C0000221A601B681D4A00F10904B3FBF2F191
:103E1C00CFB2303104F8011FA54202FB1733B2FBBD
:103E2C00F6F2F3D1303343742E238374144B93F88E
:103E3C003130012B08D14C23C3744F230375472316
:103E4C00437500238375F0BD022B05D14323C37446
:103E5C00532303755623F3E7032B05D14323C37474
:103E6C00522303755423EBE754235822C374027571
:103E7C00E6E700BFF8000020FFE0F505809698000B
:103E8C00481F00200F4B10491A68F0B501328A42C6
:103E9C0088BF00220A261A6042F210721B68841C2A
:103EAC00851DB3FBF2F1CFB2303104F8011FA542EE
:103EBC0002FB1733B2FBF6F2F3D13033C37100239C
:103ECC000372F0BDFC0000209F86010084B0F0B5A9
:103EDC00144F05AC7E8884E80F003B889E4228BFB7
:103EEC003C339B1B9BB2012B19D9302404FB067469
:103EFC0005AD08340FCD0FC40FCD0FC495E80F00DE
:103F0C003A2E88BF002684E80F004FF000009CBFBB
:103F1C000136B6B27E80BDE8F04004B07047022096
:103F2C00F9E700BFE001002084B0F0B5144F05ACF8
:103F3C007E8884E80F003B889E4228BF3C339B1B45
:103F4C009BB2012B19D9302404FB067405AD08343F
:103F5C000FCD0FC40FCD0FC495E80F003A2E88BFBC
:103F6C00002684E80F004FF000009CBF0136B6B26B
:103F7C007E80BDE8F04004B070470220F9E700BF36
:103F8C00900D0020602804D92738C0B23038C0B258
:103F9C0070474028FAD90738F7E760280CD927383A
:103FAC00C0B230386029C0B20AD92739C9B2303909
:103FBC0041EA0010C0B270474028F2D90738EFE749
:103FCC004029F4D90739F1E70309092B00F00F0058
:103FDC0094BF30333733092894BF303037300B70EF
:103FEC004870704784B02DE9F84308AC84E80F00A2
:103FFC00564B0646DDE909081C78159A012C0B99DD
:10400C000D9D1F466BD10C9C002945D1002C41D134
:10401C007423010A09291370CBB294BF30333733A0
:10402C00DBB2911C5370C0B2FFF7CEFF0421EBB290
:10403C00092D94BF30333733DBB201F101085354EF
:10404C0044B902F1010989446300AC4209EB030154
:10405C003DD198447B789BB14EF66021B6FBF1F3D1
:10406C0001FB136602EB0801C6F30720FFF7ACFF58
:10407C0008F102011144F0B2FFF7A6FF08F10408A1
:10408C000D2308F1010002F8083080B2BDE8F843B6
:10409C0004B070477223BCE7BCB95423511C137095
:1040AC004FEA1860FFF790FFC8F30740D11CFFF7E9
:1040BC008BFFC8F30720511DFFF786FF5FFA88F0CE
:1040CC00D11DFFF781FF0921B1E75223E6E708ABC9
:1040DC00234493F82000FFF777FF0134B4E7022C58
:1040EC002FD19B787BB3F12304294FEA162108BF0B
:1040FC0048F00040D170310C1171010AD171010CE2
:10410C0013701172002311469071000E50729DF8BD
:10411C004900967005EB0010360E5370567101F87D
:10412C000A0FAB4205D11A4403F10C000023D372E1
:10413C00ABE708A8184490F82000013301F8010FF0
:10414C00EFE70020A1E718469FE700BF481F0020BB
:10415C002DE9F041184E8AB034887388A34227D0D9
:10416C00302303FB046400236D46DFF8548008936E
:10417C00CDF8248004F1080718340FCC0FC594E84F
:10418C000F0085E80F0097E80F00FFF72BFF0B4B94
:10419C00024641461868FEF799F958B933883A2B0C
:1041AC008EBF034601339BB233800AB0BDE8F08169
:1041BC000220FAE70120F8E7E0010020F42A0020B1
:1041CC00EB29002084B02DE9FF410AAC84E80F00F4
:1041DC00544D169C95F831C0DDE90B12BCF1010F62
:1041EC000D9B0F9E9DF851702BD1042B4FEA102381
:1041FC00207063704FEA10434FEA1060E0704FF08C
:10420C00000008BF42F00041A3700B0A21716371DA
:10421C0006EB07170B0C090EA371E17104F8087F6C
:10422C00B04206D1093080B204B0BDE8F04104B010
:10423C0070470AAB034493F82030013004F8013F77
:10424C00EEE7BCF1020F0E9D2ED1CDE90176009365
:10425C00042B14BF0B46134602463349204603F089
:10426C004DFC2046FBF76CFF074665B92A462C250A
:10427C0000F10108A0449642414608F1030809D117
:10428C0006EB460637440D23E3550A233C44B81C81
:10429C006370C8E70AAB134408F8045C93F8200079
:1042AC00FFF792FE0132E6E7BCF1030F37D1042B86
:1042BC004FF47A739DF850700ABF11464FF00B0CF7
:1042CC004FF01D0C012FB0FBF3F214BF52275427F3
:1042DC00CDE901C103FB120300971449204603F0FA
:1042EC000DFC2046FBF72CFF0746002DCBD12A46B0
:1042FC00202500F10108A044B242414608F1030810
:10430C0003D102EB42021744BDE70AAB134408F891
:10431C00045C93F82000FFF757FE0132ECE7002015
:10432C0081E700BF481F00203B8400084A84000836
:10433C002DE9F041164E8AB034887388A34223D0FD
:10434C0030236D4603FB0464DFF8488004F1080752
:10435C00CDF8208018340FCC0FC594E80F0085E8F9
:10436C000F0097E80F00FFF72DFF0146404602F0C3
:10437C003FFC58B933883A2B8EBF034601339BB2AE
:10438C0033800AB0BDE8F0810220FAE70120F8E79B
:10439C00900D00206B2A002000B58BB0A1B99AB902
:1043AC000123CDE90522CDE90022CDE90733CDE982
:1043BC000222049269460C48FCF793FA003018BFAD
:1043CC0001200BB05DF804FBCDE905320B0C029318
:1043DC00030C00930123CDE90733002389B280B28B
:1043EC00039101900493E5E75C1A002038B5124C58
:1043FC00124B0246DD886089A84203D35D88013DDB
:10440C00854201DCD88860815B886589023B0D445C
:10441C009D4201DB012038BD0D238DB253546189BF
:10442C006B1C074801F084FE0028F3D1618901312F
:10443C0029446181EFE700BF481F0020280D0020B0
:10444C00BC2D00202DE9F3470E461C4D1C4C2B684F
:10445C006188023BE2880B449B1AB342074629D37E
:10446C008046DFF860A000EB0609C84501D10220A8
:10447C001DE0E388A8EB070119440DF107020123A5
:10448C0089B2504601F01CFE18F8013B9DF807203C
:10449C009A42EAD0E38829683A46194489B2B3B201
:1044AC00084801F045FE38B92B681E442E6002B056
:1044BC00BDE8F0870720FAE70120F8E704010020A7
:1044CC00280D0020BC2D002070B5204C012210219D
:1044DC001F48FDF729F8237A1E4D023304EB8303A2
:1044EC005B6800216B600C2328466B61FDF79AFF1B
:1044FC00064640BB2B681848DA6842F02002DA60A6
:10450C001A6942F040021A61DA6842F01002DA606D
:10451C00DA6842F02002DA60217A227A033103321F
:10452C00042304EB8202890001F002FE217A227A34
:10453C000D310D32042304EB82028900064801F090
:10454C00F7FD304670BD0126FBE700BF280D0020AB
:10455C00000C01407C2F0020BC2D002010B50E4C0F
:10456C00002210210D48FCF7DFFF2046FDF795FFD8
:10457C0023680120DA6822F02002DA601A6922F03E
:10458C0040021A61DA6822F01002DA60DA6822F06E
:10459C002002DA6010BD00BF7C2F0020000C01400F
:1045AC0010B50748FCF762FA044638B902464FF4D6
:1045BC0080710448FCF7B8FF204610BD0124FBE7CE
:1045CC005C1A00200008014010B5FFF7E9FFFFF767
:1045DC00C5FF002280211948FCF7A6FF00224021CC
:1045EC001648FCF7A1FF002220211448FCF79CFF81
:1045FC00002210211148FCF797FF3220FCF7E4F859
:10460C000F4B1B7A032B08D8DFE803F0020F1215AF
:10461C00012280210948FCF787FFBDE810400123E7
:10462C00084A0821084801F083BD01224021F1E726
:10463C0001222021EEE701221021EBE7000C0140C2
:10464C00280D0020300D0020BC2D00207047704735
:10465C007047000001224FF480710148FCF764BFE1
:10466C00000801402DE9F04F894685B0029046497B
:10467C0048461746FCF736F800287FD14349484690
:10468C00FCF712F8002879D1002300934FF07E53E9
:10469C000546DFF800A101930298FBF70FFE0135E8
:1046AC0004462846FBF70AFE4946FBF75FFE014627
:1046BC002046FBF70FFF064603F032FEFCF71CF812
:1046CC00072804465AD9192855D8FBF7F7FD014697
:1046DC0083463046FBF740FD20F000462C4930461F
:1046EC00FBF7E2FF00B1002651465846FBF73EFEB1
:1046FC0003F016FE4FF07E51FBF72EFDFBF7FCFF8F
:10470C00013C10288046A4EB000434D8082C32D885
:10471C0024B9002835D0012400F1FF3808F101003C
:10472C00FBF7CCFD5946FBF7D5FE01998346304685
:10473C00FBF7BAFFC8B900213046FBF7ABFFD0B18D
:10474C0051465846FBF708FD514620F000420098B0
:10475C000392FBF701FD039A20F000411046FBF792
:10476C00A3FF40B17A69A24205D1C7E904847D60F8
:10477C00CDF800B00196B5F5806F8DD105B0BDE8D0
:10478C00F08F0446CAE700BF0024744A0000FA44C4
:10479C00ACC527370000603F38B54CF25033984217
:1047AC000D463F4C6ED025D842F2107398426BD018
:1047BC000FD841F2883398426AD042F28D03984266
:1047CC0069D0FBF77BFD364A01463648FFF74AFFB6
:1047DC003AE048F23523984260D04BF603239842D6
:1047EC0054D044F620639842EBD1782363604FF4A5
:1047FC0030231EE02C4B984238D00DD82B4B9842CE
:10480C003BD02B4B984236D02A4B9842D9D11B2304
:10481C0063604FF420230CE0274B984224D0274BA5
:10482C0098420AD0264B9842CBD1042363604FF4B4
:10483C00602323614FF4801305E0042363604FF47D
:10484C00C0232361002363611E4BA56023600023FA
:10485C001348E36023766376A376E3762377637756
:10486C00BDE83840FBF7C2BF0523E7E709236360C7
:10487C004FF44023DDE71223F9E72D2363604FF457
:10488C00A023DEE72D23F2E7FF23F0E73623BFE773
:10489C004FF4E173EBE74FF48773E8E74823A5E7A0
:1048AC005C1A00200051250290D00300A086010064
:1048BC0048E801000674010000350C0040420F006E
:1048CC0020A107000064004010B51B4CFFF77CFED4
:1048DC00237A023304EB83035868237A0C3304EBFA
:1048EC0083035968FFF758FF08B1012010BD217AE6
:1048FC00227A03310332042304EB820289000F482D
:10490C0001F016FC217A227A0D310D32042304EBCE
:10491C0082028900094801F00BFC0948FCF74DF8AC
:10492C000028E2D140F236410548FCF776F9003018
:10493C0018BF0120DAE700BF280D0020BC2D002095
:10494C005C1A00202DE9F0438DB00446FBF7F8FB10
:10495C009E4DC6B2EB79012B06D12378502B03D098
:10496C0031462046FFF742FD2278A2F12103572B56
:10497C0000F2D180DFE813F03805CF00CF00CF0074
:10498C00CF00CF00CF00CF00CF00CF00CF00CF00A3
:10499C00CF00CF00CF00CF00CF00CF00CF00CF0093
:1049AC00CF00CF00CF00CF00CF00CF00CF00CF0083
:1049BC00CF00CF003205CF0066006C046302A10467
:1049CC0066009C006600CC04CF009904CF00E8037D
:1049DC00B200580040027B04CF006E035B019503CC
:1049EC00FB036A006600C204CF008D00CF00CF002D
:1049FC00CF00CF00CF00CF00CF00CF00CF00CF0033
:104A0C00CF00FD00CF00C704CF00CF00CF0025059D
:104A1C00B200CF00CF00CF00CF008C023601DC02F9
:104A2C0041047C00CF00BE044E216948694B0268EA
:104A3C009954134405323021026031225970997017
:104A4C00D9701A710D200DB0BDE8F0835624604862
:104A5C00604A03683125D4543024591C55541144F0
:104A6C004C70D91C55540A44547005330360E9E763
:104A7C0076245748574A03683125D4543024591C9E
:104A8C00545411444D70D91C54540A444121517052
:104A9C00EBE76378312B02D101236B70D2E7302B1B
:104AAC0001D10023F9E76B78B3FA83F35B09F4E7E0
:104ABC004622474C474D23684748EA549A1C2260CB
:104ACC0030222B445A70FCF7BEF9236830305A1C44
:104ADC00E85441482260FCF7CBF9B3E76378452BE7
:104AEC0001D0312B24D10423E11C081B86420EDC9F
:104AFC003A4800EAC300A378522B01D0312B33D1B2
:104B0C0040F002004D2A0CBFE86128629AE711F8C8
:104B1C00010B2F2801D8072095E7392803D9A0F1DC
:104B2C004107052FF7D81B01FFF72CFA0344DCE7EC
:104B3C00532B01D0302BEED10023E11C081B8642F5
:104B4C0003DC274800EA4350D5E711F8010B2F2866
:104B5C00E1D9392803D9A0F14107052FDBD81B0176
:104B6C00FFF710FA0344E9E7442BCBD0302BD2D11A
:104B7C00C8E7032E18D16078FFF704FA6862A378AF
:104B8C00492B20D04D2B14BFFF230023AB626B6A43
:104B9C000E2BC0D8AA6AFF2ABDD0D5E90701FFF7B2
:104BAC00FBFB0028B7D14DE7042EB4D16078FFF79A
:104BBC00E9F90346A078FFF7E5F90A2202FB0300A6
:104BCC006862E378DCE70123E0E700BF481F0020C0
:104BDC00500100207C1F00205C1A0020F8FF0F0001
:104BEC000000E07F00210A25A04B1A7A023203EB69
:104BFC0082025160611C0A1B96427FF723AF0A7830
:104C0C000F46303A092A86D81A7A0131023203EB60
:104C1C0082025068684350603878FFF7B3F91A7A0B
:104C2C00023203EB8202576838445060E3E7052EEA
:104C3C0002D0022E7FF46FAF2B78002B7FF46BAF7A
:104C4C006378303B342B3FF666AF01A252F823F069
:104C5C00314D0008434D0008534D0008634D0008CA
:104C6C00714D00087F4D00088D4D00089B4D0008CC
:104C7C00A94D0008B74D0008234B0008234B000832
:104C8C00234B0008234B0008234B0008234B000840
:104C9C00234B0008C54D0008D54D0008E54D000814
:104CAC00F54D0008234B0008234B0008234B00084C
:104CBC00234B0008234B0008234B0008234B000810
:104CCC00234B0008234B0008234B0008234B000800
:104CDC00234B0008234B0008234B0008234B0008F0
:104CEC00234B0008234B0008234B0008234B0008E0
:104CFC00234B0008234B0008234B0008234B0008D0
:104D0C00234B0008234B0008234B0008234B0008BF
:104D1C00234B0008C54D0008D54D0008E54D000893
:104D2C00F54D0008514B1A7A023203EB820342F222
:104D3C0010725A6086E64D4B1A7A023203EB8203EC
:104D4C0044F62062F5E7494B1A7A023203EB8203F0
:104D5C004CF25032EDE7454B1A7A023203EB8203E8
:104D6C00434AE6E7414B1A7A023203EB8203414A8B
:104D7C00DFE73E4B1A7A023203EB82033E4AD8E756
:104D8C003A4B1A7A023203EB82033C4AD1E7374B97
:104D9C001A7A023203EB8203394ACAE7334B1A7A86
:104DAC00023203EB8203374AC3E7304B1A7A0232E2
:104DBC0003EB8203344ABCE72C4B1A7A023203EB26
:104DCC00820342F28D02B4E7284B1A7A023203EBCB
:104DDC0082034BF60322ACE7244B1A7A023203EB24
:104DEC00820348F23522A4E7204B1A7A023203EBF5
:104DFC00820341F288329CE71C4C237A032B10D19E
:104E0C000022237A0C3304EB83035A60FFF75CFB1C
:104E1C0000287FF480AE0122237A2A702B44DA70AA
:104E2C0010E61A48FCF70FF800287FF474AE237ACA
:104E3C000C3304EB83035860FFF746FDE8E70023CF
:104E4C000A4C2B70227A032A09D1FFF787FB002822
:104E5C007FF461AE237A1D440023EB70F2E50B481E
:104E6C00FCF706F8FFF79CFBF1E700BF280D0020CC
:104E7C00A086010048E8010090D0030020A10700A3
:104E8C0000350C0040420F00067401005C1A002033
:104E9C002B78002B3FF43FAE052E7FF43CAE6078B0
:104EAC00FFF770F8E1780346A078FFF776F8002654
:104EBC0040EA03200223B34FC7E90263386020792C
:104ECC00FFF760F8B04E386101224FF40041AF4853
:104EDC00FCF72AFB32463946AD4BAE48FBF7DAFD00
:104EEC00AD4B187000287FF416AE95F82D50012D9F
:104EFC007FF4A8ADFBF762FC3B6946F8200C46F842
:104F0C000C3C7B68357246F8183C3B68A6F12004D3
:104F1C0046F81C3CFB686D4646F8103CBB68A6F195
:104F2C00100746F8143C9D4B1B7A73720FCF81E02F
:104F3C002B78002B3FF4EFAD771FFBB2102B3FF615
:104F4C00EAAD6078FFF71EF8E1780346A078FFF72A
:104F5C0024F840EA032000238A4EC6E9023330606D
:104F6C002079FFF70FF8022197FBF1F7B8420246C0
:104F7C0030617FF4D0AD08283FF6CDAD884F0534B5
:104F8C009A4204F1020423D8844F01224FF40041C9
:104F9C007E48FCF7C9FA3B7A032B24D100223169F5
:104FAC007F48D3B20CAC994202F101021C444BD89D
:104FBC000022754800F0B9FD04F80C0C306800F0C4
:104FCC009BFD326909A9013200F06AFEC0B210E003
:104FDC0014F8011C14F8020CFEF7DFFFD91981F844
:104FEC0020000133CCE76A4B674A66496948FBF7F6
:104FFC0051FD694B187000287FF48DAD95F82D503C
:10500C00012D7FF41FAD664CFBF7D8FB84F82850BC
:10501C006D463369206063617368A36033686360B5
:10502C00F3682361B36804F11006E3603B7A84F8FB
:10503C0029300FCE0FC596E80F0085E80F0094E8D5
:10504C000F00FEF771FFFDE4034493F8203004F8E1
:10505C000C3CA6E72B78002B3FF45DAD0A2E7FF4B9
:10506C005AADA1786078FEF798FF21790346E07875
:10507C00FEF793FF000440EA0363A1796079FEF721
:10508C008CFF217A0246E079FEF787FF3D4F1843EB
:10509C0040EA0220786002230420C7E90203607A08
:1050AC000EE72B78002B3FF436ADA6F10A07FBB2C6
:1050BC00102B3FF630ADA1786078FEF76EFF2179AA
:1050CC000346E078FEF769FF000440EA0363A17928
:1050DC006079FEF762FF217A0646E079FEF75DFF04
:1050EC00042118430023274A40EA0620C2E9021390
:1050FC005060607AFEF746FF022197FBF1F7B84249
:10510C000646106117467FF406AD08283FF603AD3E
:10511C00234A0A349E4204F102040AD81A4E012290
:10512C004FF400411948FCF7FFF9194B3246154969
:10513C00D3E614F8011C14F8020CFEF72EFF991894
:10514C0081F820000133E5E74FF00042134C237A3D
:10515C000C3304EB83035A60FFF7B6FB00287FF493
:10516C00DAAC0122237A2A701D44EA706AE463786F
:10517C000A4C303B062B3ED8DFE803F0142B2E31C3
:10518C0034373A0068010020A001002000080140DB
:10519C00B40100205C1A0020B0010020280D002072
:1051AC00800100204FF46133A84DE3652868FDF7BA
:1051BC0074F9E26DA64B28685A60FDF705F90028D2
:1051CC007FF4A9AC04235C21A24AA34800F0B0FFF1
:1051DC0038E44FF4E133E7E74FF46143E4E74FF48D
:1051EC001643E1E74FF49643DEE74FF41653DBE743
:1051FC004FF41663D8E7994BD6E700230A21984D54
:10520C00EB65631C1A1B964211DCEB6DC72B7FF60A
:10521C0082ACEA6D934B9A423FF67DAC8B4C206886
:10522C00FDF73BF9EA6D8A4B20685A60C5E71A789E
:10523C001846303A092A3FF66EACEA6D01334A4300
:10524C00EA650078FEF79EFEEA6D1044E865D9E742
:10525C006078A0F13003042B3FF65DACFEF792FEB4
:10526C007F4B0138C0B21872FFF72EFB99E46378BC
:10527C00312B08D10123EB7100232B70784BDB8889
:10528C006B81FFF7DFBB302B08D1FF230CAA02F890
:10529C000C3D00236989EB71012396E7322B7FF4D7
:1052AC00D1AB01236B72FFF7CDBB2B7A002B3FF4F4
:1052BC00C9AB6B89AB81FFF7C5BB00230A216B61BE
:1052CC00621C131B9E4205DCFBF778FA0123286154
:1052DC002B7620E413781046303B092B3FF61BACA1
:1052EC006B6901324B436B610078FEF74BFE18443F
:1052FC006861E6E700232B72FFF7A4BB584BDB88F1
:10530C006B810123F7E7002385F82D30FFF79ABB5B
:10531C00022E0DD16378303BDBB2032B3FF6FBAB97
:10532C004F4A642102F8643F4B48012300F000FF10
:10533C0095F82C4054B901224B494C48FEF7DEF845
:10534C004B4B1870A0BB012385F82C3095F82D30F1
:10535C00012B3FF477AB464C414FA04697F86420A5
:10536C00444E85F831203046FEF78CFDFEF7FAFBF3
:10537C0008282070F7D000287FF4CDABDFF8F4902C
:10538C003D4C3E4E49462046FEF71CFD0E22214662
:10539C003046FEF7E9F8082888F80000F2D000281B
:1053AC007FF4B9AB97F8643085F831300123ABE763
:1053BC0001222D492046FEF7A1F8314B1C70FFF756
:1053CC00AABB63784D2B07D0A3F131025342534152
:1053DC0085F82E30FFF736BB0123F9E701236B76F6
:1053EC0000236B83FFF72EBB6378522B14D1A37869
:1053FC00532B7FF427ABE378542B7FF423ABBFF311
:10540C004F8F2049204BCA6802F4E0621343CB60F3
:10541C00BFF34F8F00BFFDE7532B7FF413ABA37883
:10542C00442B7FF40FABE3786521312B02BF0122B3
:10543C000B4B83F86520E378302B02BF0022084B1E
:10544C0083F865200123114ABFE600BFF42A00202F
:10545C00702E0020840D0020BC2D002040420F0037
:10546C00280D002080841E00588400089C1F0020FA
:10547C00190100202000002009000020FC2A002037
:10548C00E400002000ED00E00400FA058D0D002082
:10549C00A34A2DE9F0431368A24C0133136023781F
:1054AC0089B00D2B1BD8DFE813F00E003F004F0125
:1054BC00D2001A001A00CF01D2011A001A00D20031
:1054CC00D20060026702F12802D10123237006E0AA
:1054DC00E72807D10122944B9A7002221A7009B066
:1054EC00BDE8F0830D2814D19048FFF72BFA904AB1
:1054FC001368591C11608F4A8C49D05401228E4B71
:10550C001A7000231A465A5401331E2BFBD18B4BB5
:10551C00E4E70028E3D0894A844913781C2BC8544B
:10552C00DDD801331370DAE70E28D8D8DFE810F095
:10553C000F0015008F008F002F0034003A007A0006
:10554C0091009A00A900AE00B000BE00F500022345
:10555C00F1222370774B1A7080E00023784A237075
:10556C001360FBF72BF9F121714C724B2268050A81
:10557C009954012113449870DD70050C000E59707C
:10558C001D7158716C4B063222601970A7E7062307
:10559C002370684BF122A1E7072300222370684B8C
:1055AC001A60F6E7F123624E624831685E4F43544D
:1055BC00062342185370634BFD78D3F834E001F1A5
:1055CC00020CBEF1004F14BF4FF0000E4FF0100E46
:1055DC00754400F80C50DD6801F1070CD570DD68DE
:1055EC000C312D0A1571DD6831602D0C5571DD689B
:1055FC002D0E95713D799F6BB7F1004F14BF0027AD
:10560C0010273D4400F80C50186910721869000AF4
:10561C00507218691B69000C1B0E9072D372464BAA
:10562C00012213E0F1224248424B016817255A54DB
:10563C0007220B445A7057229A7001221D71DA709E
:10564C005A719A710831DA713B4B01601A70002360
:10565C003CE7F122374B1A700A2323700022384B97
:10566C001A603CE7F1203249324B0A689854092001
:10567C001344043258700A60DE20AD229870DA7040
:10568C00CDE7F1222B4B1A700B23E6E70C235FE7D7
:10569C00F1202749274B0A6898540C2013440332F5
:1056AC000A60284A587012799A70B8E7F122214B97
:1056BC001D481A700D225A70224A4179D56BB5F1EA
:1056CC00004F14BF00251025294499705169D970D9
:1056DC005169090A19715169090C59715169090EFD
:1056EC0099718179106CB0F1004F14BF002010201B
:1056FC000144D971916919729169090A59729169B8
:10570C009269090C120EDA72002299721A735A738A
:10571C009A73DA731A742270E1E60D233DE700BF29
:10572C000001002008010020481F0020BC010020BF
:10573C00500100207C1F002045010020F0000020BB
:10574C000C010020280D00209A4F9B4A3B681A44FC
:10575C005070052B2ED8DFE803F003060C111F2325
:10576C00964B186018E0954A136843EA00201060C5
:10577C0012E0924A136843EA0040F8E78F4A136834
:10578C0043EA00600028B4BF042300231060BCBFB0
:10579C0020F00040506093603B6801333B609EE614
:1057AC0000F00F00082888BF0822844B94BF1861B2
:1057BC001A61F1E7814D2A6906329A4203D9804A6F
:1057CC0013449876E8E7002601224FF400417D4807
:1057DC002670FBF7A9FEEE607B4E7C4B32462946C9
:1057EC007B48FBF757F90028D6D17A4B93F82D80DC
:1057FC00B8F1010FD0D1FAF7E1FF2B69A6F1100C2B
:10580C0046F80C3C6B6846F8200C46F8183C2B68A4
:10581C0086F8088046F81C3CEB68A6F1200446F894
:10582C00103CAB686D4646F8143C6B4B1B7A73729C
:10583C00BCE80F000FC596E80F0085E80F0094E850
:10584C000F00FEF771FBA7E75B4B5870FFE6594F53
:10585C003B68072BA0D8DFE803F00406080A04060F
:10586C0008405E4B7DE75D4A7EE75C4A82E75B4D14
:10587C00584C2B6843EA0060286010B3FEF790FE8A
:10588C002A68554BC2F31301002AD9601CDA02F0C6
:10589C00C041B1F1C04F0BD10122E2704FF0004278
:1058AC005A630222227000221A72FFF70DF873E776
:1058BC00500006D501220221E270002221705A63A9
:1058CC00F2E70023E37067E70222227000225A639A
:1058DC001A72FEF7F9FF0123F4E7DFF800913D4D52
:1058EC00D9F8003043EA0060C9F8000068B33A4EBA
:1058FC0095F80380C0F313003061B8F1000F14D198
:10590C00FEF74EFED9F80030002B21DA03F0C0422E
:10591C00B2F1C04F12D101234FF000422B71B26390
:10592C0002222A703372FEF7CFFF00232C4A237019
:10593C000C2108232B4800F0FBFB2DE7590004D564
:10594C000123C6F838802B71EAE700232B71ECE7B2
:10595C00C6F8388002234FF001082B7086F80880B7
:10596C00FEF7B2FF85F80480DFE7124A124913688C
:10597C000133C8541360B2E50E4D2B680B2B09D8BC
:10598C00DFE803F0060C1232060C1268060C129DAE
:10599C00124B18602B6801332B60A0E50F4A13687B
:1059AC0043EA00201060F5E70C4A136843EA004014
:1059BC00F8E700BF0C0100207C1F002068010020CC
:1059CC008001002000080140A0010020B40100204B
:1059DC005C1A0020481F0020280D0020F400002035
:1059EC00340D0020BC2D0020394F3A4C3B6843EA63
:1059FC000060386010B3E378002BCBD12679002EF1
:105A0C00C8D1FEF7CDFD3B68002B1ADA03F0C0427B
:105A1C00B2F1C04F0BD101234FF0004263712E4BFA
:105A2C00DA63022222701A72FEF74EFFB2E75A00B6
:105A3C0004D501236371284BDE63F2E70023637105
:105A4C00A8E70222244B2270DE631A72FEF73CFF99
:105A5C000123F4E71E4F1F4C3B6843EA006038609B
:105A6C0000B3E378002B95D1A688002E92D1FEF7D7
:105A7C0097FD3B68002B18DA03F0C042B2F1C04F1F
:105A8C0009D101234FF00042A371134B1A64022277
:105A9C0022700322C7E75B0004D50123A3710E4BD0
:105AAC001E64F4E70023A37174E70223032223701E
:105ABC00094B1E641A72FEF707FF0123F3E7044A31
:105ACC00136843EA006000231060237062E700BF94
