:020000040800F2
:1000000000500020957A00089D7500089F75000833
:10001000A1750008A3750008A57500080000000080
:10002000000000000000000000000000A7750008AC
:10003000A975000800000000AB750008AD75000848
:10004000DD7A0008DD7A0008DD7A0008DD7A000834
:10005000DD7A0008DD7A0008DD7A0008DD7A000824
:10006000DD7A0008DD7A0008DD7A0008DD7A000814
:10007000ED750008DD7A0008F9750008DD7A0008E2
:10008000DD7A000805760008DD7A0008DD7A0008D0
:1000900011760008DD7A0008DD7A0008DD7A0008B4
:1000A000DD7A0008DD7A0008DD7A0008DD7A0008D4
:1000B000DD7A0008DD7A0008DD7A0008DD7A0008C4
:1000C000DD7A0008DD7A0008DD7A0008DD7A0008B4
:1000D000DD7A00081D7600087D7600088976000824
:1000E000DD7A0008DD7A0008DD7A000800000000F3
:1000F0000000000000000000000000000000000000
:0C01000000000000000000005FF808F1A3
:10010C0010B5054C237833B9044B13B10448AFF345
:10011C0000800123237010BDA80000200000000007
:10012C000484000808B5034B1BB103490348AFF323
:10013C00008008BD00000000AC0000200484000812
:10014C00034613F8012B002AFBD1181A013870470B
:10015C0080F0004002E000BF81F0004142001FBF70
:10016C005FEA410392EA030F7FEA226C7FEA236C79
:10017C006AD04FEA1262D2EB1363C1BFD21841406E
:10018C0048404140B8BF5B42192B88BF704710F004
:10019C00004F40F4000020F07F4018BF404211F0A7
:1001AC00004F41F4000121F07F4118BF494292EA0F
:1001BC00030F3FD0A2F1010241FA03FC10EB0C003B
:1001CC00C3F1200301FA03F100F0004302D54942C8
:1001DC0060EB4000B0F5000F13D3B0F1807F06D375
:1001EC0040084FEA310102F10102FE2A51D2B1F16D
:1001FC00004F40EBC25008BF20F0010040EA030062
:10020C007047490040EB0000013A28BFB0F5000FE1
:10021C00EDD2B0FA80FCACF1080CB2EB0C0200FA97
:10022C000CF0AABF00EBC25052421843BCBFD040E6
:10023C001843704792F0000F81F4000106BF80F460
:10024C0000000132013BB5E74FEA41037FEA226C23
:10025C0018BF7FEA236C21D092EA030F04D092F0EE
:10026C00000F08BF0846704790EA010F1CBF002022
:10027C00704712F07F4F04D1400028BF40F000407F
:10028C00704712F100723CBF00F50000704700F09F
:10029C00004343F0FE4040F4000070477FEA2262C6
:1002AC0016BF08467FEA23630146420206BF5FEA97
:1002BC00412390EA010F40F4800070474FF0000397
:1002CC0004E000BF10F0004348BF40425FEA000C5E
:1002DC0008BF704743F0964301464FF000001CE006
:1002EC0050EA010208BF70474FF000030AE000BF5C
:1002FC0050EA010208BF704711F0004302D540429A
:10030C0061EB41015FEA010C02BF8446014600200B
:10031C0043F0B64308BFA3F18053A3F50003BCFA26
:10032C008CF2083AA3EBC25310DB01FA02FC6344D3
:10033C0000FA02FCC2F12002BCF1004F20FA02F2DA
:10034C0043EB020008BF20F00100704702F12002CD
:10035C0001FA02FCC2F1200250EA4C0021FA02F22E
:10036C0043EB020008BF20EADC7070474FF0FF0C33
:10037C001CEAD0521EBF1CEAD15392EA0C0F93EA2E
:10038C000C0F6FD01A4480EA010C400218BF5FEAD0
:10039C0041211ED04FF0006343EA501043EA511143
:1003AC00A0FB01310CF00040B1F5000F3EBF49003D
:1003BC0041EAD3715B0040EA010062F17F02FD2A41
:1003CC001DD8B3F1004F40EBC25008BF20F0010024
:1003DC00704790F0000F0CF0004C08BF49024CEA3B
:1003EC00502040EA51207F3AC2BFD2F1FF0340EACD
:1003FC00C250704740F400004FF00003013A5DDC3E
:10040C0012F1190FDCBF00F000407047C2F100027E
:10041C00410021FA02F1C2F1200200FA02FC5FEA6B
:10042C00310040F1000053EA4C0308BF20EADC70B5
:10043C00704792F0000F00F0004C02BF400010F427
:10044C00000F013AF9D040EA0C0093F0000F01F0D4
:10045C00004C02BF490011F4000F013BF9D041EAF6
:10046C000C018FE70CEAD15392EA0C0F18BF93EAF8
:10047C000C0F0AD030F0004C18BF31F0004CD8D122
:10048C0080EA010000F00040704790F0000F17BFA9
:10049C0090F0004F084691F0000F91F0004F14D0EF
:1004AC0092EA0C0F01D142020FD193EA0C0F03D147
:1004BC004B0218BF084608D180EA010000F000404A
:1004CC0040F0FE4040F40000704740F0FE4040F425
:1004DC00400070474FF0FF0C1CEAD0521EBF1CEAC4
:1004EC00D15392EA0C0F93EA0C0F69D0A2EB0302E2
:1004FC0080EA010C49024FEA402037D04FF080537C
:10050C0043EA111143EA10130CF000408B4238BF40
:10051C005B0042F17D024FF4000C8B4224BF5B1A4E
:10052C0040EA0C00B3EB510F24BFA3EB510340EA9C
:10053C005C00B3EB910F24BFA3EB910340EA9C004A
:10054C00B3EBD10F24BFA3EBD10340EADC001B01BA
:10055C0018BF5FEA1C1CE0D1FD2A3FF650AF8B425E
:10056C0040EBC25008BF20F0010070470CF0004C6B
:10057C004CEA50207F32C2BFD2F1FF0340EAC25096
:10058C00704740F400004FF00003013A37E792F057
:10059C00000F00F0004C02BF400010F4000F013AB5
:1005AC00F9D040EA0C0093F0000F01F0004C02BFB0
:1005BC00490011F4000F013BF9D041EA0C0195E719
:1005CC000CEAD15392EA0C0F08D142027FF47DAFB2
:1005DC0093EA0C0F7FF470AF084676E793EA0C0FA2
:1005EC0004D14B023FF44CAF08466EE730F0004CA0
:1005FC0018BF31F0004CCAD130F000427FF45CAF30
:10060C0031F000437FF43CAF5FE700BF4FF0FF3C9D
:10061C0006E000BF4FF0010C02E000BF4FF0010CF0
:10062C004DF804CD4FEA40024FEA41037FEA226CB9
:10063C0018BF7FEA236C11D001B052EA530C18BFDB
:10064C0090EA010F58BFB2EB030088BFC81738BF40
:10065C006FEAE17018BF40F0010070477FEA226C2E
:10066C0002D15FEA402C05D17FEA236CE4D15FEA2A
:10067C00412CE1D05DF8040B704700BF844608465E
:10068C006146FFE70FB5FFF7C9FF002848BF10F11F
:10069C00000F0FBD4DF808EDFFF7F4FF0CBF012064
:1006AC0000205DF808FB00BF4DF808EDFFF7EAFFEE
:1006BC0034BF012000205DF808FB00BF4DF808EDA9
:1006CC00FFF7E0FF94BF012000205DF808FB00BF9E
:1006DC004DF808EDFFF7D2FF94BF012000205DF824
:1006EC0008FB00BF4DF808EDFFF7C8FF34BF012031
:1006FC0000205DF808FB00BF42000ED2B2F1FE4FA5
:10070C000BD34FF09E03B3EB126209D44FEA0023D4
:10071C0043F0004323FA02F070474FF0000070479B
:10072C0012F1610F01D1420202D14FF0FF3070473C
:10073C004FF00000704700BF38B50E4B05461878D7
:10074C004FF47A73B3FBF0F30B4A1068B0FBF3F081
:10075C0000F00AFC044658B90F2D09D80246294668
:10076C004FF0FF3000F0ACFB2046044B1D6038BD51
:10077C000120FCE7000000202C00002004000020D9
:10078C00074A08B51368032043F01003136000F008
:10079C0085FB0120FFF7D0FF06F0D8FE002008BD36
:1007AC0000200240034A044B11681B780B44136071
:1007BC00704700BF6401002000000020014B186846
:1007CC00704700BF6401002038B50446FFF7F6FF00
:1007DC000546631C1EBF044B1B78E418FFF7EEFFA5
:1007EC00431BA342FAD338BD0000002038B50446A1
:1007FC0000286ED090F820300BB905F04BFB226826
:10080C00136823F002031360FFF7D8FF0546236833
:10081C005A68910751D41A6842F001021A60FFF726
:10082C00CDFF054623685A68D20754D5227E002096
:10083C00012A1A680CBF42F0800222F080021A6072
:10084C00627E012A1A680CBF42F0400222F040027C
:10085C001A60A27E012A1A680CBF42F0200222F014
:10086C0020021A60E27E012A1A680CBF22F01002E4
:10087C0042F010021A60227F012A1A680CBF42F063
:10088C00080222F008021A60627F012A1A680CBF63
:10089C0042F0040222F004021A60D4E902210A4355
:1008AC0021690A4361690A43616801390A43DA61C3
:1008BC000123606284F8203038BDFFF77FFF401BB6
:1008CC000A28A4D9636A43F400336362052384F8CD
:1008DC0020300120F0E7FFF771FF401B0A28A1D957
:1008EC00F0E770B590F82030013B012B62D8012461
:1008FC000368D3F8002242F00102C3F800224A69CF
:10090C00D3F81C5202F01F0004FA00F025EA00058F
:10091C00C3F81C52CD69C44385BBD3F80C52CE68C6
:10092C002540C3F80C528D8803EBC20245EA0645FC
:10093C00C2F840528E680D8845EA0645C2F844520A
:10094C008A696ABBD3F804222240C3F804220A69DC
:10095C0052BBD3F814221440C3F814420A6A012A79
:10096C0002BFD3F81C221043C3F81C020020D3F89A
:10097C00002222F00102C3F8002270BD012DDFD14C
:10098C00D3F80C520E680543C3F80C528D8803EB58
:10099C00C20245EA0645C2F840528E688D89CBE703
:1009AC00D3F804220243D0E7D3F814220243C3F84D
:1009BC001422D3E7436A43F4802343620120DCE72B
:1009CC0070B590F820300446012BDDB220D1022303
:1009DC00026880F82030136823F001031360FFF7DE
:1009EC00EDFE064623685B6813F0010302D11D4639
:1009FC0063620BE0FFF7E2FE801B0A28F2D9636A00
:100A0C0043F400336362052384F82030284670BD1C
:100A1C00436A012543F400234362F7E738B590F8A5
:100A2C0020300446022B22D10268136843F00103E4
:100A3C001360FFF7C3FE054623685A68D20708D532
:100A4C001A68002022F002021A60012384F8203078
:100A5C0038BDFFF7B3FE401B0A28EDD9636A43F497
:100A6C0000336362052384F820300120F0E7436AE9
:100A7C0043F480134362F8E710B5044670B1FFF7F6
:100A8C00CDFF204605F054FA00202268136843F489
:100A9C0000431360606284F8200010BD0120FCE765
:100AAC00F0B590F820500668013D012DB46841D88E
:100ABC0014F0E05F3AD0C4F30164032C4FF001054D
:100ACC0005D1436A43F400034362012028E0A540AA
:100ADC001D60D1E9020704F1180310BB086847EA4E
:100AEC0040501B01F050200106EB0413064400207B
:100AFC000D69C3F88451097D012902BFD3F8841113
:100B0C0041F48071C3F884115168C6F88C111268D5
:100B1C00C6F88821D3F8802142F00102C3F8802165
:100B2C00F0BD4D68384340EAC500DAE7436A43F448
:100B3C000013C9E7436A43F48023C5E7F0B590F886
:100B4C002040013C012C6CD8066841B9F468A4071C
:100B5C0007D1436A43F400134362012056E0346921
:100B6C00F5E706EB0115D5F8B0710C0107F0040799
:100B7C009760002F4BD1D5F8B0717F0D1760D5F869
:100B8C00B071264407F00207D760D5F8B47107F0AE
:100B9C000F071761D5F8B471D5F8B451C7F307270F
:100BAC002D0C97615561D6F8B8211A700268224451
:100BBC00D2F8B821120A5A7002682244D2F8B8212D
:100BCC00120C9A7002682244D2F8B821120EDA7014
:100BDC0002682244D2F8BC211A7102682244D2F86D
:100BEC00BC21120A5A7102682244D2F8BC21120CA0
:100BFC009A7102681444D4F8BC21120EDA7103689D
:100C0C0051B9DA6842F02002DA600020F0BDD5F864
:100C1C00B071FF085760B2E71A6942F020021A61FE
:100C2C00F3E7436A43F4802396E790F82030013BC6
:100C3C00012B05D802680020536919435161704794
:100C4C00436A43F480234362012070477047704726
:100C5C007047704770472DE9F84F036805465E6989
:100C6C00D3F8049016F001049F68D3F80CB0D3F8B5
:100C7C0010A0D3F8188022D017F0010407D001225D
:100C8C00B9079A6040F1A58003F0A0FC0024FB0595
:100C9C0009D54FF480722B68B8059A6040F1A78093
:100CAC00284603F094FCFB0309D54FF480322B68E3
:100CBC00B8039A6040F1A980284603F089FC3307F9
:100CCC0007D51BF0100F1FBF10222B6844F40074C3
:100CDC00DA60770708D51BF0080F05D008222B68BF
:100CEC002846DA6005F070FFB00706D52B68DB6884
:100CFC00990702D0284605F023FF720607D51AF093
:100D0C00100F1FBF10222B6844F480641A61B306C5
:100D1C0008D51AF0080F05D008222B6828461A614E
:100D2C0005F054FFF70606D52B681B69980702D00F
:100D3C00284605F0C3FEB10308D519F0100F05D0F5
:100D4C0010222B6828465A60FFF783FFF20308D560
:100D5C0019F0080F05D008222B6828465A60FFF7B7
:100D6C0079FF33042CD519F0040F2A6826D0F70527
:100D7C0004D518F0010F18BF44F00104B00504D5D8
:100D8C0018F0020F18BF44F00204710504D518F0D6
:100D9C00040F18BF44F0040433050FD518F070038A
:100DAC000CD0402B4FD03ED8202B46D0302B47D0E8
:100DBC00102B3FD0936923F070039361042353608D
:100DCC002CB16B6A28461C436C6205F001FFBDE830
:100DDC00F88F7A0705D417F0080405D1FFF736FF12
:100DEC0055E74FF4006452E74FF480544FE7790510
:100DFC0002D544F4005456E73A0502D544F4804435
:100E0C0051E72846FFF723FF4DE7790302D544F459
:100E1C00004454E73A0302D544F480344FE72846A3
:100E2C00FFF716FF4BE7502B10D0602BC2D144F4C8
:100E3C008074BFE744F00804BCE744F01004B9E741
:100E4C0044F02004B6E744F04004B3E744F08004D7
:100E5C00B0E790F820200346D0B2013A012A0AD814
:100E6C001B685A68920705D41B6813F0020F18BF51
:100E7C000320704704207047406A704790F8203078
:100E8C00013B012B95BF0023436A436243F480234B
:100E9C0092BF1846436201207047000007490302C5
:100EAC00CA6803F4E06322F4E0621204120C1343E8
:100EBC0043F0BF6343F40033CB60704700ED00E0B8
:100ECC00164B30B5DC68C4F30224C4F10703251DAE
:100EDC00042B28BF0423062D4FF0FF3598BF0024A8
:100EEC0005FA03F388BF033C21EA0303A34005FA88
:100EFC0004F422EA0402002843EA0203ACBF00F126
:100F0C006040074A4FEA0313DBB2ABBF00F5614008
:100F1C0000F00F0080F80033135430BD00ED00E0FA
:100F2C0014ED00E0002808DB0123420900F01F004B
:100F3C0003FA00F0014B43F82200704700E100E097
:100F4C0000280DDB0122430900F01F0002FA00F01B
:100F5C00044A203342F82300BFF34F8FBFF36F8F47
:100F6C00704700BF00E100E00138B0F1807F0AD289
:100F7C00F021064B064A586082F823100020072205
:100F8C0098601A6070470120704700BF10E000E0C5
:100F9C0000ED00E010B520B314220168124B0B4495
:100FAC00B3FBF2F39B000364104B0A68C363D0E9F4
:100FBC0001342343C46822F47F522343046922F092
:100FCC00300223434469234384692343C469234384
:100FDC0013430B604FF48072002302848363184622
:100FEC0010BD0120FCE700BFF8FFFDBF0000024070
:100FFC00034610B5E8B1016800200A680E4C22F0D7
:10100C0001020A600D4A08600A4448608860C860A2
:10101C001421B2FBF1F2012192001A6401FA02F2DE
:10102C00DC636260C3E90A00C3E90C0098631884AE
:10103C0010BD0120FCE700BF00000240F8FFFDBF1F
:10104C00F0B590F82040012C34D0012490F82150B8
:10105C0080F82040A5424FF000064FF0020427D143
:10106C0080F8214004688663266826F00106266015
:10107C00D0E90F67BD40756063604368102BC36A8D
:10108C000BBFA260A160E160E2604BB1236843F04A
:10109C000E0300202360236843F001032360F0BD9E
:1010AC00236823F004032360236843F00A03F0E76A
:1010BC0080F820600220F2E708B590F82130022B6E
:1010CC0003D004238363012008BD03681A6822F04F
:1010DC000E021A601A6822F001021A60174A934233
:1010EC001CD0143293421BD0143293421AD01432B7
:1010FC0093421AD0143293421AD0143293420CBF3A
:10110C004FF480134FF080730D4A53604FF480738B
:10111C000384436B7BB198470020D5E70123F3E7A9
:10112C001023F1E74FF48073EEE74FF48053EBE7B5
:10113C004FF48033E8E71846C6E700BF08000240CA
:10114C000000024070B40425C66B026C346803685E
:10115C0095402542196832D04D0730D51A6896064D
:10116C005EBF1A6822F004021A603D4A934219D0FD
:10117C001432934218D01432934217D01432934243
:10118C0017D01432934217D0143293420CBF4FF441
:10119C0080034FF08063334A5360C36A002B5CD0EA
:1011AC0070BC18470423F6E74023F4E74FF4806340
:1011BC00F1E74FF48043EEE74FF48023EBE7022591
:1011CC009540254235D08D0733D51A68940606D440
:1011DC001A6822F00A021A60012280F82120204AA3
:1011EC00934219D01432934218D01432934217D030
:1011FC001432934217D01432934217D014329342C4
:10120C000CBF4FF400134FF00073164A53600023C9
:10121C0080F82030836AC1E70223F6E72023F4E745
:10122C004FF40073F1E74FF40053EEE74FF4003343
:10123C00EBE70825954025420FD009070DD5196815
:10124C0021F00E011960012303FA02F2726083632C
:10125C004FF480730384036BA0E770BC704700BF2E
:10126C0008000240000002402DE9F74F002216460C
:10127C00644BDFF8A0C1DFF8A0E10D6835FA06F485
:10128C0002D103B0BDE8F08F4FF0010808FA06F860
:10129C0005EA080438EA05057CD14D68032D07D80A
:1012AC00013D022D00F28880DFE805F0969BA1003D
:1012BC00122D00F099806FD8112D00F08F80FF2C2B
:1012CC0098BF82464FF00F0988BF00F1040A4FEA1D
:1012DC008605DAF8008088BF203D09FA05FB28EA6C
:1012EC000B0802FA05F548EA0505CAF80050D1F8D2
:1012FC0004A01AF0805F4DD0434F26F00308BD695F
:10130C0008F1804845F00105BD61BD6908F58038DC
:10131C0005F00105019506F0030B019D4FEA8B0BBF
:10132C00D8F8085009FA0BF925EA0909374DA842F3
:10133C0061D005F58065A8425FD005F58065A842AF
:10134C005DD005F58065A8420CBF0325042505FA80
:10135C000BF545EA0905C8F808501D681AF4803FDA
:10136C0014BF2543A5431D605D681AF4003F14BFEC
:10137C002543A5435D609D681AF4801F14BF254367
:10138C00A5439D60DD681AF4001F14BF2C4325EAA9
:10139C000404DC60013670E71D4FBD420CD017D839
:1013AC00DFF878904D4507D009F570294D4503D0ED
:1013BC00A9F580194D4582D18A68D2B1012A08BF9E
:1013CC00C0F810804FF0080218BFC0F8148076E700
:1013DC006545F1D07545EEE7CA6870E7CA68043216
:1013EC006DE7CA6808326AE7CA680C3267E7002200
:1013FC0065E7042263E70025A9E70125A7E7022595
:10140C00A5E700BF000401400010024000080140A5
:10141C0000002210000031100000321000001210E9
:10142C002DE9F74F4FF0040B00224FF0010A4FF05B
:10143C000F0800EB0B0301932E4B31FA02F402D18F
:10144C0003B0BDE8F08F0AFA02F70F4049D022F042
:10145C00030404F18044284D04F5803402F0030C9D
:10146C00A6684FEA8C0C08FA0CF9A84209EA060E99
:10147C0039D005F58065A84237D005F58065A842BE
:10148C0035D005F58065A8420CBF0325042505FA67
:10149C000CF575456FEA07060FD1A56825EA090515
:1014AC00A5601C6834401C605C6834405C609C68BF
:1014BC0034409C60DC683440DC60FF2F94BF0746EE
:1014CC00019F4FEA82043D6888BF203C08FA04FC67
:1014DC0025EA0C050BFA04F425433D60C46826404C
:1014EC00C6600132A9E70025D1E70125CFE7022527
:1014FC00CDE700BF00040140000801408368194299
:10150C0014BF0120002070470AB101617047090423
:10151C00FBE7C3680B4214BF4161016170470000D7
:10152C000122014B1A60704720000E422DE9F34155
:10153C00054638B30368DB0710D42B689F075ED4CD
:10154C002B68190700F195802B685A0700F1BF80B2
:10155C00E869002840F02C81002029E08F4C63685A
:10156C0003F00C03042B07D0636803F00C03082B67
:10157C000AD16368DE0307D523689C03DDD56B684D
:10158C00002BDAD1012013E06B68B3F5803F12D148
:10159C00236843F480332360FFF710F90646236871
:1015AC009803CAD4FFF70AF9801B6428F7D90320E3
:1015BC0002B0BDE8F0819BB9236823F4803323602B
:1015CC00236823F480232360FFF7F8F8064623688A
:1015DC009903B2D5FFF7F2F8801B6428F7D9E6E738
:1015EC00B3F5A02F236803D143F480232360CFE706
:1015FC0023F480332360236823F48023CBE7674CE8
:10160C00636813F00C0F07D0636803F00C03082B0E
:10161C0010D16368DA030DD423689B0702D52B69BC
:10162C00012BAFD123686A6923F0F80343EAC203A4
:10163C00236085E72A695A4B6AB101221A60FFF7C9
:10164C00BDF8064623689F07ECD4FFF7B7F8801B5C
:10165C000228F7D9ABE71A60FFF7B0F80646236803
:10166C0098077FF56DAFFFF7A9F8801B0228F6D914
:10167C009DE7AA69494E4B4BDAB101221A60FFF77C
:10168C009DF80446736A9B070DD54FF4FA52464BEE
:10169C001B68B3FBF2F3019300BF019B5A1E01922E
:1016AC00002BF9D150E7FFF789F8001B0228E9D984
:1016BC007DE71A60FFF782F80446736A9F077FF58F
:1016CC0043AFFFF77BF8001B0228F6D96FE7334CCA
:1016DC00E369D80024D40127E36943F08053E36124
:1016EC00E36903F080530093009B304E3368D905B7
:1016FC0018D5EB68012B26D1236A43F00103236232
:10170C00FFF75CF841F288380646236A9B073FD501
:10171C00002F3FF41DAFE36923F08053E36117E71B
:10172C000027E2E7336843F480733360FFF746F831
:10173C0080463368DA05DCD4FFF740F8A0EB0800EC
:10174C006428F6D933E7ABB9236A41F2883823F021
:10175C0001032362236A23F004032362FFF72EF8AC
:10176C000646236A9807D3D5FFF728F8801B404517
:10177C00F7D91CE7052B236A03D143F0040323623A
:10178C00BAE723F001032362236A23F00403B6E7CC
:10179C00FFF714F8801B4045B7D908E7001002404A
:1017AC0000004242800442422C00002000700040A5
:1017BC002A4B5A681C4602F00C02082A3DD0002322
:1017CC00274E022833602BD1FEF7F8FF074623681B
:1017DC0099011FD42B6AB3F5803F05D16268A968C3
:1017EC0022F400320A436260696A62680B4322F495
:1017FC0074121343636001233360FEF7DFFF054669
:10180C0023689A013FF5A8AEFEF7D8FF401B0228CB
:10181C00F6D9CCE6FEF7D2FFC01B0228D7D9C6E614
:10182C00FEF7CCFF054623689B017FF595AEFEF7CE
:10183C00C5FF401B0228F6D9B9E601283FF4B8AE23
:10184C005B682A6A03F4803191427FF49BAE6A6A2A
:10185C0003F4701393423FF47FAE93E60010024002
:10186C006000424230B5184B87B002AC03F1100552
:10187C00224618685968083303C2AB421446F7D1A4
:10188C0040F201231149ADF804304B6803F00C020F
:10189C00082A17D1C3F3834206A80244DB0312F8CB
:1018AC00102C0CD54B680A48C3F34043504306AA8E
:1018BC00134413F8143CB0FBF3F007B030BD0548EB
:1018CC005043FAE70248F8E71C8400080010024075
:1018DC0000127A0000093D002DE9F0410D46044646
:1018EC0010B90120BDE8F081444A136803F00703E6
:1018FC008B4228D321688E0730D4CA0743D43F4A81
:10190C00136803F00703AB4265D822683C4D12F014
:10191C00040F6CD1130706D56B68226923F460534E
:10192C0043EAC2036B60FFF79DFF6B68354AC3F354
:10193C000313D35CD840344B1860344B1868FEF753
:10194C00FBFE0020CEE7136823F007030B43136064
:10195C00136803F007038B42C3D1CBE7284B11F07C
:10196C00040F1EBF5A6842F4E0625A60080742BF77
:10197C005A6842F460525A605A68A06822F0F00229
:10198C0002435A60B9E762681D4E012A33681AD1C6
:10199C0013F4003FA5D0736841F2883823F0030399
:1019AC0013437360FEF70AFF07467368626803F01F
:1019BC000C03B3EB820FA2D0FEF700FFC01B404517
:1019CC00F3D903208EE7022A02D113F0007FE1E75E
:1019DC0013F0020FDEE7136823F007032B431360A9
:1019EC00136803F00703AB427FF47BAF8DE76B68A2
:1019FC00E16823F4E0630B436B608BE7002002404B
:101A0C0000100240DE8900082C0000200400002099
:101A1C00044B054A5B68C3F30223D35C034A10688A
:101A2C00D840704700100240EE8900082C000020BE
:101A3C00044B054A5B68C3F3C223D35C034A1068AA
:101A4C00D840704700100240EE8900082C0000209E
:101A5C0003682DE9F341D907054620D5354CE369D8
:101A6C00DA0032D40127E36943F08053E361E36980
:101A7C0003F080530193019B2F4E3368DB0526D571
:101A8C00236A13F4407336D1236A6A6823F44073D3
:101A9C00134323621FB1E36923F08053E361286889
:101AAC00830706D52349AB684A6822F440421A439F
:101ABC004A6010F010001BD01E4AE96853680020E1
:101ACC0023F480030B43536012E00027D4E7336800
:101ADC0043F480733360FEF771FE80463368D8059B
:101AEC00CED4FEF76BFEA0EB08006428F6D90320D9
:101AFC0002B0BDE8F0816A6802F440729A42C3D029
:101B0C0001200E4A236A1060002023F440711060FB
:101B1C002162D907B8D5FEF751FE41F28838064646
:101B2C00236A9A07B0D4FEF749FE801B4045F7D9CB
:101B3C00DDE700BF0010024000700040400442424C
:101B4C00024670B5344B86B002AD03F110062C463C
:101B5C0018685968083303C4B3422546F7D140F2DC
:101B6C000123022AADF8043049D0102A03D0012AEF
:101B7C0026D0002038E0294B5968186810F0807086
:101B8C0032D0C1F3834206A8024412F8100CCA03E7
:101B9C0041BF5A6806A9C2F34042521844BF12F81A
:101BAC00141C1F4A5B684CBFB2FBF1F21D4A5B026E
:101BBC0002FB00F018D403234000B0FBF3F013E059
:101BCC0040F20231154A136A1940B1F5817F1FD0DA
:101BDC0003F44073B3F5007F08D149F64043506AD3
:101BEC0010F0020018BF184606B070BDB3F5407F68
:101BFC00BFD110684FF2244310F40030F2E7FFF726
:101C0C0017FF064B5B68C3F3813301335B00D4E7EA
:101C1C004FF40040E8E700BF1C84000800100240AD
:101C2C0000127A0000093D0038B50446FEF7C6FDE7
:101C3C00054623685A68920605D500205A6842F07A
:101C4C0010025A6038BDFEF7B9FD401BB0F57A7F23
:101C5C00EFD90320F6E7026838B55368044623F041
:101C6C0010035360FEF7AAFD054623685B689B06CC
:101C7C0001D5002038BDFEF7A1FD401BB0F57A7FE1
:101C8C00F3D90320F6E738B50446A8B102685368C7
:101C9C0023F008035360FEF791FD054623685B684B
:101CAC001B0701D5002038BDFEF788FD401BB0F5A1
:101CBC007A7FF3D90320F6E70120F4E710B5044648
:101CCC0070B1437C03F0FF0213B9027405F072FB90
:101CDC00022320466374FFF7D6FF18B10423637404
:101CEC00012036E02046FFF79FFF0028F6D122683E
:101CFC00A068536823F007035360164A18B1116BA0
:101D0C0021F001011163D36A23F460730343D3629E
:101D1C006068431C05D10120FFF712FF0028DDD0BD
:101D2C0001382268936823F00F0343EA1043936051
:101D3C00D36880B21B0C1B041843D0602046FFF7FD
:101D4C008AFF012310B104226274C9E76373E38133
:101D5C00637410BD006C0040F8B504460E46154681
:101D6C001F462268936836EA030301D000202DE059
:101D7C006B1CF7D0FEF722FDC01B8542F1D82368FF
:101D8C005A6822F0E0025A606268B2F5827F0AD18A
:101D9C00A268B2F5004F02D0B2F5806F03D11A6879
:101DAC0022F040021A60A26AB2F5005F07D11A68ED
:101DBC0022F400521A601A6842F400521A6001238D
:101DCC0084F851300023032084F85030F8BD38B526
:101DDC00134642680446B2F5827F16D18268B2F58A
:101DEC00004F02D0B2F5806F0FD12568B2F5806F2D
:101DFC00286820F04000286007D10A4601212046BF
:101E0C00FFF7AAFF20B9002038BD0A468021F6E76B
:101E1C00636D032043F020036365F5E710B51346AB
:101E2C000A4680210446FFF797FF20B10320636D1B
:101E3C0043F02003636510BD10B50446002834D070
:101E4C000023836290F8513003F0FF021BB980F835
:101E5C00502005F011FB0223226884F851301368DE
:101E6C00A16923F040031360D4E901300343E06817
:101E7C0003432069034360690343E0690343206A19
:101E8C000343A06A034301F40070090C034301F0FF
:101E9C00040113605160D369002023F40063D36103
:101EAC000123606584F8513010BD0120FCE72DE959
:101EBC00F3411E4690F850300446012B0D46174650
:101ECC0000F09880012380F85030FEF777FC94F8EE
:101EDC0051308046012BD8B240F08A80002D5BD067
:101EEC00002F59D0032384F851300023A268636576
:101EFC00C4E91033E786A363E387A3872368B2F5AD
:101F0C00004F08BF1A68256308BF42F48042A786B9
:101F1C0008BF1A601A68E16852065EBF1A6842F080
:101F2C0040021A60B1F5006F62683ED10AB1012F10
:101F3C0007D135F8022BDA602563E38E013B9BB2A7
:101F4C00E386E38E9BB2A3B9424631462046FFF7A7
:101F5C0065FF002849D1A36833B901932368DA6877
:101F6C0001929B680193019B606D003818BF0120A2
:101F7C0012E022689368980705D5236B33F8021B8F
:101F8C00D1602363D9E7FEF719FCA0EB0800B0423F
:101F9C00D7D3711CD5D00320012384F851300023F2
:101FAC0084F8503002B0BDE8F0810AB1012F08D19D
:101FBC002A781A73236B01332363E38E013B9BB2A4
:101FCC00E386E38E9BB2002BBED023689A689207FF
:101FDC0002D5226B1278ECE7FEF7F0FBA0EB0800C1
:101FEC00B042EED3731CECD0D5E720236365B2E787
:101FFC000220D1E70220D5E72DE9F7431E4690F8E1
:10200C0050300446012B0D469146DDF8288000F037
:10201C00E080012380F85030FEF7D0FB94F851306B
:10202C000746012B6268D9B20AD0B2F5827F40F024
:10203C00CE80A368002B40F0CA80042940F0C780F2
:10204C00002D3FD0B9F1000F3CD0002E3AD094F8BF
:10205C005130C4F83890042B1CBF052384F8513040
:10206C0000236365C4E910332368E687E6861968A4
:10207C00A687490658BF1968256358BF41F040012F
:10208C00A68658BF1960E168B1F5006F51D10AB14D
:10209C00012E07D135F8022BDA60E38E2563013B64
:1020AC009BB2E3860125E38E9BB26BB9E38F9BB2A7
:1020BC0053B93A4641462046FFF7B0FE00287BD084
:1020CC002023636501202BE021688B689A070DD5CE
:1020DC00E38E9BB253B14DB10025236B33F8022B29
:1020EC00CA602363E38E013B9BB2E3868A6812F0DD
:1020FC0001020CD0E38F9BB24BB11546C968A36BA0
:10210C0023F8021BA363E38F013B9BB2E387FEF72B
:10211C0055FBC01B4045C6D3B8F1FF3FC3D00320CD
:10212C00012384F85130002384F8503003B0BDE80B
:10213C00F0830AB1012E08D12A781A73236B01336C
:10214C002363E38E013B9BB2E3860125E38E9BB2B6
:10215C001BB9E38F9BB2002BABD0226893689B0713
:10216C000ED5E38E9BB25BB155B10025236B1B786A
:10217C001373236B01332363E38E013B9BB2E38622
:10218C002268916811F001010DD0E38F9BB253B11D
:10219C000D46D268A36B1A70A36B0133A363E38F54
:1021AC00013B9BB2E387FEF709FBC01B4045CDD337
:1021BC00B8F1FF3FCAD0B2E7A368002BB0D12368B7
:1021CC000190DA6801929B680193019BA8E70220B9
:1021DC00A6E70220AAE72DE9F3411D464368044611
:1021EC00B3F5827F884616460CD1836853B9042315
:1021FC0080F85130134600950A46FFF7FDFE02B0F9
:10220C00BDE8F08194F85030012B7BD0012384F889
:10221C005030FEF7D3FA94F851300746012BD8B260
:10222C006ED1B8F1000F59D0002E57D0042384F88A
:10223C0051300023A2686365C4E91033E687236339
:10224C00E386A3862368B2F5004F08BF1A68A687F9
:10225C0008BF22F48042C4F8388008BF1A601A689C
:10226C0056065EBF1A6842F040021A60E368F3B18A
:10227C00E38F9BB2FBB123689A68D20735D5DA6835
:10228C00A36B23F8022BA363E38F013B9BB2E38781
:10229C00EEE723689A68D00718D51B7BA26B1370E6
:1022AC00A36B0133A363E38F013B9BB2E387E38F03
:1022BC009BB2002BEDD13A4629462046FFF787FD0D
:1022CC00D8B9606D003818BF012007E0FEF776FA28
:1022DC00C01BA842EBD3691CE9D00320012384F86E
:1022EC005130002384F8503089E7FEF767FAC01BA1
:1022FC00A842BDD36B1CBBD0EFE720236365E0E79E
:10230C000220EBE702207AE70368DA6822F4907285
:10231C00DA605A6922F001025A61202380F83A30BF
:10232C007047000038B505460368C1681A6919245E
:10233C0022F440520A431A6182680069D968024348
:10234C00686921F4B05121F00C0102430A43DA60B0
:10235C005A69A96922F440720A435A610D4A9342A0
:10236C0014D1FFF765FB44436B6864229B00B4FBFC
:10237C00F3F4B4FBF2F102FB11431B013233B3FB58
:10238C00F2F3286803EB0113836038BDFFF740FBC1
:10239C00E9E700BF0038014010B5044640B390F89F
:1023AC00393003F0FF021BB980F8382005F024FA0D
:1023BC002423226884F83930D368204623F4005350
:1023CC00D360FFF7AFFF236800201A6922F4904214
:1023DC001A615A6922F02A025A61DA6842F40052F0
:1023EC00DA602023E06384F8393084F83A3010BD89
:1023FC000120FCE738B50D460446002833D090F890
:10240C00393003F0FF021BB980F8382005F0F4F9DD
:10241C002423226884F83930D368204623F40053EF
:10242C00D360FFF77FFF236800201A6922F4006253
:10243C001A615A6922F02A025A611A6942F48042DE
:10244C001A611A6922F020021A611A692A431A6168
:10245C00DA6842F40052DA602023E06384F8393001
:10246C0084F83A3038BD0120FCE710B5044690B131
:10247C002423026880F83930D36823F40053D360E6
:10248C0005F0AEFA0020E06384F8380084F83900D7
:10249C0084F83A0010BD0120FCE7000038B5044672
:1024AC00134694F83920202A2AD139B333B394F83F
:1024BC003820012A24D00122002584F8382021223A
:1024CC00E384206BE56384F839200E4AA3842162EF
:1024DC0082620D4AC2620D4AC0E90C2522680432A0
:1024EC00FEF7AEFD6FF04002284623681A6084F8B0
:1024FC0038505A6942F080025A6138BD0120FCE71D
:10250C000220FAE71D2500084B250008CF250008FE
:10251C0008B503461B68406A1B6813F020030AD1F8
:10252C00C38403685A6922F080025A61DA6842F067
:10253C004002DA6008BD04F0B9FAFBE7704708B551
:10254C00406AFFF7FBFF08BD704710B590F83A30B2
:10255C00222B33D181680469B1F5805F836A0268EC
:10256C0023D15268ECB9C2F3080223F8022B836220
:10257C00C48D013CA4B2C4858CB90368DA6822F01E
:10258C002002DA60DA6822F48072DA605A6922F08A
:10259C0001025A61202380F83A30FFF7D5FF002062
:1025AC000DE0D2B223F8012BE1E7591C526881628D
:1025BC000CB91A70DCE702F07F02FAE7022010BDBA
:1025CC00704708B5406A03685A6990F83910212998
:1025DC000AD1120608D50022C284DA6822F0C002A1
:1025EC00DA60202280F839205B6990F83A20222AA0
:1025FC0005D15B0603D50023C385FFF785FEC36BAE
:10260C0043F01003C363FFF7DBFF08BD036870B52D
:10261C001A6804461607D9685D6907D1960659D51C
:10262C008D0657D5BDE87040FFF78FBF05F0010050
:10263C0001F4907505434DD0D60705D5CD0542BFA5
:10264C00E36B43F00103E363530704D518B1E36B69
:10265C0043F00203E363960704D518B1E36B43F030
:10266C000403E363150704D518B1E36B43F00803C7
:10267C00E363E36B4BB3900604D5890602D5204681
:10268C00FFF763FF236820465B69E56B03F04003AB
:10269C0005F008051D4319D0FFF736FE23685A696B
:1026AC0052060FD55A69606B22F040025A6148B14C
:1026BC00254B4363FEF700FD38B1606BBDE87040FD
:1026CC00436B18472046FFF77BFF70BDFFF778FF81
:1026DC00E563FAE7160628D50D0626D594F83920B9
:1026EC00212AF2D1A168226AB1F5805F18D1118834
:1026FC00C1F308015960216981B902322262E28C6E
:10270C00013A92B2E284002ADFD1DA6822F0800228
:10271C00DA60DA6842F04002DA60D6E70132EDE7BF
:10272C00511C216212785A60E9E75006CDD54A0651
:10273C00CBD5DA68204622F04002DA60202384F8F8
:10274C00393004F0B3F9C0E75927000808B5002365
:10275C00406AC385C384FFF733FF08BD034B1A18C7
:10276C0003EB80035B68107A5B681847E400002079
:10277C00064B1A5C42B901221A541A1803EB800357
:10278C005B68107A1B68184700207047E400002033
:10279C0030B4054C251804EB800460688468287AF2
:1027AC00A44630BC604700BFE400002030B4054CA8
:1027BC00251804EB80046068C468287AA44630BCF1
:1027CC00604700BFE400002010B4044B1C1803EB5E
:1027DC0080035B68207A1B6910BC1847E40000205A
:1027EC0001380A44914200D1704711F8013B00F8BE
:1027FC00013FF7E70244904200D1704700F8011BFB
:10280C00F9E700001F4B0246186830B578B1D2F8D2
:10281C000042844209D15C68D2F80802844204D197
:10282C001C89B2F80602844224D0002400E0012462
:10283C00D86890B1D2F80052A84209D11D69D2F8DB
:10284C000802854204D1988AB2F80622904216D02A
:10285C0074B902290CBF0020122030BD0C2101FBE1
:10286C0002335B89B3F5807F14BF00201020F4E79E
:10287C000020F2E700220029F0D01020EDE7012221
:10288C00F9E700BFC8000020244AF0B51368D0F85F
:10289C0000629E4209D15568D0F80842A54204D185
:1028AC00B0F806521489A5421FD0D468B44209D19D
:1028BC001769D0F80852AF4204D1978AB0F8065283
:1028CC00AF421CD00BB1C4B901230C245C431519C5
:1028DC001651D0F80842B0F806026C60288100202E
:1028EC00688171B14FF4807111E0002349B10C2162
:1028FC0001FB032149890029F4D000200CE00123BD
:10290C00F4E70C2101FB03214989013189B20C2028
:10291C0000FB0322581C5181F0BD00BFC8000020F1
:10292C000138012817D80C220C4902FB00125389DC
:10293C00B3F5807F06D1002353810C234343002041
:10294C00C8507047002BF8D0013B9BB25381002B31
:10295C00F3D0002070470220704700BFC800002051
:10296C00D0F80022490A92F80222D0F82432B1FBA6
:10297C00F2F10433186830B1814202D3091A0833DA
:10298C00F8E7586808447047026810B552B1114610
:10299C000B4611F8014B202C0CD93A2CF8D1511CB8
:1029AC008B4202D04FF0FF3005E01278302AF9D17B
:1029BC0001330360002010BD08B590B1D0F800328F
:1029CC007BB193F8002262B1B3F80612B0F804227E
:1029DC00914206D193F80102FFF7C0FE10F00100FE
:1029EC0000D0092008BDCA7E8B7E032843EA02234F
:1029FC0001BF487D0A7D42EA002243EA02431846A1
:102A0C007047F8B5D0F82C620146044601233246D3
:102A1C0090F80102FFF7CAFE0546D0B9D4F820326F
:102A2C00D4F81822F31A934284F8040203D294F8CF
:102A3C000372012F01D82846F8BDD4F8183221466C
:102A4C001E443246012394F80102FFF7AFFE013F0A
:102A5C00EFE70125EFE790F804320BB1FFF7D1BF98
:102A6C001846704738B5D0F82C3205468B420C46C8
:102A7C0011D0FFF7F0FF68B922460123294695F8DB
:102A8C000102FFF785FE00281CBF4FF0FF34012028
:102A9C00C5F82C4238BD0020FCE70000002310B51F
:102AAC0080F804324FF0FF33C0F82C320446FFF7A5
:102ABC00D9FFC0B994F8FF2194F8FE3143EA022300
:102ACC004AF65522934210D1D4F83630084A23F0F6
:102ADC007F43934206D0D4F8520020F07F40801AF6
:102AEC0018BF012010BD0320FCE70220FAE700BF4D
:102AFC00464154002DE9FF4100230546036008467A
:102B0C001746FFF741FF061EC0F22681964B53F87D
:102B1C002640002C00F022812C6094F8003283B106
:102B2C0094F80102FFF71AFEC1070AD4002F00F037
:102B3C00178110F0040500D00A25284604B0BDE822
:102B4C00F0810023F0B284F8003284F80102FFF720
:102B5C000FFE10F0010540F005810FB14207EBD4D8
:102B6C0000212046FFF79AFF0128064640F0DB8043
:102B7C00E846414604F5DF7304F5FF701A7902B19B
:102B8C009A681033984241F8042BF7D1002758F873
:102B9C00046B002E00F0BE8031462046FFF77EFF0E
:102BAC00002840F0B880227BE37A43EA0223B3F595
:102BBC00007F40F0BD80E37DA17D94F810E051EAE8
:102BCC00032108BF616A0EF1FF33012BC4F8181200
:102BDC0084F803E200F2AC80677B84F80272002F69
:102BEC0000F0A6807B1E3B4240F0A280A37C607C60
:102BFC0040EA03200307A4F8080240F09980227DE4
:102C0C00E37C94F80FC053EA0223A27B08BF236A2B
:102C1C0052EA0C2200F08C8001FB0EFE02EB101C21
:102C2C00F4446345C0F08480A3EB0C03BB42B3FBBC
:102C3C00F7F87DD340F6F57398457BD94FF6F577C9
:102C4C00B84594BF0227032708F102033244B44469
:102C5C00032FC4F81432C4F81C62C4F82022C4F840
:102C6C0028C269D1002863D1E26A9B00C4F82422EF
:102C7C0003F2FF13B1EB532F5AD34FF0FF33C4E9D8
:102C8C0083338023032F84F805322DD194F831201F
:102C9C0094F8303043EA0223012B25D12046711CD5
:102CAC00FFF7E0FE00BB94F8FF2194F8FE3184F8A6
:102CBC00050243EA02234AF65522934214D12268B4
:102CCC002A4B9A4210D103F1FF53D4F8E42103F5B7
:102CDC00005320339A4201BFD4F8E831C4F81032C3
:102CEC00D4F8EC31C4F80C32214A84F80072138801
:102CFC0001339BB21380A4F806321E4B1A6894421F
:102D0C0004BF00221A60DA6894427FF416AF0022E6
:102D1C00DA6012E702200137042F7FF438AF032862
:102D2C0006D1012509E70328FBD000283FF43BAF6F
:102D3C000D2502E7012787E70028F9D07244022FFE
:102D4C00C4F824224FEA43021BBFD21803F001033C
:102D5C00134603EB52038BE70B25EEE60C25ECE652
:102D6C003D46EAE60325E8E6C400002052526141E4
:102D7C00E0000020C800002038B50446FFF76BFEC9
:102D8C000546B8BB94F80032032B2AD194F80532CF
:102D9C00012B26D101464FF400722046FFF72AFD85
:102DAC004AF65522A4F8FE21134A2146226002F16C
:102DBC00FF5202F500522032C4F8E421D4F810225C
:102DCC0094F80102C4F8E821D4F80C22C4F8EC21E0
:102DDC00D4F81C220132C4F82C22FFF7E7FC84F84B
:102DEC000552002294F801021146FFF7EDFC003861
:102DFC0018BF012038BD00BF52526141D0F81432C7
:102E0C000239023B8B4283BF90F80232D0F8280281
:102E1C0001FB0300002070470129F8B506460D465A
:102E2C0059D9D0F814328B4255D990F80032022B74
:102E3C0027D0032B36D0012B4DD101EB5104D0F808
:102E4C00201201EB5421FFF70DFE10B14FF0FF30B3
:102E5C00F8BDD6F82012671C3046C4F3080401EB09
:102E6C005721345DFFF7FEFD0028EFD1C7F30807AB
:102E7C00F05DEB0744EA00204CBF0009C0F30B00E7
:102E8C00E6E7D0F8201201EB1521FFF7EBFD002847
:102E9C00DCD16D0005F4FF7573195B78705D40EA49
:102EAC000320D5E7D0F8201201EBD511FFF7DAFD9E
:102EBC000028CBD1AD0005F4FE7573199878DA783B
:102ECC00000440EA0260725D5B78104340EA032024
:102EDC0020F07040BCE70120BAE7D0F8082270B5AA
:102EEC00012A04460D46A0F8061201D1022070BD3D
:102EFC00D0F80032D3F814129142F7D9FAB993F8FA
:102F0C000012032902D1D3F82412B9B9B3F808126C
:102F1C00A942EBD9D3F82402C4F80C220028E5D03E
:102F2C00D4F8001200EB151005F00F0501EB451558
:102F3C00C4F81002C4F814520020D8E70A4693F8DB
:102F4C0002623601B5421146D4F8000202D2FFF7F4
:102F5C0055FFE1E7FFF760FF431C024609D001284B
:102F6C00C4D9D4F80032D3F814328342BED9AD1B85
:102F7C00E8E70120BBE701292DE9F04105460C46A5
:102F8C00164670D9D0F814328B426CD990F80032B6
:102F9C00022B3CD0032B4BD0012B64D101EB5107FE
:102FAC00D0F8201201EB5721FFF75CFD28BB14F081
:102FBC00010407F10108C7F3080717BFEB5DF3B273
:102FCC0003F00F0233011CBF03F0F0031343EB5566
:102FDC000123D5F82012284685F8043201EB58213C
:102FEC00FFF740FD48B9C8F3080844B1C6F307120F
:102FFC0005F80820012385F80432BDE8F08115F8A6
:10300C00082022F00F03C6F303221A43F0E7D0F88E
:10301C00201201EB1421FFF725FD0028EDD16400EF
:10302C0004F4FF742E55C6F307222C446270E1E7BA
:10303C00D0F8201201EBD411FFF714FD0028DCD1DD
:10304C00A40004F4FE742919CB781B0603F070431A
:10305C0043EA0602C2F307232A554B70130C120ED7
:10306C008B70CA70C6E70220C7E7F8B505460F4655
:10307C0089B9D0F80C62F6B1D0F814329E4228BF50
:10308C0001263446D5F814320134A34216D8012E49
:10309C0013D8002405E0FFF7BFFE0128044602D830
:1030AC0001242046F8BD601C35D0D5F81432A3425B
:1030BC00F7D83E46E5E70126E3E7022421462846F9
:1030CC00FFF7AAFE30B1411C25D00128E8D0B4424C
:1030DC00D8D1DEE76FF0704221462846FFF74BFF50
:1030EC00B8B97FB9D5F81032C5F80C425A1CD8D0F3
:1030FC00013BC5F8103295F8053243F0010385F811
:10310C000532CEE7224639462846FFF734FF002821
:10311C00E8D00128C4D14FF0FF34C2E72DE9F843C1
:10312C00B0F8066204460136B3B2894613B90420DE
:10313C00BDE8F883D0F81032002BF8D016F00F0849
:10314C000BD1D4F80C120133D0F80002C4F81032B1
:10315C0069B9B0F80832B342E9D9D4F8003200208A
:10316C0003EB4813A4F80662C4F81432E0E790F8B5
:10317C000272013F17EA1617EFD1FFF74DFE012837
:10318C00054601D80220D3E7421C01D10120CFE72C
:10319C00D4F80002D0F81432AB422FD8B9F1000F9A
:1031AC00C5D0D4F80C12FFF760FF054600283ED0BE
:1031BC000128E7D0431CE9D0D4F80002FFF74BFC00
:1031CC0001460028E2D14FF40072D4F80002FFF758
:1031DC0011FBD4F8002229461046FFF70FFE4FF0E2
:1031EC000109C2F82C02D4F8000290F80232BB425A
:1031FC000ED8D0F82C32DF1BC0F82C722946D4F82C
:10320C000002C4F80C52FFF7F9FDC4F81002A4E751
:10321C0080F80492FFF7F5FB0028B7D1D4F8002210
:10322C000137D2F82C320133C2F82C32DBE70720FD
:10323C007EE700002DE9F8430B7804462F2B0D4652
:10324C0001D05C2B00D101350026C4F808622B7824
:10325C001F2B34D95F4E2B4613F8012B2F2A36D057
:10326C005C2A34D0D4F818820B2220214046FFF778
:10327C00C1FA4FF0000C0827634605F1FF3EC5F17B
:10328C00020909EB0E011EF8012F202A35D92F2A2D
:10329C0033D05C2A31D02E2A00F0948067450CD9AB
:1032AC00110644BF803AB25C4B4848BF43F003035D
:1032BC0010F8011B69B18A42FAD1062005E03146AB
:1032CC002046FFF70AFEC4F81462BDE8F8831D46D9
:1032DC00C1E7A2F14101192906D843F0020308F80D
:1032EC000C200CF1010CCCE7A2F1610119299EBF55
:1032FC00203A43F00103D2B2F1E7212A34BF042271
:10330C0000220D44BCF1000FD7D098F80010E5292D
:10331C0004BF052188F80010082F2ED19B00DBB2CA
:10332C0003F00C03042B08BF42F0080200212046D6
:10333C0088F80B20FFF7D1FD38BBD4F81012D4F865
:10334C000002FFF78FFB00BBD4F814321A78DAB105
:10335C00D87A10F008000BD1D4F8182203F10B0C1A
:10336C00634512D013F8017B12F8011B8F42F7D082
:10337C0000212046FFF7D2FEDEE703F0030101290E
:10338C0008BF42F01002CBE70420D4F81832DB7AE5
:10339C0030B1042899D113F0040F08BF052094E72D
:1033AC005A0792D4D4F81412CB7ADB0608D5D4F889
:1033BC00003293F80002FFF716FBC4F808024AE744
:1033CC00052082E7082F7FF478AF9B00BC46DBB268
:1033DC000B2756E73C8400082D84000838B50021E3
:1033EC000546FFF77AFD044668BBD5F81012D5F8F0
:1033FC000002FFF737FB044628BBD5F814321B78C4
:10340C00E52B19D1D5F81012D5F80002FFF72AFBDD
:10341C00044678B901462022D5F81402FFF7EAF9E0
:10342C00D5E985010B22FFF7DBF90122D5F8003233
:10343C0083F80422204638BD002BE3D00121284616
:10344C00FFF76CFECFE7042C08BF0724F2E7012935
:10345C0070B505460C4629D9D0F814328B4225D9C3
:10346C0021462846FFF7D8FC2646044608B900201A
:10347C0070BD01281AD0411C1AD0002231462846B2
:10348C00FFF779FD0028F3D1D5F810325A1C08D07B
:10349C000133C5F8103295F8053243F0010385F875
:1034AC000532D5F814329C42DAD3E0E70220DFE78C
:1034BC000120DDE730B585B0CDE9001003A80391FC
:1034CC001546FFF761FA011E22DB134C54F821005C
:1034DC0068B1124B1A68904204BF00221A60DA6875
:1034EC0090424FF0000208BFDA6080F80022019889
:1034FC0010B1002380F8003244F8210030B1012DC6
:10350C0008D10022694601A8FFF7F4FA05B030BDD6
:10351C000B20FBE70020F9E7C4000020C8000020C6
:10352C002DE9F041ADF50E7D1746054601910028B9
:10353C0000F09080002302F01E02C0F8003201A9B6
:10354C0086A8FFF7D7FA10BB03AB019906A88C939A
:10355C00FFF770FE07F01F048B9E40B9DEB114F02C
:10356C001E0F14BF0121002106A8FFF74BF917F01D
:10357C001C0F64D088B1042809D1484B1A6812B1C9
:10358C00DB68002B68D106A8FFF728FF70B10DF59A
:10359C000E7DBDE8F0810620E9E7F37A13F0110FF8
:1035AC0056D178075AD43B0733D502E08B9E44F0B2
:1035BC00080402F027FE0027C0F30723B073F3734F
:1035CC00030C000EF77237777777B777F77733748A
:1035DC007074869B314693F80002FFF704FA0123BE
:1035EC000146B776F7763775777586980F4680F86B
:1035FC00043271B1D0F82C82FFF729FF0028C6D114
:10360C008698013F4146C0F80C72FFF72BFA002850
:10361C00BDD1869B2207D3F82C3248BF44F020043E
:10362C0014F0FE0F14BF01210021C5E9873606A84E
:10363C00FFF72AF9C5F82802A0B90220A7E700284D
:10364C00A5D1F37ADA060BD4BF07E2D5D807E0D5BB
:10365C0007209CE709209AE7122098E7082096E7B4
:10366C00042094E785F806420024869F85F80742DB
:10367C0097F800023146FFF7B6F9C5F81002F36966
:10368C002046C5E98243B7F80632C5F81842C5F89A
:10369C002442C5F80072A5F8043278E7C80000206F
:1036AC002DE9F74F9A460023CAF8003004468946A4
:1036BC001746FFF781F9054650BB94F807523DBBFE
:1036CC0094F8063213F00103009300F0AE80D4E9B5
:1036DC008226B61ABE4228BF3E46CEB1D4F8081296
:1036EC00C1F30803002B40F09180D4F8000290F84D
:1036FC00028208F1FF3808EA512818F0FF0820D19F
:10370C0051B9D4F81002012812D8022584F80752B6
:10371C00284603B0BDE8F08FD4F824321BB1204604
:10372C00FFF71EF9EFE7D4F81412FFF775FBEAE781
:10373C00421C04D10123009D84F80732E8E7C4F849
:10374C001402D4F800B2D4F814125846FFF756FB02
:10375C000028DAD0B6F5007F00EB080733D39BF8CE
:10376C00022208EB562191424FEA5623494688BF64
:10377C00A2EB08039BF801023A460193FFF708F805
:10378C000028D7D194F80622019B12F0400F0CD0E0
:10379C00D4F81802C01B834207D94FF4007221469B
:1037AC0009EB4020FFF71CF8019B5F02D4F80832AC
:1037BC00B9443B44C4F80832DAF80030F61B3B44F9
:1037CC00CAF8003089E7D4F8182297421CD094F834
:1037DC0006325B060DD5012321469BF80102FEF74C
:1037EC00E5FF0028A6D194F8063223F0400384F8B4
:1037FC000632D4F8000201233A46214690F8010221
:10380C00FEF7C6FF002895D1C4F81872D4F8081238
:10381C004846C1F30801C1F50077B74228BF3746C7
:10382C0021443A46FEF7DCFFC0E7072570E72DE997
:10383C00F74F99460023C9F80030044688461646CF
:10384C00FFF7BAF8054630BB94F807521DBB94F845
:10385C000632990740F1D280D4F80832DE42C0F02B
:10386C008480D4E98232934200F2C58094F8063207
:10387C0043F0200384F806320DE0D4F8243273B1FF
:10388C002046FFF76DF801460028EAD0012909D13E
:10389C00022584F80752284603B0BDE8F08FD4F80F
:1038AC0014127CE04A1C01D10125F2E7D4F8103245
:1038BC00C4F814120BB9C4F8101294F806325B0653
:1038CC0011D5D4F8000201232146D4F8182290F81F
:1038DC000102FEF76BFF0028E6D194F8063223F0C4
:1038EC00400384F80632D4F800B2D4F814125846C7
:1038FC00FFF784FA0028CBD0B6F5007F00EB070A5F
:10390C0050D39BF8022207EB562191424FEA5623E3
:10391C00414688BFD31B9BF8010252460193FEF728
:10392C0045FF0028C0D1D4F81812019BA1EB0A0165
:10393C008B420DD94FF40072204608EB4121FEF763
:10394C004FFF94F80622019B22F0400284F80622D5
:10395C005F02D4F80832B8443B44C4F80832D9F8B2
:10396C000030F61B3B44C9F80030D4F80812002E86
:10397C003FF477AFC1F3080343BBD4F8000290F8CF
:10398C000272013F07EA512717F0FF0795D1002972
:10399C007FF473AFD4F8101200297FF477AFFFF7E0
:1039AC0064FB70E7D4F818329A450DD0D4E9823212
:1039BC009A4209D90123524621469BF80102FEF78F
:1039CC00E7FE00287FF470AFC4F818A2D4F8080200
:1039DC004146C0F30800C0F50077B74228BF374610
:1039EC0020443A46FEF7FCFE94F8063243F04003BE
:1039FC0084F80632ADE7C4F80C3237E707254AE7FE
:103A0C0070B50446FEF7D8FF002859D194F8063259
:103A1C0013F0200054D05B0611D5D4F8000201231A
:103A2C002146D4F8182290F80102FEF7BFFE0028B8
:103A3C0045D194F8063223F0400384F80632D4F8CA
:103A4C001C12D4F80002FFF70DF80646C0BBD4F8E0
:103A5C002052EB7A43F02003EB72D4F80C322B7724
:103A6C00B4F80C321B0A6B77B4F80E32AB7794F8BF
:103A7C000F32EB77D4F81032AB76C3F307221B0C62
:103A8C002B751B0A6B75EA7602F0BCFBC0F307239F
:103A9C00EB75030C2B76030EA8756B76AE74EE7477
:103AAC0094F80632D4F8000223F0200384F806328E
:103ABC00012380F80432BDE87040FFF75DB90120A6
:103ACC0070BD10B50446FFF79BFF50B92046FEF7BA
:103ADC0073FF30B9D4F82802FEF722FF08B9C4F8F6
:103AEC00000210BD2DE9F04FADF5157D079002F0E9
:103AFC0089FB0122074607A98CA8FEF7FBFF0446A9
:103B0C000546002840F0BA8009AB07990CA892939F
:103B1C00FFF790FB0446002800F0B980042840F021
:103B2C00AD8029468C98FFF7A0FA0646002800F0D5
:103B3C00A080012E8C9800F0A680731C00F0A5804C
:103B4C00FEF789FF0446002840F094808C9D314696
:103B5C002846FFF753F921464FF40072059028468A
:103B6C00FEF748FE0B2220212846FEF743FE1022CA
:103B7C002E24EA722022FBB20193AB75C7F3072304
:103B8C000293EB75C7F3074303932B765FFA86F822
:103B9C003B0EC6F30729C6F3074A4FEA166BA81863
:103BAC0029466B762C7085F81A8085F81B9085F861
:103BBC0014A085F815B00493FEF712FE85F8214089
:103BCC008C998E9A91F80002059B032804D1D1F8A8
:103BDC002412914208BF002285F83A20C2F3072133
:103BEC00120C85F83420120A85F83B1085F8352024
:103BFC008C9A0CAF92F802221A440692069A9342BF
:103C0C0021D13846FFF7EAFB044698BB1022D7F8BF
:103C1C001432DA72019A83F81A809A75029A83F830
:103C2C001B90DA75039A83F814A01A76049A83F819
:103C3C0015B05A760123D7F8000280F80432FFF74A
:103C4C009BF804461AE0D7F800025A1CC0F82C3234
:103C5C004FF0010380F804320592FEF7D2FE0446C1
:103C6C0040B901464FF400722846FEF7C3FD059B90
:103C7C00C4E7072431468C98FFF7E9FB20460DF585
:103C8C00157DBDE8F08F0224F4E70124F2E7082447
:103C9C00F4E72DE9F34104469046064600254F1EF5
:103CAC00BD4212DA01AB012269464046FFF7F8FC2F
:103CBC00019B012B09D19DF800300D2BF0D00A2B64
:103CCC0006F8013B05F10105EAD100239D4214BF22
:103CDC0020461846337002B0BDE8F08130B50F4B6A
:103CEC000546587A012816D800205C7AE4B218559B
:103CFC005C7A03EB840465605C7A1C4422725A7A09
:103D0C00541CE4B25C723A234B702F2330320A708D
:103D1C008B70C87030BD0120FCE700BFE4000020B0
:103D2C000022FFF7DBBF00000023024A1360024AA7
:103D3C0013607047E0010020900D0020F0B52F2497
:103D4C0004700D78294B45704D781A6885708D7804
:103D5C000132C570CD781A6005710D790A2645714E
:103D6C004D7985718D79C571C97900F11005017294
:103D7C001F4944728A4284BF00221A601B681D4A84
:103D8C0000F10904B3FBF2F1CFB2303104F8011F9A
:103D9C00A54202FB1733B2FBF6F2F3D13033437476
:103DAC002E238374144B93F83130012B08D14C2300
:103DBC00C3744F2303754723437500238375F0BDEC
:103DCC00022B05D14323C374532303755623F3E706
:103DDC00032B05D14323C374522303755423EBE700
:103DEC0054235822C3740275E6E700BFF800002084
:103DFC00FFE0F50580969800481F00200F4B1049F6
:103E0C001A68F0B501328A4288BF00220A261A606D
:103E1C0042F210721B68841C851DB3FBF2F1CFB209
:103E2C00303104F8011FA54202FB1733B2FBF6F246
:103E3C00F3D13033C37100230372F0BDFC000020BA
:103E4C009F86010084B0F0B5144F05AC7E8884E8E1
:103E5C000F003B889E4228BF3C339B1B9BB2012B1F
:103E6C0019D9302404FB067405AD08340FCD0FC4EA
:103E7C000FCD0FC495E80F003A2E88BF002684E8BA
:103E8C000F004FF000009CBF0136B6B27E80BDE83B
:103E9C00F04004B070470220F9E700BFE0010020B9
:103EAC0084B0F0B5144F05AC7E8884E80F003B88D5
:103EBC009E4228BF3C339B1B9BB2012B19D930244B
:103ECC0004FB067405AD08340FCD0FC40FCD0FC421
:103EDC0095E80F003A2E88BF002684E80F004FF0BB
:103EEC0000009CBF0136B6B27E80BDE8F04004B045
:103EFC0070470220F9E700BF900D0020602804D91C
:103F0C002738C0B23038C0B270474028FAD90738C9
:103F1C00F7E760280CD92738C0B230386029C0B216
:103F2C000AD92739C9B2303941EA0010C0B27047FA
:103F3C004028F2D90738EFE74029F4D90739F1E7DF
:103F4C0003099F2800F00F0094BF30333733092842
:103F5C0094BF303037300B704870704784B02DE907
:103F6C00F04708AC84E80F0057490446DDE90935F1
:103F7C0008780F460128159ADDF82CC00D9E6BD1E0
:103F8C00DDF83080BCF1000F44D1B8F1000F14BF44
:103F9C0072217421B3F5206F1170C3F3072134BF64
:103FAC0030313731C9B25170D8B2911CFFF7C8FF0C
:103FBC000421F3B2092E94BF30333733DBB24D1CDE
:103FCC005354B8F1000F0AD10DF1400A02EB050968
:103FDC004645494609F1020937D105EB46057B7880
:103FEC0083B14EF66023B4FBF3F003FB104451197C
:103FFC00C4F30720FFF7A4FFA91C1144E0B2FFF79C
:10400C009FFF04350D23681C535580B2BDE8F04763
:10401C0004B07047B8F1000F114614BF522354235B
:10402C00280E01F8013BFFF78BFFC5F30740D11CAD
:10403C00FFF786FFC5F30720511DFFF781FFE8B29C
:10404C00D11DFFF77DFF0921B3E71AF8010BFFF72C
:10405C0077FF08F10108BBE7022832D188780028E5
:10406C00D3D0F12111700021BCF1040F51704FEA33
:10407C00142108BF45F00043D170210C1171190AAD
:10408C009371D171190C1B0E5372134611729DF85A
:10409C004910947006EB0111240E547103F80A1F99
:1040AC0006F10A0110A811448B4205D100233244B9
:1040BC0006F10C00D372A8E710F8014B03F8014F7E
:1040CC00F2E70020A1E700BF481F00202DE9F041D6
:1040DC00184E8AB034887388A34227D0302303FB50
:1040EC00046400236D46DFF854800893CDF82480D7
:1040FC0004F1080718340FCC0FC594E80F0085E8BD
:10410C000F0097E80F00FFF729FF0B4B02464146C3
:10411C001868FEF7C3F958B933883A2B8EBF03469B
:10412C0001339BB233800AB0BDE8F0810220FAE77C
:10413C000120F8E7E0010020F42A0020EB29002000
:10414C0084B02DE9F04385B00CAC84E80F00534AE1
:10415C00189C92F831200F9B012A119E9DF859C092
:10416C00DDE90D172AD1042B4FEA102308BF47F0C5
:10417C0000416370030CA3700B0A63710B0CA371E9
:10418C0023462070217106EB0C12090E000EE17112
:10419C00E07003F8082F06F1080214A914449C429D
:1041AC0007D106F1090080B205B0BDE8F04304B0B8
:1041BC00704711F8012B03F8012FF0E7022A109D2C
:1041CC002ED10246CDE901C600932046042B0CBF2C
:1041DC003B460B46324903F0AFFC2046FBF7B0FFE1
:1041EC00074675B92A462C2504EB00080DF1500939
:1041FC00964208F1010108F1030809D106EB4603C8
:10420C001F440D230A22E3553C44B81C6270CAE7D4
:10421C0019F8010B08F8035CFFF792FE0132E7E78F
:10422C00032A38D1042B4FF47A7318BF0F469DF82C
:10423C0058100CBF4FF01D0C4FF00B0C0129B0FBAC
:10424C00F3F20CBF5421522103FB1203CDE901C739
:10425C0000912046134903F06FFC2046FBF770FFDA
:10426C000746002DCDD12A46202504EB00080DF180
:10427C005009B24208F1010108F1030803D102EB25
:10428C0042021744BDE719F8010B08F8035CFFF76D
:10429C0057FE0132EDE7002085E700BF481F0020E4
:1042AC00BC840008CB8400082DE9F041164E8AB07E
:1042BC0034887388A34223D030236D4603FB0464F7
:1042CC00DFF8488004F10807CDF8208018340FCCB3
:1042DC000FC594E80F0085E80F0097E80F00FFF773
:1042EC002FFF0146404602F07BFC58B933883A2B2D
:1042FC008EBF034601339BB233800AB0BDE8F08118
:10430C000220FAE70120F8E7900D00206B2A00202C
:10431C0010B551EA02048AB012D10123CDE905444B
:10432C00CDE90044CDE90733CDE902440494694654
:10433C000B48FCF7D6FA003818BF01200AB010BDA4
:10434C00CDE905320B0C0293030C00930123CDE94C
:10435C000733002389B280B2039101900493E6E7FE
:10436C005C1A0020134B70B5134C0246D888668932
:10437C0080B2864204D35D88ADB2013DB54201DC0A
:10438C00D88860815B8860899BB20844023B984264
:10439C0001DB012070BD0D2353548DB24B1C07481B
:1043AC00618901F099FE0028F3D1638901331D4422
:1043BC006581EFE7280D0020481F0020BC2D002050
:1043CC002DE9F7430C461D4A1D4D5388074698B2FC
:1043DC002B68D188023B89B203445B1AA3429046F6
:1043EC0028D30026DFF85C90A64201D102201CE005
:1043FC00B8F80610012331440DF10702484689B282
:10440C0001F030FEBA5D9DF807309A4210D0B8F832
:10441C00063029683A4619440A48A3B289B201F019
:10442C005BFE48B929682144296003B0BDE8F083DC
:10443C000136D9E70720F8E70120F6E7280D002020
:10444C0004010020BC2D002070B5204C012210214D
:10445C001F48FDF759F8237A1E4E023304EB8303F1
:10446C005B68002173600C2330467361FDF7C2FF5B
:10447C00054640BB33681848DA6842F02002DA601F
:10448C001A6942F040021A61DA6842F01002DA60EE
:10449C00DA6842F02002DA60217A227A03310332A0
:1044AC00042304EB8202890001F016FE217A227AA1
:1044BC000D310D320423084804EB8202890001F00F
:1044CC000BFE284670BD0125FBE700BF280D002020
:1044DC00000C01407C2F0020BC2D002010B50E4C90
:1044EC00002210210D48FDF70FF82046FDF7BDFF07
:1044FC0023680120DA6822F02002DA601A6922F0BF
:10450C0040021A61DA6822F01002DA60DA6822F0EE
:10451C002002DA6010BD00BF7C2F0020000C01408F
:10452C0010B50748FCF7A8FA044638B902464FF410
:10453C0080710448FCF7E8FF204610BD0124FBE71E
:10454C005C1A00200008014010B5FFF7E9FFFFF7E7
:10455C00C5FF002280211948FCF7D6FF002240211C
:10456C001648FCF7D1FF002220211448FCF7CCFFA1
:10457C00002210211148FCF7C7FF3220FCF724F968
:10458C000F4B1B7A032B08D8DFE803F0020F121530
:10459C00012280210948FCF7B7FFBDE81040012338
:1045AC000821084A084801F097BD01224021F1E793
:1045BC0001222021EEE701221021EBE7000C014043
:1045CC00280D0020300D0020BC2D002070477047B6
:1045DC00704700002DE9F04F884685B0029046499F
:1045EC0040461746FCF77EF800287FD140464349E9
:1045FC00FCF75AF80546002878D1002301934FF0B8
:10460C007E53DFF800A100930298FBF757FE0135AB
:10461C0004462846FBF752FE4146FBF7A7FE01462F
:10462C002046FBF757FF064603F0C0FEFCF764F884
:10463C00072804465AD9192855D8FBF73FFE0146DE
:10464C0083463046FBF788FD20F0004630462C4967
:10465C00FCF72AF800B1002651465846FBF786FEB7
:10466C0003F0A4FE4FF07E51FBF776FDFCF744F807
:10467C00013C10288146A4EB000434D8082C32D815
:10468C0024B9002835D0012400F1FF3909F10100CB
:10469C00FBF714FE5946FBF71DFF00998346304685
:1046AC00FCF702F8C8B900213046FBF7F3FFD0B194
:1046BC0051465846FBF750FD514620F000420198F8
:1046CC000392FBF749FD039A20F000411046FBF7DB
:1046DC00EBFF40B17A69944205D1C7E904947D603F
:1046EC00CDF804B00096B5F5806F8DD105B0BDE85E
:1046FC00F08F0446CAE700BF0024744A0000FA4455
:10470C00ACC527370000603F38B53F4B0D4698428B
:10471C003E4C6CD026D844F62063984260D013D817
:10472C0042F28D0398426CD042F2107398425CD0E6
:10473C0041F28833984261D0FBF7C0FD334A014601
:10474C003348FFF747FF2CE04BF60323984253D036
:10475C004CF25033984241D048F235239842EBD179
:10476C0048233EE02B4B984229D00DD82A4B984237
:10477C0032D02A4B98422AD0294B9842DCD12D2397
:10478C0063604FF4A02309E0264B984215D0264BCA
:10479C009842D1D1042363604FF4C02323610023DA
:1047AC006361224BA560236000231848E360A3617A
:1047BC00A383BDE83840FCF719B80523EBE70423C5
:1047CC0063604FF4602323614FF48013E8E70923FF
:1047DC0063604FF44023F6E71223F9E72D23F7E744
:1047EC00782363604FF43023EDE7FF23F0E71B23BE
:1047FC0063604FF42023E6E73623F9E74FF4E173C7
:10480C00E6E74FF48773E3E7067401005C1A0020B7
:10481C000051250220A1070048E8010090D00300B8
:10482C00A086010000350C0040420F0000640040DF
:10483C0010B51B4CFFF788FE237A023304EB83037D
:10484C005868237A0C3304EB83035968FFF75CFF39
:10485C0008B1012010BD217A227A033103320423DE
:10486C0004EB820289000F4801F036FC217A227A8F
:10487C000D310D3204230B4804EB8202890001F048
:10488C002BFC0948FCF79CF80028E2D140F23E4191
:10489C000548FCF7CAF9003818BF0120DAE700BF59
:1048AC00280D0020BC2D00205C1A00202DE9F043BF
:1048BC008DB00446FBF744FC9D4DC6B2EB79012B41
:1048CC0006D12378502B03D031462046FFF74AFD02
:1048DC002278A2F12103572B00F2BF80DFE813F0FE
:1048EC005805BD00BD00BD00BD00BD00BD00BD0034
:1048FC00BD00BD00BD00BD00BD00BD00BD00BD00C4
:10490C00BD00BD00BD00BD00BD00BD00BD00BD00B3
:10491C00BD00BD00BD00BD00BD00BD005205BD0009
:10492C0066008A046102BF0466009C006600EB040A
:10493C00BD00B704BD001604B20058003E02990435
:10494C00BD006E035801950329046A006600E1045A
:10495C00BD008D00BD00BD00BD00BD00BD00BD0093
:10496C00BD00BD00BD00BD00BD00FB00BD00E604E8
:10497C00BD00BD00BD004505B200BD00BD00BD00C1
:10498C00BD008A023201E3025F047C00BD00DD043D
:10499C004E216848684B0268995413440532302103
:1049AC000260312259709970D9701A710D200DB0B6
:1049BC00BDE8F08356245F485F4A03683125D45420
:1049CC003024591C555411444C70D91C55540A446C
:1049DC00547005330360E9E776245648564A036859
:1049EC003125D4543024591C545411444D70D91CC5
:1049FC0054540A4441215170EBE76378312B02D1B6
:104A0C0001236B70D2E7302B01D10023F9E76B78CF
:104A1C00B3FA83F35B09F4E74622464C464D236810
:104A2C004648EA549A1C226030222B445A70FCF7F8
:104A3C0010FA236830305A1CE85440482260FCF7C6
:104A4C001DFAB3E76378452B01D0312B25D1032117
:104A5C0000230FE0605C2F2801D80720A7E7392836
:104A6C0003D9A0F14107052FF7D81B01FFF746FA30
:104A7C00034401318E42EDDC314800EAC30040F0C2
:104A8C000400A378522B01D0312B1FD140F002002F
:104A9C004D2A0CBFE861286288E7532B01D0302BDC
:104AAC00DBD1032100230DE0605C2F28D5D93928F8
:104ABC0003D9A0F14107052FCFD81B01FFF71EFA30
:104ACC00034401318E42EFDC5805DAE7442BDFD08A
:104ADC00302BC2D1DCE7032E19D16078FFF70EFA28
:104AEC006862A378492B21D04D2B0CBF0023FF23E8
:104AFC00AB626B6A0E2BB0D8AA6AFF2AADD0D5E98F
:104B0C000701FFF705FC00283FF450AFA5E7042E82
:104B1C00A3D16078FFF7F2F90346A078FFF7EEF91E
:104B2C000A2202FB03036B62E378DBE70123DFE776
:104B3C00481F0020500100207C1F00205C1A002020
:104B4C00F8FF1F0000210A25A14B1A7A023203EB51
:104B5C0082025160C4F101010A1996427FF726AF17
:104B6C006278303A092A3FF678AF1A7A023203EBB0
:104B7C00820250686843506014F8010FFFF7BEF9C9
:104B8C001A7A023203EB8202576838445060E3E72A
:104B9C00052E02D0022E7FF460AF2B78002B7FF411
:104BAC005CAF6378303B342B3FF657AF01A252F821
:104BBC0023F000BF954C0008A74C0008B74C000828
:104BCC00C74C0008D54C0008E34C0008F14C000819
:104BDC00FF4C00080D4D00081B4D0008674A0008EB
:104BEC00674A0008674A0008674A0008674A0008D5
:104BFC00674A0008674A0008294D0008394D00082B
:104C0C00494D0008594D0008674A0008674A0008DA
:104C1C00674A0008674A0008674A0008674A0008A4
:104C2C00674A0008674A0008674A0008674A000894
:104C3C00674A0008674A0008674A0008674A000884
:104C4C00674A0008674A0008674A0008674A000874
:104C5C00674A0008674A0008674A0008674A000864
:104C6C00674A0008674A0008674A0008674A000854
:104C7C00674A0008674A0008294D0008394D0008AA
:104C8C00494D0008594D0008514B1A7A023203EB7A
:104C9C00820342F210725A6088E64D4B1A7A023245
:104CAC0003EB820344F62062F5E7494B1A7A023291
:104CBC0003EB82034CF25032EDE7454B1A7A023289
:104CCC0003EB8203434AE6E7414B1A7A023203EBC9
:104CDC008203414ADFE73E4B1A7A023203EB82032E
:104CEC003E4AD8E73A4B1A7A023203EB82033C4A2B
:104CFC00D1E7374B1A7A023203EB8203394ACAE7FF
:104D0C00334B1A7A023203EB8203374AC3E7304B38
:104D1C001A7A023203EB8203344ABCE72C4B1A7A20
:104D2C00023203EB820342F28D02B4E7284B1A7A6B
:104D3C00023203EB82034BF60322ACE7244B1A7AC4
:104D4C00023203EB820348F23522A4E7204B1A7A95
:104D5C00023203EB820341F288329CE71C4C237A2B
:104D6C00032B10D10022237A0C3304EB83035A60FB
:104D7C00FFF76AFB00287FF470AE0122237A2A70B9
:104D8C002B44DA7012E61A48FCF763F800287FF41B
:104D9C0064AE237A0C3304EB83035860FFF748FDB1
:104DAC00E8E700230A4C2B70227A032A09D1FFF77B
:104DBC0095FB00287FF451AE237A1D440023EB7041
:104DCC00F4E50B48FCF75AF8FFF7AAFBF1E700BF34
:104DDC00280D0020A086010048E8010090D00300B7
:104DEC0020A1070000350C0040420F0006740100A2
:104DFC005C1A00202B78002B3FF42FAE052E7FF48D
:104E0C002CAE6078FFF77AF8E1780346A078FFF7CC
:104E1C0080F8002740EA03200223B44EC6E902734F
:104E2C0030602079FFF76AF8B14F01224FF400414E
:104E3C003061B048FCF768FBAF4B3A463146AF489F
:104E4C00FBF72EFEAE4B187000287FF406AE95F8DB
:104E5C002D50012D7FF4AAADFBF7B0FC3D726D46D1
:104E6C00336947F8200C47F80C3C7368A7F1200411
:104E7C0047F8183C336847F81C3CF36847F8103C7B
:104E8C00B368A7F1100647F8143C9E4B1B7A7B7253
:104E9C000FCE0FC597E80F0085E80F0094E80F00C0
:104EAC00FEF7FEFF82E52B78002B3FF4D6AD721F88
:104EBC00D3B2102B3FF6D1AD6078FFF71FF8E17835
:104ECC000346A078FFF725F840EA03200023874E1D
:104EDC00C6E9023330602079FFF710F802EBD2718B
:104EEC00B0EB610F074630617FF4B7AD08283FF691
:104EFC00B4AD7F4A05349F4204F1020423D8814F9C
:104F0C0001224FF400417B48FCF7FEFA3B7A032B5D
:104F1C0023D1002231697C48D3B20CAC8B4202F114
:104F2C0001021C4444D30022714800F0D6FD04F861
:104F3C000C0C306800F0B6FD326909A9013200F0A2
:104F4C0087FEC0B20FE014F8011C14F8020CFEF737
:104F5C00E0FF02F8010B0133CDE7674B644A63496C
:104F6C006648FBF79DFD664B187000287FF475AD05
:104F7C0095F82D50012D7FF419ADFBF71FFC624CF9
:104F8C00336920606361736884F82850A3603368C8
:104F9C006360F3682361B368E3603B7A6D4604F1A8
:104FAC00100684F829300FCE0FC596E80F0073E772
:104FBC00034493F8203004F80C3CADE72B78002B1D
:104FCC003FF44BAD0A2E7FF448ADA1786078FEF724
:104FDC00A0FF21790246E078FEF79BFFA17903043C
:104FEC00607943EA0263FEF794FF217A0246E07986
:104FFC00FEF78FFF3D4E034343EA02230420736008
:10500C000223C6E90203607A0CE72B78002B3FF4ED
:10501C0024AD0A3EF3B2102B3FF61FADA178607899
:10502C00FEF777FF21790246E078FEF772FFA1794F
:10503C000304607943EA0263FEF76BFF217A0746AB
:10504C00E079FEF766FF294A034343EA072304216C
:10505C0053600023C2E90213607AFEF74FFF06EBA0
:10506C00D676B0EB660F0746164610617FF4F5ACAA
:10507C0008283FF6F2AC1E4A0A3490469F4204F1CF
:10508C00020429D801224FF400411A48FCF73CFADB
:10509C00194B174A15491948FBF702FD184B1870A4
:1050AC0000287FF4DAAC95F82D50012D7FF47EACFE
:1050BC00FBF784FB144C336948F8200C636173686C
:1050CC0084F82850A36033686360F3682361B36885
:1050DC00E3600C4B1B7A61E714F8011C14F8020C0A
:1050EC00FEF717FF02F8010B0133C7E76801002038
:1050FC00A001002000080140B40100205C1A00202F
:10510C00B0010020280D0020800100204FF000424B
:10511C00AB4C237A0C3304EB83035A60FFF788FB08
:10512C0000287FF49AAC0122237A2A701D44EA707D
:10513C003CE46378A24C303B062B2ED8DFE803F01E
:10514C00041B1E2124272A004FF461339D4DE36577
:10515C002868FDF78AF9E26D9B4B28685A60FDF7C9
:10516C001BF900287FF479AC04235C21974A9848FA
:10517C0000F0B2FF1AE44FF4E133E7E74FF4614378
:10518C00E4E74FF41643E1E74FF49643DEE74FF4C0
:10519C001653DBE74FF41663D8E78E4BD6E70023A4
:1051AC000A21874DC4F10102EB6513199E4211DCF3
:1051BC00EB6DC72B7FF651ACEA6D874B9A423FF6ED
:1051CC004CAC804C2068FDF750F9EA6D7E4B2068A2
:1051DC005A60C4E76378303B092B3FF63EACEB6D6D
:1051EC004B43EB6514F8010FFEF788FEEB6D18448A
:1051FC00E865DAE76078A0F13003042B3FF62DACBC
:10520C00FEF77CFE6E4B0138C0B21872FFF710FB34
:10521C0079E46378312B08D10123EB7100232B70D7
:10522C00674BDB886B81FFF7C1BB302B08D1FF23A9
:10523C008DF8243000236989EB7109AA012396E7C4
:10524C00322B7FF4B3AB01236B72FFF7AFBB2B7A1E
:10525C00002B3FF4ABAB6B89AB81FFF7A7BB0023F3
:10526C000A216B61C4F1010213199E4206DCFBF7A3
:10527C00A5FA012328612B76FFF7EFBB6378303B4F
:10528C00092B3FF6EAAB6B694B436B6114F8010FCA
:10529C00FEF734FE03446B61E6E700232B72FFF745
:1052AC0085BB474BDB886B810123F7E7002385F82F
:1052BC002D30FFF77BBB022E0DD16378303BDBB278
:1052CC00032B3FF6CAAB3E4A642102F8643F4048C8
:1052DC00012300F001FF95F82C4054B901223F49FD
:1052EC003F48FEF7E7F83F4B1870A8BB012385F841
:1052FC002C3095F82D30012B3FF458AB394E304CF7
:10530C00374694F86430DFF8F08085F83130404649
:10531C00FEF774FDFEF7E6FB08283070F7D0002886
:10532C007FF49BABDFF8D0902F4EDFF8D08049464E
:10533C003046FEF703FD0E2231464046FEF7F0F8EC
:10534C0008283870F3D000287FF487AB94F86430C9
:10535C0085F831300123AAE7012220461F49FEF7C8
:10536C00A9F8224B1C70FFF778BB63784D2B07D044
:10537C00A3F131025342534185F82E30FFF716BB8F
:10538C000123F9E701236B7600236B83FFF70EBB38
:10539C006378522B34D1A378532B7FF407ABE3788B
:1053AC00542B7FF403ABBFF34F8F1149114BCA68D9
:1053BC0002F4E0621343CB60BFF34F8F00BFFDE7F5
:1053CC00280D0020F42A0020702E0020840D0020CF
:1053DC00BC2D002040420F0080841E00D9840008A0
:1053EC009C1F00201901002009000020E40000206F
:1053FC0000ED00E00400FA0520000020FC2A00204B
:10540C00532B7FF4D3AAA378442B7FF4CFAAE37851
:10541C006521312B02BF0122064B83F86520E3780E
:10542C00302B02BF0022034B83F865200123024A74
:10543C009DE600BF280D00208D0D00202DE9F043C6
:10544C00A34AA44C136889B00133136023780D2B45
:10545C0033D8DFE813F00E0042005101D5003200C2
:10546C003200D101D40132003200D500D5006202E5
:10547C006902F12802D1012323701EE0E72805D12F
:10548C000122954B9A7002221A7016E00D281AD13F
:10549C009248FFF70BFA924A1368591C1160914A13
:1054AC000021D0540122904B1A701F238B4A013BD0
:1054BC0013F0FF0304D18D4A137009B0BDE8F083DB
:1054CC0002F8011BF3E70028F7D0884A83491378C8
:1054DC001C2BC854F1D80133EEE70E28EDD8DFE8C9
:1054EC0010F00F0015008F008F002F0034003A00D1
:1054FC007A0091009A00A900AE00B000BE00F50041
:10550C000223F1222370774B1A7080E00023784A33
:10551C0023701360FBF752F9F121714C714B226827
:10552C00050A9954012113449870DD70050C000E86
:10553C0059701D7158716C4B063222601970BCE7A2
:10554C0006232370F122674B9EE70723002223706A
:10555C00674B1A60F6E7F123614E624831685E4F83
:10556C004354062342185370624BFD78D3F834E051
:10557C0001F1020CBEF1004F0CBF4FF0100E4FF0BA
:10558C00000E754400F80C50DD6801F1070CD57065
:10559C00DD680C312D0A1571DD6831602D0C5571EB
:1055AC00DD682D0E95713D799F6BB7F1004F0CBFE7
:1055BC00102700273D4400F80C5018691072186928
:1055CC00000A507218691B69000C1B0E9072D37282
:1055DC000122454B13E0F1224148424B016817254B
:1055EC005A5407220B445A7057229A7001221D718B
:1055FC00DA705A719A710831DA713B4B01601A708A
:10560C00002339E7F122374B1A700A23237000224A
:10561C00374B1A6051E7F1203149324B0A689854E4
:10562C0009201344043258700A60DE20AD229870B1
:10563C00DA70CDE7F1222B4B1A700B23E6E70C2323
:10564C005FE7F1202649274B0A6898540C20134435
:10565C0003320A60274A587012799A70B8E7F1221F
:10566C00204B1D481A700D225A70224A4179D56B75
:10567C00B5F1004F0CBF10250025294499705169D4
:10568C00D9705169090A19715169090C597151691B
:10569C00090E99718179106CB0F1004F0CBF10207C
:1056AC0000200144D971916919729169090A5972E2
:1056BC0091699269090C120EDA72002299721A73AE
:1056CC005A739A73DA731A742270F6E60D233DE757
:1056DC000001002008010020481F0020BC01002010
:1056EC00500100207C1F002045010020F00000200C
:1056FC000C010020280D00209A4F9B4A3B681A444D
:10570C005070052B2ED8DFE803F003060C111F2375
:10571C00964B186018E0954A136843EA0020106015
:10572C0012E0924A136843EA0040F8E78F4A136884
:10573C0043EA00600028B4BF042300231060BCBF00
:10574C0020F00040506093603B6801333B60B4E64E
:10575C0000F00F00082888BF0822844B94BF186102
:10576C001A61F1E7814D2A6906329A4203D9804ABF
:10577C0013449876E8E7002601224FF400417D4857
:10578C002670FBF7C1FEEE607B4E294632467B4B02
:10579C007B48FBF785F90028D6D17A4B93F82D80FE
:1057AC00B8F1010FD0D1FBF709F82B69A6F1100C59
:1057BC0046F80C3C6B6846F8200C46F8183C2B68F5
:1057CC0086F8088046F81C3CEB68A6F1200446F8E5
:1057DC00103CAB686D4646F8143C6B4B1B7A7372ED
:1057EC00BCE80F000FC596E80F0085E80F0094E8A1
:1057FC000F00FEF755FBA7E75B4B587000E7594FBE
:10580C003B68072BA0D8DFE803F00406080A04065F
:10581C0008405E4B7DE75D4A7EE75C4A82E75B4D64
:10582C00584C2B6843EA0060286010B3FEF778FEF2
:10583C002A68554BC2F31301002AD9601CDA02F016
:10584C00C041B1F1C04F0BD10122E2704FF00042C8
:10585C005A630222227000221A72FEF7E9FF73E7E4
:10586C00500006D501220221E270002221705A63F9
:10587C00F2E70023E37067E70222227000225A63EA
:10588C001A72FEF7D5FF0123F4E7DFF800913D4DC6
:10589C00D9F8003043EA0060C9F8000068B33A4E0A
:1058AC0095F80380C0F313003061B8F1000F14D1E8
:1058BC00FEF736FED9F80030002B21DA03F0C04297
:1058CC00B2F1C04F12D101234FF000422B71B263E1
:1058DC0002222A703372FEF7ABFF00230C212370D7
:1058EC002B4A08232B4800F0F7FB2DE7590004D571
:1058FC000123C6F838802B71EAE700232B71ECE703
:10590C00C6F8388002234FF001082B7086F8088007
:10591C00FEF78EFF85F80480DFE7124A1249136800
:10592C000133C8541360C8E50E4D2B680B2B09D8F6
:10593C00DFE803F0060C1232060C1266060C129B02
:10594C00124B18602B6801332B60B6E50F4A1368B5
:10595C0043EA00201060F5E70C4A136843EA004064
:10596C00F8E700BF0C0100207C1F0020680100201C
:10597C008001002000080140A0010020B40100209B
:10598C005C1A0020481F0020280D0020F400002085
:10599C00340D0020BC2D0020384F394C3B6843EAB5
:1059AC000060386000B3E67823791E43CAD1FEF755
:1059BC00B7FD3B68002B1ADA03F0C042B2F1C04FBE
:1059CC000BD101234FF0004263712E4BDA6302229C
:1059DC0022701A72FEF72CFFB4E75A0004D501238B
:1059EC006371284BDE63F2E700236371AAE702229E
:1059FC00244B2270DE631A72FEF71AFF0123F4E7C0
:105A0C001E4F1F4C3B6843EA0060386000B3E378DC
:105A1C00002B97D1A688002E94D1FEF781FD3B6810
:105A2C00002B18DA03F0C042B2F1C04F09D10123A8
:105A3C004FF00042A371134B1A640222227003220E
:105A4C00C7E75B0004D50123A3710E4B1E64F4E77A
:105A5C000023A37176E7022303222370094B1E64F3
:105A6C001A72FEF7E5FE0123F3E7044A136843EAD2
:105A7C00006000231060237064E700BFF400002076
:105A8C00481F0020280D0020054A137A0133DBB291
:105A9C001372137A032B84BF00231372FEF7C8BE54
:105AAC00280D0020420882EA101282EAD00282EA13
:105ABC00501212F0010F0CBF80220022830883EADF
:105ACC005003434083EA10139B0103F0400313443B
