:020000040800F2
:10000000005000209D5000087D4C00087F4C0008E7
:10001000814C0008834C0008854C0008000000005B
:10002000000000000000000000000000874C0008F5
:10003000894C0008000000008B4C00088D4C000823
:10004000E5500008E5500008E5500008E5500008BC
:10005000E5500008E5500008E5500008E5500008AC
:10006000E5500008E5500008E5500008E55000089C
:10007000914C0008E55000089D4C0008E550000830
:10008000E5500008A94C0008E5500008B54C0008F0
:10009000C14C0008E5500008E5500008E550000894
:1000A000E5500008E5500008E5500008E55000085C
:1000B000E5500008E5500008E5500008E55000084C
:1000C000E5500008E5500008E5500008E55000083C
:1000D000E5500008C54C0008D14C0008DD4C000874
:1000E000E5500008E5500008E55000080000000059
:1000F0000000000000000000000000000000000000
:0C01000000000000000000005FF808F1A3
:10010C0010B5054C237833B9044B13B10448AFF345
:10011C0000800123237010BD10000020000000009F
:10012C008851000808B5034B1BB103490348AFF3D2
:10013C00008008BD00000000140000208851000859
:10014C00034613F8012B002AFBD1181A013870470B
:10015C0080F0004002E000BF81F0004142001FBF70
:10016C005FEA410392EA030F7FEA226C7FEA236C79
:10017C006AD04FEA1262D2EB1363C1BFD21841406E
:10018C0048404140B8BF5B42192B88BF704710F004
:10019C00004F40F4000020F07F4018BF404211F0A7
:1001AC00004F41F4000121F07F4118BF494292EA0F
:1001BC00030F3FD0A2F1010241FA03FC10EB0C003B
:1001CC00C3F1200301FA03F100F0004302D54942C8
:1001DC0060EB4000B0F5000F13D3B0F1807F06D375
:1001EC0040084FEA310102F10102FE2A51D2B1F16D
:1001FC00004F40EBC25008BF20F0010040EA030062
:10020C007047490040EB000010F4000FA2F101020E
:10021C00EDD1B0FA80FCACF1080CB2EB0C0200FA98
:10022C000CF0AABF00EBC25052421843BCBFD040E6
:10023C001843704792F0000F81F4000106BF80F460
:10024C0000000132013BB5E74FEA41037FEA226C23
:10025C0018BF7FEA236C21D092EA030F04D092F0EE
:10026C00000F08BF0846704790EA010F1CBF002022
:10027C00704712F07F4F04D1400028BF40F000407F
:10028C00704712F100723CBF00F50000704700F09F
:10029C00004343F0FE4040F4000070477FEA2262C6
:1002AC0016BF08467FEA23630146420206BF5FEA97
:1002BC00412390EA010F40F4800070474FF0000397
:1002CC0004E000BF10F0004348BF40425FEA000C5E
:1002DC0008BF704743F0964301464FF000001CE006
:1002EC0050EA010208BF70474FF000030AE000BF5C
:1002FC0050EA010208BF704711F0004302D540429A
:10030C0061EB41015FEA010C02BF8446014600200B
:10031C0043F0B64308BFA3F18053A3F50003BCFA26
:10032C008CF2083AA3EBC25310DB01FA02FC6344D3
:10033C0000FA02FCC2F12002BCF1004F20FA02F2DA
:10034C0043EB020008BF20F00100704702F12002CD
:10035C0001FA02FCC2F1200250EA4C0021FA02F22E
:10036C0043EB020008BF20EADC7070474FF0FF0C33
:10037C001CEAD0521EBF1CEAD15392EA0C0F93EA2E
:10038C000C0F6FD01A4480EA010C400218BF5FEAD0
:10039C0041211ED04FF0006343EA501043EA511143
:1003AC00A0FB01310CF00040B1F5000F3EBF49003D
:1003BC0041EAD3715B0040EA010062F17F02FD2A41
:1003CC001DD8B3F1004F40EBC25008BF20F0010024
:1003DC00704790F0000F0CF0004C08BF49024CEA3B
:1003EC00502040EA51207F3AC2BFD2F1FF0340EACD
:1003FC00C250704740F400004FF00003013A5DDC3E
:10040C0012F1190FDCBF00F000407047C2F100027E
:10041C00410021FA02F1C2F1200200FA02FC5FEA6B
:10042C00310040F1000053EA4C0308BF20EADC70B5
:10043C00704792F0000F00F0004C02BF400010F427
:10044C00000F013AF9D040EA0C0093F0000F01F0D4
:10045C00004C02BF490011F4000F013BF9D041EAF6
:10046C000C018FE70CEAD15392EA0C0F18BF93EAF8
:10047C000C0F0AD030F0004C18BF31F0004CD8D122
:10048C0080EA010000F00040704790F0000F17BFA9
:10049C0090F0004F084691F0000F91F0004F14D0EF
:1004AC0092EA0C0F01D142020FD193EA0C0F03D147
:1004BC004B0218BF084608D180EA010000F000404A
:1004CC0040F0FE4040F40000704740F0FE4040F425
:1004DC00400070474FF0FF0C1CEAD0521EBF1CEAC4
:1004EC00D15392EA0C0F93EA0C0F69D0A2EB0302E2
:1004FC0080EA010C49024FEA402037D04FF080537C
:10050C0043EA111143EA10130CF000408B4238BF40
:10051C005B0042F17D024FF4000C8B4224BF5B1A4E
:10052C0040EA0C00B3EB510F24BFA3EB510340EA9C
:10053C005C00B3EB910F24BFA3EB910340EA9C004A
:10054C00B3EBD10F24BFA3EBD10340EADC001B01BA
:10055C0018BF5FEA1C1CE0D1FD2A3FF650AF8B425E
:10056C0040EBC25008BF20F0010070470CF0004C6B
:10057C004CEA50207F32C2BFD2F1FF0340EAC25096
:10058C00704740F400004FF00003013A37E792F057
:10059C00000F00F0004C02BF400010F4000F013AB5
:1005AC00F9D040EA0C0093F0000F01F0004C02BFB0
:1005BC00490011F4000F013BF9D041EA0C0195E719
:1005CC000CEAD15392EA0C0F08D142027FF47DAFB2
:1005DC0093EA0C0F7FF470AF084676E793EA0C0FA2
:1005EC0004D14B023FF44CAF08466EE730F0004CA0
:1005FC0018BF31F0004CCAD130F000427FF45CAF30
:10060C0031F000437FF43CAF5FE700BF4FF0FF3C9D
:10061C0006E000BF4FF0010C02E000BF4FF0010CF0
:10062C004DF804CD4FEA40024FEA41037FEA226CB9
:10063C0018BF7FEA236C11D001B052EA530C18BFDB
:10064C0090EA010F58BFB2EB030088BFC81738BF40
:10065C006FEAE17018BF40F0010070477FEA226C2E
:10066C0002D15FEA402C05D17FEA236CE4D15FEA2A
:10067C00412CE1D05DF8040B704700BF844608465E
:10068C006146FFE70FB5FFF7C9FF002848BF10F11F
:10069C00000F0FBD4DF808EDFFF7F4FF0CBF012064
:1006AC0000205DF808FB00BF4DF808EDFFF7EAFFEE
:1006BC0034BF012000205DF808FB00BF4DF808EDA9
:1006CC00FFF7E0FF94BF012000205DF808FB00BF9E
:1006DC004DF808EDFFF7D2FF94BF012000205DF824
:1006EC0008FB00BF4DF808EDFFF7C8FF34BF012031
:1006FC0000205DF808FB00BF42000ED2B2F1FE4FA5
:10070C000BD34FF09E03B3EB126209D44FEA0023D4
:10071C0043F0004323FA02F070474FF0000070479B
:10072C0012F1610F01D1420202D14FF0FF3070473C
:10073C004FF00000704700BF38B50E4B05461878D7
:10074C004FF47A73B3FBF0F30B4A1068B0FBF3F081
:10075C0000F0FEFB044658B90F2D09D80246294675
:10076C004FF0FF3000F0A6FB044B20461D6038BD57
:10077C00012038BD000000200800002004000020EB
:10078C00074A08B51368032043F01003136000F008
:10079C007FFB0020FFF7D0FF04F048FA002008BDD3
:1007AC0000200240034A044B11681B780B44136071
:1007BC00704700BF7C00002000000020014B18682F
:1007CC00704700BF7C00002038B50446FFF7F6FFE9
:1007DC000546631C1EBF044B1B78E418FFF7EEFFA5
:1007EC00401B8442FAD838BD0000002038B50446BE
:1007FC0000286ED090F820300BB903F0C9FB2268AA
:10080C00136823F002031360FFF7D8FF0546236833
:10081C005A68910751D41A6842F001021A60FFF726
:10082C00CDFF054623685A68D20754D5227E002096
:10083C00012A1A680CBF42F0800222F080021A6072
:10084C00627E012A1A680CBF42F0400222F040027C
:10085C001A60A27E012A1A680CBF42F0200222F014
:10086C0020021A60E27E012A1A680CBF22F01002E4
:10087C0042F010021A60227F012A1A680CBF42F063
:10088C00080222F008021A60627F012A1A680CBF63
:10089C0042F0040222F004021A60E168A2680A43E2
:1008AC0021690A4361690A43616801390A43DA61C3
:1008BC000123606284F8203038BDFFF77FFF401BB6
:1008CC000A28A4D9636A43F400336362052384F8CD
:1008DC002030012038BDFFF771FF401B0A28A1D939
:1008EC00F0E790F8203070B5013B012B5FD8012464
:1008FC0003684869D3F8002242F00102C3F80022D1
:10090C0000F01F0204FA02F2D443D3F81C52254023
:10091C00C3F81C52CD6985BBD3F80C52CE68254068
:10092C00C3F80C528D8803EBC00045EA0645C0F8AD
:10093C0040528E680D8845EA0645C0F844528869D5
:10094C0068BBD3F804022040C3F80402086950BB0A
:10095C00D3F814022040C3F81402096A00200129BC
:10096C0002BFD3F81C120A43C3F81C22D3F800228E
:10097C0022F00102C3F8002270BD012DDFD1D3F8A3
:10098C000C520E681543C3F80C528D8803EBC00053
:10099C0045EA0645C0F840528E688D89CBE7D3F8FE
:1009AC0004021043D0E7D3F814021043D3E7436A90
:1009BC0043F480234362012070BD38B590F8203099
:1009CC000446012B1FD10223026880F820301368E3
:1009DC0023F001031360FFF7F1FE05462368586806
:1009EC0010F0010001D1606238BDFFF7E7FE401B3B
:1009FC000A28F3D9636A43F400336362052384F84D
:100A0C002030012038BD436A43F400234362F8E7E9
:100A1C0038B590F820300446022B22D102681368B6
:100A2C0043F001031360FFF7C9FE054623685A68BB
:100A3C00D20708D51A68002022F002021A6001239E
:100A4C0084F8203038BDFFF7B9FE401B0A28EDD9D9
:100A5C00636A43F400336362052384F82030012079
:100A6C0038BD436A43F480134362F8E710B504467B
:100A7C0070B1FFF7CDFF204603F0DEFA00202268AC
:100A8C00136843F400431360606284F8200010BDC7
:100A9C00012010BDF0B590F820500668013D012DE5
:100AAC00B46841D814F0E05F3AD0C4F30164032C6D
:100ABC004FF0010505D1436A43F400034362012062
:100ACC00F0BDA5401D608868CF6804F1180310BB09
:100ADC00086847EA40501B01F05008692401097D61
:100AEC003319C3F88401012908BFD3F884113444A5
:100AFC0004BF41F48071C3F8841151680020C4F81C
:100B0C008C111268C4F88821D3F8802142F00102BC
:100B1C00C3F88021F0BD4D68384340EAC500DAE7E0
:100B2C00436A43F40013C9E7436A43F48023C5E7DF
:100B3C00F0B590F82040013C012C6BD8066841B907
:100B4C00F468A40707D1436A43F4001343620120FD
:100B5C00F0BD3469F5E70C013519D5F8B07107F023
:100B6C0004079760002F4BD1D5F8B0717F0D17603B
:100B7C00D5F8B0712644C7F34007D760D5F8B471E7
:100B8C0007F00F071761D5F8B471D5F8B451C7F356
:100B9C0007272D0C97615561D6F8B8211A70026899
:100BAC002244D2F8B821120A5A7002682244D2F8B0
:100BBC00B821120C9A7002682244D2F8B821120E95
:100BCC00DA7002682244D2F8BC211A7102682244FD
:100BDC00D2F8BC21120A5A7102682244D2F8BC2104
:100BEC00120C9A7102681444D4F8BC21120EDA71FA
:100BFC00036851B9DA6842F02002DA600020F0BDD7
:100C0C00D5F8B071FF085760B2E71A6942F02002BC
:100C1C001A61F3E7436A43F4802397E790F8203096
:100C2C00013B012B05D8026800205369194351611F
:100C3C007047436A43F48023436201207047704736
:100C4C007047704770477047704770472DE9F84FF1
:100C5C00036805465E69D3F8049016F001049F689A
:100C6C00D3F80CB0D3F810A0D3F8188022D017F01A
:100C7C00010407D00122B9079A6040F1A38001F06A
:100C8C00AFFF0024FB0509D54FF480722B68B80523
:100C9C009A6040F1A580284601F0A3FFFB0309D51B
:100CAC004FF480322B68B8039A6040F1A780284635
:100CBC0001F098FF330707D51BF0100F1FBF102250
:100CCC002B6844F40074DA60770708D51BF0080F22
:100CDC0005D008222B682846DA60FFF7B3FFB0076F
:100CEC0006D52B68DB68990702D0284603F058FC20
:100CFC00720607D51AF0100F1FBF10222B6844F490
:100D0C0080641A61B30608D51AF0080F05D00822C2
:100D1C002B6828461A61FFF796FFF70606D52B6855
:100D2C001B69980702D0284603F012FCB10308D5C2
:100D3C0019F0100F05D010222B6828465A60FFF7C7
:100D4C0083FFF20308D519F0080F05D008222B6891
:100D5C0028465A60FFF779FF33042AD519F0040F9F
:100D6C002A6824D0F70504D518F0010F18BF44F0F9
:100D7C000104B00504D518F0020F18BF44F00204AA
:100D8C00710504D518F0040F18BF44F004043305A2
:100D9C000DD518F070030AD0302B4CD03CD8102B4A
:100DAC0043D0202B44D0936923F070039361042328
:100DBC0053602CB16B6A28461C436C6201F014FF23
:100DCC00BDE8F88F7A0705D417F0080405D1FFF7B2
:100DDC0036FF57E74FF4006454E74FF4805451E763
:100DEC00790502D544F4005458E73A0502D544F489
:100DFC00804453E72846FFF723FF4FE7790302D5DA
:100E0C0044F4004456E73A0302D544F4803451E7E5
:100E1C002846FFF716FF4DE7502B0FD0602B10D054
:100E2C00402BC0D144F04004BDE744F00804BAE7BD
:100E3C0044F01004B7E744F02004B4E744F0800415
:100E4C00B1E744F48074AEE790F82030DBB25A1E60
:100E5C00012A08D802685168890706D4126812F072
:100E6C00020F18BF0323184670470423FBE7406AA0
:100E7C00704790F82030013B012B95BF0023436A4B
:100E8C00436243F4802392BF1846436201207047AB
:100E9C00074A0002D36800F4E06023F4E0631B040B
:100EAC001B0C43F0BF6343F400330343D360704720
:100EBC0000ED00E0174B30B5DC68C4F30224C4F13C
:100ECC000703251D042B28BF0423062D4FF0010515
:100EDC0098BF002405FA03F303F1FF3388BF033CEA
:100EEC001940A14005FA04F4013C2240002842EAD2
:100EFC0001024FEA0212AFBF00F16040064B00F056
:100F0C000F00D2B2A5BFD2B200F561401A5480F8DE
:100F1C00002330BD00ED00E014ED00E00123420998
:100F2C0000F01F0003FA00F0014B43F82200704759
:100F3C0000E100E00122430900F01F0002FA00F07A
:100F4C00024A203342F82300704700BF00E100E062
:100F5C000138B0F1807F0AD2F021064B064A586066
:100F6C0082F823100020072298601A607047012035
:100F7C00704700BF10E000E000ED00E010B530B3AA
:100F8C0014220168134B84680B44B3FBF2F39B00EF
:100F9C000364114B0A68C363436822F47F522343F2
:100FAC00C46822F030022343046923434469234379
:100FBC0084692343C469234313430B600122002338
:100FCC0080F82120836380F82030184610BD012062
:100FDC0010BD00BFF8FFFDBF0000024010B508B304
:100FEC000168114A0B680A4423F001030B600023CB
:100FFC000B604B608B60CB601421B2FBF1F20121D2
:10100C000A4C9200026401FA02F2C46362608362C9
:10101C00C36203634363836380F8213080F820301C
:10102C00184610BD012010BDF8FFFDBF00000240A6
:10103C00F0B590F82040012C35D0012490F82150C7
:10104C0080F82040A5424FF000064FF0020428D152
:10105C0080F82140046886632668076C26F0010638
:10106C002660C66BBD407560636043680568102BD5
:10107C00C36A0BBFA260A160E160E2604BB1236860
:10108C0043F00E0323602B68002043F001032B6018
:10109C00F0BD236823F004032360236843F00A03A4
:1010AC00F0E780F820600220F0BD000090F82130BD
:1010BC0010B5022B03D004238363012010BD0368F9
:1010CC001A6822F00E021A601A6822F001021A60E5
:1010DC00184A93421FD0143293421ED014329342BA
:1010EC001DD0143293421DD0143293421DD01432B1
:1010FC0093420CBF4FF480134FF080730E4A0024C0
:10110C005360012380F82130436B80F820407BB181
:10111C009847204610BD0123F0E71023EEE74FF46B
:10112C008073EBE74FF48053E8E74FF48033E5E747
:10113C00184610BD080002400000024070B404259F
:10114C00C66B026C3468036895402542196832D02E
:10115C004D0730D51A6896065EBF1A6822F0040255
:10116C001A603E4A934219D01432934218D014326A
:10117C00934217D01432934217D01432934217D0A3
:10118C00143293420CBF4FF480034FF08063344A07
:10119C005360C36A002B5ED070BC18470423F6E77B
:1011AC004023F4E74FF48063F1E74FF48043EEE71C
:1011BC004FF48023EBE702259540254235D08D076F
:1011CC0033D51A68940606D41A6822F00A021A60FB
:1011DC00012280F82120214A934219D014329342E3
:1011EC0018D01432934217D01432934217D01432C1
:1011FC00934217D0143293420CBF4FF400134FF0AC
:10120C000073174A5360002380F82030836AC1E7CB
:10121C000223F6E72023F4E74FF40073F1E74FF4D1
:10122C000053EEE74FF40033EBE7082595402542D9
:10123C0011D009070FD5196821F00E01196001238F
:10124C0003FA02F27260836380F82130002380F885
:10125C002030036B9EE770BC704700BF0800024053
:10126C00000002402DE9F74F00221646654BDFF8CF
:10127C00A4E1DFF8A4C14FF001080C6808FA06F8E5
:10128C0008EA0404A0457FD14D68122D00F0AF8010
:10129C0000F28880022D00F0A7807CD8002D00F091
:1012AC008E80012D00F09E804FF00F09FF2C93BF14
:1012BC00824606F18045083DD0F800B092BFB500DB
:1012CC00D0F804B0AD0009FA05F82BEA080802FAC8
:1012DC0005F588BF00F1040A48EA0505CAF8005074
:1012EC00D1F804A01AF0805F4ED0474D464FAD693F
:1012FC0026F0030845F00105BD61BD6908F1804881
:10130C0005F00105019508F5803806F0030B019DE9
:10131C004FEA8B0BD8F8085009FA0BF925EA0909A2
:10132C003A4DA84268D005F58065A84266D005F50F
:10133C008065A84264D005F58065A8420CBF0325E2
:10134C00042505FA0BF545EA0905C8F808501D688F
:10135C001AF4803F14BF2543A5431D605D681AF441
:10136C00003F14BF2543A5435D609D681AF4801FA0
:10137C0014BF2543A5439D60DD681AF4001F14BFFC
:10138C002C4325EA0404DC600136102E7FF473AF85
:10139C0003B0BDE8F08F032D22D0112D84D1CA6883
:1013AC00043281E71A4FBD4209D012D8DFF86C9095
:1013BC004D4504D009F580394D457FF475AF8A68E9
:1013CC00C2B1012A0CBFC0F81080C0F814800822EA
:1013DC006AE77545F3D06545F1D0DFF84490EBE74B
:1013EC00002261E7CA685FE7CA6808325CE7CA682E
:1013FC000C3259E7042257E70025A2E70125A0E7A4
:10140C0002259EE700040140001002400008014044
:10141C0000002110000031100000321000001110EB
:10142C00000022102DE9F04F00224FF001094FF07F
:10143C000F0C4FF0040A304CDFF8C4B031FA02F351
:10144C0001D1BDE8F08F09FA02F30B404CD0FF2B11
:10145C0098BF07466FEA030385BF02F18045083D3C
:10146C00D0F800E0D0F804E094BF9500AD000CFA81
:10147C0005F62EEA06060AFA05F588BF071D2E4367
:10148C003E60C56802F003071D40C56022F00305ED
:10149C0005F1804505F58035AE68BF000CFA07F8FC
:1014AC0006EA080E154EB04220D006F58066B04212
:1014BC001ED006F58066B0421CD058450CBF0326E2
:1014CC000426BE40B6450FD1AE6826EA0806AE60CB
:1014DC0025681D40256065681D406560A5681D4038
:1014EC00A560E5682B40E3600132A7E70026E8E73A
:1014FC000126E6E70226E4E700040140000801406B
:10150C00001401408368194214BF01200020704769
:10151C000AB1016170470904FBE7C3685940C16017
:10152C00704700000122014B1A60704720000E42E8
:10153C0003682DE9F341DB07054610D42B689F07A0
:10154C005ED42B68190700F195802B685A0700F1BF
:10155C00BF80EA69002A40F02D81002014E0904CF5
:10156C00636803F00C03042B07D0636803F00C03CF
:10157C00082B0CD16368DE0309D523689C03DDD5E9
:10158C006B68002BDAD1012002B0BDE8F0816B68EA
:10159C00B3F5803F10D1236843F480332360FFF709
:1015AC000DF9064623689803C8D4FFF707F9801B8A
:1015BC006428F7D90320E7E79BB9236823F4803329
:1015CC002360236823F480232360FFF7F7F8064693
:1015DC0023689903B2D5FFF7F1F8801B6428F7D97B
:1015EC00E8E7B3F5A02F236803D143F480232360ED
:1015FC00D1E723F480332360236823F48023CDE7E1
:10160C00674C636813F00C0F07D0636803F00C038E
:10161C00082B10D16368DA030DD423689B0702D51D
:10162C002B69012BAFD123686A6923F0F80343EAD5
:10163C00C203236085E72A695A4B6AB101221A60FA
:10164C00FFF7BCF8064623689F07ECD4FFF7B6F803
:10165C00801B0228F7D9ADE71A60FFF7AFF80646F2
:10166C00236898077FF56DAFFFF7A8F8801B022859
:10167C00F6D99FE7AA694A4C4B4BDAB101221A60A2
:10168C00FFF79CF80646636A9B070DD54FF4FA5298
:10169C00464B1B68B3FBF2F3019300BF019B5A1E30
:1016AC000192002BF9D150E7FFF788F8801B022834
:1016BC00E9D97FE71A60FFF781F80646636A9F074E
:1016CC007FF543AFFFF77AF8801B0228F6D971E754
:1016DC00334CE369D80024D40127E36943F08053E9
:1016EC00E361E36903F080530093009B304E336851
:1016FC00D90518D5EB68012B26D1236A43F00103D9
:10170C002362FFF75BF841F288368046236A9B0719
:10171C003FD5002F3FF41DAFE36923F08053E36105
:10172C0017E70027E2E7336843F480733360FFF771
:10173C0045F880463368DA05DCD4FFF73FF8A0EBB8
:10174C0008006428F6D935E7ABB9236A41F288382A
:10175C0023F001032362236A23F004032362FFF7BF
:10176C002DF80646236A9807D3D5FFF727F8801B78
:10177C004045F7D91EE7052B236A03D143F0040338
:10178C002362BAE723F001032362236A23F00403E4
:10179C00B6E7FFF713F8A0EB0800B042B6D909E79B
:1017AC000010024000004242800442420800002027
:1017BC0000700040224C636803F00C03082B3FF4CC
:1017CC00E2AE00231F4E022A33602BD1FEF7F6FF48
:1017DC000746236899011FD42B6AB3F5803F05D1C6
:1017EC006268A96822F400320A436260696A62681E
:1017FC000B4322F474121343636001233360FEF72E
:10180C00DDFF054623689A013FF5A7AEFEF7D6FF2C
:10181C00401B0228F6D9CDE6FEF7D0FFC01B0228EC
:10182C00D7D9C7E6FEF7CAFF054623689B017FF5AB
:10183C0094AEFEF7C3FF401B0228F6D9BAE600BFF0
:10184C00001002406000424230B5194B87B002AC28
:10185C0003F11005224618685968083303C2AB42DD
:10186C001446F7D101238DF80430022311498DF869
:10187C0005304B6803F00C02082A17D1C3F38342DE
:10188C0006A80244DB0312F8102C0CD54B680A484E
:10189C00C3F34043504306AA134413F8143CB0FB63
:1018AC00F3F007B030BD05485043FAE70248F8E7BB
:1018BC00A05100080010024000127A0000093D00FF
:1018CC00544A2DE9F0411368054603F007038B4297
:1018DC000E462AD329688C0734D4CA0747D44D4AFC
:1018EC00136803F007039E42C0F082802A684A4CBA
:1018FC0012F0040F40F08780130706D563682A693D
:10190C0023F4605343EAC2036360FFF79DFF6368EF
:10191C00424AC3F30313D35CD840414B18600020F8
:10192C00FEF70AFF0020BDE8F081136823F00703DF
:10193C000B431360136803F007039942CAD00120CC
:10194C00BDE8F081344B11F0040F1EBF5A6842F40D
:10195C00E0625A60080742BF5A6842F460525A600B
:10196C005A68A86822F0F00202435A60B5E76A6828
:10197C00294C012A23681CD113F4003FDFD0636883
:10198C0041F2883823F0030313436360FEF716FF1C
:10199C006B680746012B14D1636803F00C03042B0E
:1019AC009DD0FEF70BFFC01B4045F5D90320BDE8C9
:1019BC00F081022A02D113F0007FDFE713F0020F4F
:1019CC00DCE7022B0FD1636803F00C03082B86D0E5
:1019DC00FEF7F4FEC01B4045F5D9E7E7FEF7EEFE37
:1019EC00C01B4045E2D8636813F00C0FF6D176E7C4
:1019FC00136823F0070333431360136803F00703E2
:101A0C009E429CD172E76368E96823F4E0630B4360
:101A1C00636071E700200240001002406B55000823
:101A2C0008000020044B054A5B68C3F30223D35C17
:101A3C00034A1068D8407047001002407B550008DC
:101A4C0008000020044B054A5B68C3F3C223D35C37
:101A5C00034A1068D8407047001002407B550008BC
:101A6C000800002003682DE9F341D907054620D56D
:101A7C00354CE369DA0032D40127E36943F0805333
:101A8C00E361E36903F080530193019B2F4E3368AC
:101A9C00DB0526D5236A13F4407336D1236A6A68B2
:101AAC0023F44073134323621FB1E36923F0805383
:101ABC00E3612868830706D5234AA968536823F491
:101ACC0040430B43536010F010001BD01E4AE968D2
:101ADC005368002023F480030B43536012E000276B
:101AEC00D4E7336843F480733360FEF767FE8046B7
:101AFC003368D805CED4FEF761FEA0EB080064284D
:101B0C00F6D9032002B0BDE8F0816A6802F4407295
:101B1C009342C3D001200E4A236A1060002023F4A4
:101B2C00407110602162D907B8D5FEF747FE41F22B
:101B3C0088380646236A9A07B0D4FEF73FFE801B0E
:101B4C004045F7D9DDE700BF0010024000700040AF
:101B5C004004424270B50446354B86B002AD03F1E9
:101B6C0010062A4618685968083303C2B342154652
:101B7C00F7D101238DF8043002239C428DF80530F7
:101B8C0047D0102C17D0012C4FD140F20231294AEA
:101B9C00136A1940B1F5817F44D003F44073B3F557
:101BAC00007F2DD149F64040536A13F0020F08BF55
:101BBC00002006B070BD1F4B5968186810F080707B
:101BCC00F7D0C1F3834206A8024412F8100CCA03E2
:101BDC0041BF5A6806A9C2F34042521844BF12F8DA
:101BEC00141C154A5B684CBFB2FBF1F2134A5B0242
:101BFC0002FB00F0DDD403234000B0FBF3F0D8E788
:101C0C00B3F5407F11D113684FF2244013F4003F19
:101C1C00CDE7FFF717FF074B5B68C3F38133013345
:101C2C005B00EAE74FF40040C3E70020C1E700BFC8
:101C3C00B05100080010024000127A0000093D006B
:101C4C0038B50446FEF7BAFD054623685A68920675
:101C5C0005D55A68002042F010025A6038BDFEF7D4
:101C6C00ADFD401BB0F57A7FEFD9032038BD02687B
:101C7C0038B55368044623F010035360FEF79EFDFD
:101C8C00054623685B689B0601D5002038BDFEF72E
:101C9C0095FD401BB0F57A7FF3D9032038BD38B5DC
:101CAC000446A8B10268536823F008035360FEF79A
:101CBC0085FD054623685B681B0701D5002038BDF0
:101CCC00FEF77CFD401BB0F57A7FF3D9032038BDBD
:101CDC00012038BD10B5044670B1437C03F0FF02FF
:101CEC0013B9027402F026FF022320466374FFF737
:101CFC00D6FF18B104236374012010BD2046FFF7F2
:101D0C009FFF0028F6D12268A068536823F00703D0
:101D1C005360174A18B1116B21F001011163D36A9A
:101D2C0023F460730343D3626068431C05D1012024
:101D3C00FFF710FF0028DDD001382268936823F0EC
:101D4C000F0343EA10439360D36880B21B0C1B044F
:101D5C001843D0602046FFF78AFF012310B10422FC
:101D6C006274C9E7E0736373A373637410BD00BF3F
:101D7C00006C00402DE9F0410446884617461D468C
:101D8C00069E2268936838EA03030CBF01230023E4
:101D9C009F4202D10020BDE8F0816B1CF2D055BBF4
:101DAC0023685A6822F0E0025A606268B2F5827FBA
:101DBC000AD1A268B2F5004F02D0B2F5806F03D100
:101DCC001A6822F040021A60A26AB2F5005F09D1CB
:101DDC001A6822F400521204120C1A601A6842F4A7
:101DEC0000521A60012384F851300023032084F838
:101DFC005030BDE8F081FEF7E1FC801B8542C0D875
:101E0C00CEE713B50B460092802100220446FFF763
:101E1C00B1FF20B10320636D43F02003636502B072
:101E2C0010BD2DE9FF411E4690F850300446012BA1
:101E3C000D46904600F09C80012380F85030FEF750
:101E4C00BDFC074694F85100C0B2012840F08E80CA
:101E5C00002D4ED0B8F1000F4BD0032384F8513035
:101E6C0000236365A363A4F83680A387E3876364C8
:101E7C002364A3682563B3F5004F2368A4F834806A
:101E8C0002BF1A6842F480421A601A6852065EBF9A
:101E9C001A6842F040021A60E268B2F5006F62689C
:101EAC0038D11AB1E28E92B2012A06D135F8022B42
:101EBC00DA60E38E013B9BB2E386E38E9BB293B96F
:101ECC0000973346012202212046FFF753FF78B9D1
:101EDC003A4631462046FFF794FF002838D020239D
:101EEC000120636505E023689A689007DED44EB93B
:101EFC000320012384F85130002384F8503004B0BF
:101F0C00BDE8F081711CD8D0FEF758FCC01B86428E
:101F1C00D3D8EDE71AB1E28E92B2012A06D115F8A8
:101F2C00012B1A73E38E013B9BB2E386E38E9BB2CB
:101F3C00002BC5D023689A689207F0D4002ED7D016
:101F4C00731CF3D0FEF73AFCC01B8642EED8CFE7E9
:101F5C00A36833B903932368DA6803929B680393ED
:101F6C00039B606D003018BF0120C2E70220C0E760
:101F7C000220C4E72DE9F043994690F8503085B023
:101F8C00012B04460D4616460C9F00F0EE800123F3
:101F9C0080F85030FEF712FC94F851308046DBB2DA
:101FAC00012B61680AD0B1F5827F40F0DC80A26819
:101FBC00002A40F0D880042B40F0D580002D4ED064
:101FCC00002E4CD0B9F1000F49D094F85130A663D3
:101FDC00012B04BF052384F851300023636523646F
:101FEC0063642368A4F83E90A4F836901A68A4F8A9
:101FFC003C90500658BF1A68256358BF42F0400207
:10200C00A4F8349058BF1A60E268B2F5006F5DD145
:10201C0019B1E28E92B2012A06D135F8022BDA60A0
:10202C00E38E013B9BB2E3864FF00109E38E9BB23A
:10203C00BBB9E38F9BB2A3B9CDF800803B4601221C
:10204C0002212046FFF796FE002835D1424639463C
:10205C002046FFF7D6FE00287AD0202363650120A6
:10206C002BE0B9F1000F0FD0E38E9BB263B1236864
:10207C009A68910708D54FF0000935F8022BDA6001
:10208C00E38E013B9BB2E386E38F9BB263B1236883
:10209C009A68D20708D54FF00109DB6826F8023B95
:1020AC00E38F013B9BB2E387781CBFD0FEF786FB26
:1020BC00A0EB08008742B9D80320012384F85130E3
:1020CC00002384F8503005B0BDE8F08319B1E28EDE
:1020DC0092B2012A06D115F8012B1A73E38E013B3B
:1020EC009BB2E3864FF00109E38E9BB21BB9E38FE1
:1020FC009BB2002BA0D0B9F1000F0FD0E38E9BB296
:10210C0063B123689A68910708D54FF000092A78C3
:10211C0001351A73E38E013B9BB2E386E38F9BB2CE
:10212C006BB123689A68D20709D54FF00109DB68B7
:10213C00013606F8013CE38F013B9BB2E3877B1C25
:10214C00D2D0FEF73BFBA0EB08008742CCD8B3E71C
:10215C00A368002BB1D123680390DA6803929B68C3
:10216C000393039BA9E70220A7E70220ABE72DE925
:10217C00F3411E4643680446B3F5827F0D469046F4
:10218C000CD1836853B9042380F851301346009660
:10219C000A46FFF7EFFE02B0BDE8F08194F850302C
:1021AC00012B00F08180012384F85030FEF706FBF0
:1021BC00074694F85100C0B2012873D1002D58D0B5
:1021CC00B8F1000F55D0042384F851300023636517
:1021DC002363A4F83E80A386E38623646364A36828
:1021EC00A563B3F5004F2368A4F83C8002BF1A68BE
:1021FC0022F480421A601A6852065EBF1A6842F0D6
:10220C0040021A60E368CBB1E38F9BB2D3B1236871
:10221C009A68D2073CD5DB6825F8023BE38F013B7B
:10222C009BB2E387F0E723689A68D0071FD51B7B26
:10223C0005F8013BE38F013B9BB2E387E38F9BB235
:10224C00002BF0D16368B3F5827F0BD1A368B3F593
:10225C00004F02D0B3F5806F04D12268136823F0CD
:10226C0040031360606D003018BF012001E03EB9DF
:10227C000320012384F85130002384F850308AE77E
:10228C00711CDBD0FEF79AFAC01B8642D6D8EFE75A
:10229C00002EEDD0731CB7D0FEF790FAC01B86420F
:1022AC00B2D8E5E70220E4E7022074E710B5044653
:1022BC00002834D00023836290F851300BB902F01F
:1022CC0079FC0223216884F851300B68A06823F054
:1022DC0040030B606368A2690343E0680343206911
:1022EC00034360690343E0690343206A0343A06A24
:1022FC00034302F4007003430B60120C636A02F098
:10230C0004021A43E36A4A600B61CB69002023F490
:10231C000063CB610123606584F8513010BD01204E
:10232C0010BD0368DA6822F49072DA605A6922F000
:10233C0001025A61202380F83A3070472DE9F047AA
:10234C000568C2682B69016923F4405313432B6160
:10235C008368EA680B43416922F4B05222F00C0204
:10236C000B431343EB606B69826923F44073134393
:10237C006B61404B81469D424FF0190446D1FFF7EB
:10238C0061FB04FB00F3D9F804604FF06408B6005D
:10239C00B3FBF6F3B3FBF8F31E01FFF753FB6043FB
:1023AC00D9F804309B00B0FBF3F7FFF74BFB60430D
:1023BC00D9F804309B00B0FBF3F3B3FBF8F308FB44
:1023CC0013731B013233B3FBF8F303F0F007FFF781
:1023DC0039FB6043D9F804209200B0FBF2FAFFF706
:1023EC0031FB6043D9F804309B00B0FBF3F3B3FB33
:1023FC00F8F308FB13A31B013233B3FBF8F303F020
:10240C000F033B433344AB60BDE8F087FFF70AFB97
:10241C0004FB00F3D9F804604FF06408B600B3FB7A
:10242C00F6F3B3FBF8F31E01FFF7FCFA6043D9F89F
:10243C0004309B00B0FBF3F7FFF7F4FA6043D9F8D4
:10244C0004309B00B0FBF3F3B3FBF8F308FB1373FE
:10245C001B013233B3FBF8F303F0F007FFF7E2FA9A
:10246C006043D9F804209200B0FBF2FAFFF7DAFAD5
:10247C00B7E700BF0038014010B5044640B390F8F0
:10248C00393003F0FF021BB980F8382002F0C4FC8D
:10249C002423226884F83930D368204623F400536F
:1024AC00D360FFF74BFF236800201A6922F4904297
:1024BC001A615A6922F02A025A61DA6842F400520F
:1024CC00DA602023E06384F8393084F83A3010BDA8
:1024DC00012010BD38B50D460446002831D090F8C7
:1024EC00393003F0FF021BB980F8382002F094FC5D
:1024FC002423226884F83930D368204623F400530F
:10250C00D360FFF71BFF236800201A6922F40062D6
:10251C001A615A6922F02A025A611A6942F48042FD
:10252C001A61196921F0200129431961DA6842F412
:10253C000052DA602023E06384F8393084F83A30B2
:10254C0038BD012038BD10B5044668B1242380F88D
:10255C00393002F053FD0020E06384F8380084F831
:10256C00390084F83A0010BD012010BD38B504467E
:10257C00134694F83920202A2AD139B333B394F86E
:10258C003820012A24D00122002584F83820212269
:10259C00E384206BE56384F839200E4AA38421621E
:1025AC0082620D4A4563C2620C4A0263226804329D
:1025BC00FEF73EFD6FF04002236828461A605A6908
:1025CC0084F8385042F080025A6138BD012038BD81
:1025DC00022038BDED2500081B260008A5260008A2
:1025EC0008B50368426A1B6813F020030AD1D38430
:1025FC0013685A6922F080025A61DA6842F040028C
:10260C00DA6008BD104601F09BFF08BD704708B5A5
:10261C00406AFFF7FBFF08BD704790F83A3010B5E1
:10262C00222B36D183680169B3F5805F0268836A17
:10263C0023D15268E9B9C2F3080223F8022B836252
:10264C00C48D013CA4B2C4858CB90368DA6822F04D
:10265C002002DA60DA6822F48072DA605A6922F0B9
:10266C0001025A61202380F83A30FFF7D5FF002091
:10267C0010BDD2B223F8012BE1E721B9591C5268E5
:10268C0081621A70DCE75268591C816202F07F0289
:10269C00F7E7022010BD7047416A08B50B685A690C
:1026AC0091F8390021280AD1120608D50022CA84D3
:1026BC00DA6822F0C002DA60202281F839205B69E6
:1026CC0091F83A20222A06D15B0604D5002308464D
:1026DC00CB85FFF726FECB6B084643F01003CB638C
:1026EC00FFF7D9FF08BD0000036870B51A680446EF
:1026FC001607D9685D6907D196065AD58D0658D547
:10270C00BDE87040FFF789BF15F0010502D111F447
:10271C00907F4ED0D30705D5CE0542BFE36B43F077
:10272C000103E363500704D51DB1E36B43F00203CF
:10273C00E363930704D51DB1E36B43F00403E36338
:10274C00160704D51DB1E36B43F00803E363E36B99
:10275C00002B66D0950604D5880602D52046FFF7D7
:10276C005CFF236820465D69E26B110702D415F00B
:10277C0040051AD0FFF7D5FD23685A69520610D5CB
:10278C005A69606B22F040025A6150B1254B436389
:10279C00FEF78CFC002844D0606BBDE87040436BA6
:1027AC0018472046FFF777FF70BDFFF774FFE5630E
:1027BC0070BD160627D50D0625D594F83920212A8B
:1027CC002FD1A268B2F5805F226A17D11188C1F3AC
:1027DC0008015960216979B902322262E28C013A0E
:1027EC0092B2E284EAB9DA6822F08002DA60DA683E
:1027FC0042F04002DA6070BD0132EEE7511C2162FA
:10280C0012785A60EAE750060BD54A0609D5DA6801
:10281C00204622F04002DA60202384F8393001F09F
:10282C008FFE70BD3528000808B50023406AC385AB
:10283C00C384FFF730FF08BD0022014B1A607047BC
:10284C00F000002084B0F0B5144F05AC7E8884E80D
:10285C000F003B889E4228BF3C339B1B9BB2012B35
:10286C0019D9282404FB067405AD08340FCD0FC408
:10287C000FCD0FC495E803003A2E88BF002684E8DC
:10288C0003004FF000009CBF0136B6B27E80BDE85D
:10289C00F04004B070470220F9E700BFF0000020C0
:1028AC00602804D92738C0B23038C0B270474028ED
:1028BC00FAD90738F7E760280CD92738C0B2303876
:1028CC006029C0B20AD92739C9B2303941EA00109F
:1028DC00C0B270474028F2D90738EFE74029F4D945
:1028EC000739F1E70309092B00F00F0094BF3033CF
:1028FC003733092894BF303037300B70487070472D
:10290C0084B02DE9F84308AC84E80F00564B074619
:10291C00DDE909081C78139A012C0B990D9D1E46B4
:10292C006BD10C9C002945D1002C41D17423010A98
:10293C0009291370CBB294BF30333733DBB2911CFF
:10294C005370C0B2FFF7CEFF0421EBB2092D94BF38
:10295C0030333733DBB201F10108535444B902F17F
:10296C00010989446300AC4209EB03013DD1984451
:10297C0073789BB14EF66021B7FBF1F301FB137733
:10298C0002EB0801C7F30720FFF7ACFF08F10201C7
:10299C001144F8B2FFF7A6FF08F104080D2308F163
:1029AC00010002F8083080B2BDE8F84304B070476B
:1029BC007223BCE7BCB95423511C13704FEA186046
:1029CC00FFF790FFC8F30740D11CFFF78BFFC8F34C
:1029DC000720511DFFF786FF5FFA88F0D11DFFF726
:1029EC0081FF0921B1E75223E6E708AB234493F8B2
:1029FC002000FFF777FF0134B4E7022C2FD19B782E
:102A0C007BB3F123042911461370184B08BF48F00F
:102A1C0000401B7A977053703B0AD3703B0C1371B8
:102A2C00030AD371030C1372129B907105EB031301
:102A3C003F0E000E5771507201F80A3F0023AB4253
:102A4C0005D11A4403F10C000023D372ABE708A89C
:102A5C00184490F82000013301F8010FEFE7002033
:102A6C00A1E718469FE700BF80000020580A00200D
:102A7C002DE9F041184E88B034887388A34227D0D2
:102A8C00282303FB046400236D46DFF8548006936F
:102A9C00CDF81C8004F1080718340FCC0FC594E84E
:102AAC00030085E8030097E80F00FFF729FF0B4BA5
:102ABC00024641461868FFF759FD58B933883A2B3E
:102ACC008EBF034601339BB2338008B0BDE8F08162
:102ADC000220FAE70120F8E7F0000020D8180020C7
:102AEC004F18002000B58BB0A1B99AB90123CDE9DC
:102AFC000522CDE90022CDE90733CDE9022204926B
:102B0C0069460C48FDF7EDFE003018BF01200BB0F4
:102B1C005DF804FBCDE905320B0C0293030C00931A
:102B2C000123CDE90733002389B280B203910190D0
:102B3C000493E5E7BC0A002010B50748FDF796FFA3
:102B4C00044638B902464FF480710448FEF7E0FCA5
:102B5C00204610BD0124FBE7BC0A00200008014000
:102B6C0010B5FFF7E9FF002280211948FEF7D0FCD1
:102B7C00002240211648FEF7CBFC002220211448ED
:102B8C00FEF7C6FC002210211148FEF7C1FC3220D2
:102B9C00FDF71AFE0F4B1B7A032B08D8DFE803F066
:102BAC00020F1215012280210948FEF7B1FCBDE885
:102BBC0010400123084A0821084801F015BB0122E6
:102BCC004021F1E701222021EEE701221021EBE761
:102BDC00000C0140580A0020600A002074190020E3
:102BEC00704770477047000001224FF48071014814
:102BFC00FEF78EBC000801402DE9F04F894685B0E8
:102C0C000290464948461746FDF76CFD00287FD1D7
:102C1C0043494846FDF748FD002879D1002300932D
:102C2C004FF07E530546DFF800A101930298FDF7A3
:102C3C0045FB013504462846FDF740FB4946FDF7A8
:102C4C0095FB01462046FDF745FC064602F072FA5C
:102C5C00FDF752FD072804465AD9192855D8FDF717
:102C6C002DFB014683463046FDF776FA20F00046F0
:102C7C002C493046FDF718FD00B100265146584648
:102C8C00FDF774FB02F056FA4FF07E51FDF764FA33
:102C9C00FDF732FD013C10288046A4EB000434D82B
:102CAC00082C32D824B9002835D0012400F1FF3883
:102CBC0008F10100FDF702FB5946FDF70BFC0199E9
:102CCC0083463046FDF7F0FCC8B900213046FDF7CD
:102CDC00E1FCD0B151465846FDF73EFA514620F082
:102CEC00004200980392FDF737FA039A20F0004156
:102CFC001046FDF7D9FC40B17A69A24205D1C7E96B
:102D0C0004847D60CDF800B00196B5F5806F8DD14F
:102D1C0005B0BDE8F08F0446CAE700BF0024744A32
:102D2C000000FA44ACC527370000603F38B54CF2C0
:102D3C00503398420D463F4C6ED025D842F210735A
:102D4C0098426BD00FD841F2883398426AD042F245
:102D5C008D03984269D0FDF7B1FA364A01463648E0
:102D6C00FFF74AFF3AE048F23523984260D04BF621
:102D7C000323984254D044F620639842EBD1782335
:102D8C0063604FF430231EE02C4B984238D00DD8A2
:102D9C002B4B98423BD02B4B984236D02A4B984227
:102DAC00D9D11B2363604FF420230CE0274B9842AE
:102DBC0024D0274B98420AD0264B9842CBD10423DF
:102DCC0063604FF4602323614FF4801305E0042308
:102DDC0063604FF4C0232361002363611E4BA56025
:102DEC00236000231348E36023766376A376E376AF
:102DFC0023776377BDE83840FDF7F8BC0523E7E798
:102E0C00092363604FF44023DDE71223F9E72D23F8
:102E1C0063604FF4A023DEE72D23F2E7FF23F0E7F6
:102E2C003623BFE74FF4E173EBE74FF48773E8E722
:102E3C004823A5E7BC0A00200051250290D00300CE
:102E4C00A086010048E801000674010000350C0062
:102E5C0040420F0020A107000064004010B51B4C3D
:102E6C00FFF77EFE237A023304EB83035868237A40
:102E7C000C3304EB83035968FFF758FF08B10120AA
:102E8C0010BD217A227A03310332042304EB82022F
:102E9C0089000F4801F0A8F9217A227A0D310D3200
:102EAC00042304EB82028900094801F09DF90948CA
:102EBC00FDF783FD0028E2D140F237410548FDF7CC
:102ECC00ADFE003018BF0120DAE700BF580A002021
:102EDC0074190020BC0A00202DE9F3410446FDF7CB
:102EEC002FF99F4DC6B2EB793046012B1DD12378BB
:102EFC00502B1AD09B4B6989DA88914203D35A889C
:102F0C00013A8A4201DCDA886A815B880D2301363A
:102F1C00F6B22354B7B23B4622466989924801F077
:102F2C0063F910B96B891F446F812378213B572BB0
:102F3C0000F2B480DFE813F06204B200B200B20019
:102F4C00B200B200B200B200B200B200B200B200E5
:102F5C00B200B200B200B200B200B200B200B200D5
:102F6C00B200B200B200B200B200B200B200B200C5
:102F7C00B200B2004304B2006600EE037F021E04EE
:102F8C0066009A006600B200B2001704B2007A0321
:102F9C00B00058005E02FB03B200140378013B033F
:102FAC008D03680066003E04B2008B00B200B200D4
:102FBC00B200B200B200B200B200B200B200B20075
:102FCC00B2002001B200B200B200B200B200B200F6
:102FDC00E400B200B200B200B20092025201D2027E
:102FEC00C3037A00B2003B044E216048604B026878
:102FFC009954134405323021026031225970997072
:10300C00D9701A710D204AE056245848584A036862
:10301C003125D4543024591C555411444C70D91CAE
:10302C0055540A44547005330360EBE776244F483B
:10303C004F4A03683125D4543024591C545411443C
:10304C004D70D91C54540A4441215170EBE76378FC
:10305C00312B02D101236B70D4E7302B01D100232B
:10306C00F9E76B78B3FA83F35B09F4E746223F4C3C
:10307C003F4D23683F48EA549A1C226030222B446F
:10308C005A70FDF7E1FE236830305A1CE854394879
:10309C002260FDF7EEFEB5E7092E03D0072002B043
:1030AC00BDE8F0816078FFF7FBFB0346A078FFF7E3
:1030BC00F7FB000640EA0373E078FFF7F1FB80466C
:1030CC002079FFF7EDFB07466079FFF7E9FB064631
:1030DC00A079FFF7E5FB0146E079FFF7E1FB02463B
:1030EC00207AFFF7DDFB184340EA085040EA07401E
:1030FC0040EA063040EA012040EA0210E86181E72C
:10310C00092ECBD16078FFF7CBFB0346A078FFF7F5
:10311C00C7FB000640EA0373E078FFF7C1FB80466B
:10312C002079FFF7BDFB07466079FFF7B9FB064630
:10313C00A079FFF7B5FB0146E079FFF7B1FB02463A
:10314C00207AFFF7ADFB184340EA085040EA0740ED
:10315C0040EA063040EA012040EA0210286251E7BA
:10316C0080000020580A00207419002078000020EC
:10317C00E80F0020BC0A0020032E1DD16078FFF759
:10318C008FFB6862A378492B26D04D2B14BFFF23ED
:10319C000023AB626B6A0E2B80D8AB6AFF2B3FF41B
:1031AC007DAFFFF7C9FCD5E90932D5E90701FFF777
:1031BC0099FCFFF753FE25E7042E7FF46FAF607880
:1031CC00FFF76EFB0346A078FFF76AFB0A2202FBAF
:1031DC0003006862E378D6E70123DAE700210A25C9
:1031EC00B14B1A7A023203EB82025160611C0A1B4A
:1031FC0096427FF707AF0A780F46303A092A3FF616
:10320C004DAF1A7A0131023203EB820250686843E7
:10321C0050603878FFF744FB1A7A023203EB8202D3
:10322C00576838445060E2E7052E02D0022E7FF436
:10323C0035AF2B78002B7FF431AF6378303B342BD8
:10324C003FF62CAF01A252F823F000BF2D3300083B
:10325C003F3300084F3300085F3300086D3300081C
:10326C007B3300088933000897330008A533000826
:10327C00B3330008A9300008A9300008A9300008B1
:10328C00A9300008A9300008A9300008A9300008AE
:10329C00C1330008D1330008E1330008F1330008D2
:1032AC00A9300008A9300008A9300008A93000088E
:1032BC00A9300008A9300008A9300008A93000087E
:1032CC00A9300008A9300008A9300008A93000086E
:1032DC00A9300008A9300008A9300008A93000085E
:1032EC00A9300008A9300008A9300008A93000084E
:1032FC00A9300008A9300008A9300008A93000083E
:10330C00A9300008A9300008A9300008A93000082D
:10331C00C1330008D1330008E1330008F133000851
:10332C00614B1A7A023203EB820342F210725A603A
:10333C0068E65D4B1A7A023203EB820344F6206294
:10334C00F5E7594B1A7A023203EB82034CF25032F6
:10335C00EDE7554B1A7A023203EB8203534AE6E748
:10336C00514B1A7A023203EB8203514ADFE74E4B80
:10337C001A7A023203EB82034E4AD8E74A4B1A7A86
:10338C00023203EB82034C4AD1E7474B1A7A0232E2
:10339C0003EB8203494ACAE7434B1A7A023203EB26
:1033AC008203474AC3E7404B1A7A023203EB82038B
:1033BC00444ABCE73C4B1A7A023203EB820342F2DA
:1033CC008D02B4E7384B1A7A023203EB82034BF6C8
:1033DC000322ACE7344B1A7A023203EB820348F235
:1033EC003522A4E7304B1A7A023203EB820341F206
:1033FC0088329CE72C4C237A032B06D1237A0C338E
:10340C0004EB83040023636048E62F48FDF71CFDA2
:10341C0000287FF443AE237A0C3304EB830358600B
:10342C00FFF71CFD00287FF439AE0122237A2A70A5
:10343C002B44DA70E6E500231B4C2B70237A032B0C
:10344C003FF42CAE2048FDF714FDFFF775FB002868
:10345C007FF424AE237A1D44E870D3E52B78002B3F
:10346C003FF41CAE052E7FF419AE6078FFF718FA06
:10347C00E1780346A078FFF71EFA002640EA032005
:10348C000223124DC5E9026328602079FFF708FA80
:10349C00012228614FF400410D48FEF739F80D4B1D
:1034AC000D4A29464AE000BF580A0020A0860100B8
:1034BC0048E8010090D0030020A1070000350C0063
:1034CC0040420F0006740100BC0A0020AC00002032
:1034DC0000080140C80000202C0000202B78002B95
:1034EC003FF4DCAD053EF3B2102B3FF6D7AD607860
:1034FC00FFF7D6F9E1780346A078FFF7DCF940EA4C
:10350C0003200023B04AC2E9023310602079FFF790
:10351C00C7F9B0EB660F054610617FF4BFADAB4A3F
:10352C0005349D4204F1020411D801224FF40041EC
:10353C00A748FDF7EDFFA74BA44AA349A648FDF702
:10354C00A9FAA64B187000287FF4A8AD5AE514F818
:10355C00011C14F8020CFFF7AEF9D0540133E0E76C
:10356C002B78002B3FF49AAD0A2E7FF497ADA178FF
:10357C006078FFF7A0F921790346E078FFF79BF913
:10358C00000440EA0363A1796079FFF794F9217A8A
:10359C000246E079FFF78FF98B4D184340EA022081
:1035AC00686002230420C5E90203607A6EE72B7879
:1035BC00002B3FF473AD0A3EF3B2102B3FF66EAD09
:1035CC00A1786078FFF777F921790346E078FFF767
:1035DC0072F9000440EA0363A1796079FFF76BF993
:1035EC00217A0546E079FFF766F904211843002398
:1035FC00754A40EA0520C2E902135060607AFFF771
:10360C004FF9B0EB660F054610617FF447AD6F4A7A
:10361C000A349D4204F1020487D914F8011C14F8F1
:10362C00020CFFF748F9D0540133F2E74FF0004297
:10363C006B4C237A0C3304EB83035A60FFF70EFCBC
:10364C0000287FF42BAD0122237A2A701D44EA70E6
:10365C00D8E46378624C303B062B2ED8DFE803F0BD
:10366C00041B1E2124272A004FF461335D4DE365B2
:10367C002868FEF768FFE26D5B4B28685A60FEF71E
:10368C00FBFE00287FF40AAD04235C21574A5848FE
:10369C0000F0AAFDB6E44FF4E133E7E74FF46143E1
:1036AC00E4E74FF41643E1E74FF49643DEE74FF4BB
:1036BC001653DBE74FF41663D8E74E4BD6E70023DF
:1036CC000A21474DEB65631C1A1B964211DCEB6D0E
:1036DC00C72B7FF6E3ACEA6D474B9A423FF6DEAC64
:1036EC00404C2068FEF72FFFEA6D3F4B20685A6074
:1036FC00C5E71A781846303A092A3FF6CFACEA6D7E
:10370C0001334A43EA650078FFF7CAF8EA6D1044C2
:10371C00E865D9E76078A0F13003042B3FF6BEAC26
:10372C00FFF7BEF82E4B0138C0B2187241E5637832
:10373C00312B07D10123EB7100232B70284BDB8835
:10374C006B815FE4302B08D1FF2302AA02F8013D04
:10375C0000236989EB71012399E7322B7FF452AC7A
:10376C0001236B724EE42B7A002B3FF497AC6B89E0
:10377C00AB8193E400230A216B61621C131BB342DF
:10378C0005DBFDF71BF8012328612B7686E4137803
:10379C001046303B092B3FF681AC6B6901324B4331
:1037AC006B610078FFF77CF818446861E6E700234A
:1037BC002B7273E40A4BDB886B810123F8E701233E
:1037CC006B7600236B8369E4AC0000202C00002096
:1037DC0000080140C8000020BC0A0020C4000020E2
:1037EC00580A0020D8180020CC190020B40A002058
:1037FC007419002040420F0080841E006378522B05
:10380C007FF44CACA378532B7FF448ACE378542B67
:10381C007FF444ACBFF34F8F0549064BCA6802F4E2
:10382C00E0621343CB60BFF34F8F00BFFDE700BFD7
:10383C0000ED00E00400FA05A84A2DE9F8431368EE
:10384C00A74C0133136023780D2B1BD8DFE813F042
:10385C000E003E003901D1001A001A009E01A10190
:10386C001A001A00D100D1003A024102F12802D10B
:10387C000123237006E0E72806D10122994B9A70A8
:10388C0002221A70BDE8F8830D2814D19648FFF770
:10389C0023FB964A1368591C1160954A9249D054DF
:1038AC000122944B1A7000231A465A5401331E2BD2
:1038BC00FBD1914BE5E70028E4D08F4A8A49137875
:1038CC001C2BC854DED801331370DBE70E28D9D873
:1038DC00DFE810F00F0015008F008F002F00340070
:1038EC003A007A0091009A00A900AE00B000BE0028
:1038FC00F5000223F12223707D4B1A7080E0002327
:10390C007E4A23701360FCF759FFF121774C784BFA
:10391C002268050A9954012113449870DD70050C36
:10392C00000E59701D715871724B0632226019705D
:10393C00A8E7062323706E4BF122A2E7072300228F
:10394C0023706E4B1A60F6E7F123684E68483168B5
:10395C00644F4354062342185370694BFD78D3F8D7
:10396C0034E001F1020CBEF1004F14BF4FF0000E19
:10397C004FF0100E754400F80C50DD6801F1070C87
:10398C00D570DD680C312D0A1571DD6831602D0C98
:10399C005571DD682D0E95713D799F6BB7F1004F18
:1039AC0014BF002710273D4400F80C501869107202
:1039BC001869000A507218691B69000C1B0E907272
:1039CC00D3724C4B012213E0F1224848484B01685A
:1039DC0017255A5407220B445A7057229A70012209
:1039EC001D71DA705A719A710831DA71414B0160AC
:1039FC001A7000233DE7F1223D4B1A700A23237005
:103A0C0000223E4B1A603DE7F1203849384B0A68DA
:103A1C00985409201344043258700A60DE20AD22F9
:103A2C009870DA70CDE7F122314B1A700B23E6E770
:103A3C000C235FE7F1202D492D4B0A6898540C207C
:103A4C00134403320A602E4A587012799A70B8E700
:103A5C00F122274B23481A700D225A70284A4179BB
:103A6C00D56BB5F1004F14BF002510252944997072
:103A7C005169D9705169090A19715169090C597147
:103A8C005169090E99718179106CB0F1004F14BF16
:103A9C00002010200144D971916919729169090AA9
:103AAC00597291699269090C120EDA72002299729C
:103ABC001A735A739A73DA731A742270E2E60D232E
:103ACC003DE70E4D0A4A2B681A445070052B43D81B
:103ADC00DFE803F0181B2126343800BF3C0000201F
:103AEC004000002080000020D00000207800002042
:103AFC00E80F00206D00002034000020440000205E
:103B0C00580A0020984B186018E0974A136843EA4B
:103B1C000020106012E0944A136843EA0040F8E772
:103B2C00914A136843EA00600028B4BF04230023C1
:103B3C001060BCBF20F00040506093602B680133D4
:103B4C002B609FE600F00F00082888BF0822864BE8
:103B5C0094BF18611A61F1E7834E326906329A42BA
:103B6C0004D9824A134403F8060CE7E70027012224
:103B7C004FF400417E482770FDF7CAFC7D4B7B4A11
:103B8C0031467D48F760FCF785FFD7E77B4B5870D3
:103B9C002FE77B4F3B68072B07D8DFE803F0040ABD
:103BAC001015040A104B774B18603B6801333B60CF
:103BBC0068E6744A136843EA00201060F5E7714A1E
:103BCC00136843EA0040F8E76E4D6F4C2B6843EAEC
:103BDC000060286010B3FEF7AFFF2A686B4BC2F38E
:103BEC001301002AD9601CDA02F0C041B1F1C04FB8
:103BFC000BD10122E2704FF000425A630222227074
:103C0C0000221A72FFF72AF9CFE7500006D50122DD
:103C1C000221E270002221705A63F2E70023E37064
:103C2C00C3E70222227000225A631A72FFF716F9B8
:103C3C000123F4E7DFF84C91534DD9F8003043EAF7
:103C4C000060C9F8000068B3504E95F80380C0F3CB
:103C5C0013003061B8F1000F14D1FEF76DFFD9F8E5
:103C6C000030002B21DA03F0C042B2F1C04F12D168
:103C7C0001234FF000422B71B26302222A7033727F
:103C8C00FFF7ECF80023424A23700C21082341482B
:103C9C0000F0AAFA89E7590004D50123C6F8388048
:103CAC002B71EAE700232B71ECE7C6F8388002236E
:103CBC004FF001082B7086F80880FFF7CFF885F8D5
:103CCC000480DFE72E4A2D4913680133C854136072
:103CDC00D8E52B4D2B680B2B3FF630AFDFE803F00C
:103CEC0006080A0C06080A5C06080A93254B0AE724
:103CFC00244A0BE7234A0FE7224F234C3B6843EA45
:103D0C000060386020B3E378002B7FF417AF26797E
:103D1C00002E7FF413AFFEF70FFF3B68002B1ADA6F
:103D2C0003F0C042B2F1C04F0BD101234FF000425F
:103D3C006371164BDA63022222701A72FFF78EF847
:103D4C00FCE65A0004D501236371104BDE63F2E7E5
:103D5C0000236371F2E602220C4B2270DE631A72AE
:103D6C00FFF77CF80123F4E7AC0000202C000020C6
:103D7C0000080140C8000020BC0A0020E80F002009
:103D8C00440000203800002080000020580A002049
:103D9C00640A0020741900201F4F204C3B6843EA32
:103DAC000060386010B3E378002B7FF4C7AEA688B0
:103DBC00002E7FF4C3AEFEF7BFFE3B68002B18DA73
:103DCC0003F0C042B2F1C04F09D101234FF00042C1
:103DDC00A371134B1A64022222700322ADE75B001D
:103DEC0004D50123A3710E4B1E64F4E70023A371C9
:103DFC00A4E6022303222370094B1E641A72FFF7F8
:103E0C002DF80123F3E7044A136843EA006000230A
:103E1C001060237092E600BF380000208000002064
:103E2C00580A0020054A137A0133DBB21372137A55
:103E3C00032B84BF00231372FFF710B8580A00201D
:103E4C0038B5838805460C46082B53D8DFE803F0B9
:103E5C00050E1C2B38465464720009B9002038BD7D
:103E6C00FCF7ACFC01232860AB80F7E7002941D0BC
:103E7C00FCF7A4FC2B68C01A0128EFD9FCF79EFCB8
:103E8C0028600220A88038BD41B1FCF797FC2B6854
:103E9C00C01AB0F52F7F46D8012038BDFCF78EFC38
:103EAC0004232860E0E729B3FCF788FC2B68C01AD0
:103EBC00B0F5967FF0D9FCF781FC2860062038BD60
:103ECC0031BBFCF77BFC2B68C01A0128C6D9FCF768
:103EDC0075FC05232860AB80032038BD21B1FCF7AD
:103EEC006DFC06232860BFE7FCF768FC2B68C01A42
:103EFC00C828B3D90020C5E761B1FCF75FFC2B687B
:103F0C00C01A0128AAD9FCF759FC07232860AB80FA
:103F1C00022038BD0523A7E70029B6D1FCF74EFCDB
:103F2C0008232860A0E7FCF749FC03232860AB803A
:103F3C00042038BD09B1072396E7FCF73FFC2B683A
:103F4C00C01A01288AD9FCF739FCAC8028600520FE
:103F5C0038BD000008B510230B480C4AC0E90023FB
:103F6C000023C0E90233C0E9043303764376837639
:103F7C00C37603774377FCF739FC18B1BDE80840EA
:103F8C0000F0C0BD08BD00BFBC0A002000640040AA
:103F9C0010B5044686B01022002102A801F0C2F828
:103FAC002268224B9A423ED103F5D633DA6902A934
:103FBC0042F00072DA61DA691D4802F00072009278
:103FCC00009A9A6942F008029A619B6903F008030F
:103FDC000193019B4FF480730293FDF743F94FF467
:103FEC0000720223CDE90223032302A91048059392
:103FFC00FDF738F90F4A1320536823F4C04343F0FC
:10400C00E06343F48043536000221146FCF752FFF7
:10401C001320FCF783FF002214201146FCF74AFF03
:10402C001420FCF77BFF06B010BD00BF00640040FD
:10403C00000C01400000014008B502680A4B9A428E
:10404C0011D10A4A4FF44071D369094823F0007327
:10405C00D361FDF7E7F91320FCF76CFFBDE80840CE
:10406C001420FCF767BF08BD00640040001002403C
:10407C00000C0140124B07B55A690C2042F00102AA
:10408C005A6100225B69114603F001030193019B05
:10409C00FCF710FF0C20FCF741FF00220E2011460C
:1040AC00FCF708FF0E20FCF739FF00221120114607
:1040BC00FCF700FF112003B05DF804EBFCF72EBFFA
:1040CC00001002400423F7B506460F460C4D02AC17
:1040DC0004F8043D284600224FF48051FDF718FAED
:1040EC003B46214601223046FDF79BFE0446012249
:1040FC0028464FF48051FDF70BFA204603B0F0BD73
:10410C00000C01402DE9F3410E460746FCF756FB27
:10411C00052302AC04F8043D00224FF48051804684
:10412C001448FDF7F5F93346012221463846FDF7D0
:10413C0078FE054680B101224FF480510D48FDF701
:10414C00E7F912E0FCF73AFBA0EB0800B0420BD207
:10415C009DF804309B07EED03346012221463846A9
:10416C00FEF705F80228EDD10225284602B0BDE87D
:10417C00F08100BF000C01402DE9F34103268DF8BE
:10418C0006100546984616480B0A4FF4FA71174666
:10419C008DF804608DF80530FFF7B4FF044698B92C
:1041AC0002464FF480510F48FDF7B2F964233246B2
:1041BC0001A92846FDF735FE044648B101224FF40B
:1041CC0080510848FDF7A4F9204602B0BDE8F08103
:1041DC006423424639462846FDF7C9FF0446EDE7FD
:1041EC0074190020000C01402DE9F04F9846002373
:1041FC0081460F4692468DB0DFF8F4B03B4DADF8DA
:10420C000A308DF809304FF4FA715846FFF77AFFEF
:10421C000446002861D106230CAE06F8243D024664
:10422C004FF480512846FDF773F96423012231467F
:10423C004846FDF7F6FD0122019004464FF48051EB
:10424C002846FDF765F9019B002B46D18DF8093006
:10425C0002238DF80C30BDF80A303B441B128DF84C
:10426C000D30BDF80A303B448DF80E309DF8093006
:10427C001F2B1CD8BDF80A30984518D9BDF80A2058
:10428C0092B2531C9BB2ADF80A309DF809301AF863
:10429C000220DBB2591CC9B28DF809100CA90B44D1
:1042AC0003F8212CBDF80A303B44DB06DED100229A
:1042BC004FF480512846FDF72BF99DF80920314623
:1042CC00033264234846FDF7ACFD044601224FF44B
:1042DC0080512846FDF71CF91CB120460DB0BDE8F5
:1042EC00F08FBDF80A3098458DD8F6E7000C0140E8
:1042FC007419002010222DE9F04389B00DEB020057
:10430C00002100F00FFF3F4BDFF800919A693E4D02
:10431C0042F010029A619A69484602F0100200922B
:10432C00009A9A69DFF8E88042F020029A619A6953
:10433C004FF4005102F020020192019A9A69002474
:10434C0042F004029A619A69012602F00402029278
:10435C00029A9A69032742F008029A619B6900222B
:10436C0003F008030393039BFDF7D2F828460122C0
:10437C004FF48051FDF7CCF8404600224FF4014138
:10438C00FDF7C6F800222846F821FDF7C1F84FF4D6
:10439C00005304A94846CDE90436CDE90647FCF79D
:1043AC0061FF04A92846CDE904740696FCF75AFF70
:1043BC00042304A92846CDE904340694FCF752FFE3
:1043CC004FF4805304A92846CDE90436CDE90647BD
:1043DC00FCF748FF02274FF4014304A94046CDE9FE
:1043EC00043606940797FCF73DFFF82304A92846EA
:1043FC00CDE90436CDE90647FCF734FF09B0BDE83A
:10440C00F08300BF00100240000C0140001001407E
:10441C00000801402DE9F0413F4D2A78012A18D1BE
:10442C0000223E4C3E4B21683E488A420DD13E4B09
:10443C0092B23B491868FEF799F8002301213B4AD8
:10444C00236011702B70BDE8F081165CD6540132DC
:10445C00EBE7374C2378013B012B05D8FEF708FB23
:10446C0010B90122314B1A70637A43B300232B4DE0
:10447C00304E2B60F3882A4FDFF8C0806381F388BD
:10448C0061897F338B422A680EDB531C2B603A44C4
:10449C0001234046FFF770FE2B68013BFA5CFF2AB4
:1044AC001DD12B60002363721F4B2A8818681C498E
:1044BC00FEF75CF8002301222B601C4B1A70637E04
:1044CC00002BC0D000231E46144D628B1A49144F8A
:1044DC002B601144802B06D16EB12B600BE06389ED
:1044EC0001336381CBE7C85C03F1010CD85501267D
:1044FC0078B92B6060760C4B8032628318682A88FE
:10450C000749FEF733F8002301222B60074B1A7082
:10451C0099E76346DEE700BF6D00002078000020BD
:10452C004F180020E80F0020D81800206E00002043
:10453C0080000020580A0020C05100087419002087
:10454C000022024B1A70FFF765BF00BF6E000020FF
:10455C0070B5114C86B02346A4F144020121FCF73E
:10456C00E7FA6D46FCF72AF9A4F1100644F8200C82
:10457C000FCE0FC596E8030085E80300203C94E8B5
:10458C000F00FEF75FF901220821044806B0BDE8D0
:10459C007040FCF7BDBF00BF300B0020000C014089
:1045AC0070B5114C86B02346A4F11C020021FCF717
:1045BC00BFFAFCF703F96D4644F8200CA4F1200671
:1045CC00103C0FCC0FC594E8030085E8030096E877
:1045DC000F00FEF737F901220821044806B0BDE8A8
:1045EC007040FCF795BF00BF080B0020000C014089
:1045FC0030B5142495B0224600210CA800F092FD91
:10460C0022460DEB0400002100F08CFD002110224D
:10461C0001A800F087FD022505224FF48033012408
:10462C00CDE90A23CDE911534FF4E0130AA81393F3
:10463C00CDE90D44FCF77CFF0F234FF48062CDE9EC
:10464C0005350023294605A8CDE907320993FDF766
:10465C0037F94FF4807301A801940293FDF702FA25
:10466C0015B030BD2DE9F74FFEF7E6F88B4EFCF791
:10467C0087F88B4B8B4A1E608B4B8C4C1A60FFF768
:10468C00B7FFFFF737FEFFF7F5FC00F03DFA00F03F
:10469C00A7FB00F089FB00F06DFBFFF75BFC00F063
:1046AC0067FA6420FCF790F84FF47A718048FFF7B2
:1046BC0009FD0021642322467D488DF80610FFF782
:1046CC005BFD4FF6FF7223889A4202D023889BB27F
:1046DC001BB9012323808DF806304FF6FF726388D7
:1046EC004FF000419A4201BF4FF400536380012305
:1046FC008DF8063023794FF6FF72FF2B01BF042390
:10470C00237101238DF80630E38801209A4201BF02
:10471C004FF48073E38001238DF80630237AFF2B4E
:10472C0001BF0023237201238DF80630E3680133A7
:10473C0001BF604BE36001238DF806302369013320
:10474C0001BF5D4B236101238DF806306369013392
:10475C0001BF48F23523636101238DF80630A3694C
:10476C00013301BF42F6B103A36101238DF806307A
:10477C00002303F10C0204EB82025568013301356E
:10478C0004BF51608DF80600042BF2D14FF6FF7375
:10479C00E26D9A4201BF4FF4E133E36501238DF8DA
:1047AC0006309DF80630012B05D164233F4A0021C9
:1047BC003F48FFF719FD04214048FCF7A3FE0128F0
:1047CC0002D14FF4E13307E0E36D002BF9D0E26D39
:1047DC003B4B9A42F5D8E36D30487360FDF74CFEC5
:1047EC000123384DE2882B726A8100234FF6FF7249
:1047FC0019461846AA811A46EB71FEF773F9FEF7B3
:10480C00AFF93268304FD368304E43F02003DFF8F5
:10481C00C880D3602E4A3B681268934235D12B7AFC
:10482C00012B40F01A812B7E002B5BD14FF000093D
:10483C000DF10702012369891D4885F81890FFF7CF
:10484C009BFC9DF80720DFF894A00D2A40F0E28035
:10485C00DFF88CB05846FEF73FFB4A4649469AF8BB
:10486C00003001335B440BF1010B5B4540F0CB8016
:10487C0012B100238AF8003062886B89013A9342A6
:10488C0080F2C58001336B8133E0124A0133C3F3EC
:10489C000903D05C3B60FEF7CFFFBBE7CC190020CF
:1048AC00D8180020D81A0020DC180020580A002044
:1048BC007419002020A1070048E80100000C0140F9
:1048CC007F969800800000207000002000080140B6
:1048DC00740000203014002000100140550000200E
:1048EC0030180020FBF76AFF2B69C01A6B699842DD
:1048FC009CD2FBF763FF4FF0000BDFF8E891D9E98E
:10490C000023801A6BEB0301002908BF14280AD37B
:10491C006F4B1B7803F0FF0A2BB9FBF74FFFC9E96C
:10492C00000AFFF777FDFBF749FF4FF0000BDFF8AC
:10493C00B891D9E90023801A6BEB0301002908BF59
:10494C00B0F5FA7F0BD3FBF739FF0023C9F8000051
:10495C004FF400514046C9F80430FCF7DEFD02214B
:10496C005C48FCF7CFFD431E594259415A48FFF7AA
:10497C0067FA052801D1FFF755FA08215548FCF7CD
:10498C00C1FD01280DD1DFF864A1DFF864919AF81C
:10499C000030002B64D18AF80000FBF70FFFC9F838
:1049AC0000004FF400413046FCF7ACFD01280DD15E
:1049BC00DFF84091DFF840A199F80030002B5FD16F
:1049CC0089F80000FBF7FAFECAF800004FF480717A
:1049DC003046FCF797FD012883467FF41BAF3F4818
:1049EC00FCF745FA04286ED0DFF81091DFF810A11F
:1049FC0099F80030002B54D189F800B0FBF7DEFE9B
:104A0C00CAF8000006E703F8011D01222DE7002378
:104A1C002B726EE7FF2A0ED1AB89E2888AF80090E0
:104A2C00934204D34FF6FF7293427FF42CAF0023D2
:104A3C002B72E38827E79AF800302949CA54618819
:104A4C006A8901330139DBB28A428AF80030DEDA36
:104A5C001D2BDCD801326A814BE700232B7648E70B
:104A6C00FBF7ACFED9F80030C01A032899D9002204
:104A7C0008211848FCF74CFD00238AF800308CE71D
:104A8C00FBF79CFEDAF80030C01A03289ED90022EE
:104A9C004FF400413046FCF73BFD002389F8003011
:104AAC0094E7FBF78BFEDAF80030C01A64287FF627
:104ABC00B1AE00224FF480713046FCF729FD002383
:104ACC0089F80030A6E6002003B0BDE8F08F00BFE7
:104ADC006E000020000C0140D0180020BC0A002001
:104AEC0030180020600000205800002054000020E6
:104AFC00500000206C000020680000204C000020BA
:104B0C00480000207047000008B54FF0FF330748FD
:104B1C00074AC0E900234FF480738360FDF7DAF88D
:104B2C0018B1BDE80840FFF7EDBF08BD60190020C3
:104B3C000028004007B50B4B02689A420ED1FCF7D7
:104B4C00F1FC094BDA6942F00062DA610122DB699F
:104B5C0003F000630193019B044B1A6003B05DF8F2
:104B6C0004FB00BF00280040001002403C044242FD
:104B7C0008B54FF482730D480D4A4FF40071C0E92B
:104B8C00002300232822C0E90233C0E90433C0E922
:104B9C00083383620A23C0E90612C362FDF786FB61
:104BAC0018B1BDE80840FFF7ADBF08BD741900206F
:104BBC000038004010B5044686B01022002102A82F
:104BCC0000F0B0FA2268174B9A4228D103F5EC3367
:104BDC00DA6902A942F48042DA61DA69124802F415
:104BEC0080420092009A9A6942F008029A619B698D
:104BFC004FF4204203F008030193019B0223CDE9FB
:104C0C00022303230593FCF72DFB4FF48041002373
:104C1C000548CDE9021302A90493FCF723FB06B067
:104C2C0010BD00BF00380040000C01400E4B82B09C
:104C3C009A6942F001029A619A6902F001020092AB
:104C4C00009ADA6942F08052DA61DB69074A03F0B4
:104C5C0080530193019B536823F0E06343F000738E
:104C6C00536002B0704700BF0010024000000140CA
:104C7C007047FEE7FEE7FEE7FEE7704770477047B8
:104C8C00FBF790BD0148FCF759BA00BF0C1A002085
:104C9C000148FCF753BA00BF501A00200148FCF73A
:104CAC004DBA00BF941A00200148FBF7CFBF00BFDC
:104CBC00BC0A0020FFF7F8BF0148FDF715BD00BF87
:104CCC00D81A00200148FDF70FBD00BF181B0020AB
:104CDC000F4A1368180717D11368990614D5D368AF
:104CEC009B0611D50B490C480B6800680133C3F3C4
:104CFC000903834219BF0B6051685268074B16BFFA
:104D0C00074A1A70D15470470648FDF7EDBC00BF36
:104D1C000048004074000020700000204E18002055
:104D2C0030140020CC1900200F4B1A6842F00102FD
:104D3C001A6059680D4A0A405A601A6822F0847247
:104D4C0022F480321A601A6822F480221A605A689F
:104D5C0022F4FE025A604FF41F029A604FF0006278
:104D6C00034B9A60704700BF001002400000FFF830
:104D7C0000ED00E008B54FF416530948094A00212C
:104D8C00C0E900230C23C0E902110161C0E905311F
:104D9C00FDF7A0FB18B1BDE80840FFF7B3BE08BD96
:104DAC00D81A00200038014008B54FF4E1330A4806
:104DBC000A4AC0E9002300230C22C0E90233036134
:104DCC00C0E90523C361FDF757FB18B1BDE80840E6
:104DDC00FFF798BE08BD00BF181B00200044004020
:104DEC0008B54FF4E1330A480A4AC0E9002300230E
:104DFC000C22C0E902330361C0E90523C361FDF74E
:104E0C003BFB18B1BDE80840FFF77CBE08BD00BFF6
:104E1C00CC19002000480040F0B5102705468BB097
:104E2C003A46002106A800F07DF92B68674A9342A8
:104E3C0044D1674B4FF400709A6906A942F4804242
:104E4C009A619A69002602F480420092009A9A694B
:104E5C00604C42F004029A619B6903F004030193D5
:104E6C00019B0223CDE9060303235B480993FCF75E
:104E7C00F9F94FF48063584806A9CDE9063608962F
:104E8C00FCF7F0F9554B2046C4E900378023A660A7
:104E9C00C4E90336C4E90566E661FCF76FF808B1AE
:104EAC00FFF730FE002225202C6311466562FCF7CB
:104EBC0001F82520FCF732F80BB0F0BD484A9342BC
:104ECC003FD1434B0421DA69434842F40032DA61A2
:104EDC00DA69002602F400320292029A9A69414C75
:104EEC0042F004029A619B6903F004030393039B51
:104EFC000223CDE90613032306A90993FCF7B2F9A3
:104F0C000823354806A9CDE906360896FCF7AAF918
:104F1C00354B2046C4E900378023A660C4E903362C
:104F2C00C4E90566E661FCF729F808B1FFF7EAFD6C
:104F3C00002226202C6311466562FBF7BBFF26205E
:104F4C00B8E72A4A9342B7D1214B06A9DA69284817
:104F5C0042F48022DA61DA69002602F4802204929B
:104F6C00049A9A69234C42F008029A619B694FF4A7
:104F7C00806203F008030593059B0223CDE9062309
:104F8C0003230993FCF76EF94FF40063184806A944
:104F9C00CDE906360896FCF765F9174B2046C4E9AF
:104FAC0000378023A660C4E90336C4E90566E661D0
:104FBC00FBF7E4FF08B1FFF7A5FD002227202C63C7
:104FCC0011466562FBF776FF272073E70038014036
:104FDC0000100240501A002000080140440002401A
:104FEC0000440040941A0020800002400048004019
:104FFC00000C01400C1A00201C00024003681F4AE0
:10500C0010B59342044612D102F5584293694FF4FD
:10501C00C06123F4804393611948FCF703FA206BB9
:10502C00FBF7DCFF2520BDE81040FBF783BF154ADA
:10503C0093420ED102F5E632D3690C2123F40033EE
:10504C00D3610F48FCF7EEF9206BFBF7C7FF262066
:10505C00E9E70D4A93420FD102F5E432D3694FF4DC
:10506C00406123F48023D3610848FCF7DBF9206B03
:10507C00FBF7B4FF2720D6E710BD00BF0038014076
:10508C00000801400044004000480040000C014072
:10509C00002103E00B4B5B58435004310A480B4B87
:1050AC0042189A42F6D30A4A02E0002342F8043B23
:1050BC00084B9A42F9D3FFF737FE00F00FF8FFF7D1
:1050CC00D1FA70478C550008000000200C0000201D
:1050DC0010000020581B0020FEE7000070B50025D2
:1050EC000C4E0D4CA41BA410A54209D100F046F89F
:1050FC0000250A4E0A4CA41BA410A54205D170BD74
:10510C0056F8253098470135EEE756F82530984784
:10511C000135F2E7845500088455000884550008D1
:10512C008855000803460244934200D1704703F8A7
:10513C00011BF9E7C0F3C7537F3B162B10B5014693
:10514C0014DC002B07DA013300F0004101D141F0EF
:10515C007E51084610BD084A1A411042F9D04FF44E
:10516C0080011941014421EA0201F2E7802BF0D1C0
:10517C00FAF7F4FF0146ECE7FFFF7F00F8B500BF3C
:10518C00F8BC08BC9E467047F8B500BFF8BC08BC1C
:04519C009E46704774
:1051A00002030405060708090A0B0C0D0E0F101068
:1051B00002030405060708090A0B0C0D0E0F101058
:1051C0000D53202D207365742043414E2062697475
:1051D0002072617465200D2073202D20736574206A
:1051E00043414E2062697420726174652076696162
:1051F000200D204F202D206F70656E2043414E20E2
:105200006368616E6E656C200D2043202D20636CF9
:105210006F73652043414E206368616E6E656C203C
:105220000D2074202D2073656E642043414E206D47
:1052300065737361676520776974682031316269CD
:1052400074204944200D2054202D2073656E642065
:1052500043414E206D65737361676520776974689B
:10526000203239626974204944200D2072202D209B
:1052700073656E642043414E2072656D6F746520C6
:105280006D65737361676520776974682031316279
:105290006974204944200D2052202D2073656E64CE
:1052A0002043414E2072656D6F7465206D65737388
:1052B00061676520776974682032396269742049B2
:1052C00044200D2046202D20726561642073746196
:1052D00074757320666C61672062797465200D2097
:1052E0004D202D2073657420416363657074616E79
:1052F000636520436F6465205265676973746572E6
:10530000200D206D202D207365742041636365702E
:1053100074616E6365204D61736B205265676973BC
:10532000746572200D2056202D20676574206861F9
:1053300072647761726520616E6420736F66747742
:105340006172652076657273696F6E200D2076201C
:105350002D2067657420736F66747761726520769F
:10536000657273696F6E206F6E6C79200D204E2010
:105370002D206765742064657669636520736572A6
:1053800069616C206E756D626572200D205A202D4A
:1053900020746F67676C652074696D652073746134
:1053A0006D702073657474696E672C20275A3127DD
:1053B000202D204F4E2C20275A3027202D204F46BD
:1053C00046200D204C202D2073776974636820746B
:1053D0006F206C697374656E206F6E6C79206D6FD1
:1053E0006465200D2075202D20736574206375730E
:1053F000746F6D2055534152542062697472617408
:105400006520277531313532303027200D20552069
:105410002D20736574205553415254206269747273
:10542000617465200D2042202D2073656C656374C6
:10543000206368616E6E656C2043414E2F4C494E6F
:105440002027423127202D2043414E310D2050206E
:105450002D2050726F6772616D6D20736372697079
:10546000743A207374617274203D20275031272CC8
:105470002073746F70203D20275030272C207072CD
:10548000696E74203D2027503227200D204A202DA0
:10549000206D61726B657220666F72206A756D7027
:1054A0002073637269707420616674657220656E22
:1054B00064200D2044202D2064656C617920626594
:1054C000666F7265206E657874207363726970749C
:1054D00020636F6D6D616E6420274431303030275A
:1054E000202D20317365630D2078202D2073746F7B
:1054F0007020736372697074200D2058202D207302
:105500007461727420736372697074200D20482076
:105510002D207374617274206C6F6767696E6720E9
:105520000D2068202D2073746F70206C6F67676981
:105530006E67200D203F202D206C697374206F66EC
:1055400020737570706F7274656420636F6D6D6128
:105550006E6473200D2021202D20272152535427C3
:10556000202D20726573657420000000000000008B
:105570000000000102030406070809000000000102
:04558000020304001E
:0455840031010008E9
:045588000D01000809
:0C558C00010000001000000000A24A0412
:040000050800509D02
:00000001FF
