:020000040800F2
:1000000000500020E94E0008154B0008174B00086F
:10001000194B00081B4B00081D4B00080000000096
:100020000000000000000000000000001F4B00085E
:10003000214B000800000000234B0008254B00085E
:10004000314F0008314F0008314F0008314F000890
:10005000314F0008314F0008314F0008314F000880
:10006000314F0008314F0008314F0008314F000870
:10007000294B0008314F0008354B0008314F00086C
:10008000314F0008414B0008314F0008594B000820
:100090004D4B0008314F0008314F0008314F000828
:1000A000314F0008314F0008314F0008314F000830
:1000B000314F0008314F0008314F0008314F000820
:1000C000314F0008314F0008314F0008314F000810
:1000D000314F00085D4B0008694B0008754B000864
:1000E000314F0008314F0008314F00080000000078
:1000F0000000000000000000000000000000000000
:0C01000000000000000000005FF808F1A3
:10010C0010B5054C237833B9044B13B10448AFF345
:10011C0000800123237010BD10000020000000009F
:10012C00D44F000808B5034B1BB103490348AFF388
:10013C00008008BD0000000014000020D44F00080F
:10014C00034613F8012B002AFBD1181A013870470B
:10015C0080F0004002E000BF81F0004142001FBF70
:10016C005FEA410392EA030F7FEA226C7FEA236C79
:10017C006AD04FEA1262D2EB1363C1BFD21841406E
:10018C0048404140B8BF5B42192B88BF704710F004
:10019C00004F40F4000020F07F4018BF404211F0A7
:1001AC00004F41F4000121F07F4118BF494292EA0F
:1001BC00030F3FD0A2F1010241FA03FC10EB0C003B
:1001CC00C3F1200301FA03F100F0004302D54942C8
:1001DC0060EB4000B0F5000F13D3B0F1807F06D375
:1001EC0040084FEA310102F10102FE2A51D2B1F16D
:1001FC00004F40EBC25008BF20F0010040EA030062
:10020C007047490040EB000010F4000FA2F101020E
:10021C00EDD1B0FA80FCACF1080CB2EB0C0200FA98
:10022C000CF0AABF00EBC25052421843BCBFD040E6
:10023C001843704792F0000F81F4000106BF80F460
:10024C0000000132013BB5E74FEA41037FEA226C23
:10025C0018BF7FEA236C21D092EA030F04D092F0EE
:10026C00000F08BF0846704790EA010F1CBF002022
:10027C00704712F07F4F04D1400028BF40F000407F
:10028C00704712F100723CBF00F50000704700F09F
:10029C00004343F0FE4040F4000070477FEA2262C6
:1002AC0016BF08467FEA23630146420206BF5FEA97
:1002BC00412390EA010F40F4800070474FF0000397
:1002CC0004E000BF10F0004348BF40425FEA000C5E
:1002DC0008BF704743F0964301464FF000001CE006
:1002EC0050EA010208BF70474FF000030AE000BF5C
:1002FC0050EA010208BF704711F0004302D540429A
:10030C0061EB41015FEA010C02BF8446014600200B
:10031C0043F0B64308BFA3F18053A3F50003BCFA26
:10032C008CF2083AA3EBC25310DB01FA02FC6344D3
:10033C0000FA02FCC2F12002BCF1004F20FA02F2DA
:10034C0043EB020008BF20F00100704702F12002CD
:10035C0001FA02FCC2F1200250EA4C0021FA02F22E
:10036C0043EB020008BF20EADC7070474FF0FF0C33
:10037C001CEAD0521EBF1CEAD15392EA0C0F93EA2E
:10038C000C0F6FD01A4480EA010C400218BF5FEAD0
:10039C0041211ED04FF0006343EA501043EA511143
:1003AC00A0FB01310CF00040B1F5000F3EBF49003D
:1003BC0041EAD3715B0040EA010062F17F02FD2A41
:1003CC001DD8B3F1004F40EBC25008BF20F0010024
:1003DC00704790F0000F0CF0004C08BF49024CEA3B
:1003EC00502040EA51207F3AC2BFD2F1FF0340EACD
:1003FC00C250704740F400004FF00003013A5DDC3E
:10040C0012F1190FDCBF00F000407047C2F100027E
:10041C00410021FA02F1C2F1200200FA02FC5FEA6B
:10042C00310040F1000053EA4C0308BF20EADC70B5
:10043C00704792F0000F00F0004C02BF400010F427
:10044C00000F013AF9D040EA0C0093F0000F01F0D4
:10045C00004C02BF490011F4000F013BF9D041EAF6
:10046C000C018FE70CEAD15392EA0C0F18BF93EAF8
:10047C000C0F0AD030F0004C18BF31F0004CD8D122
:10048C0080EA010000F00040704790F0000F17BFA9
:10049C0090F0004F084691F0000F91F0004F14D0EF
:1004AC0092EA0C0F01D142020FD193EA0C0F03D147
:1004BC004B0218BF084608D180EA010000F000404A
:1004CC0040F0FE4040F40000704740F0FE4040F425
:1004DC00400070474FF0FF0C1CEAD0521EBF1CEAC4
:1004EC00D15392EA0C0F93EA0C0F69D0A2EB0302E2
:1004FC0080EA010C49024FEA402037D04FF080537C
:10050C0043EA111143EA10130CF000408B4238BF40
:10051C005B0042F17D024FF4000C8B4224BF5B1A4E
:10052C0040EA0C00B3EB510F24BFA3EB510340EA9C
:10053C005C00B3EB910F24BFA3EB910340EA9C004A
:10054C00B3EBD10F24BFA3EBD10340EADC001B01BA
:10055C0018BF5FEA1C1CE0D1FD2A3FF650AF8B425E
:10056C0040EBC25008BF20F0010070470CF0004C6B
:10057C004CEA50207F32C2BFD2F1FF0340EAC25096
:10058C00704740F400004FF00003013A37E792F057
:10059C00000F00F0004C02BF400010F4000F013AB5
:1005AC00F9D040EA0C0093F0000F01F0004C02BFB0
:1005BC00490011F4000F013BF9D041EA0C0195E719
:1005CC000CEAD15392EA0C0F08D142027FF47DAFB2
:1005DC0093EA0C0F7FF470AF084676E793EA0C0FA2
:1005EC0004D14B023FF44CAF08466EE730F0004CA0
:1005FC0018BF31F0004CCAD130F000427FF45CAF30
:10060C0031F000437FF43CAF5FE700BF4FF0FF3C9D
:10061C0006E000BF4FF0010C02E000BF4FF0010CF0
:10062C004DF804CD4FEA40024FEA41037FEA226CB9
:10063C0018BF7FEA236C11D001B052EA530C18BFDB
:10064C0090EA010F58BFB2EB030088BFC81738BF40
:10065C006FEAE17018BF40F0010070477FEA226C2E
:10066C0002D15FEA402C05D17FEA236CE4D15FEA2A
:10067C00412CE1D05DF8040B704700BF844608465E
:10068C006146FFE70FB5FFF7C9FF002848BF10F11F
:10069C00000F0FBD4DF808EDFFF7F4FF0CBF012064
:1006AC0000205DF808FB00BF4DF808EDFFF7EAFFEE
:1006BC0034BF012000205DF808FB00BF4DF808EDA9
:1006CC00FFF7E0FF94BF012000205DF808FB00BF9E
:1006DC004DF808EDFFF7D2FF94BF012000205DF824
:1006EC0008FB00BF4DF808EDFFF7C8FF34BF012031
:1006FC0000205DF808FB00BF42000ED2B2F1FE4FA5
:10070C000BD34FF09E03B3EB126209D44FEA0023D4
:10071C0043F0004323FA02F070474FF0000070479B
:10072C0012F1610F01D1420202D14FF0FF3070473C
:10073C004FF00000704700BF38B50E4B05461878D7
:10074C004FF47A73B3FBF0F30B4A1068B0FBF3F081
:10075C0000F0FEFB044658B90F2D09D80246294675
:10076C004FF0FF3000F0A6FB044B20461D6038BD57
:10077C00012038BD000000200800002004000020EB
:10078C00074A08B51368032043F01003136000F008
:10079C007FFB0020FFF7D0FF04F094F9002008BD88
:1007AC0000200240034A044B11681B780B44136071
:1007BC00704700BF7C00002000000020014B18682F
:1007CC00704700BF7C00002038B50446FFF7F6FFE9
:1007DC000546631C1EBF044B1B78E418FFF7EEFFA5
:1007EC00401B8442FAD838BD0000002038B50446BE
:1007FC0000286ED090F820300BB903F02FFB226844
:10080C00136823F002031360FFF7D8FF0546236833
:10081C005A68910751D41A6842F001021A60FFF726
:10082C00CDFF054623685A68D20754D5227E002096
:10083C00012A1A680CBF42F0800222F080021A6072
:10084C00627E012A1A680CBF42F0400222F040027C
:10085C001A60A27E012A1A680CBF42F0200222F014
:10086C0020021A60E27E012A1A680CBF22F01002E4
:10087C0042F010021A60227F012A1A680CBF42F063
:10088C00080222F008021A60627F012A1A680CBF63
:10089C0042F0040222F004021A60E168A2680A43E2
:1008AC0021690A4361690A43616801390A43DA61C3
:1008BC000123606284F8203038BDFFF77FFF401BB6
:1008CC000A28A4D9636A43F400336362052384F8CD
:1008DC002030012038BDFFF771FF401B0A28A1D939
:1008EC00F0E790F8203070B5013B012B5FD8012464
:1008FC0003684869D3F8002242F00102C3F80022D1
:10090C0000F01F0204FA02F2D443D3F81C52254023
:10091C00C3F81C52CD6985BBD3F80C52CE68254068
:10092C00C3F80C528D8803EBC00045EA0645C0F8AD
:10093C0040528E680D8845EA0645C0F844528869D5
:10094C0068BBD3F804022040C3F80402086950BB0A
:10095C00D3F814022040C3F81402096A00200129BC
:10096C0002BFD3F81C120A43C3F81C22D3F800228E
:10097C0022F00102C3F8002270BD012DDFD1D3F8A3
:10098C000C520E681543C3F80C528D8803EBC00053
:10099C0045EA0645C0F840528E688D89CBE7D3F8FE
:1009AC0004021043D0E7D3F814021043D3E7436A90
:1009BC0043F480234362012070BD38B590F8203099
:1009CC000446012B1FD10223026880F820301368E3
:1009DC0023F001031360FFF7F1FE05462368586806
:1009EC0010F0010001D1606238BDFFF7E7FE401B3B
:1009FC000A28F3D9636A43F400336362052384F84D
:100A0C002030012038BD436A43F400234362F8E7E9
:100A1C0038B590F820300446022B22D102681368B6
:100A2C0043F001031360FFF7C9FE054623685A68BB
:100A3C00D20708D51A68002022F002021A6001239E
:100A4C0084F8203038BDFFF7B9FE401B0A28EDD9D9
:100A5C00636A43F400336362052384F82030012079
:100A6C0038BD436A43F480134362F8E710B504467B
:100A7C0070B1FFF7CDFF204603F044FA0020226846
:100A8C00136843F400431360606284F8200010BDC7
:100A9C00012010BDF0B590F820500668013D012DE5
:100AAC00B46841D814F0E05F3AD0C4F30164032C6D
:100ABC004FF0010505D1436A43F400034362012062
:100ACC00F0BDA5401D608868CF6804F1180310BB09
:100ADC00086847EA40501B01F05008692401097D61
:100AEC003319C3F88401012908BFD3F884113444A5
:100AFC0004BF41F48071C3F8841151680020C4F81C
:100B0C008C111268C4F88821D3F8802142F00102BC
:100B1C00C3F88021F0BD4D68384340EAC500DAE7E0
:100B2C00436A43F40013C9E7436A43F48023C5E7DF
:100B3C00F0B590F82040013C012C6BD8066841B907
:100B4C00F468A40707D1436A43F4001343620120FD
:100B5C00F0BD3469F5E70C013519D5F8B07107F023
:100B6C0004079760002F4BD1D5F8B0717F0D17603B
:100B7C00D5F8B0712644C7F34007D760D5F8B471E7
:100B8C0007F00F071761D5F8B471D5F8B451C7F356
:100B9C0007272D0C97615561D6F8B8211A70026899
:100BAC002244D2F8B821120A5A7002682244D2F8B0
:100BBC00B821120C9A7002682244D2F8B821120E95
:100BCC00DA7002682244D2F8BC211A7102682244FD
:100BDC00D2F8BC21120A5A7102682244D2F8BC2104
:100BEC00120C9A7102681444D4F8BC21120EDA71FA
:100BFC00036851B9DA6842F02002DA600020F0BDD7
:100C0C00D5F8B071FF085760B2E71A6942F02002BC
:100C1C001A61F3E7436A43F4802397E790F8203096
:100C2C00013B012B05D8026800205369194351611F
:100C3C007047436A43F48023436201207047704736
:100C4C007047704770477047704770472DE9F84FF1
:100C5C00036805465E69D3F8049016F001049F689A
:100C6C00D3F80CB0D3F810A0D3F8188022D017F01A
:100C7C00010407D00122B9079A6040F1A38001F06A
:100C8C00A7FF0024FB0509D54FF480722B68B8052B
:100C9C009A6040F1A580284601F09BFFFB0309D523
:100CAC004FF480322B68B8039A6040F1A780284635
:100CBC0001F090FF330707D51BF0100F1FBF102258
:100CCC002B6844F40074DA60770708D51BF0080F22
:100CDC0005D008222B682846DA60FFF7B3FFB0076F
:100CEC0006D52B68DB68990702D0284603F0A0FBD9
:100CFC00720607D51AF0100F1FBF10222B6844F490
:100D0C0080641A61B30608D51AF0080F05D00822C2
:100D1C002B6828461A61FFF796FFF70606D52B6855
:100D2C001B69980702D0284603F05AFBB10308D57B
:100D3C0019F0100F05D010222B6828465A60FFF7C7
:100D4C0083FFF20308D519F0080F05D008222B6891
:100D5C0028465A60FFF779FF33042AD519F0040F9F
:100D6C002A6824D0F70504D518F0010F18BF44F0F9
:100D7C000104B00504D518F0020F18BF44F00204AA
:100D8C00710504D518F0040F18BF44F004043305A2
:100D9C000DD518F070030AD0302B4CD03CD8102B4A
:100DAC0043D0202B44D0936923F070039361042328
:100DBC0053602CB16B6A28461C436C6201F00CFF2B
:100DCC00BDE8F88F7A0705D417F0080405D1FFF7B2
:100DDC0036FF57E74FF4006454E74FF4805451E763
:100DEC00790502D544F4005458E73A0502D544F489
:100DFC00804453E72846FFF723FF4FE7790302D5DA
:100E0C0044F4004456E73A0302D544F4803451E7E5
:100E1C002846FFF716FF4DE7502B0FD0602B10D054
:100E2C00402BC0D144F04004BDE744F00804BAE7BD
:100E3C0044F01004B7E744F02004B4E744F0800415
:100E4C00B1E744F48074AEE790F82030DBB25A1E60
:100E5C00012A08D802685168890706D4126812F072
:100E6C00020F18BF0323184670470423FBE7406AA0
:100E7C00704790F82030013B012B95BF0023436A4B
:100E8C00436243F4802392BF1846436201207047AB
:100E9C00074A0002D36800F4E06023F4E0631B040B
:100EAC001B0C43F0BF6343F400330343D360704720
:100EBC0000ED00E0174B30B5DC68C4F30224C4F13C
:100ECC000703251D042B28BF0423062D4FF0010515
:100EDC0098BF002405FA03F303F1FF3388BF033CEA
:100EEC001940A14005FA04F4013C2240002842EAD2
:100EFC0001024FEA0212AFBF00F16040064B00F056
:100F0C000F00D2B2A5BFD2B200F561401A5480F8DE
:100F1C00002330BD00ED00E014ED00E00123420998
:100F2C0000F01F0003FA00F0014B43F82200704759
:100F3C0000E100E00122430900F01F0002FA00F07A
:100F4C00024A203342F82300704700BF00E100E062
:100F5C000138B0F1807F0AD2F021064B064A586066
:100F6C0082F823100020072298601A607047012035
:100F7C00704700BF10E000E000ED00E010B530B3AA
:100F8C0014220168134B84680B44B3FBF2F39B00EF
:100F9C000364114B0A68C363436822F47F522343F2
:100FAC00C46822F030022343046923434469234379
:100FBC0084692343C469234313430B600122002338
:100FCC0080F82120836380F82030184610BD012062
:100FDC0010BD00BFF8FFFDBF0000024010B508B304
:100FEC000168114A0B680A4423F001030B600023CB
:100FFC000B604B608B60CB601421B2FBF1F20121D2
:10100C000A4C9200026401FA02F2C46362608362C9
:10101C00C36203634363836380F8213080F820301C
:10102C00184610BD012010BDF8FFFDBF00000240A6
:10103C00F0B590F82040012C35D0012490F82150C7
:10104C0080F82040A5424FF000064FF0020428D152
:10105C0080F82140046886632668076C26F0010638
:10106C002660C66BBD407560636043680568102BD5
:10107C00C36A0BBFA260A160E160E2604BB1236860
:10108C0043F00E0323602B68002043F001032B6018
:10109C00F0BD236823F004032360236843F00A03A4
:1010AC00F0E780F820600220F0BD000090F82130BD
:1010BC0010B5022B03D004238363012010BD0368F9
:1010CC001A6822F00E021A601A6822F001021A60E5
:1010DC00184A93421FD0143293421ED014329342BA
:1010EC001DD0143293421DD0143293421DD01432B1
:1010FC0093420CBF4FF480134FF080730E4A0024C0
:10110C005360012380F82130436B80F820407BB181
:10111C009847204610BD0123F0E71023EEE74FF46B
:10112C008073EBE74FF48053E8E74FF48033E5E747
:10113C00184610BD080002400000024070B404259F
:10114C00C66B026C3468036895402542196832D02E
:10115C004D0730D51A6896065EBF1A6822F0040255
:10116C001A603E4A934219D01432934218D014326A
:10117C00934217D01432934217D01432934217D0A3
:10118C00143293420CBF4FF480034FF08063344A07
:10119C005360C36A002B5ED070BC18470423F6E77B
:1011AC004023F4E74FF48063F1E74FF48043EEE71C
:1011BC004FF48023EBE702259540254235D08D076F
:1011CC0033D51A68940606D41A6822F00A021A60FB
:1011DC00012280F82120214A934219D014329342E3
:1011EC0018D01432934217D01432934217D01432C1
:1011FC00934217D0143293420CBF4FF400134FF0AC
:10120C000073174A5360002380F82030836AC1E7CB
:10121C000223F6E72023F4E74FF40073F1E74FF4D1
:10122C000053EEE74FF40033EBE7082595402542D9
:10123C0011D009070FD5196821F00E01196001238F
:10124C0003FA02F27260836380F82130002380F885
:10125C002030036B9EE770BC704700BF0800024053
:10126C00000002402DE9F74F00221646654BDFF8CF
:10127C00A4E1DFF8A4C14FF001080C6808FA06F8E5
:10128C0008EA0404A0457FD14D68122D00F0AF8010
:10129C0000F28880022D00F0A7807CD8002D00F091
:1012AC008E80012D00F09E804FF00F09FF2C93BF14
:1012BC00824606F18045083DD0F800B092BFB500DB
:1012CC00D0F804B0AD0009FA05F82BEA080802FAC8
:1012DC0005F588BF00F1040A48EA0505CAF8005074
:1012EC00D1F804A01AF0805F4ED0474D464FAD693F
:1012FC0026F0030845F00105BD61BD6908F1804881
:10130C0005F00105019508F5803806F0030B019DE9
:10131C004FEA8B0BD8F8085009FA0BF925EA0909A2
:10132C003A4DA84268D005F58065A84266D005F50F
:10133C008065A84264D005F58065A8420CBF0325E2
:10134C00042505FA0BF545EA0905C8F808501D688F
:10135C001AF4803F14BF2543A5431D605D681AF441
:10136C00003F14BF2543A5435D609D681AF4801FA0
:10137C0014BF2543A5439D60DD681AF4001F14BFFC
:10138C002C4325EA0404DC600136102E7FF473AF85
:10139C0003B0BDE8F08F032D22D0112D84D1CA6883
:1013AC00043281E71A4FBD4209D012D8DFF86C9095
:1013BC004D4504D009F580394D457FF475AF8A68E9
:1013CC00C2B1012A0CBFC0F81080C0F814800822EA
:1013DC006AE77545F3D06545F1D0DFF84490EBE74B
:1013EC00002261E7CA685FE7CA6808325CE7CA682E
:1013FC000C3259E7042257E70025A2E70125A0E7A4
:10140C0002259EE700040140001002400008014044
:10141C0000002110000031100000321000001110EB
:10142C00000022102DE9F04F00224FF001094FF07F
:10143C000F0C4FF0040A304CDFF8C4B031FA02F351
:10144C0001D1BDE8F08F09FA02F30B404CD0FF2B11
:10145C0098BF07466FEA030385BF02F18045083D3C
:10146C00D0F800E0D0F804E094BF9500AD000CFA81
:10147C0005F62EEA06060AFA05F588BF071D2E4367
:10148C003E60C56802F003071D40C56022F00305ED
:10149C0005F1804505F58035AE68BF000CFA07F8FC
:1014AC0006EA080E154EB04220D006F58066B04212
:1014BC001ED006F58066B0421CD058450CBF0326E2
:1014CC000426BE40B6450FD1AE6826EA0806AE60CB
:1014DC0025681D40256065681D406560A5681D4038
:1014EC00A560E5682B40E3600132A7E70026E8E73A
:1014FC000126E6E70226E4E700040140000801406B
:10150C00001401408368194214BF01200020704769
:10151C000AB1016170470904FBE7C3685940C16017
:10152C00704700000122014B1A60704720000E42E8
:10153C0003682DE9F341DB07054610D42B689F07A0
:10154C005ED42B68190700F195802B685A0700F1BF
:10155C00BF80EA69002A40F02D81002014E0904CF5
:10156C00636803F00C03042B07D0636803F00C03CF
:10157C00082B0CD16368DE0309D523689C03DDD5E9
:10158C006B68002BDAD1012002B0BDE8F0816B68EA
:10159C00B3F5803F10D1236843F480332360FFF709
:1015AC000DF9064623689803C8D4FFF707F9801B8A
:1015BC006428F7D90320E7E79BB9236823F4803329
:1015CC002360236823F480232360FFF7F7F8064693
:1015DC0023689903B2D5FFF7F1F8801B6428F7D97B
:1015EC00E8E7B3F5A02F236803D143F480232360ED
:1015FC00D1E723F480332360236823F48023CDE7E1
:10160C00674C636813F00C0F07D0636803F00C038E
:10161C00082B10D16368DA030DD423689B0702D51D
:10162C002B69012BAFD123686A6923F0F80343EAD5
:10163C00C203236085E72A695A4B6AB101221A60FA
:10164C00FFF7BCF8064623689F07ECD4FFF7B6F803
:10165C00801B0228F7D9ADE71A60FFF7AFF80646F2
:10166C00236898077FF56DAFFFF7A8F8801B022859
:10167C00F6D99FE7AA694A4C4B4BDAB101221A60A2
:10168C00FFF79CF80646636A9B070DD54FF4FA5298
:10169C00464B1B68B3FBF2F3019300BF019B5A1E30
:1016AC000192002BF9D150E7FFF788F8801B022834
:1016BC00E9D97FE71A60FFF781F80646636A9F074E
:1016CC007FF543AFFFF77AF8801B0228F6D971E754
:1016DC00334CE369D80024D40127E36943F08053E9
:1016EC00E361E36903F080530093009B304E336851
:1016FC00D90518D5EB68012B26D1236A43F00103D9
:10170C002362FFF75BF841F288368046236A9B0719
:10171C003FD5002F3FF41DAFE36923F08053E36105
:10172C0017E70027E2E7336843F480733360FFF771
:10173C0045F880463368DA05DCD4FFF73FF8A0EBB8
:10174C0008006428F6D935E7ABB9236A41F288382A
:10175C0023F001032362236A23F004032362FFF7BF
:10176C002DF80646236A9807D3D5FFF727F8801B78
:10177C004045F7D91EE7052B236A03D143F0040338
:10178C002362BAE723F001032362236A23F00403E4
:10179C00B6E7FFF713F8A0EB0800B042B6D909E79B
:1017AC000010024000004242800442420800002027
:1017BC0000700040224C636803F00C03082B3FF4CC
:1017CC00E2AE00231F4E022A33602BD1FEF7F6FF48
:1017DC000746236899011FD42B6AB3F5803F05D1C6
:1017EC006268A96822F400320A436260696A62681E
:1017FC000B4322F474121343636001233360FEF72E
:10180C00DDFF054623689A013FF5A7AEFEF7D6FF2C
:10181C00401B0228F6D9CDE6FEF7D0FFC01B0228EC
:10182C00D7D9C7E6FEF7CAFF054623689B017FF5AB
:10183C0094AEFEF7C3FF401B0228F6D9BAE600BFF0
:10184C00001002406000424230B5194B87B002AC28
:10185C0003F11005224618685968083303C2AB42DD
:10186C001446F7D101238DF80430022311498DF869
:10187C0005304B6803F00C02082A17D1C3F38342DE
:10188C0006A80244DB0312F8102C0CD54B680A484E
:10189C00C3F34043504306AA134413F8143CB0FB63
:1018AC00F3F007B030BD05485043FAE70248F8E7BB
:1018BC00EC4F00080010024000127A0000093D00B5
:1018CC00544A2DE9F0411368054603F007038B4297
:1018DC000E462AD329688C0734D4CA0747D44D4AFC
:1018EC00136803F007039E42C0F082802A684A4CBA
:1018FC0012F0040F40F08780130706D563682A693D
:10190C0023F4605343EAC2036360FFF79DFF6368EF
:10191C00424AC3F30313D35CD840414B18600020F8
:10192C00FEF70AFF0020BDE8F081136823F00703DF
:10193C000B431360136803F007039942CAD00120CC
:10194C00BDE8F081344B11F0040F1EBF5A6842F40D
:10195C00E0625A60080742BF5A6842F460525A600B
:10196C005A68A86822F0F00202435A60B5E76A6828
:10197C00294C012A23681CD113F4003FDFD0636883
:10198C0041F2883823F0030313436360FEF716FF1C
:10199C006B680746012B14D1636803F00C03042B0E
:1019AC009DD0FEF70BFFC01B4045F5D90320BDE8C9
:1019BC00F081022A02D113F0007FDFE713F0020F4F
:1019CC00DCE7022B0FD1636803F00C03082B86D0E5
:1019DC00FEF7F4FEC01B4045F5D9E7E7FEF7EEFE37
:1019EC00C01B4045E2D8636813F00C0FF6D176E7C4
:1019FC00136823F0070333431360136803F00703E2
:101A0C009E429CD172E76368E96823F4E0630B4360
:101A1C00636071E700200240001002400C50000887
:101A2C0008000020044B054A5B68C3F30223D35C17
:101A3C00034A1068D8407047001002401C50000840
:101A4C0008000020044B054A5B68C3F3C223D35C37
:101A5C00034A1068D8407047001002401C50000820
:101A6C000800002003682DE9F341D907054620D56D
:101A7C00354CE369DA0032D40127E36943F0805333
:101A8C00E361E36903F080530193019B2F4E3368AC
:101A9C00DB0526D5236A13F4407336D1236A6A68B2
:101AAC0023F44073134323621FB1E36923F0805383
:101ABC00E3612868830706D5234AA968536823F491
:101ACC0040430B43536010F010001BD01E4AE968D2
:101ADC005368002023F480030B43536012E000276B
:101AEC00D4E7336843F480733360FEF767FE8046B7
:101AFC003368D805CED4FEF761FEA0EB080064284D
:101B0C00F6D9032002B0BDE8F0816A6802F4407295
:101B1C009342C3D001200E4A236A1060002023F4A4
:101B2C00407110602162D907B8D5FEF747FE41F22B
:101B3C0088380646236A9A07B0D4FEF73FFE801B0E
:101B4C004045F7D9DDE700BF0010024000700040AF
:101B5C004004424270B50446354B86B002AD03F1E9
:101B6C0010062A4618685968083303C2B342154652
:101B7C00F7D101238DF8043002239C428DF80530F7
:101B8C0047D0102C17D0012C4FD140F20231294AEA
:101B9C00136A1940B1F5817F44D003F44073B3F557
:101BAC00007F2DD149F64040536A13F0020F08BF55
:101BBC00002006B070BD1F4B5968186810F080707B
:101BCC00F7D0C1F3834206A8024412F8100CCA03E2
:101BDC0041BF5A6806A9C2F34042521844BF12F8DA
:101BEC00141C154A5B684CBFB2FBF1F2134A5B0242
:101BFC0002FB00F0DDD403234000B0FBF3F0D8E788
:101C0C00B3F5407F11D113684FF2244013F4003F19
:101C1C00CDE7FFF717FF074B5B68C3F38133013345
:101C2C005B00EAE74FF40040C3E70020C1E700BFC8
:101C3C00FC4F00080010024000127A0000093D0021
:101C4C0038B50446FEF7BAFD054623685A68920675
:101C5C0005D55A68002042F010025A6038BDFEF7D4
:101C6C00ADFD401BB0F57A7FEFD9032038BD02687B
:101C7C0038B55368044623F010035360FEF79EFDFD
:101C8C00054623685B689B0601D5002038BDFEF72E
:101C9C0095FD401BB0F57A7FF3D9032038BD38B5DC
:101CAC000446A8B10268536823F008035360FEF79A
:101CBC0085FD054623685B681B0701D5002038BDF0
:101CCC00FEF77CFD401BB0F57A7FF3D9032038BDBD
:101CDC00012038BD10B5044670B1437C03F0FF02FF
:101CEC0013B9027402F072FE022320466374FFF7EC
:101CFC00D6FF18B104236374012010BD2046FFF7F2
:101D0C009FFF0028F6D12268A068536823F00703D0
:101D1C005360174A18B1116B21F001011163D36A9A
:101D2C0023F460730343D3626068431C05D1012024
:101D3C00FFF710FF0028DDD001382268936823F0EC
:101D4C000F0343EA10439360D36880B21B0C1B044F
:101D5C001843D0602046FFF78AFF012310B10422FC
:101D6C006274C9E7E0736373A373637410BD00BF3F
:101D7C00006C00402DE9F0410446884617461D468C
:101D8C00069E2268936838EA03030CBF01230023E4
:101D9C009F4202D10020BDE8F0816B1CF2D055BBF4
:101DAC0023685A6822F0E0025A606268B2F5827FBA
:101DBC000AD1A268B2F5004F02D0B2F5806F03D100
:101DCC001A6822F040021A60A26AB2F5005F09D1CB
:101DDC001A6822F400521204120C1A601A6842F4A7
:101DEC0000521A60012384F851300023032084F838
:101DFC005030BDE8F081FEF7E1FC801B8542C0D875
:101E0C00CEE713B50B460092802100220446FFF763
:101E1C00B1FF20B10320636D43F02003636502B072
:101E2C0010BD2DE9FF411E4690F850300446012BA1
:101E3C000D46904600F09C80012380F85030FEF750
:101E4C00BDFC074694F85100C0B2012840F08E80CA
:101E5C00002D4ED0B8F1000F4BD0032384F8513035
:101E6C0000236365A363A4F83680A387E3876364C8
:101E7C002364A3682563B3F5004F2368A4F834806A
:101E8C0002BF1A6842F480421A601A6852065EBF9A
:101E9C001A6842F040021A60E268B2F5006F62689C
:101EAC0038D11AB1E28E92B2012A06D135F8022B42
:101EBC00DA60E38E013B9BB2E386E38E9BB293B96F
:101ECC0000973346012202212046FFF753FF78B9D1
:101EDC003A4631462046FFF794FF002838D020239D
:101EEC000120636505E023689A689007DED44EB93B
:101EFC000320012384F85130002384F8503004B0BF
:101F0C00BDE8F081711CD8D0FEF758FCC01B86428E
:101F1C00D3D8EDE71AB1E28E92B2012A06D115F8A8
:101F2C00012B1A73E38E013B9BB2E386E38E9BB2CB
:101F3C00002BC5D023689A689207F0D4002ED7D016
:101F4C00731CF3D0FEF73AFCC01B8642EED8CFE7E9
:101F5C00A36833B903932368DA6803929B680393ED
:101F6C00039B606D003018BF0120C2E70220C0E760
:101F7C000220C4E72DE9F043994690F8503085B023
:101F8C00012B04460D4616460C9F00F0EE800123F3
:101F9C0080F85030FEF712FC94F851308046DBB2DA
:101FAC00012B61680AD0B1F5827F40F0DC80A26819
:101FBC00002A40F0D880042B40F0D580002D4ED064
:101FCC00002E4CD0B9F1000F49D094F85130A663D3
:101FDC00012B04BF052384F851300023636523646F
:101FEC0063642368A4F83E90A4F836901A68A4F8A9
:101FFC003C90500658BF1A68256358BF42F0400207
:10200C00A4F8349058BF1A60E268B2F5006F5DD145
:10201C0019B1E28E92B2012A06D135F8022BDA60A0
:10202C00E38E013B9BB2E3864FF00109E38E9BB23A
:10203C00BBB9E38F9BB2A3B9CDF800803B4601221C
:10204C0002212046FFF796FE002835D1424639463C
:10205C002046FFF7D6FE00287AD0202363650120A6
:10206C002BE0B9F1000F0FD0E38E9BB263B1236864
:10207C009A68910708D54FF0000935F8022BDA6001
:10208C00E38E013B9BB2E386E38F9BB263B1236883
:10209C009A68D20708D54FF00109DB6826F8023B95
:1020AC00E38F013B9BB2E387781CBFD0FEF786FB26
:1020BC00A0EB08008742B9D80320012384F85130E3
:1020CC00002384F8503005B0BDE8F08319B1E28EDE
:1020DC0092B2012A06D115F8012B1A73E38E013B3B
:1020EC009BB2E3864FF00109E38E9BB21BB9E38FE1
:1020FC009BB2002BA0D0B9F1000F0FD0E38E9BB296
:10210C0063B123689A68910708D54FF000092A78C3
:10211C0001351A73E38E013B9BB2E386E38F9BB2CE
:10212C006BB123689A68D20709D54FF00109DB68B7
:10213C00013606F8013CE38F013B9BB2E3877B1C25
:10214C00D2D0FEF73BFBA0EB08008742CCD8B3E71C
:10215C00A368002BB1D123680390DA6803929B68C3
:10216C000393039BA9E70220A7E70220ABE72DE925
:10217C00F3411E4643680446B3F5827F0D469046F4
:10218C000CD1836853B9042380F851301346009660
:10219C000A46FFF7EFFE02B0BDE8F08194F850302C
:1021AC00012B00F08180012384F85030FEF706FBF0
:1021BC00074694F85100C0B2012873D1002D58D0B5
:1021CC00B8F1000F55D0042384F851300023636517
:1021DC002363A4F83E80A386E38623646364A36828
:1021EC00A563B3F5004F2368A4F83C8002BF1A68BE
:1021FC0022F480421A601A6852065EBF1A6842F0D6
:10220C0040021A60E368CBB1E38F9BB2D3B1236871
:10221C009A68D2073CD5DB6825F8023BE38F013B7B
:10222C009BB2E387F0E723689A68D0071FD51B7B26
:10223C0005F8013BE38F013B9BB2E387E38F9BB235
:10224C00002BF0D16368B3F5827F0BD1A368B3F593
:10225C00004F02D0B3F5806F04D12268136823F0CD
:10226C0040031360606D003018BF012001E03EB9DF
:10227C000320012384F85130002384F850308AE77E
:10228C00711CDBD0FEF79AFAC01B8642D6D8EFE75A
:10229C00002EEDD0731CB7D0FEF790FAC01B86420F
:1022AC00B2D8E5E70220E4E7022074E710B5044653
:1022BC00002834D00023836290F851300BB902F01F
:1022CC00C5FB0223216884F851300B68A06823F009
:1022DC0040030B606368A2690343E0680343206911
:1022EC00034360690343E0690343206A0343A06A24
:1022FC00034302F4007003430B60120C636A02F098
:10230C0004021A43E36A4A600B61CB69002023F490
:10231C000063CB610123606584F8513010BD01204E
:10232C0010BD0368DA6822F49072DA605A6922F000
:10233C0001025A61202380F83A3070472DE9F047AA
:10234C000568C2682B69016923F4405313432B6160
:10235C008368EA680B43416922F4B05222F00C0204
:10236C000B431343EB606B69826923F44073134393
:10237C006B61404B81469D424FF0190446D1FFF7EB
:10238C0061FB04FB00F3D9F804604FF06408B6005D
:10239C00B3FBF6F3B3FBF8F31E01FFF753FB6043FB
:1023AC00D9F804309B00B0FBF3F7FFF74BFB60430D
:1023BC00D9F804309B00B0FBF3F3B3FBF8F308FB44
:1023CC0013731B013233B3FBF8F303F0F007FFF781
:1023DC0039FB6043D9F804209200B0FBF2FAFFF706
:1023EC0031FB6043D9F804309B00B0FBF3F3B3FB33
:1023FC00F8F308FB13A31B013233B3FBF8F303F020
:10240C000F033B433344AB60BDE8F087FFF70AFB97
:10241C0004FB00F3D9F804604FF06408B600B3FB7A
:10242C00F6F3B3FBF8F31E01FFF7FCFA6043D9F89F
:10243C0004309B00B0FBF3F7FFF7F4FA6043D9F8D4
:10244C0004309B00B0FBF3F3B3FBF8F308FB1373FE
:10245C001B013233B3FBF8F303F0F007FFF7E2FA9A
:10246C006043D9F804209200B0FBF2FAFFF7DAFAD5
:10247C00B7E700BF0038014010B5044640B390F8F0
:10248C00393003F0FF021BB980F8382002F0EAFB68
:10249C002423226884F83930D368204623F400536F
:1024AC00D360FFF74BFF236800201A6922F4904297
:1024BC001A615A6922F02A025A61DA6842F400520F
:1024CC00DA602023E06384F8393084F83A3010BDA8
:1024DC00012010BD38B50D460446002831D090F8C7
:1024EC00393003F0FF021BB980F8382002F0BAFB38
:1024FC002423226884F83930D368204623F400530F
:10250C00D360FFF71BFF236800201A6922F40062D6
:10251C001A615A6922F02A025A611A6942F48042FD
:10252C001A61196921F0200129431961DA6842F412
:10253C000052DA602023E06384F8393084F83A30B2
:10254C0038BD012038BD10B5044668B1242380F88D
:10255C00393002F079FC0020E06384F8380084F80C
:10256C00390084F83A0010BD012010BD38B504467E
:10257C00134694F83920202A2AD139B333B394F86E
:10258C003820012A24D00122002584F83820212269
:10259C00E384206BE56384F839200E4AA38421621E
:1025AC0082620D4A4563C2620C4A0263226804329D
:1025BC00FEF73EFD6FF04002236828461A605A6908
:1025CC0084F8385042F080025A6138BD012038BD81
:1025DC00022038BDED2500081B260008A5260008A2
:1025EC0008B50368426A1B6813F020030AD1D38430
:1025FC0013685A6922F080025A61DA6842F040028C
:10260C00DA6008BD104601F0E3FE08BD704708B55E
:10261C00406AFFF7FBFF08BD704790F83A3010B5E1
:10262C00222B36D183680169B3F5805F0268836A17
:10263C0023D15268E9B9C2F3080223F8022B836252
:10264C00C48D013CA4B2C4858CB90368DA6822F04D
:10265C002002DA60DA6822F48072DA605A6922F0B9
:10266C0001025A61202380F83A30FFF7D5FF002091
:10267C0010BDD2B223F8012BE1E721B9591C5268E5
:10268C0081621A70DCE75268591C816202F07F0289
:10269C00F7E7022010BD7047416A08B50B685A690C
:1026AC0091F8390021280AD1120608D50022CA84D3
:1026BC00DA6822F0C002DA60202281F839205B69E6
:1026CC0091F83A20222A06D15B0604D5002308464D
:1026DC00CB85FFF726FECB6B084643F01003CB638C
:1026EC00FFF7D9FF08BD0000036870B51A680446EF
:1026FC001607D9685D6907D196065AD58D0658D547
:10270C00BDE87040FFF789BF15F0010502D111F447
:10271C00907F4ED0D30705D5CE0542BFE36B43F077
:10272C000103E363500704D51DB1E36B43F00203CF
:10273C00E363930704D51DB1E36B43F00403E36338
:10274C00160704D51DB1E36B43F00803E363E36B99
:10275C00002B66D0950604D5880602D52046FFF7D7
:10276C005CFF236820465D69E26B110702D415F00B
:10277C0040051AD0FFF7D5FD23685A69520610D5CB
:10278C005A69606B22F040025A6150B1254B436389
:10279C00FEF78CFC002844D0606BBDE87040436BA6
:1027AC0018472046FFF777FF70BDFFF774FFE5630E
:1027BC0070BD160627D50D0625D594F83920212A8B
:1027CC002FD1A268B2F5805F226A17D11188C1F3AC
:1027DC0008015960216979B902322262E28C013A0E
:1027EC0092B2E284EAB9DA6822F08002DA60DA683E
:1027FC0042F04002DA6070BD0132EEE7511C2162FA
:10280C0012785A60EAE750060BD54A0609D5DA6801
:10281C00204622F04002DA60202384F8393001F09F
:10282C00D7FD70BD3528000808B50023406AC38564
:10283C00C384FFF730FF08BD0023012200B58BB025
:10284C0069460948069300930193079208920593F1
:10285C00029303930493FEF744F8003018BF012051
:10286C000BB05DF804FB00BFAC0A00200022024B49
:10287C001A805A80704700BFE0000020014B5A8834
:10288C001A807047E000002084B0F0B5144F05ACFE
:10289C007E8884E80F003B889E4228BF3C339B1BFC
:1028AC009BB2012B19D9282404FB067405AD0834FE
:1028BC000FCD0FC40FCD0FC495E803003A2E88BF7F
:1028CC00002684E803004FF000009CBF0136B6B22E
:1028DC007E80BDE8F04004B070470220F9E700BFED
:1028EC00E0000020602804D92738C0B23038C0B2CC
:1028FC0070474028FAD90738F7E760280CD92738F1
:10290C00C0B230386029C0B20AD92739C9B23039BF
:10291C0041EA0010C0B270474028F2D90738EFE7FF
:10292C004029F4D90739F1E70309092B00F00F000E
:10293C0094BF30333733092894BF303037300B70A5
:10294C004870704784B02DE9F04106AC84E80F0064
:10295C00564B05461C78119A012C0798DDF82080FF
:10296C0009990B9F1E466BD10A9C002942D1002C61
:10297C003ED174231370030A092B94BF30333733C1
:10298C00DBB25370911CC0B2FFF7CEFF0423092FAA
:10299C0002EB030103F1010894BF07F1300307F1C7
:1029AC003703DBB20B701CB9BC423ED108EB4408B8
:1029BC0073789BB14EF66021B5FBF1F301FB135517
:1029CC0002EB0801C5F30720FFF7AEFF08F1020187
:1029DC001144E8B2FFF7A8FF08F104080D2308F131
:1029EC00010002F8083080B2BDE8F04104B0704735
:1029FC007223BFE7BCB954231370511C4FEA186003
:102A0C00FFF792FFC8F30740D11CFFF78DFFC8F307
:102A1C000720511DFFF788FF5FFA88F0D11DFFF7E3
:102A2C0083FF0923B3E75223E6E706AB234408EB05
:102A3C004401114493F82000FFF776FF0134B3E70B
:102A4C00022C2FD19B787BB3F123042911461370F0
:102A5C00174B08BF48F000401B7A957053702B0A37
:102A6C00D3702B0C1371030AD371030C1372109BCC
:102A7C00907107EB03132D0E000E5571507201F877
:102A8C000A3F0023BB4205D11A4403F10C0000237A
:102A9C00D372A8E706A8184490F82000013301F877
:102AAC00010FEFE700209EE718469CE7800000200E
:102ABC00480A00202DE9F041184E88B034887388FC
:102ACC00A34227D0282303FB046400236D46DFF8C0
:102ADC0054800693CDF81C8004F1080718340FCCF1
:102AEC000FC594E8030085E8030097E80F00FFF793
:102AFC0029FF0B4B024641461868FFF737FD58B9C2
:102B0C0033883A2B8EBF034601339BB2338008B017
:102B1C00BDE8F0810220FAE70120F8E7E000002090
:102B2C00C81800203F18002010B50748FDF79EFF7D
:102B3C00044638B902464FF480710448FEF7E8FCAD
:102B4C00204610BD0124FBE7AC0A00200008014020
:102B5C0010B5FFF7E9FF002280211948FEF7D8FCD9
:102B6C00002240211648FEF7D3FC002220211448F5
:102B7C00FEF7CEFC002210211148FEF7C9FC3220D2
:102B8C00FDF722FE0F4B1B7A032B08D8DFE803F06E
:102B9C00020F1215012280210948FEF7B9FCBDE88D
:102BAC0010400123084A0821084801F083BA012289
:102BBC004021F1E701222021EEE701221021EBE771
:102BCC00000C0140480A0020500A00206419002023
:102BDC00704770477047000001224FF48071014824
:102BEC00FEF796BC000801402DE9F04F894685B0F0
:102BFC000290474948461746FDF774FD002840F0FF
:102C0C00818044494846FDF74FFD00287AD10023C6
:102C1C0001934FF07E530546DFF800A10093029814
:102C2C00FDF74CFB013504462846FDF747FB4946AA
:102C3C00FDF79CFB01462046FDF74CFC064602F0D6
:102C4C009FF9FDF759FD072804465BD9192856D87A
:102C5C00FDF734FB014683463046FDF77DFA20F044
:102C6C0000462D493046FDF71FFD00B100265146A8
:102C7C005846FDF77BFB02F083F94FF07E51FDF7D0
:102C8C006BFAFDF739FD013C10288046A4EB0004DB
:102C9C0035D8082C33D824B9002836D0012400F1BB
:102CAC00FF3808F10100FDF709FB5946FDF712FC4E
:102CBC00009983463046FDF7F7FCC8B90021304631
:102CCC00FDF7E8FCD8B151465846FDF745FA514698
:102CDC0020F0004201980392FDF73EFA039A20F08F
:102CEC0000411046FDF7E0FC48B17A69944206D1E8
:102CFC007D60C7F810807C61CDF804B00096B5F506
:102D0C00806F8CD105B0BDE8F08F0446C9E700BFD9
:102D1C000024744A0000FA44ACC527370000603F19
:102D2C0038B54CF2503398420D463F4C6ED025D8F6
:102D3C0042F2107398426BD00FD841F2883398420C
:102D4C006AD042F28D03984269D0FDF7B7FA364A41
:102D5C0001463648FFF748FF3AE048F235239842DF
:102D6C0060D04BF60323984254D044F6206398422B
:102D7C00EBD1782363604FF430231EE02C4B984248
:102D8C0038D00DD82B4B98423BD02B4B984236D099
:102D9C002A4B9842D9D11B2363604FF420230CE0BB
:102DAC00274B984224D0274B98420AD0264B984266
:102DBC00CBD1042363604FF4602323614FF4801361
:102DCC0005E0042363604FF4C02323610023636197
:102DDC001E4BA560236000231348E36023766376C3
:102DEC00A376E37623776377BDE83840FDF7FEBC26
:102DFC000523E7E7092363604FF44023DDE7122343
:102E0C00F9E72D2363604FF4A023DEE72D23F2E7CF
:102E1C00FF23F0E73623BFE74FF4E173EBE74FF402
:102E2C008773E8E74823A5E7AC0A00200051250288
:102E3C0090D00300A086010048E801000674010050
:102E4C0000350C0040420F0020A107000064004038
:102E5C0010B51D4CFFF77CFE237A023304EB830381
:102E6C005868237A0C3304EB83035968FFF758FF37
:102E7C0008B1012010BD217A227A89000332042383
:102E8C0004EB82020C31114801F014F9217A227AF8
:102E9C0089000D32042304EB820234310B4801F01B
:102EAC0009F9FFF7C9FC0028E3D10948FDF785FDB6
:102EBC000028DED140F237410548FDF7AFFE003067
:102ECC0018BF012010BD00BF480A00206419002063
:102EDC00AC0A0020F7B50446FDF732F9D14EC3B267
:102EEC00F279012A227829D1502A27D0CE4A70892A
:102EFC00D18889B2884204D3518889B20139814280
:102F0C0001DCD18871815288718992B21944023ADC
:102F1C00914202DB072003B0F0BD0D25E5540133CF
:102F2C00DFB23B4622467189C04801F0C3F8002845
:102F3C00F0D173891F4477810D20ECE7413A372A91
:102F4C00E8D801A151F822F0452F00081F360008DF
:102F5C004733000883360008452F0008B5300008B9
:102F6C00452F0008212F0008212F00087536000876
:102F7C00212F000811350008452F000835300008B6
:102F8C000B3300083D360008212F000839340008A7
:102F9C0027310008873400085D35000853300008DD
:102FAC00452F0008C3360008212F0008993000086F
:102FBC00212F0008212F0008212F0008212F0008A5
:102FCC00212F0008212F0008212F0008212F000895
:102FDC00212F0008212F0008212F0008212F000885
:102FEC00212F0008212F0008212F0008212F000875
:102FFC00212F0008212F0008452F0008212F000841
:10300C00212F0008212F0008212F0008673300080A
:10301C00DB300008BB330008C935000877300008E6
:10302C00212F0008BD3600084E218148814B0268D3
:10303C009954134405323021026031225970997031
:10304C00D9701A7178E7562479487A4A0368312581
:10305C00D4543024591C555411444C70D91C55541B
:10306C000A4454700533036066E776247048714A4D
:10307C0003683125D4543024591C545411444D70D8
:10308C00D91C54540A4441215170EBE76378312B1D
:10309C0002D1012373704FE7302B17BF73780023D5
:1030AC00B3FA83F35B09F5E74621614A614C136877
:1030BC006148E15430211C44033361701360FDF707
:1030CC00C3FE3030A0705C48FDF7D3FE34E700201F
:1030DC000A26554A651C117A023102EB81014860BF
:1030EC00291B8B427FF728AF15F8011B30390929B2
:1030FC003FF610AF117A023102EB81014868704340
:10310C00486015F8010CFFF7EDFB117A023102EB68
:10311C0081014F6838444860E2E7052B02D0022B4E
:10312C007FF4F8AE3378002B7FF4F4AE6378303B49
:10313C00342B3FF6EFAE01A252F823F01D320008FB
:10314C004932000859320008693200087732000809
:10315C008532000893320008A1320008AF32000813
:10316C00BD320008212F0008212F0008212F000854
:10317C00212F0008212F0008212F0008212F0008E3
:10318C00CB320008DB320008EB320008FB320008BF
:10319C00212F0008212F0008212F0008212F0008C3
:1031AC00212F0008212F0008212F0008212F0008B3
:1031BC00212F0008212F0008212F0008212F0008A3
:1031CC00212F0008212F0008212F0008212F000893
:1031DC00212F0008212F0008212F0008212F000883
:1031EC00212F0008212F0008212F0008212F000873
:1031FC00212F0008212F0008212F0008212F000863
:10320C00CB320008DB320008EB320008FB3200083E
:10321C00054B1A7A023203EB820342F210725A60A7
:10322C008AE600BF80000020480A002064190020B4
:10323C0078000020D80F0020AC0A0020B64B1A7A78
:10324C00023203EB820344F62062E8E7B24B1A7AAF
:10325C00023203EB82034CF25032E0E7AE4B1A7AA7
:10326C00023203EB8203AD4AD9E7AB4B1A7A023236
:10327C0003EB8203AA4AD2E7A74B1A7A023203EB7A
:10328C008203A84ACBE7A44B1A7A023203EB8203DF
:10329C00A54AC4E7A04B1A7A023203EB8203A34A75
:1032AC00BDE79D4B1A7A023203EB8203A04AB6E7C4
:1032BC00994B1A7A023203EB82039E4AAFE7964B84
:1032CC001A7A023203EB820342F28D02A7E7924B89
:1032DC001A7A023203EB82034BF603229FE78E4BE2
:1032EC001A7A023203EB820348F2352297E78A4BB3
:1032FC001A7A023203EB820341F288328FE7864C52
:10330C00237A032B06D1237A0C3304EB830400239A
:10331C006360FFE58848FDF797FD00287FF4FAAD60
:10332C00237A0C3304EB83046060FFF791FD0028D3
:10333C007FF4F0AD01233370FEE500233370764B40
:10334C001B7A032B3FF4E6AD7B48FDF792FDFFF7AC
:10335C00EBFB00287FF4DEADEEE53278002A3FF47B
:10336C00D9AD052B7FF4D6AD6078FFF7BBFAE178C9
:10337C000346A078FFF7C1FA40EA032000236F4D03
:10338C00AB600223EB6028602079FFF7ABFA0122D7
:10339C0028614FF400416A48FEF7BAF82946694B98
:1033AC00694A6548FDF776FB684B1870D1E73278AF
:1033BC00002A3FF4AFAD5A1FD3B2102B3FF6AAAD83
:1033CC006078FFF78FFAE1780346A078FFF795FA5B
:1033DC0040EA0320002359498B60CB6008602079B8
:1033EC00FFF780FA0861022192FBF1F29042054648
:1033FC007FF490AD08283FF68DAD534A05349D42BD
:10340C0004F1020409D801224FF400414C48FEF7A4
:10341C007FF84C4B4C4A4949C3E714F8011C14F88B
:10342C00020CFFF76AFAD0540133E8E73278002A2D
:10343C003FF470AD0A2B7FF46DADA1786078FFF787
:10344C005CFA21790346E078FFF757FA000440EA6A
:10345C000363A1796079FFF750FA217A0246E0798B
:10346C00FFF74BFA18430423344D40EA0220AB60BB
:10347C000223EB606860607A87E73278002A3FF4B9
:10348C0049ADA3F10A06F3B2102B3FF643ADA17878
:10349C006078FFF732FA21790246E078FFF72DFACF
:1034AC00000440EA0262A1796079FFF726FA217ADA
:1034BC000346E079FFF721FA104340EA0320042386
:1034CC001E498B600023CB604860607AFFF70AFAD4
:1034DC00022296FBF2F6B042054608617FF41AAD63
:1034EC0008283FF617AD184A0A349D4204F102042D
:1034FC0089D914F8011C14F8020CFFF7FEF9D0540A
:10350C000133F2E7044B1A7A0C3203EB82034FF0CF
:10351C0000425A6009E700BF480A0020A08601005B
:10352C0048E8010090D0030020A1070000350C00F2
:10353C0040420F0006740100AC0A00209C000020E1
:10354C0000080140B80000202C000020B40000202E
:10355C0063785B4C303B062B2ED8DFE803F0041B62
:10356C001E2124272A004FF46133564DE365286849
:10357C00FEF7E9FFE26D544B28685A60FEF77CFFBA
:10358C0000287FF4C7AC04235C21504A504800F05B
:10359C0091FDD1E44FF4E133E7E74FF46143E4E705
:1035AC004FF41643E1E74FF49643DEE74FF416531E
:1035BC00DBE74FF41663D8E7464BD6E700220A2622
:1035CC003F4DEA65621C111B8B4211DCEB6DC72B66
:1035DC007FF6A0ACEA6D404B9A423FF69BAC394C5F
:1035EC002068FEF7B0FFEA6D374B20685A60C5E7DC
:1035FC0012F8011B303909293FF68CACE96D714387
:10360C00E96512F8010CFFF76DF9E96D0844E865FE
:10361C00D9E76078A0F13003042B3FF67BACFFF7C1
:10362C0061F9274B0138C0B21872FFF711FC83E423
:10363C006378312B07D10123F37100233370204BB6
:10364C00DB88738178E4302B08D1FF2302AA02F8BF
:10365C00013D00237189F371012397E7322B7FF42D
:10366C006BAC0123737267E4337A002B3FF452ACDA
:10367C007389B3814EE400220A257261611C0A1B16
:10368C00934205DCFDF79AF801233061337641E46F
:10369C0011F8012B303A092A3FF63CAC72696A43A7
:1036AC00726111F8010CFFF71DF910447061E6E727
:1036BC00002333722EE4024BDB8873810123F8E77D
:1036CC00480A0020C8180020BC190020A40A0020B9
:1036DC006419002040420F0080841E00A94A2DE985
:1036EC00F8431368A84C0133136023780D2B00F2B8
:1036FC008A81DFE813F00E0044005D01DC008801D4
:10370C008801AE01B10188018801DC00DC004B02AC
:10371C005302F12803D101232370BDE8F883E72875
:10372C0006D10122994B9A7002221A70BDE8F883D7
:10373C000D2816D19648FFF7CDFB964A1368591CF5
:10374C001160954A9549D0540122954B1A7000236B
:10375C001A460133DBB21E2B01F8012FF9D1914B24
:10376C00E3E7002800F04F818E4A894913781C2B1F
:10377C00C85400F2488101331370BDE8F8830E2859
:10378C0000F24181DFE810F00F0015009300930068
:10379C00300035003B007E0095009F00AE00B3006A
:1037AC00B500C300FB000223F12223707A4B1A7080
:1037BC0084E000237C4A23701360FCF7FFFFF121A7
:1037CC00744C754B2268050A995401211344987066
:1037DC00DD70050C000E59701D715871704B06325E
:1037EC0019702260BDE8F88306232370F1226A4B1E
:1037FC009BE70723002223706B4B1A60F6E7F1233B
:10380C00644E65483268614F8354062381184B70AF
:10381C00664B97F803805D6B02F1020CB5F1004F1B
:10382C000CBF10250025454400F80C50DD6802F152
:10383C00030E00F80E50DD683F792D0A0D71DD681E
:10384C0002F1070C2D0C4D71DD6802F1080E2D0EE6
:10385C008D719D6B0C32B5F1004F0CBF10250025FE
:10386C003D4400F80C501D69326000F80E50186988
:10387C00000A487218691B69000C1B0E8872CB7207
:10388C00012212E0F1224348434B016817255A5498
:10389C0007220B445A7057229A7001220831DA70B1
:1038AC001D715A719A710160DA713D4B1A700023C7
:1038BC0032E7F122384B1A700A23237000223A4B5C
:1038CC001A60BDE8F883F1203249334B0A689854EA
:1038DC0009201344043258700A60DE20AD2298701F
:1038EC00DA70CDE7F1222C4B1A700B23E5E70C2391
:1038FC005AE7F1202749284B0A6898540C201344A6
:10390C0003320A60294A587012799A70B8E7F1228A
:10391C00214B1E481A700D225A70244A4579D16BDE
:10392C008079B1F1004F0CBF10210021294499700E
:10393C005169D9705169090A19715169090C597188
:10394C005169090E9971116CB1F1004F0CBF102126
:10395C0000210144D971916919729169090A59724E
:10396C0091699269090C120EDA72002299721A731B
:10397C005A739A73DA731A742270BDE8F8830D23A4
:10398C0038E700BF3C0000204000002080000020F1
:10399C00C000002078000020D80F0020BF000020BD
:1039AC00750000203400002044000020480A00204C
:1039BC009D4D9E4A2B681A445070052B2FD8DFE87A
:1039CC0003F003060C111F24994B186018E0984A59
:1039DC00136843EA0020106012E0954A136843EA2A
:1039EC000040F8E7924A136843EA00600028B4BF2D
:1039FC00042300231060BCBF20F000405060936093
:103A0C002B6801332B60BDE8F88300F00F00082809
:103A1C0088BF0822864B94BF18611A61F0E7844E68
:103A2C00326906329A4204D9824A134403F8060CCE
:103A3C00E6E7002701224FF400417F482770FDF78D
:103A4C0067FD7E4B7B4A31467D48F760FDF722F8D7
:103A5C00D6E7764B58702AE7734F3B68072B25D86F
:103A6C00DFE803F03E4147043E41474C754D764C30
:103A7C002B6843EA0060286030B3FFF755F82A68DA
:103A8C00724BC2F31301002AD96020DA02F0C04154
:103A9C00B1F1C04F0FD10122E2704FF000425A63D6
:103AAC000222227000221A72FFF7D2F93B6801330E
:103ABC003B60BDE8F883500006D501220221E2707C
:103ACC00002221705A63EEE70023E370EEE7022236
:103ADC00227000225A631A72FFF7BAF90123F4E735
:103AEC00584B1860E2E7574A136843EA002010600D
:103AFC00DCE7544A136843EA0040F8E7DFF84491E6
:103B0C00514DD9F8003043EA0060C9F8000068B3A1
:103B1C004E4E95F80380C0F313003061B8F1000FDE
:103B2C0014D1FFF701F8D9F80030002B21DA03F09B
:103B3C00C042B2F1C04F12D101234FF000422B71A1
:103B4C00B26302222A703372FFF782F90023404AD3
:103B5C0023700C2108233F4800F0ACFAA6E759006B
:103B6C0004D50123C6F838802B71EAE700232B71AA
:103B7C00ECE7C6F8388002234FF001082B7086F86A
:103B8C000880FFF765F985F80480DFE7264A2749A6
:103B9C0013680133C8541360BDE8F883224D2B68B9
:103BAC000B2B3FF62DAFDFE803F08F9193068F912F
:103BBC0093578F919395234F234C3B6843EA0060B6
:103BCC00386020B3E378002B7FF41AAF2679002EEF
:103BDC007FF416AFFEF7A8FF3B68002B1ADA03F050
:103BEC00C042B2F1C04F0BD101234FF000426371C0
:103BFC00164BDA63022222701A72FFF729F9FFE6DC
:103C0C005A0004D501236371104BDE63F2E70023E5
:103C1C006371F5E602220D4B2270DE631A72FFF718
:103C2C0017F90123F4E700BF44000020D80F00204F
:103C3C009C0000202C00002000080140B80000204F
:103C4C00AC0A00203800002080000020480A002028
:103C5C00540A002064190020224F234C3B6843EA8D
:103C6C000060386018B3E378002B7FF4C9AEA688E7
:103C7C00002E7FF4C5AEFEF757FF3B68002B19DA18
:103C8C0003F0C042B2F1C04F0AD101234FF0004201
:103C9C0084F82330154B1A64022222700322ABE7FE
:103CAC005B0004D50123A371104B1E64F4E70023C1
:103CBC00A371A5E60223032223700C4B1E641A7217
:103CCC00FFF7C6F80123F3E7064B7EE6054A7FE6CD
:103CDC00044A83E6034A136843EA00600023106039
:103CEC0023708DE63800002080000020480A002058
:103CFC00054A137A0133DBB21372137A032B84BF98
:103D0C0000231372FFF7A4B8480A002038B5838843
:103D1C0005460C46082B53D8DFE803F0050E1C2B88
:103D2C0038465464720009B9002038BDFCF746FDD2
:103D3C0001232860AB80F7E7002941D0FCF73EFD5A
:103D4C002B68C01A0128EFD9FCF738FD2860022037
:103D5C00A88038BD41B1FCF731FD2B68C01AB0F515
:103D6C002F7F46D8012038BDFCF728FD042328609E
:103D7C00E0E729B3FCF722FD2B68C01AB0F5967F5B
:103D8C00F0D9FCF71BFD2860062038BD31BBFCF7D1
:103D9C0015FD2B68C01A0128C6D9FCF70FFD0523A9
:103DAC002860AB80032038BD21B1FCF707FD06234A
:103DBC002860BFE7FCF702FD2B68C01AC828B3D9EE
:103DCC000020C5E761B1FCF7F9FC2B68C01A01288B
:103DDC00AAD9FCF7F3FC07232860AB80022038BD7E
:103DEC000523A7E70029B6D1FCF7E8FC08232860D7
:103DFC00A0E7FCF7E3FC03232860AB80042038BD6C
:103E0C0009B1072396E7FCF7D9FC2B68C01A0128E7
:103E1C008AD9FCF7D3FCAC802860052038BD0000A3
:103E2C0008B54FF0100E0B480B4B80E808400023F0
:103E3C008360C36003614361037643768376C37604
:103E4C0003774377FCF7D2FC18B1BDE8084000F0CB
:103E5C00A5BD08BDAC0A00200064004010B50446A6
:103E6C0086B01022002102A801F082F82268224BB1
:103E7C009A423ED103F5D633DA6902A942F00072B8
:103E8C00DA61DA691D4802F000720092009A9A69B0
:103E9C0042F008029A619B6903F008030193019BAD
:103EAC004FF480730293FDF7DDF94FF40073029326
:103EBC0002230393032302A910480593FDF7D2F9BB
:103ECC000F4A1320536823F4C04343F0E06343F4D8
:103EDC008043536000221146FCF7ECFF1320FDF7E2
:103EEC001DF8002214201146FCF7E4FF1420FDF706
:103EFC0015F806B010BD00BF00640040000C014076
:103F0C000000014008B502680A4B9A4211D10A4AD6
:103F1C004FF44071D369094823F00073D361FDF766
:103F2C0081FA1320FDF706F8BDE808401420FDF7D0
:103F3C0001B808BD0064004000100240000C0140B4
:103F4C00124B07B55A690C2042F001025A6100224B
:103F5C005B69114603F001030193019BFCF7AAFF77
:103F6C000C20FCF7DBFF00220E201146FCF7A2FF11
:103F7C000E20FCF7D3FF002211201146FCF79AFF0C
:103F8C001120FCF7CBFF03B05DF804FB00100240DE
:103F9C000423F7B506460F460C4D02AC04F8043D5D
:103FAC00284600224FF48051FDF7B2FA3B462146D9
:103FBC0001223046FDF735FF0446012228464FF416
:103FCC008051FDF7A5FA204603B0F0BD000C01406E
:103FDC002DE9F3410E460746FCF7F0FB052302AC36
:103FEC0004F8043D00224FF4805180461448FDF73C
:103FFC008FFA3346012221463846FDF712FF05465B
:10400C0080B101224FF480510D48FDF781FA12E086
:10401C00FCF7D4FBA0EB080086420BD99DF80430CA
:10402C009B07EED03346012221463846FEF79FF817
:10403C000228EDD10225284602B0BDE8F08100BF70
:10404C00000C01402DE9F34103268DF806100546BE
:10405C00984616480B0A4FF4FA7117468DF804600F
:10406C008DF80530FFF7B4FF044698B902464FF4BB
:10407C0080510F48FDF74CFA6423324601A92846BB
:10408C00FDF7CFFE044648B101224FF48051084899
:10409C00FDF73EFA204602B0BDE8F08164234246AB
:1040AC0039462846FEF763F80446EDE7641900200C
:1040BC00000C01402DE9F04F1F46002380460E46B0
:1040CC0091468DB0DFF800A13E4CADF80A308DF86A
:1040DC0009304FF4FA715046FFF77AFF83460028F7
:1040EC0065D106230CAD05F8243D02464FF48051F2
:1040FC002046FDF70DFA6423012229464046FDF7C0
:10410C0090FE0122019083464FF480512046FDF72A
:10411C00FFF9019B002B4AD18DF8093002238DF851
:10412C000C30BDF80A309BB233441B128DF80D30A5
:10413C00BDF80A3033448DF80E309DF809301F2B32
:10414C001DD8BDF80A309BB2BB4218D29DF809307D
:10415C00DBB25A1CD2B28DF80920BDF80A2092B2FB
:10416C00511C89B2ADF80A1019F802200CA90B44A5
:10417C0003F8212CBDF80A303344DB06DDD10022D4
:10418C004FF480512046FDF7C3F99DF809202946CC
:10419C00033264234046FDF744FE834601224FF46C
:1041AC0080512046FDF7B4F9BBF1000F03D05846FF
:1041BC000DB0BDE8F08FBDF80A309BB29F4288D895
:1041CC00F5E700BF000C01406419002010222DE916
:1041DC00F04389B00DEB0200002100F0C9FE3F4B0B
:1041EC00DFF800919A693E4D42F010029A619A698B
:1041FC00484602F010020092009A9A69DFF8E880B3
:10420C0042F020029A619A694FF4005102F02002A8
:10421C000192019A9A69002442F004029A619A6907
:10422C00012602F004020292029A9A69032742F0D4
:10423C0008029A619B69002203F008030393039B15
:10424C00FDF766F9284601224FF48051FDF760F91D
:10425C00404600224FF40141FDF75AF9002228464E
:10426C00F821FDF755F94FF4005304A9484604937F
:10427C00079705960694FCF7F5FF04A928460497C2
:10428C0005940696FCF7EEFF042304A92846049334
:10429C0005940694FCF7E6FF4FF4805304A92846D6
:1042AC0004930797059602270694FCF7DBFF4FF45F
:1042BC00014304A940460493059606940797FCF71E
:1042CC00D1FFF82304A92846049305960694079772
:1042DC00FCF7C8FF09B0BDE8F08300BF0010024036
:1042EC00000C014000100140000801402DE9F04194
:1042FC002E4D2A78012A18D100222D4C2D4B2168E5
:10430C002D488A420DD12D4B92B22A491868FEF7DE
:10431C002DF9002301212A4A2B7011702360BDE86E
:10432C00F081165CD6540132EBE7264D2B78013B1D
:10433C00012B33D8FEF7BEFB10B90122204B1A70AB
:10434C006B7A4BB300231A4C1F4E2360F388194F22
:10435C00DFF878806B81F38869899BB27F338B425D
:10436C000FDB22684046531C23603A440123FFF7BD
:10437C0069FE2368013BFA5CFF2A12D123600023FB
:10438C006B720E4B228818680A49FEF7EFF800236F
:10439C00012223600A4B1A70BDE8F081FEF76EFA19
:1043AC00CEE76B8901336B81D5E700BF7500002028
:1043BC00780000203F180020D80F0020C8180020DB
:1043CC007600002080000020480A0020641900209C
:1043DC000022024B1A70FFF789BF00BF7600002045
:1043EC0070B5114C86B02346A4F144020121FCF7B0
:1043FC009FFB6D46FCF7E2F9A4F1100644F8200C83
:10440C000FCE0FC596E8030085E80300203C94E826
:10441C000F00FEF739FA01220821044806B0BDE866
:10442C007040FDF775B800BF200B0020000C014058
:10443C0070B5114C86B02346A4F11C020021FCF788
:10444C0077FBFCF7BBF96D4644F8200CA4F1200671
:10445C00103C0FCC0FC594E8030085E8030096E8E8
:10446C000F00FEF711FA01220821044806B0BDE83E
:10447C007040FDF74DB800BFF80A0020000C014059
:10448C00282230B595B00DEB0200002100F070FD34
:10449C00142200210DEB020000F06AFD1022002115
:1044AC0001A800F065FD05230A934FF48033012425
:1044BC0002250B9312934FF4E0130AA813930D9457
:1044CC000E941195FDF734F80F234FF48062059389
:1044DC000023294605A80793089209930695FDF732
:1044EC00EFF94FF4807301A801940293FDF7BAFA27
:1044FC0015B030BD2DE9F74FFEF7B8F98D4DFCF72F
:10450C003FF98D4B8D4A1D608D4B8E4C1A60FFF719
:10451C00B7FFFFF75BFEFFF713FD00F041FA00F069
:10452C0085FB00F067FB00F04BFBFFF779FC00F01C
:10453C006BFA6420FCF748F94FF47A718248FFF764
:10454C0027FD0021642322467F488DF80610FFF7D3
:10455C0079FD4FF6FF7223889BB2934202D02388D9
:10456C009BB21BB9012323808DF806304FF6FF72E6
:10457C0063884FF000419BB2934201BF4FF400534C
:10458C00638001238DF8063023794FF6FF72FF2BE1
:10459C0001BF0423237101238DF80630E388012029
:1045AC009BB2934201BF4FF48073E38001238DF8DB
:1045BC000630237AFF2B01BF0023237201238DF8D1
:1045CC000630E368013301BF604BE36001238DF8D3
:1045DC0006302369013301BF5D4B236101238DF844
:1045EC0006306369013301BF48F23523636101234F
:1045FC008DF80630A369013301BF42F6B103A36104
:10460C0001238DF80630002303F10C0204EB820227
:10461C0056680133013604BF51608DF80600042B37
:10462C00F2D14FF6FF73E26D9A4201BF4FF4E133C2
:10463C00E36501238DF806309DF80630012B05D17A
:10464C006423404A00214048FFF734FD04214148CF
:10465C00FCF758FF012802D14FF4E13307E0E36D7A
:10466C00002BF9D0E26D3C4B9A42F5D8E36D314802
:10467C006B60FDF701FFFEF76BFA0123374DDFF896
:10468C00F0802B720023EB71E388324F6B814FF675
:10469C00FF73334EAB81334B1A68920613D55868AF
:1046AC00314BC0B21870314BDFF8C8E019684A1CA6
:1046BC00B2F5806F1A6008BF00220EF8010008BF27
:1046CC001A60FFF70BF82B7A012B40F015812B7E2B
:1046DC00002B55D14FF000090DF107020123698918
:1046EC00194885F81890FFF7ADFC9DF80720DFF806
:1046FC0088A00D2A40F0DA80DFF880B05846FEF72B
:10470C00E9FB4A4649469AF8003001335B440BF109
:10471C00010B5B4540F0C38012B100238AF80030D6
:10472C0063886A899BB2013B9A4280F2BC80013259
:10473C006A812CE0BC190020C8180020C81A00207F
:10474C00CC180020480A00206419002020A1070082
:10475C0048E80100000C01407F9698008000002082
:10476C0000080140004800403E180020480000208E
:10477C0000100140F80F00205900002020180020E4
:10478C00FCF71CF82B69C01A6B699842A2D2FCF793
:10479C0015F80021DFF8E491D9E90023801A61EBC8
:1047AC000301002908BF14280AD3704B1B7803F0AF
:1047BC00FF0A2BB9FCF702F889E80104FFF796FD14
:1047CC00FBF7FCFF0021DFF8B891D9E90023801A30
:1047DC0061EB0301002908BFB0F5FA7F0BD3FBF79F
:1047EC00EDFF0023C9F800004FF400514046C9F812
:1047FC000430FCF792FE02213846FCF783FE431E80
:10480C00594259415A48FFF781FA052801D1FFF75F
:10481C006FFA08213846FCF775FE01280DD1DFF838
:10482C0064A1DFF864919AF80030002B67D18AF804
:10483C000000FBF7C3FFC9F800004FF400413046FD
:10484C00FCF760FE01280DD1DFF84091DFF840A1A4
:10485C0099F80030002B62D189F80000FBF7AEFF0D
:10486C00CAF800004FF480713046FCF74BFE01286B
:10487C0083467FF410AF3F48FCF7F9FA042871D057
:10488C00DFF81091DFF810A199F80030002B57D108
:10489C0089F800B0FBF792FFCAF80000FBE603F8BA
:1048AC00011D012235E700232B7270E7FF2A10D17E
:1048BC00E288AB8992B293428AF8009005D34FF606
:1048CC00FF72934201D06B8161E700232B72E38866
:1048DC00F9E79AF800302849CA546288698992B27B
:1048EC000133013ADBB291428AF80030DBDA1D2B3E
:1048FC00D9D8013169814AE700232B7647E7FBF7CA
:10490C005DFFD9F80030C01A032896D9002208217F
:10491C003846FCF7FDFD00238AF8003089E7FBF7E9
:10492C004DFFDAF80030C01A03289BD900224FF44F
:10493C0000413046FCF7ECFD002389F8003091E78C
:10494C00FBF73CFFDAF80030C01A64287FF6A3AE00
:10495C0000224FF480713046FCF7DAFD002389F811
:10496C00003098E6002003B0BDE8F08F7600002000
:10497C00C0180020AC0A002020180020680000207D
:10498C00600000205800002054000020740000201B
:10499C0070000020500000204C00002070470000E8
:1049AC0008B54FF0FF324FF480730648064980E893
:1049BC000E00FDF78FF918B1BDE80840FFF7EEBF08
:1049CC0008BD00BF501900200028004007B50B4B54
:1049DC0002689A420ED1FCF7A5FD094BDA6942F048
:1049EC000062DA610122DB6903F000630193019B31
:1049FC00044B1A6003B05DF804FB00BF00280040B4
:104A0C00001002403C04424208B54FF4827E0D482F
:104A1C000D4B4FF4007280E80840002382618360E4
:104A2C00C3600361436128220362436283620A23E9
:104A3C00C261C362FDF73AFC18B1BDE80840FFF74C
:104A4C00ADBF08BD641900200038004010B5044605
:104A5C0086B01022002102A800F08AFA2268174BB7
:104A6C009A4228D103F5EC33DA6902A942F4804268
:104A7C00DA61DA69124802F480420092009A9A696B
:104A8C0042F008029A619B6903F008030193019BB1
:104A9C004FF4204302930223039303230593FCF763
:104AAC00E1FB4FF480430293002302A904480393D3
:104ABC000493FCF7D7FB06B010BD00BF00380040D4
:104ACC00000C01400E4B82B09A6942F001029A61CF
:104ADC009A6902F001020092009ADA6942F080525F
:104AEC00DA61DB69074A03F080530193019B536839
:104AFC0023F0E06343F00073536002B0704700BFD3
:104B0C0000100240000001407047FEE7FEE7FEE7A0
:104B1C00FEE7704770477047FBF744BE0148FCF74F
:104B2C000DBB00BFFC1900200148FCF707BB00BF00
:104B3C00401A00200148FCF701BB00BF841A00207A
:104B4C000148FCF783B800BFAC0A0020FFF7F8BFA0
:104B5C000148FDF7C9BD00BFC81A00200148FDF788
:104B6C00C3BD00BF081B00200148FDF7BDBD00BF41
:104B7C00BC1900200F4B1A6842F001021A605968E8
:104B8C000D4A0A405A601A6822F0847222F480326C
:104B9C001A601A6822F480221A605A6822F4FE0203
:104BAC005A604FF41F029A604FF00062034B9A60F8
:104BBC00704700BF001002400000FFF800ED00E05D
:104BCC0008B54FF416530948094980E80A0000213A
:104BDC000C238160C160016143618161FDF77AFC46
:104BEC0018B1BDE80840FFF7D9BE08BDC81A0020AF
:104BFC000038014008B54FF4E13E0A480A4B0C223C
:104C0C0080E80840002342618360C36003618361D4
:104C1C00C361FDF731FC18B1BDE80840FFF7BEBE1B
:104C2C0008BD00BF081B00200044004008B54FF42D
:104C3C00E13E0A480A4B0C2280E8084000234261FE
:104C4C008360C36003618361C361FDF715FC18B118
:104C5C00BDE80840FFF7A2BE08BD00BFBC1900208C
:104C6C0000480040F0B5102705468BB03A460021AD
:104C7C0006A800F07DF92B68674A934244D1674B34
:104C8C0006A99A69664842F480429A619A6900269C
:104C9C0002F480420092009A9A69624C42F004023B
:104CAC009A619B6903F004030193019B4FF4007319
:104CBC0006930223079303230993FCF7D3FA4FF4CB
:104CCC008063574806A9069307960896FCF7CAFA1C
:104CDC00554B204684E888008023A660E36026615B
:104CEC006661A661E661FCF749F908B1FFF756FE6B
:104CFC00002225202C6311466562FCF7DBF8252089
:104D0C00FCF70CF90BB0F0BD484A93423FD1434B32
:104D1C0006A9DA69424842F40032DA61DA690026FF
:104D2C0002F400320292029A9A69414C42F0040257
:104D3C009A619B6903F004030393039B042306937A
:104D4C000223079303230993FCF78CFA08233448B6
:104D5C0006A9069307960896FCF784FA354B20466D
:104D6C0084E888008023A660E36026616661A66102
:104D7C00E661FCF703F908B1FFF710FE00222620CC
:104D8C002C6311466562FCF795F82620B8E72A4A91
:104D9C009342B7D1214B06A9DA69284842F4802204
:104DAC00DA61DA69002602F480220492049A9A6984
:104DBC00234C42F008029A619B6903F008030593A7
:104DCC00059B4FF4806306930223079303230993F7
:104DDC00FCF748FA4FF40063184806A906930796A7
:104DEC000896FCF73FFA174B204684E8880080238E
:104DFC00A660E36026616661A661E661FCF7BEF819
:104E0C0008B1FFF7CBFD002227202C631146656209
:104E1C00FCF750F8272073E70038014000100240DF
:104E2C0000080140401A00204400024000440040A9
:104E3C00841A00208000024000480040000C014011
:104E4C00FC1900201C00024003681F4A10B5934255
:104E5C00044612D102F5584293694FF4C06123F411
:104E6C00804393611948FCF7DDFA206BFCF7B6F828
:104E7C002520BDE81040FCF75DB8154A93420ED1D1
:104E8C0002F5E632D3690C2123F40033D3610F48C9
:104E9C00FCF7C8FA206BFCF7A1F82620E9E70D4ACD
:104EAC0093420FD102F5E432D3694FF4406123F4FD
:104EBC008023D3610848FCF7B5FA206BFCF78EF819
:104ECC002720D6E710BD00BF003801400008014084
:104EDC000044004000480040000C0140002103E069
:104EEC000B4B5B58435004310A480B4B42189A4207
:104EFC00F6D30A4A02E0002342F8043B084B9A42DC
:104F0C00F9D3FFF737FE00F00FF8FFF7F3FA70470D
:104F1C002C500008000000200C0000201000002085
:104F2C00481B0020FEE7000070B500250C4E0D4C10
:104F3C00A41BA410A54209D100F046F800250A4E86
:104F4C000A4CA41BA410A54205D170BD56F82530FF
:104F5C0098470135EEE756F8253098470135F2E7CA
:104F6C002450000824500008245000082850000841
:104F7C0003460244934200D1704703F8011BF9E742
:104F8C00C0F3C7537F3B162B10B5014614DC002B26
:104F9C0007DA013300F0004101D141F07E5108469F
:104FAC0010BD084A1A411042F9D04FF48001194142
:104FBC00014421EA0201F2E7802BF0D1FBF7CEF895
:104FCC000146ECE7FFFF7F00F8B500BFF8BC08BC5A
:104FDC009E467047F8B500BFF8BC08BC9E467047AB
:104FEC0002030405060708090A0B0C0D0E0F10101E
:104FFC0002030405060708090A0B0C0D0E0F10100E
:10500C00000000000000000001020304060708096C
:08501C00000000000102030482
:04502400310100084E
:045028000D0100086E
:0C502C00010000001000000000A24A0477
:0400000508004EE9B8
:00000001FF
