:020000040800F2
:1000000000500020F9760008557200085772000869
:10001000597200085B7200085D7200080000000061
:100020000000000000000000000000005F720008F7
:100030006172000800000000637200086572000829
:1000400041770008417700084177000841770008B0
:1000500041770008417700084177000841770008A0
:100060004177000841770008417700084177000890
:10007000A572000841770008B172000841770008B6
:1000800041770008BD72000841770008C972000876
:10009000D5720008417700084177000841770008D1
:1000A0004177000841770008417700084177000850
:1000B0004177000841770008417700084177000840
:1000C0004177000841770008417700084177000830
:1000D00041770008D9720008E5720008F172000843
:1000E00041770008417700084177000800000000D0
:1000F0000000000000000000000000000000000000
:0C01000000000000000000005FF808F1A3
:10010C0010B5054C237833B9044B13B10448AFF345
:10011C0000800123237010BDA80000200000000007
:10012C001480000808B5034B1BB103490348AFF317
:10013C00008008BD00000000AC0000201480000806
:10014C00034613F8012B002AFBD1181A013870470B
:10015C0080F0004002E000BF81F0004142001FBF70
:10016C005FEA410392EA030F7FEA226C7FEA236C79
:10017C006AD04FEA1262D2EB1363C1BFD21841406E
:10018C0048404140B8BF5B42192B88BF704710F004
:10019C00004F40F4000020F07F4018BF404211F0A7
:1001AC00004F41F4000121F07F4118BF494292EA0F
:1001BC00030F3FD0A2F1010241FA03FC10EB0C003B
:1001CC00C3F1200301FA03F100F0004302D54942C8
:1001DC0060EB4000B0F5000F13D3B0F1807F06D375
:1001EC0040084FEA310102F10102FE2A51D2B1F16D
:1001FC00004F40EBC25008BF20F0010040EA030062
:10020C007047490040EB000010F4000FA2F101020E
:10021C00EDD1B0FA80FCACF1080CB2EB0C0200FA98
:10022C000CF0AABF00EBC25052421843BCBFD040E6
:10023C001843704792F0000F81F4000106BF80F460
:10024C0000000132013BB5E74FEA41037FEA226C23
:10025C0018BF7FEA236C21D092EA030F04D092F0EE
:10026C00000F08BF0846704790EA010F1CBF002022
:10027C00704712F07F4F04D1400028BF40F000407F
:10028C00704712F100723CBF00F50000704700F09F
:10029C00004343F0FE4040F4000070477FEA2262C6
:1002AC0016BF08467FEA23630146420206BF5FEA97
:1002BC00412390EA010F40F4800070474FF0000397
:1002CC0004E000BF10F0004348BF40425FEA000C5E
:1002DC0008BF704743F0964301464FF000001CE006
:1002EC0050EA010208BF70474FF000030AE000BF5C
:1002FC0050EA010208BF704711F0004302D540429A
:10030C0061EB41015FEA010C02BF8446014600200B
:10031C0043F0B64308BFA3F18053A3F50003BCFA26
:10032C008CF2083AA3EBC25310DB01FA02FC6344D3
:10033C0000FA02FCC2F12002BCF1004F20FA02F2DA
:10034C0043EB020008BF20F00100704702F12002CD
:10035C0001FA02FCC2F1200250EA4C0021FA02F22E
:10036C0043EB020008BF20EADC7070474FF0FF0C33
:10037C001CEAD0521EBF1CEAD15392EA0C0F93EA2E
:10038C000C0F6FD01A4480EA010C400218BF5FEAD0
:10039C0041211ED04FF0006343EA501043EA511143
:1003AC00A0FB01310CF00040B1F5000F3EBF49003D
:1003BC0041EAD3715B0040EA010062F17F02FD2A41
:1003CC001DD8B3F1004F40EBC25008BF20F0010024
:1003DC00704790F0000F0CF0004C08BF49024CEA3B
:1003EC00502040EA51207F3AC2BFD2F1FF0340EACD
:1003FC00C250704740F400004FF00003013A5DDC3E
:10040C0012F1190FDCBF00F000407047C2F100027E
:10041C00410021FA02F1C2F1200200FA02FC5FEA6B
:10042C00310040F1000053EA4C0308BF20EADC70B5
:10043C00704792F0000F00F0004C02BF400010F427
:10044C00000F013AF9D040EA0C0093F0000F01F0D4
:10045C00004C02BF490011F4000F013BF9D041EAF6
:10046C000C018FE70CEAD15392EA0C0F18BF93EAF8
:10047C000C0F0AD030F0004C18BF31F0004CD8D122
:10048C0080EA010000F00040704790F0000F17BFA9
:10049C0090F0004F084691F0000F91F0004F14D0EF
:1004AC0092EA0C0F01D142020FD193EA0C0F03D147
:1004BC004B0218BF084608D180EA010000F000404A
:1004CC0040F0FE4040F40000704740F0FE4040F425
:1004DC00400070474FF0FF0C1CEAD0521EBF1CEAC4
:1004EC00D15392EA0C0F93EA0C0F69D0A2EB0302E2
:1004FC0080EA010C49024FEA402037D04FF080537C
:10050C0043EA111143EA10130CF000408B4238BF40
:10051C005B0042F17D024FF4000C8B4224BF5B1A4E
:10052C0040EA0C00B3EB510F24BFA3EB510340EA9C
:10053C005C00B3EB910F24BFA3EB910340EA9C004A
:10054C00B3EBD10F24BFA3EBD10340EADC001B01BA
:10055C0018BF5FEA1C1CE0D1FD2A3FF650AF8B425E
:10056C0040EBC25008BF20F0010070470CF0004C6B
:10057C004CEA50207F32C2BFD2F1FF0340EAC25096
:10058C00704740F400004FF00003013A37E792F057
:10059C00000F00F0004C02BF400010F4000F013AB5
:1005AC00F9D040EA0C0093F0000F01F0004C02BFB0
:1005BC00490011F4000F013BF9D041EA0C0195E719
:1005CC000CEAD15392EA0C0F08D142027FF47DAFB2
:1005DC0093EA0C0F7FF470AF084676E793EA0C0FA2
:1005EC0004D14B023FF44CAF08466EE730F0004CA0
:1005FC0018BF31F0004CCAD130F000427FF45CAF30
:10060C0031F000437FF43CAF5FE700BF4FF0FF3C9D
:10061C0006E000BF4FF0010C02E000BF4FF0010CF0
:10062C004DF804CD4FEA40024FEA41037FEA226CB9
:10063C0018BF7FEA236C11D001B052EA530C18BFDB
:10064C0090EA010F58BFB2EB030088BFC81738BF40
:10065C006FEAE17018BF40F0010070477FEA226C2E
:10066C0002D15FEA402C05D17FEA236CE4D15FEA2A
:10067C00412CE1D05DF8040B704700BF844608465E
:10068C006146FFE70FB5FFF7C9FF002848BF10F11F
:10069C00000F0FBD4DF808EDFFF7F4FF0CBF012064
:1006AC0000205DF808FB00BF4DF808EDFFF7EAFFEE
:1006BC0034BF012000205DF808FB00BF4DF808EDA9
:1006CC00FFF7E0FF94BF012000205DF808FB00BF9E
:1006DC004DF808EDFFF7D2FF94BF012000205DF824
:1006EC0008FB00BF4DF808EDFFF7C8FF34BF012031
:1006FC0000205DF808FB00BF42000ED2B2F1FE4FA5
:10070C000BD34FF09E03B3EB126209D44FEA0023D4
:10071C0043F0004323FA02F070474FF0000070479B
:10072C0012F1610F01D1420202D14FF0FF3070473C
:10073C004FF00000704700BF38B50E4B05461878D7
:10074C004FF47A73B3FBF0F30B4A1068B0FBF3F081
:10075C0000F006FC044658B90F2D09D8024629466C
:10076C004FF0FF3000F0A6FB2046044B1D6038BD57
:10077C000120FCE7000000202C00002004000020D9
:10078C00074A08B51368032043F01003136000F008
:10079C007FFB0020FFF7D0FF06F034FD002008BDE2
:1007AC0000200240034A044B11681B780B44136071
:1007BC00704700BF6401002000000020014B186846
:1007CC00704700BF6401002038B50446FFF7F6FF00
:1007DC000546631C1EBF044B1B78E418FFF7EEFFA5
:1007EC00401BA042FAD338BD0000002038B50446A7
:1007FC0000286ED090F820300BB905F013FA22685F
:10080C00136823F002031360FFF7D8FF0546236833
:10081C005A68910751D41A6842F001021A60FFF726
:10082C00CDFF054623685A68D20754D5227E002096
:10083C00012A1A680CBF42F0800222F080021A6072
:10084C00627E012A1A680CBF42F0400222F040027C
:10085C001A60A27E012A1A680CBF42F0200222F014
:10086C0020021A60E27E012A1A680CBF22F01002E4
:10087C0042F010021A60227F012A1A680CBF42F063
:10088C00080222F008021A60627F012A1A680CBF63
:10089C0042F0040222F004021A60D4E902210A4355
:1008AC0021690A4361690A43616801390A43DA61C3
:1008BC000123606284F8203038BDFFF77FFF401BB6
:1008CC000A28A4D9636A43F400336362052384F8CD
:1008DC0020300120F0E7FFF771FF401B0A28A1D957
:1008EC00F0E790F8203070B5013B012B5FD8012464
:1008FC000368D3F8002242F00102C3F800224A69CF
:10090C00D3F81C5202F01F0004FA00F0C443254037
:10091C00C3F81C52CD6985BBD3F80C52CE68254068
:10092C00C3F80C528D8803EBC20245EA0645C2F8A7
:10093C0040528E680D8845EA0645C2F844528A69D1
:10094C006ABBD3F804222240C3F804220A6952BBC2
:10095C00D3F814222240C3F814220A6A012A02BFD7
:10096C00D3F81C221043C3F81C020020D3F8002239
:10097C0022F00102C3F8002270BD012DDFD1D3F8A3
:10098C000C520E680543C3F80C528D8803EBC2025F
:10099C0045EA0645C2F840528E688D89CBE7D3F8FC
:1009AC0004220243D0E7D3F814220243D3E7436A6C
:1009BC0043F4802343620120DEE738B590F8203001
:1009CC000446012B1FD10223026880F820301368E3
:1009DC0023F001031360FFF7F1FE05462368586806
:1009EC0010F0010001D1606238BDFFF7E7FE401B3B
:1009FC000A28F3D9636A43F400336362052384F84D
:100A0C0020300120F0E7436A43F400234362F8E707
:100A1C0038B590F820300446022B22D102681368B6
:100A2C0043F001031360FFF7C9FE054623685A68BB
:100A3C00D20708D51A68002022F002021A6001239E
:100A4C0084F8203038BDFFF7B9FE401B0A28EDD9D9
:100A5C00636A43F400336362052384F82030012079
:100A6C00F0E7436A43F480134362F8E710B5044699
:100A7C0070B1FFF7CDFF204605F028F90020226861
:100A8C00136843F400431360606284F8200010BDC7
:100A9C000120FCE7F0B590F820500668013D012DCF
:100AAC00B46840D814F0E05F39D0C4F30164032C6F
:100ABC004FF0010505D1436A43F400034362012062
:100ACC0027E0A5401D60D1E9020704F1180308BB1B
:100ADC00086847EA40501B01F0500869240133199B
:100AEC00C3F884010020097D3444012902BFD3F8E6
:100AFC00841141F48071C3F884115168C4F88C11CD
:100B0C001268C4F88821D3F8802142F00102C3F89E
:100B1C008021F0BD4D68384340EAC500DBE7436AED
:100B2C0043F40013CAE7436A43F48023C6E7F0B5E5
:100B3C0090F82040013C012C6BD8066841B9F46850
:100B4C00A40707D1436A43F400134362012055E024
:100B5C003469F5E70C013519D5F8B07107F00407C5
:100B6C009760002F4BD1D5F8B0717F0D1760D5F879
:100B7C00B071264407F00207D760D5F8B47107F0BE
:100B8C000F071761D5F8B471D5F8B451C7F307271F
:100B9C002D0C97615561D6F8B8211A700268224461
:100BAC00D2F8B821120A5A7002682244D2F8B8213D
:100BBC00120C9A7002682244D2F8B821120EDA7024
:100BCC0002682244D2F8BC211A7102682244D2F87D
:100BDC00BC21120A5A7102682244D2F8BC21120CB0
:100BEC009A7102681444D4F8BC21120EDA710368AD
:100BFC0051B9DA6842F02002DA600020F0BDD5F875
:100C0C00B071FF085760B2E71A6942F020021A610E
:100C1C00F3E7436A43F4802397E790F82030013BD5
:100C2C00012B05D8026800205369194351617047A4
:100C3C00436A43F480234362012070477047704736
:100C4C00704770477047704770472DE9F84F03683D
:100C5C0005465E69D3F8049016F001049F68D3F83A
:100C6C000CB0D3F810A0D3F8188022D017F00104E0
:100C7C0007D00122B9079A6040F1A38003F028FD48
:100C8C000024FB0509D54FF480722B68B8059A60D7
:100C9C0040F1A580284603F01CFDFB0309D54FF459
:100CAC0080322B68B8039A6040F1A780284603F085
:100CBC0011FD330707D51BF0100F1FBF10222B6837
:100CCC0044F40074DA60770708D51BF0080F05D0E0
:100CDC0008222B682846DA60FFF7B3FFB00706D569
:100CEC002B68DB68990702D0284605F0DDFD7206FB
:100CFC0007D51AF0100F1FBF10222B6844F4806424
:100D0C001A61B30608D51AF0080F05D008222B6813
:100D1C0028461A61FFF796FFF70606D52B681B6964
:100D2C00980702D0284605F08BFDB10308D519F0C1
:100D3C00100F05D010222B6828465A60FFF783FF4E
:100D4C00F20308D519F0080F05D008222B682846A5
:100D5C005A60FFF779FF33042AD519F0040F2A687B
:100D6C0024D0F70504D518F0010F18BF44F0010486
:100D7C00B00504D518F0020F18BF44F00204710539
:100D8C0004D518F0040F18BF44F0040433050DD536
:100D9C0018F070030AD0302B4CD03CD8102B43D019
:100DAC00202B44D0936923F0700393610423536088
:100DBC002CB16B6A28461C436C6203F08DFCBDE8B9
:100DCC00F88F7A0705D417F0080405D1FFF736FF22
:100DDC0057E74FF4006454E74FF4805451E779051A
:100DEC0002D544F4005458E73A0502D544F4804443
:100DFC0053E72846FFF723FF4FE7790302D544F466
:100E0C00004456E73A0302D544F4803451E72846AF
:100E1C00FFF716FF4DE7502B0FD0602B10D0402B57
:100E2C00C0D144F04004BDE744F00804BAE744F0F4
:100E3C001004B7E744F02004B4E744F08004B1E7B1
:100E4C0044F48074AEE790F82030DBB25A1E012ACD
:100E5C0008D802685168890706D4126812F0020F8C
:100E6C0018BF0323184670470423FBE7406A7047FA
:100E7C0090F82030013B012B95BF0023436A43625D
:100E8C0043F4802392BF1846436201207047000050
:100E9C00074A0002D36800F4E06023F4E0631B040B
:100EAC001B0C43F0BF6343F400330343D360704720
:100EBC0000ED00E0174B70B5DC684FF0FF36C4F363
:100ECC000224C4F10705042D04F1040328BF0425F2
:100EDC00062B98BF002406FA05F388BF033C21EAD1
:100EEC000303A34006FA04F422EA0404002843EAAC
:100EFC000403A8BF00F160404FEA0313B8BF064AD1
:100F0C00DBB2ABBF00F5614000F00F0080F800339E
:100F1C00135470BD00ED00E014ED00E0002808DB78
:100F2C000123420900F01F0003FA00F0014B43F8C3
:100F3C002200704700E100E000280DDB012243098C
:100F4C0000F01F0002FA00F0044A203342F823009C
:100F5C00BFF34F8FBFF36F8F704700BF00E100E00E
:100F6C000138B0F1807F0AD2F021064B064A586056
:100F7C0082F823100020072298601A607047012025
:100F8C00704700BF10E000E000ED00E010B530B39A
:100F9C0014220168134B0B44B3FBF2F39B00036464
:100FAC00114B0A68C363D0E901342343C46822F4AB
:100FBC007F522343046922F03002234344692343C4
:100FCC0084692343C469234313430B600122002328
:100FDC0080F82120836380F82030184610BD012052
:100FEC00FCE700BFF8FFFDBF0000024010B508B3DE
:100FFC000168114A0B680A4423F001030B600023BB
:10100C000B604B608B60CB601421B2FBF1F20121C1
:10101C0092000A4C026401FA02F2C4636260C0E9F5
:10102C000A33C0E90C33836380F8213080F8203018
:10103C00184610BD0120FCE7F8FFFDBF0000024080
:10104C00F0B590F82040012C35D0012490F82150B7
:10105C0080F82040A5424FF000064FF0020428D142
:10106C0080F8214004688663266826F00106266015
:10107C00D0E90F67BD407560636043680568102B4D
:10108C00C36A0BBFA260A160E160E2604BB1236850
:10109C0043F00E03002023602B6843F001032B6008
:1010AC00F0BD236823F004032360236843F00A0394
:1010BC00F0E780F820600220F2E7000090F8213081
:1010CC0010B5022B03D004238363012010BD0368E9
:1010DC001A6822F00E021A601A6822F001021A60D5
:1010EC00184A93421FD0143293421ED014329342AA
:1010FC001DD0143293421DD0143293421DD01432A1
:10110C0093420CBF4FF480134FF080730E4A0024AF
:10111C005360012380F82130436B80F820407BB171
:10112C0098472046D2E70123F0E71023EEE74FF46F
:10113C008073EBE74FF48053E8E74FF48033E5E737
:10114C001846C3E7080002400000024070B40425B2
:10115C00C66B026C3468036895402542196832D01E
:10116C004D0730D51A6896065EBF1A6822F0040245
:10117C001A603E4A934219D01432934218D014325A
:10118C00934217D01432934217D01432934217D093
:10119C00143293420CBF4FF480034FF08063344AF7
:1011AC005360C36A002B5ED070BC18470423F6E76B
:1011BC004023F4E74FF48063F1E74FF48043EEE70C
:1011CC004FF48023EBE702259540254235D08D075F
:1011DC0033D51A68940606D41A6822F00A021A60EB
:1011EC00012280F82120214A934219D014329342D3
:1011FC0018D01432934217D01432934217D01432B1
:10120C00934217D0143293420CBF4FF400134FF09B
:10121C000073174A5360002380F82030836AC1E7BB
:10122C000223F6E72023F4E74FF40073F1E74FF4C1
:10123C000053EEE74FF40033EBE7082595402542C9
:10124C0011D009070FD5196821F00E01196001237F
:10125C0003FA02F27260836380F82130002380F875
:10126C002030036B9EE770BC704700BF0800024043
:10127C00000002402DE9F74F00242646654BDFF8AD
:10128C00A4C1DFF8A4E10A6832FA06F502D103B072
:10129C00BDE8F08F4FF0010808FA06F802EA0802E0
:1012AC0090457ED14D68122D00F0A98000F282800D
:1012BC00022D00F0A18076D8002D00F08880012D41
:1012CC0000F098804FF00F09FF2A93BF824606F179
:1012DC008045083DD0F800B092BFB500D0F804B0FE
:1012EC00AD0009FA05F82BEA080804FA05F588BFE1
:1012FC0000F1040A48EA0505CAF80050D1F804A028
:10130C001AF0805F4DD0444F26F00308BD6908F1F8
:10131C00804845F00105BD61BD6908F5803805F0D0
:10132C000105019506F0030B019D4FEA8B0BD8F8D4
:10133C00085009FA0BF925EA0909384DA84263D07F
:10134C0005F58065A84261D005F58065A8425FD09F
:10135C0005F58065A8420CBF0325042505FA0BF59D
:10136C0045EA0905C8F808501D681AF4803F14BFF7
:10137C00154395431D605D681AF4003F14BF154377
:10138C0095435D609D681AF4801F14BF1543954307
:10139C009D60DD681AF4001F14BF2A4325EA02027F
:1013AC00DA6001366FE7032D22D0112D8AD1CC687B
:1013BC00043487E71A4FBD4209D012D8DFF86C907D
:1013CC004D4504D009F580394D457FF47BAF8C68D1
:1013DC00C4B1012C0CBFC0F81080C0F814800824D4
:1013EC0070E76545F3D07545F1D0DFF84490EBE735
:1013FC00002467E7CC6865E7CC68083462E7CC6802
:10140C000C345FE704245DE70025A7E70125A5E779
:10141C000225A3E70004014000100240000801402F
:10142C0000002110000031100000321000001110DB
:10143C00000022102DE9F74F4FF0040B00234FF062
:10144C00010A4FF00F0800EB0B020192314A31FAFE
:10145C0003F402D103B0BDE8F08F0AFA03F70F4092
:10146C004FD023F0030404F1804404F5803403F0DE
:10147C00030C294DA6684FEA8C0C08FA0CF9A8420B
:10148C0009EA060E3FD005F58065A8423DD005F56A
:10149C008065A8423BD005F58065A84214BF0425A1
:1014AC00032505FA0CF575456FEA07060FD1A568FB
:1014BC0025EA0905A560146834401460546834406A
:1014CC005460946834409460D4683440D460FF2FE6
:1014DC0093BF074603F18044083CD0F800C08ABF94
:1014EC00D0F804C09C00A40008FA04F588BF019F42
:1014FC000BFA04F42CEA050525433D60C46826402C
:10150C00C6600133A3E70025CBE70125C9E7022517
:10151C00C7E700BF0004014000080140836819427E
:10152C0014BF0120002070470AB101617047090403
:10153C00FBE7C3680B4214BF4161016170470000B7
:10154C000122014B1A60704720000E422DE9F34135
:10155C00054608B901203CE00368DB0710D42B6872
:10156C009F075DD42B68190700F194802B685A07EC
:10157C0000F1BE80E869002840F02C81002028E0B2
:10158C008F4C636803F00C03042B07D0636803F0E3
:10159C000C03082B09D16368DE0306D523689C0372
:1015AC00DDD56B68002BDAD1D4E76B68B3F5803FDF
:1015BC0012D1236843F480332360FFF7FFF806460B
:1015CC0023689803CBD4FFF7F9F8801B6428F7D96C
:1015DC00032002B0BDE8F0819BB9236823F480336B
:1015EC002360236823F480232360FFF7E7F8064683
:1015FC0023689903B3D5FFF7E1F8801B6428F7D96A
:10160C00E6E7B3F5A02F236803D143F480232360CE
:10161C00CFE723F480332360236823F48023CBE7C4
:10162C00674C636813F00C0F07D0636803F00C036E
:10163C00082B10D16368DA030DD423689B0702D5FD
:10164C002B69012B86D123686A6923F0F80343EADE
:10165C00C203236086E72A695A4B6AB101221A60D9
:10166C00FFF7ACF8064623689F07ECD4FFF7A6F803
:10167C00801B0228F7D9ABE71A60FFF79FF80646E4
:10168C00236898077FF56EAFFFF798F8801B022848
:10169C00F6D99DE7AA694A4C4B4BDAB101221A6084
:1016AC00FFF78CF80646636A9B070DD54FF4FA5288
:1016BC00464B1B68B3FBF2F3019300BF019B5A1E10
:1016CC000192002BF9D151E7FFF778F8801B022823
:1016DC00E9D97DE71A60FFF771F80646636A9F0740
:1016EC007FF544AFFFF76AF8801B0228F6D96FE745
:1016FC00334CE369D80024D40127E36943F08053C9
:10170C00E361E36903F080530093009B304E336830
:10171C00D90518D5EB68012B26D1236A43F00103B8
:10172C002362FFF74BF841F288368046236A9B0709
:10173C003FD5002F3FF41EAFE36923F08053E361E4
:10174C0018E70027E2E7336843F480733360FFF750
:10175C0035F880463368DA05DCD4FFF72FF8A0EBB8
:10176C0008006428F6D933E7ABB9236A41F288380C
:10177C0023F001032362236A23F004032362FFF79F
:10178C001DF80646236A9807D3D5FFF717F8801B78
:10179C004045F7D91CE7052B236A03D143F004031A
:1017AC002362BAE723F001032362236A23F00403C4
:1017BC00B6E7FFF703F8A0EB0800B042B6D907E78D
:1017CC000010024000004242800442422C000020E3
:1017DC00007000402A4B5A681C4602F00C02082A82
:1017EC003DD00023274E022833602BD1FEF7E6FFB5
:1017FC000746236899011FD42B6AB3F5803F05D1A6
:10180C006268A96822F400320A436260696A6268FD
:10181C000B4322F474121343636001233360FEF70D
:10182C00CDFF054623689A013FF5A8AEFEF7C6FF2B
:10183C00401B0228F6D9CBE6FEF7C0FFC01B0228DE
:10184C00D7D9C5E6FEF7BAFF054623689B017FF59D
:10185C0095AEFEF7B3FF401B0228F6D9B8E6012877
:10186C003FF4B7AE58682B6A00F480329A427FF48A
:10187C0071AE6B6A00F47010C01A18BF0120A8E694
:10188C00001002406000424230B5184B87B002ACE9
:10189C0003F11005224618685968083303C2AB429D
:1018AC001446F7D140F201231149ADF804304B68CE
:1018BC0003F00C02082A17D1C3F3834206A8024492
:1018CC00DB0312F8102C0CD54B680A48C3F34043C9
:1018DC00504306AA134413F8143CB0FBF3F007B0C2
:1018EC0030BD05485043FAE70248F8E72C80000861
:1018FC000010024000127A0000093D002DE9F04171
:10190C000D46044610B90120BDE8F081444A136825
:10191C0003F007038B4228D321688E0730D4CA0703
:10192C0043D43F4A136803F00703AB4265D82268DF
:10193C003C4D12F0040F6CD1130706D56B6822696D
:10194C0023F4605343EAC2036B60FFF79DFF6B689F
:10195C00354AC3F30313D35CD840344B1860344B73
:10196C001868FEF7E9FE0020CEE7136823F00703A2
:10197C000B431360136803F007038B42C3D1CBE70F
:10198C00284B11F0040F1EBF5A6842F4E0625A60F3
:10199C00080742BF5A6842F460525A605A68A068FD
:1019AC0022F0F00202435A60B9E762681D4E012A28
:1019BC0033681AD113F4003FA5D0736841F288380C
:1019CC0023F0030313437360FEF7F8FE07467368B6
:1019DC00626803F00C03B3EB820FA2D0FEF7EEFEAD
:1019EC00C01B4045F3D903208EE7022A02D113F025
:1019FC00007FE1E713F0020FDEE7136823F0070323
:101A0C002B431360136803F00703AB427FF47BAFE7
:101A1C008DE76B68E16823F4E0630B436B608BE745
:101A2C000020024000100240D58500082C00002048
:101A3C0004000020044B054A5B68C3F30223D35C0B
:101A4C00034A1068D840704700100240E585000832
:101A5C002C000020044B054A5B68C3F3C223D35C03
:101A6C00034A1068D840704700100240E585000812
:101A7C002C00002003682DE9F341D907054620D539
:101A8C00354CE369DA0032D40127E36943F0805323
:101A9C00E361E36903F080530193019B2F4E33689C
:101AAC00DB0526D5236A13F4407336D1236A6A68A2
:101ABC0023F44073134323621FB1E36923F0805373
:101ACC00E3612868830706D5234AA968536823F481
:101ADC0040430B43536010F010001BD01E4AE968C2
:101AEC005368002023F480030B43536012E000275B
:101AFC00D4E7336843F480733360FEF75FFE8046AF
:101B0C003368D805CED4FEF759FEA0EB0800642844
:101B1C00F6D9032002B0BDE8F0816A6802F4407285
:101B2C009A42C3D001200E4A236A1060002023F48D
:101B3C00407110602162D907B8D5FEF73FFE41F223
:101B4C0088380646236A9A07B0D4FEF737FE801B06
:101B5C004045F7D9DDE700BF00100240007000409F
:101B6C004004424270B50446344B86B002AD03F1DA
:101B7C0010062A4618685968083303C2B342154642
:101B8C00F7D140F20123022CADF8043047D0102CD1
:101B9C0017D0012C4FD140F20231294A136A194057
:101BAC00B1F5817F44D003F44073B3F5007F2DD1A0
:101BBC0049F64040536A13F0020F08BF002006B0EC
:101BCC0070BD1F4B5968186810F08070F7D0C1F3C6
:101BDC00834206A8024412F8100CCA0341BF5A688B
:101BEC0006A9C2F34042521844BF12F8141C154AFD
:101BFC005B684CBFB2FBF1F2134A5B0202FB00F0D4
:101C0C00DDD403234000B0FBF3F0D8E7B3F5407FFD
:101C1C0011D113684FF2244013F4003FCDE7FFF7C6
:101C2C0019FF074B5B68C3F3813301335B00EAE7B1
:101C3C004FF40040C3E70020C1E700BF3C80000820
:101C4C000010024000127A0000093D0038B504462D
:101C5C00FEF7B4FD054623685A68920605D50020A8
:101C6C005A6842F010025A6038BDFEF7A7FD401BBF
:101C7C00B0F57A7FEFD90320F6E7026838B55368E0
:101C8C00044623F010035360FEF798FD05462368C5
:101C9C005B689B0601D5002038BDFEF78FFD401B0D
:101CAC00B0F57A7FF3D90320F6E738B50446A8B12E
:101CBC000268536823F008035360FEF77FFD054666
:101CCC0023685B681B0701D5002038BDFEF776FD45
:101CDC00401BB0F57A7FF3D90320F6E70120F4E737
:101CEC0010B5044670B1437C03F0FF0213B90274C3
:101CFC0005F0BCF9022320466374FFF7D6FF18B138
:101D0C0004236374012037E02046FFF79FFF00286F
:101D1C00F6D12268A068536823F007035360174A72
:101D2C0018B1116B21F001011163D36A23F46073B4
:101D3C000343D3626068431C05D10120FFF712FFF7
:101D4C000028DDD001382268936823F00F0343EAA2
:101D5C0010439360D36880B21B0C1B041843D060F3
:101D6C002046FFF78AFF012310B104226274C9E7F1
:101D7C00E0736373A373637410BD00BF006C004009
:101D8C00F8B504460E4615461F4621688A6836EAA1
:101D9C00020301D000202DE06B1CF7D0FEF70EFDE6
:101DAC00C01B8542F1D823685A6822F0E0025A60C1
:101DBC006268B2F5827F0AD1A268B2F5004F02D0F8
:101DCC00B2F5806F03D11A6822F040021A60A26A41
:101DDC00B2F5005F07D11A6822F400521A601A6833
:101DEC0042F400521A60012384F85130002303207E
:101DFC0084F85030F8BD38B5134642680446B2F545
:101E0C00827F16D18068B0F5004F02D0B0F5806F9C
:101E1C000FD12268B0F5806F156825F0400515606C
:101E2C0007D10A4601212046FFF7AAFF20B900205E
:101E3C0038BD0A468021F6E7636D032043F020038A
:101E4C006365F5E710B513460A4680210446FFF793
:101E5C0097FF20B10320636D43F02003636510BD31
:101E6C0010B50446002834D00023836290F851301A
:101E7C0003F0FF021BB980F8502005F059F902233A
:101E8C00226884F851301368A16923F04003136071
:101E9C00D4E901300343E0680343206903436069DC
:101EAC000343E0690343206A0343A06A034301F43C
:101EBC000070090C034301F0040113605160D369F5
:101ECC00002023F40063D3610123606584F8513052
:101EDC0010BD0120FCE72DE9F3411E4690F850306F
:101EEC000446012B0D46904600F09C80012380F89F
:101EFC005030FEF763FC074694F85100C0B201283D
:101F0C0040F08E80002D5ED0B8F1000F5BD0032323
:101F1C00002084F85130A3686065A063A4F8368073
:101F2C00A087E087C4E910002068B3F5004F08BF14
:101F3C000368256308BF43F48043A4F8348008BFCA
:101F4C0003600368E2685B065EBF036843F040030E
:101F5C000360B2F5006F63683ED113B1B8F1010FA5
:101F6C0007D135F8023BC3602563E38E013B9BB27E
:101F7C00E386E38E9BB2A3B93A4631462046FFF77F
:101F8C0061FF002849D1A36833B901932368DA684B
:101F9C0001929B680193019B606D003018BF01207A
:101FAC0011E022689368980705D5236B33F8021B60
:101FBC00D1602363D9E7FEF701FCC01BB042D8D334
:101FCC00711CD6D00320012384F85130002384F8EF
:101FDC00503002B0BDE8F08113B1B8F1010F08D157
:101FEC002B780373236B01332363E38E013B9BB28A
:101FFC00E386E38E9BB2002BBED023689A689207CF
:10200C0003D5226B12781A73ECE7FEF7D7FBC01BD3
:10201C00B042EED3731CECD0D4E720236365B2E757
:10202C000220D0E70220D4E72DE9F7431E4690F8B2
:10203C0050300446012B0D4691460A9F00F0E28079
:10204C00012380F85030FEF7B9FB94F851308046EC
:10205C00DBB2012B61680AD0B1F5827F40F0D080F1
:10206C00A068002840F0CC80042B40F0C980002DE3
:10207C0000F0C480B9F1000F00F0C080002E00F019
:10208C00BD8094F85130C4F83890042B1CBF052344
:10209C0084F8513000236365C4E910332368E68764
:1020AC00E6861A68A687500658BF1A68256358BF7B
:1020BC0042F04002A68658BF1A60E268B2F5006F83
:1020CC0058D109B1012E07D135F8022BDA60E38E15
:1020DC002563013B9BB2E3860125E38E9BB2ABB932
:1020EC00E38F9BB293B9424639462046FFF7AAFECE
:1020FC00002840F08180A368002B32D12368019026
:10210C00DA6801929B680193019B2AE0226893682C
:10211C0099070DD5E38E9BB253B14DB10025236BBE
:10212C0033F8021BD1602363E38E013B9BB2E38641
:10213C009368DB070CD5E38F9BB24BB10125D268BA
:10214C00A36B23F8022BA363E38F013B9BB2E387C2
:10215C00FEF734FBA0EB08008742BED87E1CBCD037
:10216C000320012384F85130002384F8503003B04D
:10217C00BDE8F08309B1012E08D12A781A73236BBC
:10218C0001332363E38E013B9BB2E3860125E38E8F
:10219C009BB21BB9E38F9BB2002BA4D0226893682F
:1021AC0098070ED5E38E9BB25BB155B10025236B1E
:1021BC001B781373236B01332363E38E013B9BB2B8
:1021CC00E38622689368D9070DD5E38F9BB253B190
:1021DC000125D268A36B1A70A36B0133A363E38F41
:1021EC00013B9BB2E387FEF7E9FAA0EB08008742BC
:1021FC00CDD87B1CCBD0B3E7202363650120B0E79F
:10220C000220AEE70220B2E72DE9F3411D464368F8
:10221C000446B3F5827F884617460CD1836853B9C0
:10222C00042380F85130134600950A46FFF7FCFE54
:10223C0002B0BDE8F08194F85030012B7BD0012323
:10224C0084F85030FEF7BAFA064694F85100C0B242
:10225C0001286ED1B8F1000F59D0002F57D00423AC
:10226C0084F851300023A26863652363E787A38653
:10227C00E386C4E910332368B2F5004F08BF1A682F
:10228C00A78708BF22F48042C4F8388008BF1A60C0
:10229C001A6857065EBF1A6842F040021A60E3687B
:1022AC00F3B1E38F9BB2FBB123689A68D20735D5A3
:1022BC00DA68A36B23F8022BA363E38F013B9BB279
:1022CC00E387EEE723689A68D00718D51B7BA26BCF
:1022DC001370A36B0133A363E38F013B9BB2E387C2
:1022EC00E38F9BB2002BEDD1324629462046FFF7F7
:1022FC0082FDD8B9606D003018BF012007E0FEF7F1
:10230C005DFA801BA842EBD3691CE9D003200123A2
:10231C0084F85130002384F8503089E7FEF74EFAE8
:10232C00801BA842BDD36B1CBBD0EFE72023636599
:10233C00E0E70220EBE702207AE70368DA6822F490
:10234C009072DA605A6922F001025A61202380F8F7
:10235C003A30704738B505460368C1681A691924C4
:10236C0022F440520A431A6182680069D968024318
:10237C00686921F4B05121F00C0102430A43DA6080
:10238C005A69A96922F440720A435A610D4A934270
:10239C0014D1FFF75FFB60436C686422A400B0FBB0
:1023AC00F4F0B0FBF2F102FB11031B013233B3FB6F
:1023BC00F2F32C6803EB0113A36038BDFFF73AFB73
:1023CC00E9E700BF0038014010B5044640B390F86F
:1023DC00393003F0FF021BB980F8382005F040F8C3
:1023EC002423226884F83930D368204623F4005320
:1023FC00D360FFF7AFFF236800201A6922F49042E4
:10240C001A615A6922F02A025A61DA6842F40052BF
:10241C00DA602023E06384F8393084F83A3010BD58
:10242C000120FCE738B50D460446002833D090F85F
:10243C00393003F0FF021BB980F8382005F010F892
:10244C002423226884F83930D368204623F40053BF
:10245C00D360FFF77FFF236800201A6922F4006223
:10246C001A615A6922F02A025A611A6942F48042AE
:10247C001A611A6922F020021A611969294319613B
:10248C00DA6842F40052DA602023E06384F83930D1
:10249C0084F83A3038BD0120FCE710B5044690B101
:1024AC002423026880F83930D36823F40053D360B6
:1024BC0005F0C8F80020E06384F8380084F839008F
:1024CC0084F83A0010BD0120FCE7000038B5044642
:1024DC00134694F83920202A2AD139B333B394F80F
:1024EC003820012A24D00122002584F8382021220A
:1024FC00E384206BE56384F839200E4AA3842162BF
:10250C0082620D4AC2620D4AC0E90C25226804326F
:10251C00FEF796FD6FF04002284623681A605A6950
:10252C0084F8385042F080025A6138BD0120FCE733
:10253C000220FAE74D2500087B250008FF2500083E
:10254C0008B50368426A1B6813F020030AD1D384D0
:10255C0013685A6922F080025A61DA6842F040022C
:10256C00DA6008BD104604F063F9FAE7704708B565
:10257C00406AFFF7FBFF08BD704790F83A3010B582
:10258C00222B33D181680469B1F5805F836A0268BC
:10259C0023D15268ECB9C2F3080223F8022B8362F0
:1025AC00C48D013CA4B2C4858CB90368DA6822F0EE
:1025BC002002DA60DA6822F48072DA605A6922F05A
:1025CC0001025A61202380F83A30FFF7D5FF002032
:1025DC000DE0D2B223F8012BE1E7591C526881625D
:1025EC000CB91A70DCE702F07F02FAE7022010BD8A
:1025FC007047416A08B50B685A6991F8390021286F
:10260C000AD1120608D50022CA84DA6822F0C00268
:10261C00DA60202281F839205B6991F83A20222A6D
:10262C0006D15B0604D500230846CB85FFF785FE53
:10263C00CB6B084643F01003CB63FFF7D9FF08BD03
:10264C00036870B51A6804461607D9685D6907D126
:10265C00960658D58D0656D5BDE87040FFF78DBF50
:10266C0015F0010502D111F4907F4CD0D30705D59C
:10267C00CE0542BFE36B43F00103E363500704D57F
:10268C001DB1E36B43F00203E363930704D51DB163
:10269C00E36B43F00403E363160704D51DB1E36B4E
:1026AC0043F00803E363E36B43B3950604D5880654
:1026BC0002D52046FFF761FF236820465D69E26B77
:1026CC00110702D415F0400519D0FFF736FE236828
:1026DC005A6952060FD55A69606B22F040025A6152
:1026EC0048B1264B4363FEF7E9FC38B1606BBDE89B
:1026FC007040436B18472046FFF77AFF70BDFFF719
:10270C0077FFE563FAE7160628D50D0626D594F86B
:10271C003920212AF2D1A168226AB1F5805F18D143
:10272C001188C1F308015960216981B90232226212
:10273C00E28C013A92B2E284002ADFD1DA6822F00C
:10274C008002DA60DA6842F04002DA60D6E70132E1
:10275C00EDE7511C216212785A60E9E75006CDD59D
:10276C004A06CBD5DA68204622F04002DA602023F4
:10277C0084F8393004F05CF8C0E700BF8D270008FE
:10278C0008B50023406AC385C384FFF731FF08BD39
:10279C00034B1A1803EB80035B68107A5B681847CD
:1027AC00E4000020064B1A5C42B901221A541A1894
:1027BC0003EB80035B68107A1B6818470020704796
:1027CC00E400002030B4054C251804EB800460684C
:1027DC008468287AA44630BC604700BFE40000201F
:1027EC0030B4054C251804EB80046068C468287A62
:1027FC00A44630BC604700BFE400002010B4044B7A
:10280C001C1803EB80035B68207A1B6910BC18470B
:10281C00E400002001380A44914200D1704711F8BD
:10282C00013B00F8013FF7E70244904200D17047AA
:10283C0000F8011BF9E700001E4A30B513687BB1A4
:10284C00D0F800449C4209D15468D0F808349C421A
:10285C0004D11489B0F806349C4224D0002400E042
:10286C000124D368EBB1D0F80054AB4209D11569FF
:10287C00D0F808349D4204D1958AB0F806349D42B4
:10288C0016D074B902290CBF0020122030BD0C21C7
:10289C0001FB03225389B3F5807F14BF0020102065
:1028AC00F4E70020F2E700230029F0D01020EDE738
:1028BC000123F9E7C8000020244AF0B51368D0F8CA
:1028CC0000649E4209D15568D0F80844A54204D151
:1028DC00B0F806541489A54228D0D468B44209D162
:1028EC001769D0F80854AF4204D1978AB0F806544F
:1028FC00AF4226D00BB134BB01230C245C43151919
:10290C001651D0F80844B0F806046C6028810020F9
:10291C00688199B90C2101FB03214989013189B2E4
:10292C000C2000FB0322581C5181F0BD0023002910
:10293C00F0D00C2101FB0321498921B94FF480719E
:10294C00EEE70123F3E70020EFE700BFC80000200B
:10295C000138012817D80C220C4902FB00125389AC
:10296C00B3F5807F06D1002353810C234343002011
:10297C00C8507047002BF8D0013B9BB25381002B01
:10298C00F3D0002070470220704700BFC800002021
:10299C00D0F82424D0F800040432B0F80A34B1FB87
:1029AC00F3F190F80234B1FBF3F1106830B18142CD
:1029BC0002D3091A0832F8E75068084470470268D5
:1029CC0010B552B111460B4611F8014B202C0CD905
:1029DC003A2CF8D1511C8B4202D04FF0FF3005E05D
:1029EC001278302AF9D101330360002010BD08B5EC
:1029FC0090B1D0F800347BB193F8002462B1B3F8F5
:102A0C000614B0F80424914206D193F80104FFF7A0
:102A1C00BFFE10F0010000D0092008BDCA7E8B7EDD
:102A2C00032843EA022301BF487D0A7D42EA0022C3
:102A3C0043EA02431846704770B5D0F82C5404464C
:102A4C00014601232A4690F80104FFF7C9FED0B9CC
:102A5C00D4F82034D4F81824EB1A934284F80404E4
:102A6C0001D3002070BD94F80364012EF9D9D4F879
:102A7C00183421461D442A46012394F80104FFF71B
:102A8C00AFFE013EF1E70120ECE790F804340BB106
:102A9C00FFF7D2BF18467047D0F82C3470B58B4274
:102AAC0006460D4613D0FFF7F0FF044668B92A46D8
:102ABC000123314696F80104FFF784FE00281CBF61
:102ACC004FF0FF350124C6F82C54204670BD00246D
:102ADC00FBE70000002310B580F804344FF0FF33FF
:102AEC00C0F82C340446FFF7D7FFC0B994F8FF2187
:102AFC0094F8FE3143EA02234AF65522934210D150
:102B0C00D4F83630084A23F07F43934206D0D4F8E9
:102B1C00520020F07F40801A18BF012010BD032006
:102B2C00FCE70220FAE700BF464154002DE9FF41C3
:102B3C0000230746036008461546FFF740FF061EB4
:102B4C00C0F24181A44B53F82640002C00F03D818B
:102B5C003C6094F800347BB194F80104FFF718FE44
:102B6C00C10709D4002D00F0328110F0040000D010
:102B7C000A2004B0BDE8F0810023F0B284F80034E0
:102B8C0084F80104FFF70EFEC20700F122810DB19B
:102B9C004307EDD404F20A42022194F80104FFF732
:102BAC002DFE054608B10120E3E7B4F80A34A3F57D
:102BBC000073B3F5007FF6D801462046FFF78AFF75
:102BCC00012840F0E780284604F5E37212F8043C33
:102BDC0003B113684DF820300130042802F11002C3
:102BEC00F4D100265DF82650002D00F0CB8029464C
:102BFC002046FFF76FFF002840F0C580237BE07A6A
:102C0C0040EA0320B4F80A34834240F0C780E37DE5
:102C1C00A17D94F810E051EA032108BF616A0EF11E
:102C2C00FF33012BC4F8181484F803E400F2B680C7
:102C3C0094F80D8084F80284B8F1000F00F0AE8097
:102C4C0008F1FF3313EA080F40F0A880A37C94F836
:102C5C0011C046094CEA032CBCFBF6F706FB17C661
:102C6C00B6B2A4F808C4002E40F09880227DE37C14
:102C7C00E67B53EA0223A27B08BF236A52EA0622B0
:102C8C0000F08C8001FB0EFE17447744BB42C0F071
:102C9C008580DB1BB3FBF8F3002B7FD040F6F57679
:102CAC004FF6F578B34294BF01260226434588BF00
:102CBC0003262A4402332F44032EC4F81434C4F8D8
:102CCC001C54C4F82024C4F828746BD1BCF1000F38
:102CDC0064D1E26A9B00C4F82424421E1344B3FB63
:102CEC00F0F088425AD84FF0FF33C4F81034C4F8CF
:102CFC000C348023032E84F805342DD194F8312024
:102D0C0094F8303043EA0223012B25D1691C20466C
:102D1C00FFF7C2FE00BB94F8FF2194F8FE3184F853
:102D2C00050443EA02234AF65522934214D1226841
:102D3C002A4B9A4210D103F1FF53D4F8E42103F546
:102D4C00005320339A4201BFD4F8E831C4F8103450
:102D5C00D4F8EC31C4F80C34214A84F8006413889C
:102D6C00002001339BB21380A4F806341D4B1A6863
:102D7C00944204BF00221A60DA6894427FF4F9AEE0
:102D8C00D860F6E602200136042E7FF42BAF032820
:102D9C0004D108E703283FF406AF08B10D20E8E69C
:102DAC0005462BE7BCF1000FF8D07244022EC4F894
:102DBC0024244FEA43021BBFD21803F0010313462D
:102DCC0003EB520389E70B20D3E60C20D1E628460F
:102DDC00CFE60320CDE600BFC40000205252614173
:102DEC00E0000020C800002038B50446FFF74DFE77
:102DFC00054600284BD194F80034032B3ED194F8AF
:102E0C000534012B3AD10146B4F80A242046FFF7C9
:102E1C000BFD4AF65522A4F8FE211D4A94F8010434
:102E2C00226002F1FF5202F500522032C4F8E42174
:102E3C00D4F81024C2F3072184F8E82184F8E911AE
:102E4C00110C120E84F8EB21D4F80C2484F8EA113E
:102E5C00C2F3072184F8EC2184F8ED11110C120E49
:102E6C0084F8EF21D4F81C2484F8EE110132C4F854
:102E7C002C242146FFF7B4FC84F80554002294F866
:102E8C0001041146FFF7BAFC003018BF012038BD11
:102E9C0052526141D0F814340239023B8B4283BF49
:102EAC0090F80234D0F8280401FB0300002070478E
:102EBC000129F8B505460E4675D9D0F814348B4265
:102ECC0071D990F80034022B33D0032B4AD0012B4C
:102EDC0069D1B0F80A3401EB5104B4FBF3F3D0F828
:102EEC0020141944FFF7D8FD10B14FF0FF30F8BD96
:102EFC00B5F80A14671CB4FBF1F301FB1344B7FBE0
:102F0C00F1F1D5F82034284619442C5DFFF7C4FDA7
:102F1C000028EAD1B5F80A24B7FBF2F302FB1373CD
:102F2C00E85CF30744EA00204CBF0009C0F30B0037
:102F3C00DDE7B0F80A345B08B1FBF3F3D0F82014EA
:102F4C001944FFF7A9FD0028CFD1B5F80A24760063
:102F5C00B6FBF2F302FB1366AB195B78A85D40EA93
:102F6C000320C4E7B0F80A349B08B1FBF3F3D0F8A4
:102F7C0020141944FFF790FD0028B6D1B5F80A24A7
:102F8C00B600B6FBF2F302FB1366AB199878DA784D
:102F9C00000440EA0260AA5D5B78104340EA03201B
:102FAC0020F07040A3E70120A1E770B50446D0F8EB
:102FBC0008240D46012AA4F8061401D1022070BD84
:102FCC00D0F80034D3F814149142F7D912BB93F80B
:102FDC000014032902D1D3F82414E1B9B3F808146E
:102FEC00A942EBD9D3F82404C4F80C240028E5D06A
:102FFC00D4F80034B3F80A144909B5FBF1F201FB1B
:10300C001255104403EB4513C4F81004C4F81434DF
:10301C000020D4E71146B3F80A64720993F80264ED
:10302C0056430A46B542D4F80004114602D2FFF7C3
:10303C0031FFD9E7FFF73CFF431C024609D00128BA
:10304C00BCD9D4F80034D3F814348342B6D9AD1BB0
:10305C00E8E70120B3E701292DE9F04104460D46CC
:10306C00164640F28C80D0F814348B4240F28780A4
:10307C0090F80034022B46D0032B5DD0012B7ED16F
:10308C00B0F80A3401EB5108B8FBF3F3D0F8201474
:10309C001944FFF701FD68BBB4F80A1415F00105DB
:1030AC00B8FBF1F201FB128217BFA35CF3B203F081
:1030BC000F0033011CBF03F0F0030343A35401239F
:1030CC0008F10107B7FBF1F184F80434D4F820348B
:1030DC0020461944FFF7E0FC60B9B4F80A24B7FBAA
:1030EC00F2F302FB13773DB1C6F30712E25501234D
:1030FC0084F80434BDE8F081E25DC6F3032622F0C7
:10310C000F023243F2E7B0F80A345B08B1FBF3F379
:10311C00D0F820141944FFF7BFFC0028EAD1B4F80A
:10312C000A246D00B5FBF2F302FB1355C6F307221C
:10313C00665525446A70DAE7B0F80A349B08B1FB8F
:10314C00F3F3D0F820141944FFF7A6FC0028D1D1D2
:10315C00B4F80A24AD00B5FBF2F302FB1355611968
:10316C00CB781B0603F0704343EA0602C2F3072335
:10317C0062554B70130C120E8B70CA70B7E702209D
:10318C00B8E7F8B505460F4689B9D0F80C64FEB11E
:10319C00D0F814349E4228BF01263446D5F8143496
:1031AC000134A34217D8012E14D8002408E0FFF7ED
:1031BC007FFE012804463BD9013003D14FF0FF3488
:1031CC002046F8BDD5F81434A342F9D83E46E4E7BE
:1031DC000126E2E7022421462846FFF769FE30B1BA
:1031EC00411CEBD0012823D0B442D7D1DDE76FF0DE
:1031FC00704221462846FFF72EFFB8B97FB9D5F8A3
:10320C001034C5F80C445A1CDAD0013BC5F8103404
:10321C0095F8053443F0010385F80534D0E72246D0
:10322C0039462846FFF717FF0028E8D00128C5D0FB
:10323C000124C5E72DE9F041B0F8066404460136D7
:10324C00B3B2884613B90420BDE8F081D0F810243D
:10325C00002AF8D0D0F80004B0F80A345B09B6FBA9
:10326C00F3F503FB15634BB9D4F80C140132C4F815
:10327C001024A1B9B0F80834B342E4D9D4F800341E
:10328C00A4F80664B3F80A2400205209B6FBF2F144
:10329C0002FB116603EB4613C4F81434D4E790F820
:1032AC000274013F2F40E9D1FFF702FE01280546C9
:1032BC0001D80220C8E7421C01D10120C4E7D4F890
:1032CC000004D0F81434AB422FD8B8F1000FBAD0A8
:1032DC00D4F80C14FFF755FF054600283ED0012802
:1032EC00E7D0431CE9D0D4F80004FFF7CEFB01462D
:1032FC000028E2D1D4F800044FF00108B0F80A24F9
:10330C00FFF792FAD4F8002429461046FFF7C2FDC5
:10331C00C2F82C04D4F8000490F80234BB420ED846
:10332C00D0F82C34DF1BC0F82C74C4F80C5429468C
:10333C00D4F80004FFF7AEFDC4F810049EE780F843
:10334C000484FFF779FB0028B7D1D4F800240137A7
:10335C00D2F82C340133C2F82C34DBE7072073E7A6
:10336C002DE9F8430B7804462F2B0D4601D05C2B2E
:10337C0000D101350026C4F808642B781F2B35D9F1
:10338C005C4F2B78A8462F2B05F10105F9D05C2B4F
:10339C00F7D0D4F818640B2220213046FFF744FAFA
:1033AC004FF0000C0821E646624608F1FF3919F887
:1033BC00013F0EF1010E202B27D92F2B25D05C2B92
:1033CC0023D02E2B00F0828061450DD9180644BF06
:1033DC00803BFB5C484D48BF42F0030215F8010FDF
:1033EC0000287AD08342F9D1062005E031462046E8
:1033FC00FFF7DBFDC4F81464BDE8F88342F0020269
:10340C0006F80C300CF1010CD1E7212B08EB0E0562
:10341C0034BF04230023BCF1000FE5D03078E5283D
:10342C0004BF05203070082904BF9200D2B202F00C
:10343C000301012902F00C0208BF43F01003042A17
:10344C0008BF43F00803F37200212046FFF7ADFDDF
:10345C00F8B9D4F81014D4F80004FFF71DFBC0B968
:10346C00D4F8142413789BB1D37A19070BD4D4F85D
:10347C00183403F10B0C9C450BD012F8016B13F8AC
:10348C00011B8E42F7D000212046FFF7D3FEDFE769
:10349C000420D4F81834DB7A30B10428ACD113F002
:1034AC00040F08BF0520A7E75A07A5D4D4F81414B5
:1034BC00CB7ADB0608D5D4F8003493F80004FFF778
:1034CC00ADFAC4F808045CE7052095E708298BD110
:1034DC0092008C46D2B20B2169E7A3F14100192866
:1034EC008CD9A3F1610019289EBF203B42F0010248
:1034FC00DBB285E74C800008CB80000838B5002192
:10350C000546FFF752FD044678BBD5F81014D5F8E4
:10351C000004FFF7C1FA044638BBD5F814341B7805
:10352C00E52B1BD1D5F81014D5F80004FFF7B4FA2D
:10353C00044688B901462022D5F81404FFF774F923
:10354C000B22D5F81814D5F81404FFF763F90122EF
:10355C00D5F8003483F80424204638BD002BE1D084
:10356C0001212846FFF766FECDE7042C08BF07248F
:10357C00F2E7012970B504460D4601D8022070BD52
:10358C00D0F814348B42F9D9D4F814349D4205D2B6
:10359C0029462046FFF78CFC064608B90020EEE7CA
:1035AC000128EBD0411C15D0002229462046FFF7FC
:1035BC0052FD0028E3D1D4F810345A1C08D0013342
:1035CC00C4F8103494F8053443F0010384F805343E
:1035DC003546D9E70120D2E77FB5CDE9001004A824
:1035EC0040F8041D1646FFF7EAF9051E21DB1349C6
:1035FC0051F8254064B1124B00201A6884F800047D
:10360C00944204BF00221A60DA68944208BFD86062
:10361C00019810B1002380F8003441F8250030B136
:10362C00012E08D10022694601A8FFF77FFA04B0E9
:10363C0070BD0B20FBE70020F9E700BFC4000020A1
:10364C00C80000202DE9F043ADF23C4D01919046AD
:10365C000546002800F0AD80002302F01E02C0F8E1
:10366C00003401A90DF58360FFF760FA06460028C7
:10367C0040F09A8003AB019906A8CDF83034FFF7DF
:10368C006FFE08F01F07DDF82C4448B9002C5ED003
:10369C0017F01E0F14BF0121002106A8FFF7CCF86C
:1036AC0018F01C0F5ED0002853D0042808D1544BBE
:1036BC001A6812B1DB68002B7DD106A8FFF71EFF3C
:1036CC0047F00807002840D1DDF82C443B0753D5C0
:1036DC0002F068FC4FF00008C0F30723A073E373FB
:1036EC00030C000E84F80B8084F81C8084F81D8079
:1036FC0084F81E8084F81F8023746074DDF81834FD
:10370C00214693F80004FFF789F9012284F81A8006
:10371C0084F81B8084F8148084F81580DDF8183444
:10372C00804683F8042438B301461846D3F82C9409
:10373C00FFF71FFF48B9DDF8180408F1FF33C0F894
:10374C000C344946FFF7A8F9B0B106462CE0062028
:10375C00A6E7E37A13F0110F31D118F0040FB5D0AE
:10376C00082621E00028F0D1E37AD80625D418F0F9
:10377C00020F01D0DA0722D43B07DDF8183448BF1A
:10378C0047F02007D3F82C3417F0FE0FC5F81C3483
:10379C00C5F8204414BF0121002106A8FFF78CF8BE
:1037AC00C5F8280468B9022630460DF23C4DBDE838
:1037BC00F0830926F8E71226F6E70426F4E7072635
:1037CC00F2E785F806740027DDF8188485F807748D
:1037DC0098F800042146FFF721F9C5F81004E369B5
:1037EC00C5F80874C5F80C34B8F80634C5F8187464
:1037FC00C5F82474C5F80084A5F80434D4E700BFD8
:10380C00C80000202DE9F74F9B460023CBF8003071
:10381C00044689461746FFF7EAF8054678BB94F844
:10382C000734002B40F0C48094F80634D80740F1DC
:10383C00C180D4F80C34D4F808649E1BBE4228BF57
:10384C003E46E6B1D4F80004D4F80814B0F80A24C3
:10385C00B1FBF2F702FB1712002A40F0948090F8AB
:10386C000234013B3B4013F0FF0301931DD151B9CE
:10387C00D4F81004012812D8022584F807542846DD
:10388C0003B0BDE8F08FD4F824341BB12046FFF709
:10389C007FF8EFE7D4F81414FFF70AFBEAE7411CB2
:1038AC0001D10125E9E7C4F81404D4F800A4D4F834
:1038BC0014145046FFF7EEFA0028DDD0BAF80A844B
:1038CC00019BB6FBF8F8C718B8F1000F38D0019A75
:1038DC009AF8023442449A4288BF019A494688BFFA
:1038EC00A3EB020843463A469AF80104FEF76AFF36
:1038FC000028D6D194F806345A060DD5D4F81804FD
:10390C00C01B804508D9D4F800342146B3F80A24EA
:10391C0002FB0090FEF77EFFD4F80034B3F80A34B3
:10392C0008FB03F8D4F80834C1444344C4F8083401
:10393C00DBF80030A6EB08064344CBF8003080E7F8
:10394C00D4F8182497421CD094F806345B060DD595
:10395C00012321469AF80104FEF742FF0028A0D16A
:10396C0094F8063423F0400384F80634D4F80004A9
:10397C0001233A46214690F80104FEF723FF002864
:10398C008FD1C4F81874D4F800344846B3F80A84BC
:10399C00D4F80834B3FBF8F108FB1131A8EB01089B
:1039AC00B04528BFB04621444246FEF733FFB9E785
:1039BC001D4664E7072562E72DE9F74F9B46002378
:1039CC00CBF80030044689469046FFF710F80546C0
:1039DC0058BB94F80734002B40F0ED8094F8063473
:1039EC00990740F1EA80D4F8083418EB030FC0F0C3
:1039FC008D80D4F80834D4F80C24934200F2D8808B
:103A0C0094F8063443F0200384F806340DE0D4F81F
:103A1C00243473B12046FEF7BBFF01460028E8D0E2
:103A2C00012909D1022584F80754284603B0BDE8C2
:103A3C00F08FD4F8141488E04A1C01D10125F2E768
:103A4C00D4F81034C4F814140BB9C4F8101494F846
:103A5C0006345B0611D5D4F800040123D4F81824DD
:103A6C00214690F80104FEF7BBFE0028E6D194F83D
:103A7C00063423F0400384F80634D4F800A4D4F8B8
:103A8C0014145046FFF706FA0028CBD0BAF80A7483
:103A9C00019BB8FBF7F7C618002F59D0019A9AF87A
:103AAC0002343A449A4288BF019A494688BF9F1A09
:103ABC003B4632469AF80104FEF792FE0028BDD12F
:103ACC00D4F81814891B8F420ED9D4F80034204630
:103ADC00B3F80A2402FB0191FEF79CFE94F806341D
:103AEC0023F0400384F80634D4F80034B3F80A34D5
:103AFC005F43D4F80834B9443B44C4F80834DBF8C9
:103B0C000030A8EB07083B44CBF80030D4F808147D
:103B1C00B8F1000F3FF46DAFD4F80004B0F80A24EC
:103B2C00B1FBF2F602FB161242BB90F80234013BD9
:103B3C00334013F0FF03019389D100297FF467AF61
:103B4C00D4F8101400297FF46BAFFFF71AFB64E76D
:103B5C00D4F818349E420FD0D4F80C24D4F808347E
:103B6C009A4209D90123324621469AF80104FEF7FC
:103B7C0029FE00287FF462AFC4F81864D4F800342E
:103B8C004946B3F80A74D4F80834B3FBF7F007FBD2
:103B9C0010303F1A474528BF474620443A46FEF7A7
:103BAC0039FE94F8063443F0400384F80634A0E759
:103BBC00C4F80C3424E71D4637E7072535E770B504
:103BCC000446FEF714FF002858D194F806349A06E0
:103BDC0054D55B0611D5D4F800040123D4F818246D
:103BEC00214690F80104FEF7FBFD002845D194F81E
:103BFC00063423F0400384F80634D4F81C14D4F8AB
:103C0C000004FEF749FF0646C0BBD4F82054EB7AFB
:103C1C0043F02003EB72D4F80C342B77B4F80C344B
:103C2C001B0A6B77B4F80E34AB7794F80F34EB7740
:103C3C00D4F81034AB76C3F307221B0C2B751B0A7C
:103C4C006B75EA7602F0AEF9C0F30723A875EB7535
:103C5C00030C000E2B766876AE74EE7494F8063472
:103C6C00D4F8000423F0200384F80634012380F8F0
:103C7C000434BDE87040FFF7B7B8012070BD10B533
:103C8C000446FFF79CFF50B92046FEF7B0FE30B952
:103C9C00D4F82804FEF75CFE08B9C4F8000410BD83
:103CAC002DE9F04FADF2544D079002F07BF9012253
:103CBC00074607A90DF58660FEF738FF0546044652
:103CCC00002840F0C88009AB07990CA8CDF84834FF
:103CDC00FFF746FB0546002800F0C680042840F09C
:103CEC00BA802146DDF83004FFF74BFA064600286F
:103CFC0000F0AB80012800F0B380431C00F0B280D0
:103D0C00DDF83004FEF7C1FE0546002840F09E8029
:103D1C00DDF8304431462046FFF7BCF829460690C2
:103D2C00B4F80A242046FEF77FFD0B222021204602
:103D3C00FEF77AFD10222E2526FA02F8E2722022D6
:103D4C00FBB20193A375C7F307230293E375C7F383
:103D5C000743039323763B0E049363765FFA88FB49
:103D6C00F3B2C6F3072A4FEA1828A018A376214607
:103D7C00257084F81BA084F814B084F81580059382
:103D8C00FEF748FD84F82150DDF83014DDF83824B6
:103D9C0091F80004069B032804D1D1F82414914215
:103DAC0008BF002284F83A20C2F30721120C84F8D1
:103DBC003420120A84F83B1084F835200CAFD7F865
:103DCC00002492F80294B9F1000F22D13846FFF783
:103DDC0095FB0546002839D11022D7F81434DA7235
:103DEC00019A83F81BA09A75029A83F814B0DA75BD
:103DFC00039A83F815801A76049A5A76059A9A765D
:103E0C000123D7F8000480F80434FEF7EDFF0546D3
:103E1C0021E0D7F800045A1CC0F82C344FF00103F1
:103E2C0080F804340692FEF707FE054670B9D7F801
:103E3C0000340146B3F80A24204609F1FF39FEF795
:103E4C00F3FC5FFA89F9069BBDE707253146DDF8DF
:103E5C003004FFF78EFB28460DF2544DBDE8F08F71
:103E6C000225F3E70125F1E70825F4E72DE9F341F5
:103E7C0006469046054600244F1EBC4212DA01ABA2
:103E8C00012269464046FFF7BDFC019B012B09D17D
:103E9C009DF800300D2BF0D00A2B05F8013B04F1F6
:103EAC000104EAD100239C4214BF304618462B7003
:103EBC0002B0BDE8F081000030B50F4B5C7A012CEC
:103ECC0018D800245D7AEDB25C555D7A03EB85055C
:103EDC006860587A184402725A7AD2B2501CC0B236
:103EEC0058723A234B702F23204630320A708B7055
:103EFC00CC7030BD0120FCE7E40000200022FFF76D
:103F0C00DBBF00000023024A1360024A13607047B3
:103F1C0010020020C00D0020F0B52F2404700D7885
:103F2C002B4B45704D781A6885708D780132C570B1
:103F3C00CD781A6005710D790A2645714D79857118
:103F4C008D79C571C97900F110050172214944724E
:103F5C008A4284BF00221A601B681F4A00F10904C0
:103F6C00B3FBF2F1CFB2303104F8011FA54202FBD2
:103F7C001733B2FBF6F2F3D1303343742E23837430
:103F8C00164B93F86420012A08D14C23C3744F2399
:103F9C0003754723437500238375F0BD93F86420A4
:103FAC00022A05D14323C374532303755623F1E727
:103FBC0093F86430032B05D14323C3745223037548
:103FCC005423E7E754235822C3740275E2E700BF79
:103FDC00F8000020FFE0F50580969800580D0020B1
:103FEC000F4B10491A68F0B501328A4288BF002283
:103FFC000A261A6042F210721B68841C851DB3FBE2
:10400C00F2F1CFB2303104F8011FA54202FB173395
:10401C00B2FBF6F2F3D13033C37100230372F0BD5F
:10402C00FC0000209F86010084B0F0B5144F05AC55
:10403C007E8884E80F003B889E4228BF3C339B1B44
:10404C009BB2012B19D9302404FB067405AD08343E
:10405C000FCD0FC40FCD0FC495E80F003A2E88BFBB
:10406C00002684E80F004FF000009CBF0136B6B26A
:10407C007E80BDE8F04004B070470220F9E700BF35
:10408C001002002084B0F0B5144F05AC7E8884E893
:10409C000F003B889E4228BF3C339B1B9BB2012BDD
:1040AC0019D9302404FB067405AD08340FCD0FC4A8
:1040BC000FCD0FC495E80F003A2E88BF002684E878
:1040CC000F004FF000009CBF0136B6B27E80BDE8F9
:1040DC00F04004B070470220F9E700BFC00D00208B
:1040EC00602804D92738C0B23038C0B27047402895
:1040FC00FAD90738F7E760280CD92738C0B230381E
:10410C006029C0B20AD92739C9B2303941EA001046
:10411C00C0B270474028F2D90738EFE74029F4D9EC
:10412C000739F1E70309092B00F00F0094BF303376
:10413C003733092894BF303037300B7048707047D4
:10414C0084B02DE9F84308AC84E80F00564B0746C1
:10415C00DDE909081C78159A012C0B990D9D1E465A
:10416C006BD10C9C002945D1002C41D17423010A40
:10417C0009291370CBB294BF30333733DBB2911CA7
:10418C005370C0B2FFF7CEFF0421EBB2092D94BFE0
:10419C0030333733DBB201F10108535444B902F127
:1041AC00010989446300AC4209EB03013DD19844F9
:1041BC0073789BB14EF66021B7FBF1F301FB1377DB
:1041CC0002EB0801C7F30720FFF7ACFF08F102016F
:1041DC001144F8B2FFF7A6FF08F104080D2308F10B
:1041EC00010002F8083080B2BDE8F84304B0704713
:1041FC007223BCE7BCB95423511C13704FEA1860EE
:10420C00FFF790FFC8F30740D11CFFF78BFFC8F3F3
:10421C000720511DFFF786FF5FFA88F0D11DFFF7CD
:10422C0081FF0921B1E75223E6E708AB234493F859
:10423C002000FFF777FF0134B4E7022C2FD19B78D5
:10424C007BB3F1230429114613709DF8493008BF44
:10425C0048F0004053703B0AD3703B0C1371030AB7
:10426C00D371030C1372149B9770907105EB0313AD
:10427C003F0E000E5771507201F80A3F0023AB42FB
:10428C0005D11A4403F10C000023D372ABE708A844
:10429C00184490F82000013301F8010FEFE70020DB
:1042AC00A1E718469FE700BF680100202DE9F04107
:1042BC00184E8AB034887388A34227D0302303FB6E
:1042CC00046400236D46DFF854800893CDF82480F5
:1042DC0004F1080718340FCC0FC594E80F0085E8DB
:1042EC000F0097E80F00FFF72BFF0B4B02464146E0
:1042FC001868FEF7EBF858B933883A2B8EBF034693
:10430C0001339BB233800AB0BDE8F0810220FAE79A
:10431C000120F8E710020020702F0020672E0020EB
:10432C0084B02DE9FF410AAC84E80F00DFF85CC1D2
:10433C00169C9CF86450DDE90B12012D0D9B0F9E11
:10434C009DF851702BD1042B4FEA10232070637011
:10435C004FEA10434FEA1060E0704FF0000008BFC6
:10436C0042F00041A3700B0A2171637106EB071731
:10437C000B0C090EA371E17104F8087FB04206D151
:10438C00093080B204B0BDE8F04104B070470AAB0C
:10439C00034493F82030013004F8013FEEE79CF819
:1043AC0064E00E9DBEF1020F2ED1CDE90176009393
:1043BC00042B14BF0B46134602463249204603F029
:1043CC00EDF92046FBF7BCFE074665B92A462C25BD
:1043DC0000F10108A0449642414608F1030809D1B6
:1043EC0006EB460637440D23E3550A233C44B81C20
:1043FC006370C6E70AAB134408F8045C93F820001A
:10440C00FFF790FE0132E6E79CF86470032F37D17A
:10441C00042B4FF47A739DF850700ABF11464FF07D
:10442C000B0C4FF01D0C012FB0FBF3F214BF5227F5
:10443C005427CDE901C103FB120300971249204612
:10444C0003F0ACF92046FBF77BFE0746002DCAD1E2
:10445C002A46202500F10108A044B242414608F149
:10446C00030803D102EB42021744BCE70AAB134426
:10447C0008F8045C93F82000FFF754FE0132ECE7D7
:10448C0000207EE7DB800008EA800008580D002041
:10449C002DE9F041164E8AB034887388A34223D09C
:1044AC0030236D4603FB0464DFF8488004F10807F1
:1044BC00CDF8208018340FCC0FC594E80F0085E898
:1044CC000F0097E80F00FFF72BFF0146404602F064
:1044DC0025FA58B933883A2B8EBF034601339BB269
:1044EC0033800AB0BDE8F0810220FAE70120F8E73A
:1044FC00C00D0020E72E002000B58BB0A1B99AB9F1
:10450C000123CDE90522CDE90022CDE90733CDE920
:10451C000222049269460C48FCF7E3F9003018BFFC
:10452C0001200BB05DF804FBCDE905320B0C0293B6
:10453C00030C00930123CDE90733002389B280B229
:10454C00039101900493E5E70819002038B5124C4B
:10455C00124B0246DD886089A84203D35D88013D79
:10456C00854201DCD88860815B886589023B0D44FB
:10457C009D4201DB012038BD0D238DB2535461895E
:10458C006B1C074801F07AFC0028F3D161890131DA
:10459C0029446181EFE700BF68010020580D00201D
:1045AC00383400202DE9F3470E461C4D1C4C2B686B
:1045BC006188023BE2880B449B1AB342074629D31D
:1045CC008046DFF860A000EB0609C84501D1022047
:1045DC001DE0E388A8EB070119440DF10702012344
:1045EC0089B2504601F012FC18F8013B9DF80720E7
:1045FC009A42EAD0E38829683A46194489B2B3B2A0
:10460C00084801F03BFC38B92B681E442E6002B000
:10461C00BDE8F0870720FAE70120F8E70401002045
:10462C00580D00203834002010B50748FCF71EFA4E
:10463C00044638B902464FF480710448FCF774FF05
:10464C00204610BD0124FBE708190020000801409A
:10465C0010B5FFF7E9FF002280211948FCF764FF31
:10466C00002240211648FCF75FFF0022202114484D
:10467C00FCF75AFF002210211148FCF755FF32209D
:10468C00FCF7A2F80F4B1B7A032B08D8DFE803F0DA
:10469C00020F1215012280210948FCF745FFBDE8E5
:1046AC0010400123084A0821084801F0E7BB012209
:1046BC004021F1E701222021EEE701221021EBE756
:1046CC00000C0140580D0020600D002038340020F3
:1046DC00704770477047000001224FF48071014809
:1046EC00FCF722BF000801402DE9F04F894685B048
:1046FC000290464948461746FBF7F4FF00287FD145
:10470C0043494846FBF7D0FF002879D1002300939A
:10471C004FF07E530546DFF800A101930298FBF79A
:10472C00CDFD013504462846FBF7C8FD4946FBF78D
:10473C001DFE01462046FBF7CDFE064603F040FC6D
:10474C00FBF7DAFF072804465AD9192855D8FBF786
:10475C00B5FD014683463046FBF7FEFC20F00046D3
:10476C002C493046FBF7A0FF00B1002651465846B5
:10477C00FBF7FCFD03F024FC4FF07E51FBF7ECFC47
:10478C00FBF7BAFF013C10288046A4EB000434D898
:10479C00082C32D824B9002835D0012400F1FF3878
:1047AC0008F10100FBF78AFD5946FBF793FE0199CE
:1047BC0083463046FBF778FFC8B900213046FBF73B
:1047CC0069FFD0B151465846FBF7C6FC514620F064
:1047DC00004200980392FBF7BFFC039A20F00041C3
:1047EC001046FBF761FF40B17A69A24205D1C7E9D7
:1047FC0004847D60CDF800B00196B5F5806F8DD145
:10480C0005B0BDE8F08F0446CAE700BF0024744A27
:10481C000000FA44ACC527370000603F38B54CF2B5
:10482C00503398420D463F4C6ED025D842F210734F
:10483C0098426BD00FD841F2883398426AD042F23A
:10484C008D03984269D0FBF739FD364A014636484C
:10485C00FFF74AFF3AE048F23523984260D04BF616
:10486C000323984254D044F620639842EBD178232A
:10487C0063604FF430231EE02C4B984238D00DD897
:10488C002B4B98423BD02B4B984236D02A4B98421C
:10489C00D9D11B2363604FF420230CE0274B9842A3
:1048AC0024D0274B98420AD0264B9842CBD10423D4
:1048BC0063604FF4602323614FF4801305E00423FD
:1048CC0063604FF4C0232361002363611E4BA5601A
:1048DC00236000231348E36023766376A376E376A4
:1048EC0023776377BDE83840FBF780BF0523E7E704
:1048FC00092363604FF44023DDE71223F9E72D23EE
:10490C0063604FF4A023DEE72D23F2E7FF23F0E7EB
:10491C003623BFE74FF4E173EBE74FF48773E8E717
:10492C004823A5E7081900200051250290D0030068
:10493C00A086010048E801000674010000350C0057
:10494C0040420F0020A107000064004010B51B4C32
:10495C00FFF77EFE237A023304EB83035868237A35
:10496C000C3304EB83035968FFF758FF08B101209F
:10497C0010BD217A227A03310332042304EB820224
:10498C0089000F4801F07AFA217A227A0D310D3222
:10499C00042304EB82028900094801F06FFA0948EC
:1049AC00FCF70BF80028E2D140F237410548FCF740
:1049BC0034F9003018BF0120DAE700BF580D002091
:1049CC0038340020081900202DE9F0418AB0044643
:1049DC00FBF7B6FB9E4DC6B2EB79012B06D12378C3
:1049EC00502B03D031462046FFF7B0FD2278A2F1C0
:1049FC002103572B00F2D180DFE813F0F204CF0033
:104A0C00CF00CF00CF00CF00CF00CF00CF00CF0022
:104A1C00CF00CF00CF00CF00CF00CF00CF00CF0012
:104A2C00CF00CF00CF00CF00CF00CF00CF00CF0002
:104A3C00CF00CF00CF00CF00E304CF0066004504C9
:104A4C006102780466009C006600A304CF00700429
:104A5C00CF00B703B200580040025404CF001D032E
:104A6C005B017003CA036A0066009904CF008D00D5
:104A7C00CF00CF00CF00CF00CF00CF00CF00CF00B2
:104A8C00CF00CF00CF00FD00CF009E04CF00CF00A1
:104A9C00CF00CF00B200CF00CF00CF00CF008602F6
:104AAC003601DB021A047C00CF0095044E216948C4
:104ABC00694B02689954134405323021026031224B
:104ACC0059709970D9701A710D200AB0BDE8F08137
:104ADC0056246048604A03683125D4543024591C4C
:104AEC00555411444C70D91C55540A445470053318
:104AFC000360E9E776245748574A03683125D454B4
:104B0C003024591C545411444D70D91C54540A442B
:104B1C0041215170EBE76378312B02D101236B708B
:104B2C00D2E7302B01D10023F9E76B78B3FA83F38A
:104B3C005B09F4E74622474C474D23684748EA5443
:104B4C009A1C226030222B445A70FCF77CF92368A3
:104B5C0030305A1CE85441482260FCF789F9B3E71D
:104B6C006378452B01D0312B24D10423E11C081B85
:104B7C0086420EDC3A4800EAC300A378522B01D0DF
:104B8C00312B33D140F002004D2A0CBFE861286272
:104B9C009AE711F8010B2F2801D8072095E739283F
:104BAC0003D9A0F14107052FF7D81B01FFF798FA9D
:104BBC000344DCE7532B01D0302BEED10023E11C56
:104BCC00081B864203DC274800EA4350D5E711F85E
:104BDC00010B2F28E1D9392803D9A0F14107052F62
:104BEC00DBD81B01FFF77CFA0344E9E7442BCBD05D
:104BFC00302BD2D1C8E7032E18D16078FFF770FAAA
:104C0C006862A378492B20D04D2B14BFFF230023BF
:104C1C00AB626B6A0E2BC0D8AA6AFF2ABDD0D5E94D
:104C2C000701FFF769FC0028B7D14DE7042EB4D17A
:104C3C006078FFF755FA0346A078FFF751FA0A227D
:104C4C0002FB03006862E378DCE70123E0E700BFC6
:104C5C006801002050010020F821002008190020D4
:104C6C00F8FF0F000000E07F00210A259D4A137A0F
:104C7C00023302EB83035960611C0B1B9E427FF7CE
:104C8C0023AF0B780F46303B092B86D8137A0131B2
:104C9C00023302EB83035868684358603878FFF797
:104CAC001FFA137A023302EB83035F6838445860AF
:104CBC00E3E7052E02D0022E7FF46FAF2B78002B8A
:104CCC007FF46BAF6378303B342B3FF666AF01A2B9
:104CDC0052F823F0B54D0008C74D0008D74D000819
:104CEC00E74D0008F54D0008034E0008114E000872
:104CFC001F4E00082D4E00083B4E0008A74B000825
:104D0C00A74B0008A74B0008A74B0008A74B0008AF
:104D1C00A74B0008A74B0008494E0008594E000845
:104D2C00694E0008794E0008A74B0008A74B0008F5
:104D3C00A74B0008A74B0008A74B0008A74B00087F
:104D4C00A74B0008A74B0008A74B0008A74B00086F
:104D5C00A74B0008A74B0008A74B0008A74B00085F
:104D6C00A74B0008A74B0008A74B0008A74B00084F
:104D7C00A74B0008A74B0008A74B0008A74B00083F
:104D8C00A74B0008A74B0008A74B0008A74B00082F
:104D9C00A74B0008A74B0008494E0008594E0008C5
:104DAC00694E0008794E00084E4B1A7A023203EB1A
:104DBC00820342F210725A6086E64A4B1A7A023229
:104DCC0003EB820344F62062F5E7464B1A7A023273
:104DDC0003EB82034CF25032EDE7424B1A7A02326B
:104DEC0003EB8203404AE6E73E4B1A7A023203EBAE
:104DFC0082033E4ADFE73B4B1A7A023203EB820313
:104E0C003B4AD8E7374B1A7A023203EB8203394A12
:104E1C00D1E7344B1A7A023203EB8203364ACAE7E3
:104E2C00304B1A7A023203EB8203344AC3E72D4B20
:104E3C001A7A023203EB8203314ABCE7294B1A7A05
:104E4C00023203EB820342F28D02B4E7254B1A7A4D
:104E5C00023203EB82034BF60322ACE7214B1A7AA6
:104E6C00023203EB820348F23522A4E71D4B1A7A77
:104E7C00023203EB820341F288329CE7194C237A0D
:104E8C00032B06D1237A0C3304EB830400236360D9
:104E9C0083E61C48FBF7D7FF00287FF47EAE237A0D
:104EAC000C3304EB83035860FFF750FD00287FF4AC
:104EBC0074AE0122237A2A702B44DA7004E60023A4
:104ECC00084C2B70237A032B3FF467AE0D48FBF78D
:104EDC00CFFFFFF7A9FB00287FF45FAE237A1D44B8
:104EEC00E870F1E5580D0020A086010048E80100AB
:104EFC0090D0030020A1070000350C0040420F00A9
:104F0C0006740100081900202B78002B3FF445AEE5
:104F1C00052E7FF442AE6078FFF7E2F8E1780346A5
:104F2C00A078FFF7E8F8B54D40EA0320286002238B
:104F3C000020C5E902032079FFF7D2F8B04E2861B2
:104F4C0001224FF40041AF48FCF7EEFAAE4B32466B
:104F5C002946AE48FBF79EFDAD4B187000287FF438
:104F6C001CAEFBF72BFC012333722B69A6F120043A
:104F7C0046F80C3C6B6846F8200C46F8183C2B683D
:104F8C0046F81C3CEB6846F8103CAB6846F8143C01
:104F9C00A04B1B7A73726D46A6F110070FCF0FC58D
:104FAC0096E80F0085E80F0094E80F00FFF76AF809
:104FBC008AE52B78002B3FF4F0AD053EF3B2102BB5
:104FCC003FF6EBAD6078FFF78BF8E1780346A078FD
:104FDC00FFF791F840EA03200023884DC5E902331E
:104FEC0028602079FFF77CF8022196FBF1F6B0429D
:104FFC00024628617FF4D1AD08283FF6CEAD864E2F
:10500C0005349A4204F102040AD87D4E01224FF471
:10501C0000417C48FCF788FA7B4B324677493DE0EF
:10502C0014F8011C14F8020CFFF765F8991981F8B3
:10503C0020000133E5E72B78002B3FF4AEAD0A2EB0
:10504C007FF4ABADA1786078FFF755F82179034672
:10505C00E078FFF750F80004A17940EA0363607927
:10506C00FFF749F8217A0246E079FFF744F804216A
:10507C0018430223614D40EA0220C5E9021368601F
:10508C00607AFFF72DF85E4E286101224FF4004143
:10509C005C48FCF749FA324629465B4B5B48FBF708
:1050AC00F9FC5B4B187000287FF477ADFBF786FB9F
:1050BC00012333722B69A6F1200446F80C3C6B6873
:1050CC0046F8200C46F8183C2B6846F81C3CEB685C
:1050DC0046F8103CAB6846F8143C5CE72B78002B88
:1050EC003FF45BAD0A3EF3B2102B3FF656ADA17800
:1050FC006078FFF700F821790346E078FEF7FBFFB4
:10510C00000440EA0363A1796079FEF7F4FF217A89
:10511C000246E079FEF7EFFF184340EA0220002335
:10512C000422364DC5E902236860607AFEF7D8FF89
:10513C00022196FBF1F6B042024628617FF42DADB8
:10514C0008283FF62AAD344E0A349A4204F1020480
:10515C007FF65BAF14F8011C14F8020CFEF7CBFFC2
:10516C00991981F820000133EFE74FF00042294CE8
:10517C00237A0C3304EB83035A60FFF7E7FB002818
:10518C007FF40BAD0122237A2A701D44EA709BE454
:10519C006378204C303B062B2ED8DFE803F0041B41
:1051AC001E2124272A004FF461331C4DE365286827
:1051BC00FDF773F9E26D1A4B28685A60FDF704F994
:1051CC0000287FF4EAAC04235C21164A164800F050
:1051DC0055FE79E44FF4E133E7E74FF46143E4E73C
:1051EC004FF41643E1E74FF49643DEE74FF41653C2
:1051FC00DBE74FF41663D8E70C4BD6E79801002099
:10520C00D001002000080140E40100200819002012
:10521C00E0010020580D0020B0010020702F00206C
:10522C00EC340020B40D00203834002040420F0034
:10523C0000230A21834DEB65631C1A1BB24211DB60
:10524C00EB6DC72B7FF6A9ACEA6D7F4B9A423FF60C
:10525C00A4AC7E4C2068FDF720F9EA6D7C4B2068ED
:10526C005A60ABE71A781846303A092A3FF695ACE3
:10527C00EA6D01334A43EA650078FEF731FFEA6DC7
:10528C001044E865D9E76078A0F13003042B3FF6B1
:10529C0084ACFEF725FF6B4B0138C0B21872FFF7D8
:1052AC0055FBC0E46378312B07D10123EB7100234C
:1052BC002B70644BDB886B8106E4302B08D1FF2309
:1052CC000AAA02F8013D00236989EB7101237DE7ED
:1052DC00322B04BF01236B72FFF7F6BB2B7A002B2A
:1052EC003FF4F2AB6B89AB81FFF7EEBB00230A21D5
:1052FC006B61621C131B9E4205DCFBF75FFA0123FA
:10530C0028612B7649E413781046303B092B3FF685
:10531C0044AC6B6901324B436B610078FEF7E0FEE5
:10532C0018446861E6E700232B72FFF7CDBB454BB1
:10533C00DB886B810123F7E7002385F82D30FFF71D
:10534C00C3BB022E0DD16378303BDBB2032B3FF68F
:10535C0024AC3C4A642102F8643F3E48012300F02F
:10536C008DFD95F82C403C4E4CB901223B493C48F4
:10537C00FEF732F9307050BB012385F82C30394CD4
:10538C002046FEF72DFEFEF78BFC08283070F7D078
:10539C0000287FF402ACDFF8CC80334C334F41460D
:1053AC002046FEF7B9FD0E2221463846FEF74AF993
:1053BC0008283070F3D000287FF486AB012385F8E1
:1053CC002D3001236B7600236B83FFF77DBB01220D
:1053DC0022492046FEF700F9254B1C70FFF7DDBB78
:1053EC006378522B14D1A378532B7FF46DABE378F5
:1053FC00542B7FF469ABBFF34F8F1E491E4BCA6809
:10540C0002F4E0621343CB60BFF34F8F00BFFDE7A4
:10541C00532B7FF459ABA378442B7FF455ABE37833
:10542C006521312B02BF0122064B83F86520E378FE
:10543C00302B02BF0022034B83F8652001230F4A57
:10544C00C4E600BF580D002080841E00702F002081
:10545C00EC3400203834002019010020F8800008BA
:10546C00182600202000002009000020782F0020A2
:10547C00E400002000ED00E00400FA05BD0D002062
:10548C00A34A2DE9F0431368A24C0133136023782F
:10549C0089B00D2B1BD8DFE813F00E003F004F0135
:1054AC00D2001A001A00C601C9011A001A00D20053
:1054BC00D20057025E02F12802D10123237006E0CC
:1054CC00E72807D10122944B9A7002221A7009B076
:1054DC00BDE8F0830D2814D19048FFF775FA904A77
:1054EC001368591C11608F4A8C49D05401228E4B81
:1054FC001A7000231A465A5401331E2BFBD18B4BC6
:10550C00E4E70028E3D0894A844913781C2BC8545B
:10551C00DDD801331370DAE70E28D8D8DFE810F0A5
:10552C000F0015008F008F002F0034003A007A0016
:10553C0091009A00A900AE00B000BE00F500022355
:10554C00F1222370774B1A7080E00023784A237085
:10555C001360FBF733F9F121714C724B2268050A89
:10556C009954012113449870DD70050C000E59708C
:10557C001D7158716C4B063222601970A7E7062317
:10558C002370684BF122A1E7072300222370684B9C
:10559C001A60F6E7F123624E624831685E4F43545D
:1055AC00062342185370634BFD78D3F834E001F1B5
:1055BC00020CBEF1004F14BF4FF0000E4FF0100E56
:1055CC00754400F80C50DD6801F1070CD570DD68EE
:1055DC000C312D0A1571DD6831602D0C5571DD68AB
:1055EC002D0E95713D799F6BB7F1004F14BF0027BD
:1055FC0010273D4400F80C50186910721869000A05
:10560C00507218691B69000C1B0E9072D372464BBA
:10561C00012213E0F1224248424B016817255A54EB
:10562C0007220B445A7057229A7001221D71DA70AE
:10563C005A719A710831DA713B4B01601A70002370
:10564C003CE7F122374B1A700A2323700022384BA7
:10565C001A603CE7F1203249324B0A689854092011
:10566C001344043258700A60DE20AD229870DA7050
:10567C00CDE7F1222B4B1A700B23E6E70C235FE7E7
:10568C00F1202749274B0A6898540C201344033205
:10569C000A60284A587012799A70B8E7F122214BA7
:1056AC001D481A700D225A70224A4179D56BB5F1FA
:1056BC00004F14BF00251025294499705169D970E9
:1056CC005169090A19715169090C59715169090E0D
:1056DC0099718179106CB0F1004F14BF002010202B
:1056EC000144D971916919729169090A59729169C8
:1056FC009269090C120EDA72002299721A735A739B
:10570C009A73DA731A742270E1E60D233DE700BF39
:10571C00000100200801002068010020EC0100209D
:10572C0050010020F821002045010020F00000204D
:10573C000C010020580D0020954F964A3B681A44E6
:10574C005070052B2ED8DFE803F003060C111F2335
:10575C00914B186018E0904A136843EA00201060DF
:10576C0012E08D4A136843EA0040F8E78A4A13684E
:10577C0043EA00600028B4BF042300231060BCBFC0
:10578C0020F00040506093603B6801333B609EE624
:10579C0000F00F00082888BF08227F4B94BF1861C7
:1057AC001A61F1E77C4D2A6906329A4203D97B4A89
:1057BC0013449876E8E7002601224FF4004178481C
:1057CC002670FBF7B1FEEE60764E774B32462946DB
:1057DC007648FBF75FF90028D6D1FAF7EFFF0123E3
:1057EC0033722B69A6F1100C46F80C3C6B6846F82A
:1057FC00200C46F8183C2B68A6F1200446F81C3CFB
:10580C00EB6846F8103CAB686D4646F8143CBCE8B7
:10581C000F000FC596E80F0085E80F0094E80F0005
:10582C00FEF730FCB0E75B4B587008E7584F3B680D
:10583C00072BA9D8DFE803F00406080A0406084081
:10584C005B4B86E75A4A87E7594A8BE7584D594CC8
:10585C002B6843EA0060286010B3FEF7E5FE2A6867
:10586C00554BC2F31301002AD9601CDA02F0C04177
:10587C00B1F1C04F0BD10122E2704FF000425A63DC
:10588C000222227000221A72FFF760F87CE75000A7
:10589C0006D501220221E270002221705A63F2E740
:1058AC000023E37070E70222227000225A631A72FE
:1058BC00FFF74CF80123F4E7DFF8F4903D4DD9F8ED
:1058CC00003043EA0060C9F8000068B33A4E95F81E
:1058DC000380C0F313003061B8F1000F14D1FEF750
:1058EC00A3FED9F80030002B21DA03F0C042B2F14C
:1058FC00C04F12D101234FF000422B71B263022230
:10590C002A703372FFF722F800232C4A23700C21E3
:10591C0008232B4800F0B2FA36E7590004D50123CE
:10592C00C6F838802B71EAE700232B71ECE7C6F838
:10593C00388002234FF001082B7086F80880FFF79F
:10594C0005F885F80480DFE7114A12491368013322
:10595C00C8541360BBE50E4D2B680B2B09D8DFE840
:10596C0003F0060C1231060C1267060C129C104B3D
:10597C0018602B6801332B60A9E50D4A136843EAC4
:10598C0000201060F5E70A4A136843EA0040F8E784
:10599C000C010020F821002098010020B00100200B
:1059AC0000080140D0010020E4010020081900206B
:1059BC00F400002068010020580D0020640D002028
:1059CC0038340020394F3A4C3B6843EA0060386069
:1059DC0010B3E378002BCCD12679002EC9D1FEF779
:1059EC0023FE3B68002B1ADA03F0C042B2F1C04F21
:1059FC000BD101234FF0004263712E4BDA6302226C
:105A0C0022701A72FEF7A2FFB3E75A0004D50123E5
:105A1C006371284BDE63F2E700236371A9E702226E
:105A2C00244B2270DE631A72FEF790FF0123F4E719
:105A3C001E4F1F4C3B6843EA0060386000B3E378AC
:105A4C00002B96D1A688002E93D1FEF7EDFD3B6876
:105A5C00002B18DA03F0C042B2F1C04F09D1012378
:105A6C004FF00042A371134B1A64022222700322DE
:105A7C00C7E75B0004D50123A3710E4B1E64F4E74A
:105A8C000023A37175E7022303222370094B1E64C4
:105A9C001A72FEF75BFF0123F3E7044A136843EA2B
:105AAC00006000231060237063E700BFF400002047
:105ABC0068010020580D0020054A137A0133DBB22F
:105ACC001372137A032B84BF00231372FEF73EBFAD
